{
	"Contracts/ContractDoctor.sol": {
		"Doctor": {
			"abi": [
				{
					"inputs": [
						{
							"internalType": "address",
							"name": "_patientContract",
							"type": "address"
						}
					],
					"stateMutability": "nonpayable",
					"type": "constructor"
				},
				{
					"anonymous": false,
					"inputs": [
						{
							"indexed": true,
							"internalType": "address",
							"name": "doctorAddress",
							"type": "address"
						},
						{
							"indexed": false,
							"internalType": "string",
							"name": "name",
							"type": "string"
						}
					],
					"name": "DoctorRegistered",
					"type": "event"
				},
				{
					"anonymous": false,
					"inputs": [
						{
							"indexed": true,
							"internalType": "address",
							"name": "patientAddress",
							"type": "address"
						},
						{
							"indexed": false,
							"internalType": "string",
							"name": "recordHash",
							"type": "string"
						},
						{
							"indexed": false,
							"internalType": "address",
							"name": "updatedBy",
							"type": "address"
						},
						{
							"indexed": false,
							"internalType": "uint256",
							"name": "timestamp",
							"type": "uint256"
						}
					],
					"name": "RecordUpdated",
					"type": "event"
				},
				{
					"inputs": [
						{
							"internalType": "address",
							"name": "_patientAddress",
							"type": "address"
						},
						{
							"internalType": "string",
							"name": "_recordHash",
							"type": "string"
						}
					],
					"name": "addRecordForPatient",
					"outputs": [],
					"stateMutability": "nonpayable",
					"type": "function"
				},
				{
					"inputs": [
						{
							"internalType": "address",
							"name": "",
							"type": "address"
						}
					],
					"name": "doctors",
					"outputs": [
						{
							"internalType": "address",
							"name": "doctorAddress",
							"type": "address"
						},
						{
							"internalType": "string",
							"name": "name",
							"type": "string"
						},
						{
							"internalType": "bool",
							"name": "isRegistered",
							"type": "bool"
						}
					],
					"stateMutability": "view",
					"type": "function"
				},
				{
					"inputs": [],
					"name": "patientContract",
					"outputs": [
						{
							"internalType": "contract Patient",
							"name": "",
							"type": "address"
						}
					],
					"stateMutability": "view",
					"type": "function"
				},
				{
					"inputs": [
						{
							"internalType": "address",
							"name": "_doctorAddress",
							"type": "address"
						},
						{
							"internalType": "string",
							"name": "_name",
							"type": "string"
						}
					],
					"name": "registerDoctor",
					"outputs": [],
					"stateMutability": "nonpayable",
					"type": "function"
				}
			],
			"devdoc": {
				"kind": "dev",
				"methods": {},
				"version": 1
			},
			"evm": {
				"assembly": "    /* \"Contracts/ContractDoctor.sol\":90:2457  contract Doctor {... */\n  mstore(0x40, 0x80)\n    /* \"Contracts/ContractDoctor.sol\":901:1088  constructor(address _patientContract) {... */\n  callvalue\n  dup1\n  iszero\n  tag_1\n  jumpi\n  0x00\n  dup1\n  revert\ntag_1:\n  pop\n  mload(0x40)\n  sub(codesize, bytecodeSize)\n  dup1\n  bytecodeSize\n  dup4\n  codecopy\n  dup2\n  dup2\n  add\n  0x40\n  mstore\n  dup2\n  add\n  swap1\n  tag_2\n  swap2\n  swap1\n  tag_3\n  jump\t// in\ntag_2:\n    /* \"Contracts/ContractDoctor.sol\":985:986  0 */\n  0x00\n    /* \"Contracts/ContractDoctor.sol\":957:987  _patientContract != address(0) */\n  0xffffffffffffffffffffffffffffffffffffffff\n  and\n    /* \"Contracts/ContractDoctor.sol\":957:973  _patientContract */\n  dup2\n    /* \"Contracts/ContractDoctor.sol\":957:987  _patientContract != address(0) */\n  0xffffffffffffffffffffffffffffffffffffffff\n  and\n  sub\n    /* \"Contracts/ContractDoctor.sol\":949:1028  require(_patientContract != address(0), \"Adresse du contrat Patient invalide.\") */\n  tag_6\n  jumpi\n  mload(0x40)\n  0x08c379a000000000000000000000000000000000000000000000000000000000\n  dup2\n  mstore\n  0x04\n  add\n  tag_7\n  swap1\n  tag_8\n  jump\t// in\ntag_7:\n  mload(0x40)\n  dup1\n  swap2\n  sub\n  swap1\n  revert\ntag_6:\n    /* \"Contracts/ContractDoctor.sol\":1064:1080  _patientContract */\n  dup1\n    /* \"Contracts/ContractDoctor.sol\":1038:1053  patientContract */\n  0x01\n  0x00\n    /* \"Contracts/ContractDoctor.sol\":1038:1081  patientContract = Patient(_patientContract) */\n  0x0100\n  exp\n  dup2\n  sload\n  dup2\n  0xffffffffffffffffffffffffffffffffffffffff\n  mul\n  not\n  and\n  swap1\n  dup4\n  0xffffffffffffffffffffffffffffffffffffffff\n  and\n  mul\n  or\n  swap1\n  sstore\n  pop\n    /* \"Contracts/ContractDoctor.sol\":901:1088  constructor(address _patientContract) {... */\n  pop\n    /* \"Contracts/ContractDoctor.sol\":90:2457  contract Doctor {... */\n  jump(tag_9)\n    /* \"#utility.yul\":88:205   */\ntag_11:\n    /* \"#utility.yul\":197:198   */\n  0x00\n    /* \"#utility.yul\":194:195   */\n  dup1\n    /* \"#utility.yul\":187:199   */\n  revert\n    /* \"#utility.yul\":334:460   */\ntag_13:\n    /* \"#utility.yul\":371:378   */\n  0x00\n    /* \"#utility.yul\":411:453   */\n  0xffffffffffffffffffffffffffffffffffffffff\n    /* \"#utility.yul\":404:409   */\n  dup3\n    /* \"#utility.yul\":400:454   */\n  and\n    /* \"#utility.yul\":389:454   */\n  swap1\n  pop\n    /* \"#utility.yul\":334:460   */\n  swap2\n  swap1\n  pop\n  jump\t// out\n    /* \"#utility.yul\":466:562   */\ntag_14:\n    /* \"#utility.yul\":503:510   */\n  0x00\n    /* \"#utility.yul\":532:556   */\n  tag_26\n    /* \"#utility.yul\":550:555   */\n  dup3\n    /* \"#utility.yul\":532:556   */\n  tag_13\n  jump\t// in\ntag_26:\n    /* \"#utility.yul\":521:556   */\n  swap1\n  pop\n    /* \"#utility.yul\":466:562   */\n  swap2\n  swap1\n  pop\n  jump\t// out\n    /* \"#utility.yul\":568:690   */\ntag_15:\n    /* \"#utility.yul\":641:665   */\n  tag_28\n    /* \"#utility.yul\":659:664   */\n  dup2\n    /* \"#utility.yul\":641:665   */\n  tag_14\n  jump\t// in\ntag_28:\n    /* \"#utility.yul\":634:639   */\n  dup2\n    /* \"#utility.yul\":631:666   */\n  eq\n    /* \"#utility.yul\":621:684   */\n  tag_29\n  jumpi\n    /* \"#utility.yul\":680:681   */\n  0x00\n    /* \"#utility.yul\":677:678   */\n  dup1\n    /* \"#utility.yul\":670:682   */\n  revert\n    /* \"#utility.yul\":621:684   */\ntag_29:\n    /* \"#utility.yul\":568:690   */\n  pop\n  jump\t// out\n    /* \"#utility.yul\":696:839   */\ntag_16:\n    /* \"#utility.yul\":753:758   */\n  0x00\n    /* \"#utility.yul\":784:790   */\n  dup2\n    /* \"#utility.yul\":778:791   */\n  mload\n    /* \"#utility.yul\":769:791   */\n  swap1\n  pop\n    /* \"#utility.yul\":800:833   */\n  tag_31\n    /* \"#utility.yul\":827:832   */\n  dup2\n    /* \"#utility.yul\":800:833   */\n  tag_15\n  jump\t// in\ntag_31:\n    /* \"#utility.yul\":696:839   */\n  swap3\n  swap2\n  pop\n  pop\n  jump\t// out\n    /* \"#utility.yul\":845:1196   */\ntag_3:\n    /* \"#utility.yul\":915:921   */\n  0x00\n    /* \"#utility.yul\":964:966   */\n  0x20\n    /* \"#utility.yul\":952:961   */\n  dup3\n    /* \"#utility.yul\":943:950   */\n  dup5\n    /* \"#utility.yul\":939:962   */\n  sub\n    /* \"#utility.yul\":935:967   */\n  slt\n    /* \"#utility.yul\":932:1051   */\n  iszero\n  tag_33\n  jumpi\n    /* \"#utility.yul\":970:1049   */\n  tag_34\n  tag_11\n  jump\t// in\ntag_34:\n    /* \"#utility.yul\":932:1051   */\ntag_33:\n    /* \"#utility.yul\":1090:1091   */\n  0x00\n    /* \"#utility.yul\":1115:1179   */\n  tag_35\n    /* \"#utility.yul\":1171:1178   */\n  dup5\n    /* \"#utility.yul\":1162:1168   */\n  dup3\n    /* \"#utility.yul\":1151:1160   */\n  dup6\n    /* \"#utility.yul\":1147:1169   */\n  add\n    /* \"#utility.yul\":1115:1179   */\n  tag_16\n  jump\t// in\ntag_35:\n    /* \"#utility.yul\":1105:1179   */\n  swap2\n  pop\n    /* \"#utility.yul\":1061:1189   */\n  pop\n    /* \"#utility.yul\":845:1196   */\n  swap3\n  swap2\n  pop\n  pop\n  jump\t// out\n    /* \"#utility.yul\":1202:1371   */\ntag_17:\n    /* \"#utility.yul\":1286:1297   */\n  0x00\n    /* \"#utility.yul\":1320:1326   */\n  dup3\n    /* \"#utility.yul\":1315:1318   */\n  dup3\n    /* \"#utility.yul\":1308:1327   */\n  mstore\n    /* \"#utility.yul\":1360:1364   */\n  0x20\n    /* \"#utility.yul\":1355:1358   */\n  dup3\n    /* \"#utility.yul\":1351:1365   */\n  add\n    /* \"#utility.yul\":1336:1365   */\n  swap1\n  pop\n    /* \"#utility.yul\":1202:1371   */\n  swap3\n  swap2\n  pop\n  pop\n  jump\t// out\n    /* \"#utility.yul\":1377:1600   */\ntag_18:\n    /* \"#utility.yul\":1517:1551   */\n  0x4164726573736520647520636f6e747261742050617469656e7420696e76616c\n    /* \"#utility.yul\":1513:1514   */\n  0x00\n    /* \"#utility.yul\":1505:1511   */\n  dup3\n    /* \"#utility.yul\":1501:1515   */\n  add\n    /* \"#utility.yul\":1494:1552   */\n  mstore\n    /* \"#utility.yul\":1586:1592   */\n  0x6964652e00000000000000000000000000000000000000000000000000000000\n    /* \"#utility.yul\":1581:1583   */\n  0x20\n    /* \"#utility.yul\":1573:1579   */\n  dup3\n    /* \"#utility.yul\":1569:1584   */\n  add\n    /* \"#utility.yul\":1562:1593   */\n  mstore\n    /* \"#utility.yul\":1377:1600   */\n  pop\n  jump\t// out\n    /* \"#utility.yul\":1606:1972   */\ntag_19:\n    /* \"#utility.yul\":1748:1751   */\n  0x00\n    /* \"#utility.yul\":1769:1836   */\n  tag_39\n    /* \"#utility.yul\":1833:1835   */\n  0x24\n    /* \"#utility.yul\":1828:1831   */\n  dup4\n    /* \"#utility.yul\":1769:1836   */\n  tag_17\n  jump\t// in\ntag_39:\n    /* \"#utility.yul\":1762:1836   */\n  swap2\n  pop\n    /* \"#utility.yul\":1845:1938   */\n  tag_40\n    /* \"#utility.yul\":1934:1937   */\n  dup3\n    /* \"#utility.yul\":1845:1938   */\n  tag_18\n  jump\t// in\ntag_40:\n    /* \"#utility.yul\":1963:1965   */\n  0x40\n    /* \"#utility.yul\":1958:1961   */\n  dup3\n    /* \"#utility.yul\":1954:1966   */\n  add\n    /* \"#utility.yul\":1947:1966   */\n  swap1\n  pop\n    /* \"#utility.yul\":1606:1972   */\n  swap2\n  swap1\n  pop\n  jump\t// out\n    /* \"#utility.yul\":1978:2397   */\ntag_8:\n    /* \"#utility.yul\":2144:2148   */\n  0x00\n    /* \"#utility.yul\":2182:2184   */\n  0x20\n    /* \"#utility.yul\":2171:2180   */\n  dup3\n    /* \"#utility.yul\":2167:2185   */\n  add\n    /* \"#utility.yul\":2159:2185   */\n  swap1\n  pop\n    /* \"#utility.yul\":2231:2240   */\n  dup2\n    /* \"#utility.yul\":2225:2229   */\n  dup2\n    /* \"#utility.yul\":2221:2241   */\n  sub\n    /* \"#utility.yul\":2217:2218   */\n  0x00\n    /* \"#utility.yul\":2206:2215   */\n  dup4\n    /* \"#utility.yul\":2202:2219   */\n  add\n    /* \"#utility.yul\":2195:2242   */\n  mstore\n    /* \"#utility.yul\":2259:2390   */\n  tag_42\n    /* \"#utility.yul\":2385:2389   */\n  dup2\n    /* \"#utility.yul\":2259:2390   */\n  tag_19\n  jump\t// in\ntag_42:\n    /* \"#utility.yul\":2251:2390   */\n  swap1\n  pop\n    /* \"#utility.yul\":1978:2397   */\n  swap2\n  swap1\n  pop\n  jump\t// out\n    /* \"Contracts/ContractDoctor.sol\":90:2457  contract Doctor {... */\ntag_9:\n  dataSize(sub_0)\n  dup1\n  dataOffset(sub_0)\n  0x00\n  codecopy\n  0x00\n  return\nstop\n\nsub_0: assembly {\n        /* \"Contracts/ContractDoctor.sol\":90:2457  contract Doctor {... */\n      mstore(0x40, 0x80)\n      callvalue\n      dup1\n      iszero\n      tag_1\n      jumpi\n      0x00\n      dup1\n      revert\n    tag_1:\n      pop\n      jumpi(tag_2, lt(calldatasize, 0x04))\n      shr(0xe0, calldataload(0x00))\n      dup1\n      0xa6ca8293\n      eq\n      tag_3\n      jumpi\n      dup1\n      0xa9583c22\n      eq\n      tag_4\n      jumpi\n      dup1\n      0xf2ca0b41\n      eq\n      tag_5\n      jumpi\n      dup1\n      0xf6e8e18f\n      eq\n      tag_6\n      jumpi\n    tag_2:\n      0x00\n      dup1\n      revert\n        /* \"Contracts/ContractDoctor.sol\":1667:2454  function addRecordForPatient(address _patientAddress, string memory _recordHash)... */\n    tag_3:\n      tag_7\n      0x04\n      dup1\n      calldatasize\n      sub\n      dup2\n      add\n      swap1\n      tag_8\n      swap2\n      swap1\n      tag_9\n      jump\t// in\n    tag_8:\n      tag_10\n      jump\t// in\n    tag_7:\n      stop\n        /* \"Contracts/ContractDoctor.sol\":222:267  mapping(address => DoctorData) public doctors */\n    tag_4:\n      tag_11\n      0x04\n      dup1\n      calldatasize\n      sub\n      dup2\n      add\n      swap1\n      tag_12\n      swap2\n      swap1\n      tag_13\n      jump\t// in\n    tag_12:\n      tag_14\n      jump\t// in\n    tag_11:\n      mload(0x40)\n      tag_15\n      swap4\n      swap3\n      swap2\n      swap1\n      tag_16\n      jump\t// in\n    tag_15:\n      mload(0x40)\n      dup1\n      swap2\n      sub\n      swap1\n      return\n        /* \"Contracts/ContractDoctor.sol\":1138:1598  function registerDoctor(address _doctorAddress, string memory _name) public {... */\n    tag_5:\n      tag_17\n      0x04\n      dup1\n      calldatasize\n      sub\n      dup2\n      add\n      swap1\n      tag_18\n      swap2\n      swap1\n      tag_9\n      jump\t// in\n    tag_18:\n      tag_19\n      jump\t// in\n    tag_17:\n      stop\n        /* \"Contracts/ContractDoctor.sol\":308:338  Patient public patientContract */\n    tag_6:\n      tag_20\n      tag_21\n      jump\t// in\n    tag_20:\n      mload(0x40)\n      tag_22\n      swap2\n      swap1\n      tag_23\n      jump\t// in\n    tag_22:\n      mload(0x40)\n      dup1\n      swap2\n      sub\n      swap1\n      return\n        /* \"Contracts/ContractDoctor.sol\":1667:2454  function addRecordForPatient(address _patientAddress, string memory _recordHash)... */\n    tag_10:\n        /* \"Contracts/ContractDoctor.sol\":746:753  doctors */\n      0x00\n        /* \"Contracts/ContractDoctor.sol\":746:765  doctors[msg.sender] */\n      dup1\n        /* \"Contracts/ContractDoctor.sol\":754:764  msg.sender */\n      caller\n        /* \"Contracts/ContractDoctor.sol\":746:765  doctors[msg.sender] */\n      0xffffffffffffffffffffffffffffffffffffffff\n      and\n      0xffffffffffffffffffffffffffffffffffffffff\n      and\n      dup2\n      mstore\n      0x20\n      add\n      swap1\n      dup2\n      mstore\n      0x20\n      add\n      0x00\n      keccak256\n        /* \"Contracts/ContractDoctor.sol\":746:778  doctors[msg.sender].isRegistered */\n      0x02\n      add\n      0x00\n      swap1\n      sload\n      swap1\n      0x0100\n      exp\n      swap1\n      div\n      0xff\n      and\n        /* \"Contracts/ContractDoctor.sol\":738:821  require(doctors[msg.sender].isRegistered, \"Vous devez etre un docteur enregistre.\") */\n      tag_25\n      jumpi\n      mload(0x40)\n      0x08c379a000000000000000000000000000000000000000000000000000000000\n      dup2\n      mstore\n      0x04\n      add\n      tag_26\n      swap1\n      tag_27\n      jump\t// in\n    tag_26:\n      mload(0x40)\n      dup1\n      swap2\n      sub\n      swap1\n      revert\n    tag_25:\n        /* \"Contracts/ContractDoctor.sol\":1825:1826  0 */\n      0x00\n        /* \"Contracts/ContractDoctor.sol\":1798:1827  _patientAddress != address(0) */\n      0xffffffffffffffffffffffffffffffffffffffff\n      and\n        /* \"Contracts/ContractDoctor.sol\":1798:1813  _patientAddress */\n      dup3\n        /* \"Contracts/ContractDoctor.sol\":1798:1827  _patientAddress != address(0) */\n      0xffffffffffffffffffffffffffffffffffffffff\n      and\n      sub\n        /* \"Contracts/ContractDoctor.sol\":1790:1860  require(_patientAddress != address(0), \"Adresse du patient invalide.\") */\n      tag_29\n      jumpi\n      mload(0x40)\n      0x08c379a000000000000000000000000000000000000000000000000000000000\n      dup2\n      mstore\n      0x04\n      add\n      tag_30\n      swap1\n      tag_31\n      jump\t// in\n    tag_30:\n      mload(0x40)\n      dup1\n      swap2\n      sub\n      swap1\n      revert\n    tag_29:\n        /* \"Contracts/ContractDoctor.sol\":1902:1903  0 */\n      0x00\n        /* \"Contracts/ContractDoctor.sol\":1880:1891  _recordHash */\n      dup2\n        /* \"Contracts/ContractDoctor.sol\":1874:1899  bytes(_recordHash).length */\n      mload\n        /* \"Contracts/ContractDoctor.sol\":1874:1903  bytes(_recordHash).length > 0 */\n      gt\n        /* \"Contracts/ContractDoctor.sol\":1866:1941  require(bytes(_recordHash).length > 0, \"Hash du dossier medical invalide.\") */\n      tag_32\n      jumpi\n      mload(0x40)\n      0x08c379a000000000000000000000000000000000000000000000000000000000\n      dup2\n      mstore\n      0x04\n      add\n      tag_33\n      swap1\n      tag_34\n      jump\t// in\n    tag_33:\n      mload(0x40)\n      dup1\n      swap2\n      sub\n      swap1\n      revert\n    tag_32:\n        /* \"Contracts/ContractDoctor.sol\":2025:2040  patientContract */\n      0x01\n      0x00\n      swap1\n      sload\n      swap1\n      0x0100\n      exp\n      swap1\n      div\n      0xffffffffffffffffffffffffffffffffffffffff\n      and\n        /* \"Contracts/ContractDoctor.sol\":2025:2059  patientContract.isDoctorAuthorized */\n      0xffffffffffffffffffffffffffffffffffffffff\n      and\n      0x57834a1d\n        /* \"Contracts/ContractDoctor.sol\":2060:2075  _patientAddress */\n      dup4\n        /* \"Contracts/ContractDoctor.sol\":2077:2088  _recordHash */\n      dup4\n        /* \"Contracts/ContractDoctor.sol\":2090:2100  msg.sender */\n      caller\n        /* \"Contracts/ContractDoctor.sol\":2025:2101  patientContract.isDoctorAuthorized(_patientAddress, _recordHash, msg.sender) */\n      mload(0x40)\n      dup5\n      0xffffffff\n      and\n      0xe0\n      shl\n      dup2\n      mstore\n      0x04\n      add\n      tag_35\n      swap4\n      swap3\n      swap2\n      swap1\n      tag_36\n      jump\t// in\n    tag_35:\n      0x20\n      mload(0x40)\n      dup1\n      dup4\n      sub\n      dup2\n      dup7\n      gas\n      staticcall\n      iszero\n      dup1\n      iszero\n      tag_38\n      jumpi\n      returndatasize\n      0x00\n      dup1\n      returndatacopy\n      revert(0x00, returndatasize)\n    tag_38:\n      pop\n      pop\n      pop\n      pop\n      mload(0x40)\n      returndatasize\n      not(0x1f)\n      0x1f\n      dup3\n      add\n      and\n      dup3\n      add\n      dup1\n      0x40\n      mstore\n      pop\n      dup2\n      add\n      swap1\n      tag_39\n      swap2\n      swap1\n      tag_40\n      jump\t// in\n    tag_39:\n        /* \"Contracts/ContractDoctor.sol\":2008:2155  require(... */\n      tag_41\n      jumpi\n      mload(0x40)\n      0x08c379a000000000000000000000000000000000000000000000000000000000\n      dup2\n      mstore\n      0x04\n      add\n      tag_42\n      swap1\n      tag_43\n      jump\t// in\n    tag_42:\n      mload(0x40)\n      dup1\n      swap2\n      sub\n      swap1\n      revert\n    tag_41:\n        /* \"Contracts/ContractDoctor.sol\":2393:2408  _patientAddress */\n      dup2\n        /* \"Contracts/ContractDoctor.sol\":2379:2451  RecordUpdated(_patientAddress, _recordHash, msg.sender, block.timestamp) */\n      0xffffffffffffffffffffffffffffffffffffffff\n      and\n      0xfebb0c340d90ba7ece9dabf4d4b0ff5db95f5d6101ebd8c22ee275ab4d1f7b45\n        /* \"Contracts/ContractDoctor.sol\":2410:2421  _recordHash */\n      dup3\n        /* \"Contracts/ContractDoctor.sol\":2423:2433  msg.sender */\n      caller\n        /* \"Contracts/ContractDoctor.sol\":2435:2450  block.timestamp */\n      timestamp\n        /* \"Contracts/ContractDoctor.sol\":2379:2451  RecordUpdated(_patientAddress, _recordHash, msg.sender, block.timestamp) */\n      mload(0x40)\n      tag_44\n      swap4\n      swap3\n      swap2\n      swap1\n      tag_45\n      jump\t// in\n    tag_44:\n      mload(0x40)\n      dup1\n      swap2\n      sub\n      swap1\n      log2\n        /* \"Contracts/ContractDoctor.sol\":1667:2454  function addRecordForPatient(address _patientAddress, string memory _recordHash)... */\n      pop\n      pop\n      jump\t// out\n        /* \"Contracts/ContractDoctor.sol\":222:267  mapping(address => DoctorData) public doctors */\n    tag_14:\n      mstore(0x20, 0x00)\n      dup1\n      0x00\n      mstore\n      keccak256(0x00, 0x40)\n      0x00\n      swap2\n      pop\n      swap1\n      pop\n      dup1\n      0x00\n      add\n      0x00\n      swap1\n      sload\n      swap1\n      0x0100\n      exp\n      swap1\n      div\n      0xffffffffffffffffffffffffffffffffffffffff\n      and\n      swap1\n      dup1\n      0x01\n      add\n      dup1\n      sload\n      tag_46\n      swap1\n      tag_47\n      jump\t// in\n    tag_46:\n      dup1\n      0x1f\n      add\n      0x20\n      dup1\n      swap2\n      div\n      mul\n      0x20\n      add\n      mload(0x40)\n      swap1\n      dup2\n      add\n      0x40\n      mstore\n      dup1\n      swap3\n      swap2\n      swap1\n      dup2\n      dup2\n      mstore\n      0x20\n      add\n      dup3\n      dup1\n      sload\n      tag_48\n      swap1\n      tag_47\n      jump\t// in\n    tag_48:\n      dup1\n      iszero\n      tag_49\n      jumpi\n      dup1\n      0x1f\n      lt\n      tag_50\n      jumpi\n      0x0100\n      dup1\n      dup4\n      sload\n      div\n      mul\n      dup4\n      mstore\n      swap2\n      0x20\n      add\n      swap2\n      jump(tag_49)\n    tag_50:\n      dup3\n      add\n      swap2\n      swap1\n      0x00\n      mstore\n      keccak256(0x00, 0x20)\n      swap1\n    tag_51:\n      dup2\n      sload\n      dup2\n      mstore\n      swap1\n      0x01\n      add\n      swap1\n      0x20\n      add\n      dup1\n      dup4\n      gt\n      tag_51\n      jumpi\n      dup3\n      swap1\n      sub\n      0x1f\n      and\n      dup3\n      add\n      swap2\n    tag_49:\n      pop\n      pop\n      pop\n      pop\n      pop\n      swap1\n      dup1\n      0x02\n      add\n      0x00\n      swap1\n      sload\n      swap1\n      0x0100\n      exp\n      swap1\n      div\n      0xff\n      and\n      swap1\n      pop\n      dup4\n      jump\t// out\n        /* \"Contracts/ContractDoctor.sol\":1138:1598  function registerDoctor(address _doctorAddress, string memory _name) public {... */\n    tag_19:\n        /* \"Contracts/ContractDoctor.sol\":1258:1259  0 */\n      0x00\n        /* \"Contracts/ContractDoctor.sol\":1232:1260  _doctorAddress != address(0) */\n      0xffffffffffffffffffffffffffffffffffffffff\n      and\n        /* \"Contracts/ContractDoctor.sol\":1232:1246  _doctorAddress */\n      dup3\n        /* \"Contracts/ContractDoctor.sol\":1232:1260  _doctorAddress != address(0) */\n      0xffffffffffffffffffffffffffffffffffffffff\n      and\n      sub\n        /* \"Contracts/ContractDoctor.sol\":1224:1293  require(_doctorAddress != address(0), \"Adresse du docteur invalide.\") */\n      tag_53\n      jumpi\n      mload(0x40)\n      0x08c379a000000000000000000000000000000000000000000000000000000000\n      dup2\n      mstore\n      0x04\n      add\n      tag_54\n      swap1\n      tag_55\n      jump\t// in\n    tag_54:\n      mload(0x40)\n      dup1\n      swap2\n      sub\n      swap1\n      revert\n    tag_53:\n        /* \"Contracts/ContractDoctor.sol\":1312:1319  doctors */\n      0x00\n        /* \"Contracts/ContractDoctor.sol\":1312:1335  doctors[_doctorAddress] */\n      dup1\n        /* \"Contracts/ContractDoctor.sol\":1320:1334  _doctorAddress */\n      dup4\n        /* \"Contracts/ContractDoctor.sol\":1312:1335  doctors[_doctorAddress] */\n      0xffffffffffffffffffffffffffffffffffffffff\n      and\n      0xffffffffffffffffffffffffffffffffffffffff\n      and\n      dup2\n      mstore\n      0x20\n      add\n      swap1\n      dup2\n      mstore\n      0x20\n      add\n      0x00\n      keccak256\n        /* \"Contracts/ContractDoctor.sol\":1312:1348  doctors[_doctorAddress].isRegistered */\n      0x02\n      add\n      0x00\n      swap1\n      sload\n      swap1\n      0x0100\n      exp\n      swap1\n      div\n      0xff\n      and\n        /* \"Contracts/ContractDoctor.sol\":1311:1348  !doctors[_doctorAddress].isRegistered */\n      iszero\n        /* \"Contracts/ContractDoctor.sol\":1303:1377  require(!doctors[_doctorAddress].isRegistered, \"Docteur deja enregistre.\") */\n      tag_56\n      jumpi\n      mload(0x40)\n      0x08c379a000000000000000000000000000000000000000000000000000000000\n      dup2\n      mstore\n      0x04\n      add\n      tag_57\n      swap1\n      tag_58\n      jump\t// in\n    tag_57:\n      mload(0x40)\n      dup1\n      swap2\n      sub\n      swap1\n      revert\n    tag_56:\n        /* \"Contracts/ContractDoctor.sol\":1414:1536  DoctorData({... */\n      mload(0x40)\n      dup1\n      0x60\n      add\n      0x40\n      mstore\n      dup1\n        /* \"Contracts/ContractDoctor.sol\":1454:1468  _doctorAddress */\n      dup4\n        /* \"Contracts/ContractDoctor.sol\":1414:1536  DoctorData({... */\n      0xffffffffffffffffffffffffffffffffffffffff\n      and\n      dup2\n      mstore\n      0x20\n      add\n        /* \"Contracts/ContractDoctor.sol\":1488:1493  _name */\n      dup3\n        /* \"Contracts/ContractDoctor.sol\":1414:1536  DoctorData({... */\n      dup2\n      mstore\n      0x20\n      add\n        /* \"Contracts/ContractDoctor.sol\":1521:1525  true */\n      0x01\n        /* \"Contracts/ContractDoctor.sol\":1414:1536  DoctorData({... */\n      iszero\n      iszero\n      dup2\n      mstore\n      pop\n        /* \"Contracts/ContractDoctor.sol\":1388:1395  doctors */\n      0x00\n        /* \"Contracts/ContractDoctor.sol\":1388:1411  doctors[_doctorAddress] */\n      dup1\n        /* \"Contracts/ContractDoctor.sol\":1396:1410  _doctorAddress */\n      dup5\n        /* \"Contracts/ContractDoctor.sol\":1388:1411  doctors[_doctorAddress] */\n      0xffffffffffffffffffffffffffffffffffffffff\n      and\n      0xffffffffffffffffffffffffffffffffffffffff\n      and\n      dup2\n      mstore\n      0x20\n      add\n      swap1\n      dup2\n      mstore\n      0x20\n      add\n      0x00\n      keccak256\n        /* \"Contracts/ContractDoctor.sol\":1388:1536  doctors[_doctorAddress] = DoctorData({... */\n      0x00\n      dup3\n      add\n      mload\n      dup2\n      0x00\n      add\n      exp(0x0100, 0x00)\n      dup2\n      sload\n      dup2\n      0xffffffffffffffffffffffffffffffffffffffff\n      mul\n      not\n      and\n      swap1\n      dup4\n      0xffffffffffffffffffffffffffffffffffffffff\n      and\n      mul\n      or\n      swap1\n      sstore\n      pop\n      0x20\n      dup3\n      add\n      mload\n      dup2\n      0x01\n      add\n      swap1\n      dup2\n      tag_59\n      swap2\n      swap1\n      tag_60\n      jump\t// in\n    tag_59:\n      pop\n      0x40\n      dup3\n      add\n      mload\n      dup2\n      0x02\n      add\n      exp(0x0100, 0x00)\n      dup2\n      sload\n      dup2\n      0xff\n      mul\n      not\n      and\n      swap1\n      dup4\n      iszero\n      iszero\n      mul\n      or\n      swap1\n      sstore\n      pop\n      swap1\n      pop\n      pop\n        /* \"Contracts/ContractDoctor.sol\":1569:1583  _doctorAddress */\n      dup2\n        /* \"Contracts/ContractDoctor.sol\":1552:1591  DoctorRegistered(_doctorAddress, _name) */\n      0xffffffffffffffffffffffffffffffffffffffff\n      and\n      0x20481b8112b5bf4734f45a473c373db9df6a79ce946cdc0e7dbc22b4f7d7f986\n        /* \"Contracts/ContractDoctor.sol\":1585:1590  _name */\n      dup3\n        /* \"Contracts/ContractDoctor.sol\":1552:1591  DoctorRegistered(_doctorAddress, _name) */\n      mload(0x40)\n      tag_61\n      swap2\n      swap1\n      tag_62\n      jump\t// in\n    tag_61:\n      mload(0x40)\n      dup1\n      swap2\n      sub\n      swap1\n      log2\n        /* \"Contracts/ContractDoctor.sol\":1138:1598  function registerDoctor(address _doctorAddress, string memory _name) public {... */\n      pop\n      pop\n      jump\t// out\n        /* \"Contracts/ContractDoctor.sol\":308:338  Patient public patientContract */\n    tag_21:\n      0x01\n      0x00\n      swap1\n      sload\n      swap1\n      0x0100\n      exp\n      swap1\n      div\n      0xffffffffffffffffffffffffffffffffffffffff\n      and\n      dup2\n      jump\t// out\n        /* \"#utility.yul\":7:82   */\n    tag_63:\n        /* \"#utility.yul\":40:46   */\n      0x00\n        /* \"#utility.yul\":73:75   */\n      0x40\n        /* \"#utility.yul\":67:76   */\n      mload\n        /* \"#utility.yul\":57:76   */\n      swap1\n      pop\n        /* \"#utility.yul\":7:82   */\n      swap1\n      jump\t// out\n        /* \"#utility.yul\":88:205   */\n    tag_64:\n        /* \"#utility.yul\":197:198   */\n      0x00\n        /* \"#utility.yul\":194:195   */\n      dup1\n        /* \"#utility.yul\":187:199   */\n      revert\n        /* \"#utility.yul\":211:328   */\n    tag_65:\n        /* \"#utility.yul\":320:321   */\n      0x00\n        /* \"#utility.yul\":317:318   */\n      dup1\n        /* \"#utility.yul\":310:322   */\n      revert\n        /* \"#utility.yul\":334:460   */\n    tag_66:\n        /* \"#utility.yul\":371:378   */\n      0x00\n        /* \"#utility.yul\":411:453   */\n      0xffffffffffffffffffffffffffffffffffffffff\n        /* \"#utility.yul\":404:409   */\n      dup3\n        /* \"#utility.yul\":400:454   */\n      and\n        /* \"#utility.yul\":389:454   */\n      swap1\n      pop\n        /* \"#utility.yul\":334:460   */\n      swap2\n      swap1\n      pop\n      jump\t// out\n        /* \"#utility.yul\":466:562   */\n    tag_67:\n        /* \"#utility.yul\":503:510   */\n      0x00\n        /* \"#utility.yul\":532:556   */\n      tag_129\n        /* \"#utility.yul\":550:555   */\n      dup3\n        /* \"#utility.yul\":532:556   */\n      tag_66\n      jump\t// in\n    tag_129:\n        /* \"#utility.yul\":521:556   */\n      swap1\n      pop\n        /* \"#utility.yul\":466:562   */\n      swap2\n      swap1\n      pop\n      jump\t// out\n        /* \"#utility.yul\":568:690   */\n    tag_68:\n        /* \"#utility.yul\":641:665   */\n      tag_131\n        /* \"#utility.yul\":659:664   */\n      dup2\n        /* \"#utility.yul\":641:665   */\n      tag_67\n      jump\t// in\n    tag_131:\n        /* \"#utility.yul\":634:639   */\n      dup2\n        /* \"#utility.yul\":631:666   */\n      eq\n        /* \"#utility.yul\":621:684   */\n      tag_132\n      jumpi\n        /* \"#utility.yul\":680:681   */\n      0x00\n        /* \"#utility.yul\":677:678   */\n      dup1\n        /* \"#utility.yul\":670:682   */\n      revert\n        /* \"#utility.yul\":621:684   */\n    tag_132:\n        /* \"#utility.yul\":568:690   */\n      pop\n      jump\t// out\n        /* \"#utility.yul\":696:835   */\n    tag_69:\n        /* \"#utility.yul\":742:747   */\n      0x00\n        /* \"#utility.yul\":780:786   */\n      dup2\n        /* \"#utility.yul\":767:787   */\n      calldataload\n        /* \"#utility.yul\":758:787   */\n      swap1\n      pop\n        /* \"#utility.yul\":796:829   */\n      tag_134\n        /* \"#utility.yul\":823:828   */\n      dup2\n        /* \"#utility.yul\":796:829   */\n      tag_68\n      jump\t// in\n    tag_134:\n        /* \"#utility.yul\":696:835   */\n      swap3\n      swap2\n      pop\n      pop\n      jump\t// out\n        /* \"#utility.yul\":841:958   */\n    tag_70:\n        /* \"#utility.yul\":950:951   */\n      0x00\n        /* \"#utility.yul\":947:948   */\n      dup1\n        /* \"#utility.yul\":940:952   */\n      revert\n        /* \"#utility.yul\":964:1081   */\n    tag_71:\n        /* \"#utility.yul\":1073:1074   */\n      0x00\n        /* \"#utility.yul\":1070:1071   */\n      dup1\n        /* \"#utility.yul\":1063:1075   */\n      revert\n        /* \"#utility.yul\":1087:1189   */\n    tag_72:\n        /* \"#utility.yul\":1128:1134   */\n      0x00\n        /* \"#utility.yul\":1179:1181   */\n      0x1f\n        /* \"#utility.yul\":1175:1182   */\n      not\n        /* \"#utility.yul\":1170:1172   */\n      0x1f\n        /* \"#utility.yul\":1163:1168   */\n      dup4\n        /* \"#utility.yul\":1159:1173   */\n      add\n        /* \"#utility.yul\":1155:1183   */\n      and\n        /* \"#utility.yul\":1145:1183   */\n      swap1\n      pop\n        /* \"#utility.yul\":1087:1189   */\n      swap2\n      swap1\n      pop\n      jump\t// out\n        /* \"#utility.yul\":1195:1375   */\n    tag_73:\n        /* \"#utility.yul\":1243:1320   */\n      0x4e487b7100000000000000000000000000000000000000000000000000000000\n        /* \"#utility.yul\":1240:1241   */\n      0x00\n        /* \"#utility.yul\":1233:1321   */\n      mstore\n        /* \"#utility.yul\":1340:1344   */\n      0x41\n        /* \"#utility.yul\":1337:1338   */\n      0x04\n        /* \"#utility.yul\":1330:1345   */\n      mstore\n        /* \"#utility.yul\":1364:1368   */\n      0x24\n        /* \"#utility.yul\":1361:1362   */\n      0x00\n        /* \"#utility.yul\":1354:1369   */\n      revert\n        /* \"#utility.yul\":1381:1662   */\n    tag_74:\n        /* \"#utility.yul\":1464:1491   */\n      tag_140\n        /* \"#utility.yul\":1486:1490   */\n      dup3\n        /* \"#utility.yul\":1464:1491   */\n      tag_72\n      jump\t// in\n    tag_140:\n        /* \"#utility.yul\":1456:1462   */\n      dup2\n        /* \"#utility.yul\":1452:1492   */\n      add\n        /* \"#utility.yul\":1594:1600   */\n      dup2\n        /* \"#utility.yul\":1582:1592   */\n      dup2\n        /* \"#utility.yul\":1579:1601   */\n      lt\n        /* \"#utility.yul\":1558:1576   */\n      0xffffffffffffffff\n        /* \"#utility.yul\":1546:1556   */\n      dup3\n        /* \"#utility.yul\":1543:1577   */\n      gt\n        /* \"#utility.yul\":1540:1602   */\n      or\n        /* \"#utility.yul\":1537:1625   */\n      iszero\n      tag_141\n      jumpi\n        /* \"#utility.yul\":1605:1623   */\n      tag_142\n      tag_73\n      jump\t// in\n    tag_142:\n        /* \"#utility.yul\":1537:1625   */\n    tag_141:\n        /* \"#utility.yul\":1645:1655   */\n      dup1\n        /* \"#utility.yul\":1641:1643   */\n      0x40\n        /* \"#utility.yul\":1634:1656   */\n      mstore\n        /* \"#utility.yul\":1424:1662   */\n      pop\n        /* \"#utility.yul\":1381:1662   */\n      pop\n      pop\n      jump\t// out\n        /* \"#utility.yul\":1668:1797   */\n    tag_75:\n        /* \"#utility.yul\":1702:1708   */\n      0x00\n        /* \"#utility.yul\":1729:1749   */\n      tag_144\n      tag_63\n      jump\t// in\n    tag_144:\n        /* \"#utility.yul\":1719:1749   */\n      swap1\n      pop\n        /* \"#utility.yul\":1758:1791   */\n      tag_145\n        /* \"#utility.yul\":1786:1790   */\n      dup3\n        /* \"#utility.yul\":1778:1784   */\n      dup3\n        /* \"#utility.yul\":1758:1791   */\n      tag_74\n      jump\t// in\n    tag_145:\n        /* \"#utility.yul\":1668:1797   */\n      swap2\n      swap1\n      pop\n      jump\t// out\n        /* \"#utility.yul\":1803:2111   */\n    tag_76:\n        /* \"#utility.yul\":1865:1869   */\n      0x00\n        /* \"#utility.yul\":1955:1973   */\n      0xffffffffffffffff\n        /* \"#utility.yul\":1947:1953   */\n      dup3\n        /* \"#utility.yul\":1944:1974   */\n      gt\n        /* \"#utility.yul\":1941:1997   */\n      iszero\n      tag_147\n      jumpi\n        /* \"#utility.yul\":1977:1995   */\n      tag_148\n      tag_73\n      jump\t// in\n    tag_148:\n        /* \"#utility.yul\":1941:1997   */\n    tag_147:\n        /* \"#utility.yul\":2015:2044   */\n      tag_149\n        /* \"#utility.yul\":2037:2043   */\n      dup3\n        /* \"#utility.yul\":2015:2044   */\n      tag_72\n      jump\t// in\n    tag_149:\n        /* \"#utility.yul\":2007:2044   */\n      swap1\n      pop\n        /* \"#utility.yul\":2099:2103   */\n      0x20\n        /* \"#utility.yul\":2093:2097   */\n      dup2\n        /* \"#utility.yul\":2089:2104   */\n      add\n        /* \"#utility.yul\":2081:2104   */\n      swap1\n      pop\n        /* \"#utility.yul\":1803:2111   */\n      swap2\n      swap1\n      pop\n      jump\t// out\n        /* \"#utility.yul\":2117:2265   */\n    tag_77:\n        /* \"#utility.yul\":2215:2221   */\n      dup3\n        /* \"#utility.yul\":2210:2213   */\n      dup2\n        /* \"#utility.yul\":2205:2208   */\n      dup4\n        /* \"#utility.yul\":2192:2222   */\n      calldatacopy\n        /* \"#utility.yul\":2256:2257   */\n      0x00\n        /* \"#utility.yul\":2247:2253   */\n      dup4\n        /* \"#utility.yul\":2242:2245   */\n      dup4\n        /* \"#utility.yul\":2238:2254   */\n      add\n        /* \"#utility.yul\":2231:2258   */\n      mstore\n        /* \"#utility.yul\":2117:2265   */\n      pop\n      pop\n      pop\n      jump\t// out\n        /* \"#utility.yul\":2271:2696   */\n    tag_78:\n        /* \"#utility.yul\":2349:2354   */\n      0x00\n        /* \"#utility.yul\":2374:2440   */\n      tag_152\n        /* \"#utility.yul\":2390:2439   */\n      tag_153\n        /* \"#utility.yul\":2432:2438   */\n      dup5\n        /* \"#utility.yul\":2390:2439   */\n      tag_76\n      jump\t// in\n    tag_153:\n        /* \"#utility.yul\":2374:2440   */\n      tag_75\n      jump\t// in\n    tag_152:\n        /* \"#utility.yul\":2365:2440   */\n      swap1\n      pop\n        /* \"#utility.yul\":2463:2469   */\n      dup3\n        /* \"#utility.yul\":2456:2461   */\n      dup2\n        /* \"#utility.yul\":2449:2470   */\n      mstore\n        /* \"#utility.yul\":2501:2505   */\n      0x20\n        /* \"#utility.yul\":2494:2499   */\n      dup2\n        /* \"#utility.yul\":2490:2506   */\n      add\n        /* \"#utility.yul\":2539:2542   */\n      dup5\n        /* \"#utility.yul\":2530:2536   */\n      dup5\n        /* \"#utility.yul\":2525:2528   */\n      dup5\n        /* \"#utility.yul\":2521:2537   */\n      add\n        /* \"#utility.yul\":2518:2543   */\n      gt\n        /* \"#utility.yul\":2515:2627   */\n      iszero\n      tag_154\n      jumpi\n        /* \"#utility.yul\":2546:2625   */\n      tag_155\n      tag_71\n      jump\t// in\n    tag_155:\n        /* \"#utility.yul\":2515:2627   */\n    tag_154:\n        /* \"#utility.yul\":2636:2690   */\n      tag_156\n        /* \"#utility.yul\":2683:2689   */\n      dup5\n        /* \"#utility.yul\":2678:2681   */\n      dup3\n        /* \"#utility.yul\":2673:2676   */\n      dup6\n        /* \"#utility.yul\":2636:2690   */\n      tag_77\n      jump\t// in\n    tag_156:\n        /* \"#utility.yul\":2355:2696   */\n      pop\n        /* \"#utility.yul\":2271:2696   */\n      swap4\n      swap3\n      pop\n      pop\n      pop\n      jump\t// out\n        /* \"#utility.yul\":2716:3056   */\n    tag_79:\n        /* \"#utility.yul\":2772:2777   */\n      0x00\n        /* \"#utility.yul\":2821:2824   */\n      dup3\n        /* \"#utility.yul\":2814:2818   */\n      0x1f\n        /* \"#utility.yul\":2806:2812   */\n      dup4\n        /* \"#utility.yul\":2802:2819   */\n      add\n        /* \"#utility.yul\":2798:2825   */\n      slt\n        /* \"#utility.yul\":2788:2910   */\n      tag_158\n      jumpi\n        /* \"#utility.yul\":2829:2908   */\n      tag_159\n      tag_70\n      jump\t// in\n    tag_159:\n        /* \"#utility.yul\":2788:2910   */\n    tag_158:\n        /* \"#utility.yul\":2946:2952   */\n      dup2\n        /* \"#utility.yul\":2933:2953   */\n      calldataload\n        /* \"#utility.yul\":2971:3050   */\n      tag_160\n        /* \"#utility.yul\":3046:3049   */\n      dup5\n        /* \"#utility.yul\":3038:3044   */\n      dup3\n        /* \"#utility.yul\":3031:3035   */\n      0x20\n        /* \"#utility.yul\":3023:3029   */\n      dup7\n        /* \"#utility.yul\":3019:3036   */\n      add\n        /* \"#utility.yul\":2971:3050   */\n      tag_78\n      jump\t// in\n    tag_160:\n        /* \"#utility.yul\":2962:3050   */\n      swap2\n      pop\n        /* \"#utility.yul\":2778:3056   */\n      pop\n        /* \"#utility.yul\":2716:3056   */\n      swap3\n      swap2\n      pop\n      pop\n      jump\t// out\n        /* \"#utility.yul\":3062:3716   */\n    tag_9:\n        /* \"#utility.yul\":3140:3146   */\n      0x00\n        /* \"#utility.yul\":3148:3154   */\n      dup1\n        /* \"#utility.yul\":3197:3199   */\n      0x40\n        /* \"#utility.yul\":3185:3194   */\n      dup4\n        /* \"#utility.yul\":3176:3183   */\n      dup6\n        /* \"#utility.yul\":3172:3195   */\n      sub\n        /* \"#utility.yul\":3168:3200   */\n      slt\n        /* \"#utility.yul\":3165:3284   */\n      iszero\n      tag_162\n      jumpi\n        /* \"#utility.yul\":3203:3282   */\n      tag_163\n      tag_64\n      jump\t// in\n    tag_163:\n        /* \"#utility.yul\":3165:3284   */\n    tag_162:\n        /* \"#utility.yul\":3323:3324   */\n      0x00\n        /* \"#utility.yul\":3348:3401   */\n      tag_164\n        /* \"#utility.yul\":3393:3400   */\n      dup6\n        /* \"#utility.yul\":3384:3390   */\n      dup3\n        /* \"#utility.yul\":3373:3382   */\n      dup7\n        /* \"#utility.yul\":3369:3391   */\n      add\n        /* \"#utility.yul\":3348:3401   */\n      tag_69\n      jump\t// in\n    tag_164:\n        /* \"#utility.yul\":3338:3401   */\n      swap3\n      pop\n        /* \"#utility.yul\":3294:3411   */\n      pop\n        /* \"#utility.yul\":3478:3480   */\n      0x20\n        /* \"#utility.yul\":3467:3476   */\n      dup4\n        /* \"#utility.yul\":3463:3481   */\n      add\n        /* \"#utility.yul\":3450:3482   */\n      calldataload\n        /* \"#utility.yul\":3509:3527   */\n      0xffffffffffffffff\n        /* \"#utility.yul\":3501:3507   */\n      dup2\n        /* \"#utility.yul\":3498:3528   */\n      gt\n        /* \"#utility.yul\":3495:3612   */\n      iszero\n      tag_165\n      jumpi\n        /* \"#utility.yul\":3531:3610   */\n      tag_166\n      tag_65\n      jump\t// in\n    tag_166:\n        /* \"#utility.yul\":3495:3612   */\n    tag_165:\n        /* \"#utility.yul\":3636:3699   */\n      tag_167\n        /* \"#utility.yul\":3691:3698   */\n      dup6\n        /* \"#utility.yul\":3682:3688   */\n      dup3\n        /* \"#utility.yul\":3671:3680   */\n      dup7\n        /* \"#utility.yul\":3667:3689   */\n      add\n        /* \"#utility.yul\":3636:3699   */\n      tag_79\n      jump\t// in\n    tag_167:\n        /* \"#utility.yul\":3626:3699   */\n      swap2\n      pop\n        /* \"#utility.yul\":3421:3709   */\n      pop\n        /* \"#utility.yul\":3062:3716   */\n      swap3\n      pop\n      swap3\n      swap1\n      pop\n      jump\t// out\n        /* \"#utility.yul\":3722:4051   */\n    tag_13:\n        /* \"#utility.yul\":3781:3787   */\n      0x00\n        /* \"#utility.yul\":3830:3832   */\n      0x20\n        /* \"#utility.yul\":3818:3827   */\n      dup3\n        /* \"#utility.yul\":3809:3816   */\n      dup5\n        /* \"#utility.yul\":3805:3828   */\n      sub\n        /* \"#utility.yul\":3801:3833   */\n      slt\n        /* \"#utility.yul\":3798:3917   */\n      iszero\n      tag_169\n      jumpi\n        /* \"#utility.yul\":3836:3915   */\n      tag_170\n      tag_64\n      jump\t// in\n    tag_170:\n        /* \"#utility.yul\":3798:3917   */\n    tag_169:\n        /* \"#utility.yul\":3956:3957   */\n      0x00\n        /* \"#utility.yul\":3981:4034   */\n      tag_171\n        /* \"#utility.yul\":4026:4033   */\n      dup5\n        /* \"#utility.yul\":4017:4023   */\n      dup3\n        /* \"#utility.yul\":4006:4015   */\n      dup6\n        /* \"#utility.yul\":4002:4024   */\n      add\n        /* \"#utility.yul\":3981:4034   */\n      tag_69\n      jump\t// in\n    tag_171:\n        /* \"#utility.yul\":3971:4034   */\n      swap2\n      pop\n        /* \"#utility.yul\":3927:4044   */\n      pop\n        /* \"#utility.yul\":3722:4051   */\n      swap3\n      swap2\n      pop\n      pop\n      jump\t// out\n        /* \"#utility.yul\":4057:4175   */\n    tag_80:\n        /* \"#utility.yul\":4144:4168   */\n      tag_173\n        /* \"#utility.yul\":4162:4167   */\n      dup2\n        /* \"#utility.yul\":4144:4168   */\n      tag_67\n      jump\t// in\n    tag_173:\n        /* \"#utility.yul\":4139:4142   */\n      dup3\n        /* \"#utility.yul\":4132:4169   */\n      mstore\n        /* \"#utility.yul\":4057:4175   */\n      pop\n      pop\n      jump\t// out\n        /* \"#utility.yul\":4181:4280   */\n    tag_81:\n        /* \"#utility.yul\":4233:4239   */\n      0x00\n        /* \"#utility.yul\":4267:4272   */\n      dup2\n        /* \"#utility.yul\":4261:4273   */\n      mload\n        /* \"#utility.yul\":4251:4273   */\n      swap1\n      pop\n        /* \"#utility.yul\":4181:4280   */\n      swap2\n      swap1\n      pop\n      jump\t// out\n        /* \"#utility.yul\":4286:4455   */\n    tag_82:\n        /* \"#utility.yul\":4370:4381   */\n      0x00\n        /* \"#utility.yul\":4404:4410   */\n      dup3\n        /* \"#utility.yul\":4399:4402   */\n      dup3\n        /* \"#utility.yul\":4392:4411   */\n      mstore\n        /* \"#utility.yul\":4444:4448   */\n      0x20\n        /* \"#utility.yul\":4439:4442   */\n      dup3\n        /* \"#utility.yul\":4435:4449   */\n      add\n        /* \"#utility.yul\":4420:4449   */\n      swap1\n      pop\n        /* \"#utility.yul\":4286:4455   */\n      swap3\n      swap2\n      pop\n      pop\n      jump\t// out\n        /* \"#utility.yul\":4461:4709   */\n    tag_83:\n        /* \"#utility.yul\":4543:4544   */\n      0x00\n        /* \"#utility.yul\":4553:4666   */\n    tag_177:\n        /* \"#utility.yul\":4567:4573   */\n      dup4\n        /* \"#utility.yul\":4564:4565   */\n      dup2\n        /* \"#utility.yul\":4561:4574   */\n      lt\n        /* \"#utility.yul\":4553:4666   */\n      iszero\n      tag_179\n      jumpi\n        /* \"#utility.yul\":4652:4653   */\n      dup1\n        /* \"#utility.yul\":4647:4650   */\n      dup3\n        /* \"#utility.yul\":4643:4654   */\n      add\n        /* \"#utility.yul\":4637:4655   */\n      mload\n        /* \"#utility.yul\":4633:4634   */\n      dup2\n        /* \"#utility.yul\":4628:4631   */\n      dup5\n        /* \"#utility.yul\":4624:4635   */\n      add\n        /* \"#utility.yul\":4617:4656   */\n      mstore\n        /* \"#utility.yul\":4589:4591   */\n      0x20\n        /* \"#utility.yul\":4586:4587   */\n      dup2\n        /* \"#utility.yul\":4582:4592   */\n      add\n        /* \"#utility.yul\":4577:4592   */\n      swap1\n      pop\n        /* \"#utility.yul\":4553:4666   */\n      jump(tag_177)\n    tag_179:\n        /* \"#utility.yul\":4700:4701   */\n      0x00\n        /* \"#utility.yul\":4691:4697   */\n      dup5\n        /* \"#utility.yul\":4686:4689   */\n      dup5\n        /* \"#utility.yul\":4682:4698   */\n      add\n        /* \"#utility.yul\":4675:4702   */\n      mstore\n        /* \"#utility.yul\":4523:4709   */\n      pop\n        /* \"#utility.yul\":4461:4709   */\n      pop\n      pop\n      pop\n      jump\t// out\n        /* \"#utility.yul\":4715:5092   */\n    tag_84:\n        /* \"#utility.yul\":4803:4806   */\n      0x00\n        /* \"#utility.yul\":4831:4870   */\n      tag_181\n        /* \"#utility.yul\":4864:4869   */\n      dup3\n        /* \"#utility.yul\":4831:4870   */\n      tag_81\n      jump\t// in\n    tag_181:\n        /* \"#utility.yul\":4886:4957   */\n      tag_182\n        /* \"#utility.yul\":4950:4956   */\n      dup2\n        /* \"#utility.yul\":4945:4948   */\n      dup6\n        /* \"#utility.yul\":4886:4957   */\n      tag_82\n      jump\t// in\n    tag_182:\n        /* \"#utility.yul\":4879:4957   */\n      swap4\n      pop\n        /* \"#utility.yul\":4966:5031   */\n      tag_183\n        /* \"#utility.yul\":5024:5030   */\n      dup2\n        /* \"#utility.yul\":5019:5022   */\n      dup6\n        /* \"#utility.yul\":5012:5016   */\n      0x20\n        /* \"#utility.yul\":5005:5010   */\n      dup7\n        /* \"#utility.yul\":5001:5017   */\n      add\n        /* \"#utility.yul\":4966:5031   */\n      tag_83\n      jump\t// in\n    tag_183:\n        /* \"#utility.yul\":5056:5085   */\n      tag_184\n        /* \"#utility.yul\":5078:5084   */\n      dup2\n        /* \"#utility.yul\":5056:5085   */\n      tag_72\n      jump\t// in\n    tag_184:\n        /* \"#utility.yul\":5051:5054   */\n      dup5\n        /* \"#utility.yul\":5047:5086   */\n      add\n        /* \"#utility.yul\":5040:5086   */\n      swap2\n      pop\n        /* \"#utility.yul\":4807:5092   */\n      pop\n        /* \"#utility.yul\":4715:5092   */\n      swap3\n      swap2\n      pop\n      pop\n      jump\t// out\n        /* \"#utility.yul\":5098:5188   */\n    tag_85:\n        /* \"#utility.yul\":5132:5139   */\n      0x00\n        /* \"#utility.yul\":5175:5180   */\n      dup2\n        /* \"#utility.yul\":5168:5181   */\n      iszero\n        /* \"#utility.yul\":5161:5182   */\n      iszero\n        /* \"#utility.yul\":5150:5182   */\n      swap1\n      pop\n        /* \"#utility.yul\":5098:5188   */\n      swap2\n      swap1\n      pop\n      jump\t// out\n        /* \"#utility.yul\":5194:5303   */\n    tag_86:\n        /* \"#utility.yul\":5275:5296   */\n      tag_187\n        /* \"#utility.yul\":5290:5295   */\n      dup2\n        /* \"#utility.yul\":5275:5296   */\n      tag_85\n      jump\t// in\n    tag_187:\n        /* \"#utility.yul\":5270:5273   */\n      dup3\n        /* \"#utility.yul\":5263:5297   */\n      mstore\n        /* \"#utility.yul\":5194:5303   */\n      pop\n      pop\n      jump\t// out\n        /* \"#utility.yul\":5309:5830   */\n    tag_16:\n        /* \"#utility.yul\":5472:5476   */\n      0x00\n        /* \"#utility.yul\":5510:5512   */\n      0x60\n        /* \"#utility.yul\":5499:5508   */\n      dup3\n        /* \"#utility.yul\":5495:5513   */\n      add\n        /* \"#utility.yul\":5487:5513   */\n      swap1\n      pop\n        /* \"#utility.yul\":5523:5594   */\n      tag_189\n        /* \"#utility.yul\":5591:5592   */\n      0x00\n        /* \"#utility.yul\":5580:5589   */\n      dup4\n        /* \"#utility.yul\":5576:5593   */\n      add\n        /* \"#utility.yul\":5567:5573   */\n      dup7\n        /* \"#utility.yul\":5523:5594   */\n      tag_80\n      jump\t// in\n    tag_189:\n        /* \"#utility.yul\":5641:5650   */\n      dup2\n        /* \"#utility.yul\":5635:5639   */\n      dup2\n        /* \"#utility.yul\":5631:5651   */\n      sub\n        /* \"#utility.yul\":5626:5628   */\n      0x20\n        /* \"#utility.yul\":5615:5624   */\n      dup4\n        /* \"#utility.yul\":5611:5629   */\n      add\n        /* \"#utility.yul\":5604:5652   */\n      mstore\n        /* \"#utility.yul\":5669:5747   */\n      tag_190\n        /* \"#utility.yul\":5742:5746   */\n      dup2\n        /* \"#utility.yul\":5733:5739   */\n      dup6\n        /* \"#utility.yul\":5669:5747   */\n      tag_84\n      jump\t// in\n    tag_190:\n        /* \"#utility.yul\":5661:5747   */\n      swap1\n      pop\n        /* \"#utility.yul\":5757:5823   */\n      tag_191\n        /* \"#utility.yul\":5819:5821   */\n      0x40\n        /* \"#utility.yul\":5808:5817   */\n      dup4\n        /* \"#utility.yul\":5804:5822   */\n      add\n        /* \"#utility.yul\":5795:5801   */\n      dup5\n        /* \"#utility.yul\":5757:5823   */\n      tag_86\n      jump\t// in\n    tag_191:\n        /* \"#utility.yul\":5309:5830   */\n      swap5\n      swap4\n      pop\n      pop\n      pop\n      pop\n      jump\t// out\n        /* \"#utility.yul\":5836:5896   */\n    tag_87:\n        /* \"#utility.yul\":5864:5867   */\n      0x00\n        /* \"#utility.yul\":5885:5890   */\n      dup2\n        /* \"#utility.yul\":5878:5890   */\n      swap1\n      pop\n        /* \"#utility.yul\":5836:5896   */\n      swap2\n      swap1\n      pop\n      jump\t// out\n        /* \"#utility.yul\":5902:6044   */\n    tag_88:\n        /* \"#utility.yul\":5952:5961   */\n      0x00\n        /* \"#utility.yul\":5985:6038   */\n      tag_194\n        /* \"#utility.yul\":6003:6037   */\n      tag_195\n        /* \"#utility.yul\":6012:6036   */\n      tag_196\n        /* \"#utility.yul\":6030:6035   */\n      dup5\n        /* \"#utility.yul\":6012:6036   */\n      tag_66\n      jump\t// in\n    tag_196:\n        /* \"#utility.yul\":6003:6037   */\n      tag_87\n      jump\t// in\n    tag_195:\n        /* \"#utility.yul\":5985:6038   */\n      tag_66\n      jump\t// in\n    tag_194:\n        /* \"#utility.yul\":5972:6038   */\n      swap1\n      pop\n        /* \"#utility.yul\":5902:6044   */\n      swap2\n      swap1\n      pop\n      jump\t// out\n        /* \"#utility.yul\":6050:6176   */\n    tag_89:\n        /* \"#utility.yul\":6100:6109   */\n      0x00\n        /* \"#utility.yul\":6133:6170   */\n      tag_198\n        /* \"#utility.yul\":6164:6169   */\n      dup3\n        /* \"#utility.yul\":6133:6170   */\n      tag_88\n      jump\t// in\n    tag_198:\n        /* \"#utility.yul\":6120:6170   */\n      swap1\n      pop\n        /* \"#utility.yul\":6050:6176   */\n      swap2\n      swap1\n      pop\n      jump\t// out\n        /* \"#utility.yul\":6182:6323   */\n    tag_90:\n        /* \"#utility.yul\":6247:6256   */\n      0x00\n        /* \"#utility.yul\":6280:6317   */\n      tag_200\n        /* \"#utility.yul\":6311:6316   */\n      dup3\n        /* \"#utility.yul\":6280:6317   */\n      tag_89\n      jump\t// in\n    tag_200:\n        /* \"#utility.yul\":6267:6317   */\n      swap1\n      pop\n        /* \"#utility.yul\":6182:6323   */\n      swap2\n      swap1\n      pop\n      jump\t// out\n        /* \"#utility.yul\":6329:6490   */\n    tag_91:\n        /* \"#utility.yul\":6431:6483   */\n      tag_202\n        /* \"#utility.yul\":6477:6482   */\n      dup2\n        /* \"#utility.yul\":6431:6483   */\n      tag_90\n      jump\t// in\n    tag_202:\n        /* \"#utility.yul\":6426:6429   */\n      dup3\n        /* \"#utility.yul\":6419:6484   */\n      mstore\n        /* \"#utility.yul\":6329:6490   */\n      pop\n      pop\n      jump\t// out\n        /* \"#utility.yul\":6496:6748   */\n    tag_23:\n        /* \"#utility.yul\":6604:6608   */\n      0x00\n        /* \"#utility.yul\":6642:6644   */\n      0x20\n        /* \"#utility.yul\":6631:6640   */\n      dup3\n        /* \"#utility.yul\":6627:6645   */\n      add\n        /* \"#utility.yul\":6619:6645   */\n      swap1\n      pop\n        /* \"#utility.yul\":6655:6741   */\n      tag_204\n        /* \"#utility.yul\":6738:6739   */\n      0x00\n        /* \"#utility.yul\":6727:6736   */\n      dup4\n        /* \"#utility.yul\":6723:6740   */\n      add\n        /* \"#utility.yul\":6714:6720   */\n      dup5\n        /* \"#utility.yul\":6655:6741   */\n      tag_91\n      jump\t// in\n    tag_204:\n        /* \"#utility.yul\":6496:6748   */\n      swap3\n      swap2\n      pop\n      pop\n      jump\t// out\n        /* \"#utility.yul\":6754:6979   */\n    tag_92:\n        /* \"#utility.yul\":6894:6928   */\n      0x566f757320646576657a206574726520756e20646f637465757220656e726567\n        /* \"#utility.yul\":6890:6891   */\n      0x00\n        /* \"#utility.yul\":6882:6888   */\n      dup3\n        /* \"#utility.yul\":6878:6892   */\n      add\n        /* \"#utility.yul\":6871:6929   */\n      mstore\n        /* \"#utility.yul\":6963:6971   */\n      0x69737472652e0000000000000000000000000000000000000000000000000000\n        /* \"#utility.yul\":6958:6960   */\n      0x20\n        /* \"#utility.yul\":6950:6956   */\n      dup3\n        /* \"#utility.yul\":6946:6961   */\n      add\n        /* \"#utility.yul\":6939:6972   */\n      mstore\n        /* \"#utility.yul\":6754:6979   */\n      pop\n      jump\t// out\n        /* \"#utility.yul\":6985:7351   */\n    tag_93:\n        /* \"#utility.yul\":7127:7130   */\n      0x00\n        /* \"#utility.yul\":7148:7215   */\n      tag_207\n        /* \"#utility.yul\":7212:7214   */\n      0x26\n        /* \"#utility.yul\":7207:7210   */\n      dup4\n        /* \"#utility.yul\":7148:7215   */\n      tag_82\n      jump\t// in\n    tag_207:\n        /* \"#utility.yul\":7141:7215   */\n      swap2\n      pop\n        /* \"#utility.yul\":7224:7317   */\n      tag_208\n        /* \"#utility.yul\":7313:7316   */\n      dup3\n        /* \"#utility.yul\":7224:7317   */\n      tag_92\n      jump\t// in\n    tag_208:\n        /* \"#utility.yul\":7342:7344   */\n      0x40\n        /* \"#utility.yul\":7337:7340   */\n      dup3\n        /* \"#utility.yul\":7333:7345   */\n      add\n        /* \"#utility.yul\":7326:7345   */\n      swap1\n      pop\n        /* \"#utility.yul\":6985:7351   */\n      swap2\n      swap1\n      pop\n      jump\t// out\n        /* \"#utility.yul\":7357:7776   */\n    tag_27:\n        /* \"#utility.yul\":7523:7527   */\n      0x00\n        /* \"#utility.yul\":7561:7563   */\n      0x20\n        /* \"#utility.yul\":7550:7559   */\n      dup3\n        /* \"#utility.yul\":7546:7564   */\n      add\n        /* \"#utility.yul\":7538:7564   */\n      swap1\n      pop\n        /* \"#utility.yul\":7610:7619   */\n      dup2\n        /* \"#utility.yul\":7604:7608   */\n      dup2\n        /* \"#utility.yul\":7600:7620   */\n      sub\n        /* \"#utility.yul\":7596:7597   */\n      0x00\n        /* \"#utility.yul\":7585:7594   */\n      dup4\n        /* \"#utility.yul\":7581:7598   */\n      add\n        /* \"#utility.yul\":7574:7621   */\n      mstore\n        /* \"#utility.yul\":7638:7769   */\n      tag_210\n        /* \"#utility.yul\":7764:7768   */\n      dup2\n        /* \"#utility.yul\":7638:7769   */\n      tag_93\n      jump\t// in\n    tag_210:\n        /* \"#utility.yul\":7630:7769   */\n      swap1\n      pop\n        /* \"#utility.yul\":7357:7776   */\n      swap2\n      swap1\n      pop\n      jump\t// out\n        /* \"#utility.yul\":7782:7960   */\n    tag_94:\n        /* \"#utility.yul\":7922:7952   */\n      0x416472657373652064752070617469656e7420696e76616c6964652e00000000\n        /* \"#utility.yul\":7918:7919   */\n      0x00\n        /* \"#utility.yul\":7910:7916   */\n      dup3\n        /* \"#utility.yul\":7906:7920   */\n      add\n        /* \"#utility.yul\":7899:7953   */\n      mstore\n        /* \"#utility.yul\":7782:7960   */\n      pop\n      jump\t// out\n        /* \"#utility.yul\":7966:8332   */\n    tag_95:\n        /* \"#utility.yul\":8108:8111   */\n      0x00\n        /* \"#utility.yul\":8129:8196   */\n      tag_213\n        /* \"#utility.yul\":8193:8195   */\n      0x1c\n        /* \"#utility.yul\":8188:8191   */\n      dup4\n        /* \"#utility.yul\":8129:8196   */\n      tag_82\n      jump\t// in\n    tag_213:\n        /* \"#utility.yul\":8122:8196   */\n      swap2\n      pop\n        /* \"#utility.yul\":8205:8298   */\n      tag_214\n        /* \"#utility.yul\":8294:8297   */\n      dup3\n        /* \"#utility.yul\":8205:8298   */\n      tag_94\n      jump\t// in\n    tag_214:\n        /* \"#utility.yul\":8323:8325   */\n      0x20\n        /* \"#utility.yul\":8318:8321   */\n      dup3\n        /* \"#utility.yul\":8314:8326   */\n      add\n        /* \"#utility.yul\":8307:8326   */\n      swap1\n      pop\n        /* \"#utility.yul\":7966:8332   */\n      swap2\n      swap1\n      pop\n      jump\t// out\n        /* \"#utility.yul\":8338:8757   */\n    tag_31:\n        /* \"#utility.yul\":8504:8508   */\n      0x00\n        /* \"#utility.yul\":8542:8544   */\n      0x20\n        /* \"#utility.yul\":8531:8540   */\n      dup3\n        /* \"#utility.yul\":8527:8545   */\n      add\n        /* \"#utility.yul\":8519:8545   */\n      swap1\n      pop\n        /* \"#utility.yul\":8591:8600   */\n      dup2\n        /* \"#utility.yul\":8585:8589   */\n      dup2\n        /* \"#utility.yul\":8581:8601   */\n      sub\n        /* \"#utility.yul\":8577:8578   */\n      0x00\n        /* \"#utility.yul\":8566:8575   */\n      dup4\n        /* \"#utility.yul\":8562:8579   */\n      add\n        /* \"#utility.yul\":8555:8602   */\n      mstore\n        /* \"#utility.yul\":8619:8750   */\n      tag_216\n        /* \"#utility.yul\":8745:8749   */\n      dup2\n        /* \"#utility.yul\":8619:8750   */\n      tag_95\n      jump\t// in\n    tag_216:\n        /* \"#utility.yul\":8611:8750   */\n      swap1\n      pop\n        /* \"#utility.yul\":8338:8757   */\n      swap2\n      swap1\n      pop\n      jump\t// out\n        /* \"#utility.yul\":8763:8983   */\n    tag_96:\n        /* \"#utility.yul\":8903:8937   */\n      0x4861736820647520646f7373696572206d65646963616c20696e76616c696465\n        /* \"#utility.yul\":8899:8900   */\n      0x00\n        /* \"#utility.yul\":8891:8897   */\n      dup3\n        /* \"#utility.yul\":8887:8901   */\n      add\n        /* \"#utility.yul\":8880:8938   */\n      mstore\n        /* \"#utility.yul\":8972:8975   */\n      0x2e00000000000000000000000000000000000000000000000000000000000000\n        /* \"#utility.yul\":8967:8969   */\n      0x20\n        /* \"#utility.yul\":8959:8965   */\n      dup3\n        /* \"#utility.yul\":8955:8970   */\n      add\n        /* \"#utility.yul\":8948:8976   */\n      mstore\n        /* \"#utility.yul\":8763:8983   */\n      pop\n      jump\t// out\n        /* \"#utility.yul\":8989:9355   */\n    tag_97:\n        /* \"#utility.yul\":9131:9134   */\n      0x00\n        /* \"#utility.yul\":9152:9219   */\n      tag_219\n        /* \"#utility.yul\":9216:9218   */\n      0x21\n        /* \"#utility.yul\":9211:9214   */\n      dup4\n        /* \"#utility.yul\":9152:9219   */\n      tag_82\n      jump\t// in\n    tag_219:\n        /* \"#utility.yul\":9145:9219   */\n      swap2\n      pop\n        /* \"#utility.yul\":9228:9321   */\n      tag_220\n        /* \"#utility.yul\":9317:9320   */\n      dup3\n        /* \"#utility.yul\":9228:9321   */\n      tag_96\n      jump\t// in\n    tag_220:\n        /* \"#utility.yul\":9346:9348   */\n      0x40\n        /* \"#utility.yul\":9341:9344   */\n      dup3\n        /* \"#utility.yul\":9337:9349   */\n      add\n        /* \"#utility.yul\":9330:9349   */\n      swap1\n      pop\n        /* \"#utility.yul\":8989:9355   */\n      swap2\n      swap1\n      pop\n      jump\t// out\n        /* \"#utility.yul\":9361:9780   */\n    tag_34:\n        /* \"#utility.yul\":9527:9531   */\n      0x00\n        /* \"#utility.yul\":9565:9567   */\n      0x20\n        /* \"#utility.yul\":9554:9563   */\n      dup3\n        /* \"#utility.yul\":9550:9568   */\n      add\n        /* \"#utility.yul\":9542:9568   */\n      swap1\n      pop\n        /* \"#utility.yul\":9614:9623   */\n      dup2\n        /* \"#utility.yul\":9608:9612   */\n      dup2\n        /* \"#utility.yul\":9604:9624   */\n      sub\n        /* \"#utility.yul\":9600:9601   */\n      0x00\n        /* \"#utility.yul\":9589:9598   */\n      dup4\n        /* \"#utility.yul\":9585:9602   */\n      add\n        /* \"#utility.yul\":9578:9625   */\n      mstore\n        /* \"#utility.yul\":9642:9773   */\n      tag_222\n        /* \"#utility.yul\":9768:9772   */\n      dup2\n        /* \"#utility.yul\":9642:9773   */\n      tag_97\n      jump\t// in\n    tag_222:\n        /* \"#utility.yul\":9634:9773   */\n      swap1\n      pop\n        /* \"#utility.yul\":9361:9780   */\n      swap2\n      swap1\n      pop\n      jump\t// out\n        /* \"#utility.yul\":9786:10319   */\n    tag_36:\n        /* \"#utility.yul\":9955:9959   */\n      0x00\n        /* \"#utility.yul\":9993:9995   */\n      0x60\n        /* \"#utility.yul\":9982:9991   */\n      dup3\n        /* \"#utility.yul\":9978:9996   */\n      add\n        /* \"#utility.yul\":9970:9996   */\n      swap1\n      pop\n        /* \"#utility.yul\":10006:10077   */\n      tag_224\n        /* \"#utility.yul\":10074:10075   */\n      0x00\n        /* \"#utility.yul\":10063:10072   */\n      dup4\n        /* \"#utility.yul\":10059:10076   */\n      add\n        /* \"#utility.yul\":10050:10056   */\n      dup7\n        /* \"#utility.yul\":10006:10077   */\n      tag_80\n      jump\t// in\n    tag_224:\n        /* \"#utility.yul\":10124:10133   */\n      dup2\n        /* \"#utility.yul\":10118:10122   */\n      dup2\n        /* \"#utility.yul\":10114:10134   */\n      sub\n        /* \"#utility.yul\":10109:10111   */\n      0x20\n        /* \"#utility.yul\":10098:10107   */\n      dup4\n        /* \"#utility.yul\":10094:10112   */\n      add\n        /* \"#utility.yul\":10087:10135   */\n      mstore\n        /* \"#utility.yul\":10152:10230   */\n      tag_225\n        /* \"#utility.yul\":10225:10229   */\n      dup2\n        /* \"#utility.yul\":10216:10222   */\n      dup6\n        /* \"#utility.yul\":10152:10230   */\n      tag_84\n      jump\t// in\n    tag_225:\n        /* \"#utility.yul\":10144:10230   */\n      swap1\n      pop\n        /* \"#utility.yul\":10240:10312   */\n      tag_226\n        /* \"#utility.yul\":10308:10310   */\n      0x40\n        /* \"#utility.yul\":10297:10306   */\n      dup4\n        /* \"#utility.yul\":10293:10311   */\n      add\n        /* \"#utility.yul\":10284:10290   */\n      dup5\n        /* \"#utility.yul\":10240:10312   */\n      tag_80\n      jump\t// in\n    tag_226:\n        /* \"#utility.yul\":9786:10319   */\n      swap5\n      swap4\n      pop\n      pop\n      pop\n      pop\n      jump\t// out\n        /* \"#utility.yul\":10325:10441   */\n    tag_98:\n        /* \"#utility.yul\":10395:10416   */\n      tag_228\n        /* \"#utility.yul\":10410:10415   */\n      dup2\n        /* \"#utility.yul\":10395:10416   */\n      tag_85\n      jump\t// in\n    tag_228:\n        /* \"#utility.yul\":10388:10393   */\n      dup2\n        /* \"#utility.yul\":10385:10417   */\n      eq\n        /* \"#utility.yul\":10375:10435   */\n      tag_229\n      jumpi\n        /* \"#utility.yul\":10431:10432   */\n      0x00\n        /* \"#utility.yul\":10428:10429   */\n      dup1\n        /* \"#utility.yul\":10421:10433   */\n      revert\n        /* \"#utility.yul\":10375:10435   */\n    tag_229:\n        /* \"#utility.yul\":10325:10441   */\n      pop\n      jump\t// out\n        /* \"#utility.yul\":10447:10584   */\n    tag_99:\n        /* \"#utility.yul\":10501:10506   */\n      0x00\n        /* \"#utility.yul\":10532:10538   */\n      dup2\n        /* \"#utility.yul\":10526:10539   */\n      mload\n        /* \"#utility.yul\":10517:10539   */\n      swap1\n      pop\n        /* \"#utility.yul\":10548:10578   */\n      tag_231\n        /* \"#utility.yul\":10572:10577   */\n      dup2\n        /* \"#utility.yul\":10548:10578   */\n      tag_98\n      jump\t// in\n    tag_231:\n        /* \"#utility.yul\":10447:10584   */\n      swap3\n      swap2\n      pop\n      pop\n      jump\t// out\n        /* \"#utility.yul\":10590:10935   */\n    tag_40:\n        /* \"#utility.yul\":10657:10663   */\n      0x00\n        /* \"#utility.yul\":10706:10708   */\n      0x20\n        /* \"#utility.yul\":10694:10703   */\n      dup3\n        /* \"#utility.yul\":10685:10692   */\n      dup5\n        /* \"#utility.yul\":10681:10704   */\n      sub\n        /* \"#utility.yul\":10677:10709   */\n      slt\n        /* \"#utility.yul\":10674:10793   */\n      iszero\n      tag_233\n      jumpi\n        /* \"#utility.yul\":10712:10791   */\n      tag_234\n      tag_64\n      jump\t// in\n    tag_234:\n        /* \"#utility.yul\":10674:10793   */\n    tag_233:\n        /* \"#utility.yul\":10832:10833   */\n      0x00\n        /* \"#utility.yul\":10857:10918   */\n      tag_235\n        /* \"#utility.yul\":10910:10917   */\n      dup5\n        /* \"#utility.yul\":10901:10907   */\n      dup3\n        /* \"#utility.yul\":10890:10899   */\n      dup6\n        /* \"#utility.yul\":10886:10908   */\n      add\n        /* \"#utility.yul\":10857:10918   */\n      tag_99\n      jump\t// in\n    tag_235:\n        /* \"#utility.yul\":10847:10918   */\n      swap2\n      pop\n        /* \"#utility.yul\":10803:10928   */\n      pop\n        /* \"#utility.yul\":10590:10935   */\n      swap3\n      swap2\n      pop\n      pop\n      jump\t// out\n        /* \"#utility.yul\":10941:11163   */\n    tag_100:\n        /* \"#utility.yul\":11081:11115   */\n      0x4163636573206e6f6e206175746f7269736520706f7572206365207061746965\n        /* \"#utility.yul\":11077:11078   */\n      0x00\n        /* \"#utility.yul\":11069:11075   */\n      dup3\n        /* \"#utility.yul\":11065:11079   */\n      add\n        /* \"#utility.yul\":11058:11116   */\n      mstore\n        /* \"#utility.yul\":11150:11155   */\n      0x6e742e0000000000000000000000000000000000000000000000000000000000\n        /* \"#utility.yul\":11145:11147   */\n      0x20\n        /* \"#utility.yul\":11137:11143   */\n      dup3\n        /* \"#utility.yul\":11133:11148   */\n      add\n        /* \"#utility.yul\":11126:11156   */\n      mstore\n        /* \"#utility.yul\":10941:11163   */\n      pop\n      jump\t// out\n        /* \"#utility.yul\":11169:11535   */\n    tag_101:\n        /* \"#utility.yul\":11311:11314   */\n      0x00\n        /* \"#utility.yul\":11332:11399   */\n      tag_238\n        /* \"#utility.yul\":11396:11398   */\n      0x23\n        /* \"#utility.yul\":11391:11394   */\n      dup4\n        /* \"#utility.yul\":11332:11399   */\n      tag_82\n      jump\t// in\n    tag_238:\n        /* \"#utility.yul\":11325:11399   */\n      swap2\n      pop\n        /* \"#utility.yul\":11408:11501   */\n      tag_239\n        /* \"#utility.yul\":11497:11500   */\n      dup3\n        /* \"#utility.yul\":11408:11501   */\n      tag_100\n      jump\t// in\n    tag_239:\n        /* \"#utility.yul\":11526:11528   */\n      0x40\n        /* \"#utility.yul\":11521:11524   */\n      dup3\n        /* \"#utility.yul\":11517:11529   */\n      add\n        /* \"#utility.yul\":11510:11529   */\n      swap1\n      pop\n        /* \"#utility.yul\":11169:11535   */\n      swap2\n      swap1\n      pop\n      jump\t// out\n        /* \"#utility.yul\":11541:11960   */\n    tag_43:\n        /* \"#utility.yul\":11707:11711   */\n      0x00\n        /* \"#utility.yul\":11745:11747   */\n      0x20\n        /* \"#utility.yul\":11734:11743   */\n      dup3\n        /* \"#utility.yul\":11730:11748   */\n      add\n        /* \"#utility.yul\":11722:11748   */\n      swap1\n      pop\n        /* \"#utility.yul\":11794:11803   */\n      dup2\n        /* \"#utility.yul\":11788:11792   */\n      dup2\n        /* \"#utility.yul\":11784:11804   */\n      sub\n        /* \"#utility.yul\":11780:11781   */\n      0x00\n        /* \"#utility.yul\":11769:11778   */\n      dup4\n        /* \"#utility.yul\":11765:11782   */\n      add\n        /* \"#utility.yul\":11758:11805   */\n      mstore\n        /* \"#utility.yul\":11822:11953   */\n      tag_241\n        /* \"#utility.yul\":11948:11952   */\n      dup2\n        /* \"#utility.yul\":11822:11953   */\n      tag_101\n      jump\t// in\n    tag_241:\n        /* \"#utility.yul\":11814:11953   */\n      swap1\n      pop\n        /* \"#utility.yul\":11541:11960   */\n      swap2\n      swap1\n      pop\n      jump\t// out\n        /* \"#utility.yul\":11966:12043   */\n    tag_102:\n        /* \"#utility.yul\":12003:12010   */\n      0x00\n        /* \"#utility.yul\":12032:12037   */\n      dup2\n        /* \"#utility.yul\":12021:12037   */\n      swap1\n      pop\n        /* \"#utility.yul\":11966:12043   */\n      swap2\n      swap1\n      pop\n      jump\t// out\n        /* \"#utility.yul\":12049:12167   */\n    tag_103:\n        /* \"#utility.yul\":12136:12160   */\n      tag_244\n        /* \"#utility.yul\":12154:12159   */\n      dup2\n        /* \"#utility.yul\":12136:12160   */\n      tag_102\n      jump\t// in\n    tag_244:\n        /* \"#utility.yul\":12131:12134   */\n      dup3\n        /* \"#utility.yul\":12124:12161   */\n      mstore\n        /* \"#utility.yul\":12049:12167   */\n      pop\n      pop\n      jump\t// out\n        /* \"#utility.yul\":12173:12706   */\n    tag_45:\n        /* \"#utility.yul\":12342:12346   */\n      0x00\n        /* \"#utility.yul\":12380:12382   */\n      0x60\n        /* \"#utility.yul\":12369:12378   */\n      dup3\n        /* \"#utility.yul\":12365:12383   */\n      add\n        /* \"#utility.yul\":12357:12383   */\n      swap1\n      pop\n        /* \"#utility.yul\":12429:12438   */\n      dup2\n        /* \"#utility.yul\":12423:12427   */\n      dup2\n        /* \"#utility.yul\":12419:12439   */\n      sub\n        /* \"#utility.yul\":12415:12416   */\n      0x00\n        /* \"#utility.yul\":12404:12413   */\n      dup4\n        /* \"#utility.yul\":12400:12417   */\n      add\n        /* \"#utility.yul\":12393:12440   */\n      mstore\n        /* \"#utility.yul\":12457:12535   */\n      tag_246\n        /* \"#utility.yul\":12530:12534   */\n      dup2\n        /* \"#utility.yul\":12521:12527   */\n      dup7\n        /* \"#utility.yul\":12457:12535   */\n      tag_84\n      jump\t// in\n    tag_246:\n        /* \"#utility.yul\":12449:12535   */\n      swap1\n      pop\n        /* \"#utility.yul\":12545:12617   */\n      tag_247\n        /* \"#utility.yul\":12613:12615   */\n      0x20\n        /* \"#utility.yul\":12602:12611   */\n      dup4\n        /* \"#utility.yul\":12598:12616   */\n      add\n        /* \"#utility.yul\":12589:12595   */\n      dup6\n        /* \"#utility.yul\":12545:12617   */\n      tag_80\n      jump\t// in\n    tag_247:\n        /* \"#utility.yul\":12627:12699   */\n      tag_248\n        /* \"#utility.yul\":12695:12697   */\n      0x40\n        /* \"#utility.yul\":12684:12693   */\n      dup4\n        /* \"#utility.yul\":12680:12698   */\n      add\n        /* \"#utility.yul\":12671:12677   */\n      dup5\n        /* \"#utility.yul\":12627:12699   */\n      tag_103\n      jump\t// in\n    tag_248:\n        /* \"#utility.yul\":12173:12706   */\n      swap5\n      swap4\n      pop\n      pop\n      pop\n      pop\n      jump\t// out\n        /* \"#utility.yul\":12712:12892   */\n    tag_104:\n        /* \"#utility.yul\":12760:12837   */\n      0x4e487b7100000000000000000000000000000000000000000000000000000000\n        /* \"#utility.yul\":12757:12758   */\n      0x00\n        /* \"#utility.yul\":12750:12838   */\n      mstore\n        /* \"#utility.yul\":12857:12861   */\n      0x22\n        /* \"#utility.yul\":12854:12855   */\n      0x04\n        /* \"#utility.yul\":12847:12862   */\n      mstore\n        /* \"#utility.yul\":12881:12885   */\n      0x24\n        /* \"#utility.yul\":12878:12879   */\n      0x00\n        /* \"#utility.yul\":12871:12886   */\n      revert\n        /* \"#utility.yul\":12898:13218   */\n    tag_47:\n        /* \"#utility.yul\":12942:12948   */\n      0x00\n        /* \"#utility.yul\":12979:12980   */\n      0x02\n        /* \"#utility.yul\":12973:12977   */\n      dup3\n        /* \"#utility.yul\":12969:12981   */\n      div\n        /* \"#utility.yul\":12959:12981   */\n      swap1\n      pop\n        /* \"#utility.yul\":13026:13027   */\n      0x01\n        /* \"#utility.yul\":13020:13024   */\n      dup3\n        /* \"#utility.yul\":13016:13028   */\n      and\n        /* \"#utility.yul\":13047:13065   */\n      dup1\n        /* \"#utility.yul\":13037:13118   */\n      tag_251\n      jumpi\n        /* \"#utility.yul\":13103:13107   */\n      0x7f\n        /* \"#utility.yul\":13095:13101   */\n      dup3\n        /* \"#utility.yul\":13091:13108   */\n      and\n        /* \"#utility.yul\":13081:13108   */\n      swap2\n      pop\n        /* \"#utility.yul\":13037:13118   */\n    tag_251:\n        /* \"#utility.yul\":13165:13167   */\n      0x20\n        /* \"#utility.yul\":13157:13163   */\n      dup3\n        /* \"#utility.yul\":13154:13168   */\n      lt\n        /* \"#utility.yul\":13134:13152   */\n      dup2\n        /* \"#utility.yul\":13131:13169   */\n      sub\n        /* \"#utility.yul\":13128:13212   */\n      tag_252\n      jumpi\n        /* \"#utility.yul\":13184:13202   */\n      tag_253\n      tag_104\n      jump\t// in\n    tag_253:\n        /* \"#utility.yul\":13128:13212   */\n    tag_252:\n        /* \"#utility.yul\":12949:13218   */\n      pop\n        /* \"#utility.yul\":12898:13218   */\n      swap2\n      swap1\n      pop\n      jump\t// out\n        /* \"#utility.yul\":13224:13402   */\n    tag_105:\n        /* \"#utility.yul\":13364:13394   */\n      0x4164726573736520647520646f637465757220696e76616c6964652e00000000\n        /* \"#utility.yul\":13360:13361   */\n      0x00\n        /* \"#utility.yul\":13352:13358   */\n      dup3\n        /* \"#utility.yul\":13348:13362   */\n      add\n        /* \"#utility.yul\":13341:13395   */\n      mstore\n        /* \"#utility.yul\":13224:13402   */\n      pop\n      jump\t// out\n        /* \"#utility.yul\":13408:13774   */\n    tag_106:\n        /* \"#utility.yul\":13550:13553   */\n      0x00\n        /* \"#utility.yul\":13571:13638   */\n      tag_256\n        /* \"#utility.yul\":13635:13637   */\n      0x1c\n        /* \"#utility.yul\":13630:13633   */\n      dup4\n        /* \"#utility.yul\":13571:13638   */\n      tag_82\n      jump\t// in\n    tag_256:\n        /* \"#utility.yul\":13564:13638   */\n      swap2\n      pop\n        /* \"#utility.yul\":13647:13740   */\n      tag_257\n        /* \"#utility.yul\":13736:13739   */\n      dup3\n        /* \"#utility.yul\":13647:13740   */\n      tag_105\n      jump\t// in\n    tag_257:\n        /* \"#utility.yul\":13765:13767   */\n      0x20\n        /* \"#utility.yul\":13760:13763   */\n      dup3\n        /* \"#utility.yul\":13756:13768   */\n      add\n        /* \"#utility.yul\":13749:13768   */\n      swap1\n      pop\n        /* \"#utility.yul\":13408:13774   */\n      swap2\n      swap1\n      pop\n      jump\t// out\n        /* \"#utility.yul\":13780:14199   */\n    tag_55:\n        /* \"#utility.yul\":13946:13950   */\n      0x00\n        /* \"#utility.yul\":13984:13986   */\n      0x20\n        /* \"#utility.yul\":13973:13982   */\n      dup3\n        /* \"#utility.yul\":13969:13987   */\n      add\n        /* \"#utility.yul\":13961:13987   */\n      swap1\n      pop\n        /* \"#utility.yul\":14033:14042   */\n      dup2\n        /* \"#utility.yul\":14027:14031   */\n      dup2\n        /* \"#utility.yul\":14023:14043   */\n      sub\n        /* \"#utility.yul\":14019:14020   */\n      0x00\n        /* \"#utility.yul\":14008:14017   */\n      dup4\n        /* \"#utility.yul\":14004:14021   */\n      add\n        /* \"#utility.yul\":13997:14044   */\n      mstore\n        /* \"#utility.yul\":14061:14192   */\n      tag_259\n        /* \"#utility.yul\":14187:14191   */\n      dup2\n        /* \"#utility.yul\":14061:14192   */\n      tag_106\n      jump\t// in\n    tag_259:\n        /* \"#utility.yul\":14053:14192   */\n      swap1\n      pop\n        /* \"#utility.yul\":13780:14199   */\n      swap2\n      swap1\n      pop\n      jump\t// out\n        /* \"#utility.yul\":14205:14379   */\n    tag_107:\n        /* \"#utility.yul\":14345:14371   */\n      0x446f63746575722064656a6120656e72656769737472652e0000000000000000\n        /* \"#utility.yul\":14341:14342   */\n      0x00\n        /* \"#utility.yul\":14333:14339   */\n      dup3\n        /* \"#utility.yul\":14329:14343   */\n      add\n        /* \"#utility.yul\":14322:14372   */\n      mstore\n        /* \"#utility.yul\":14205:14379   */\n      pop\n      jump\t// out\n        /* \"#utility.yul\":14385:14751   */\n    tag_108:\n        /* \"#utility.yul\":14527:14530   */\n      0x00\n        /* \"#utility.yul\":14548:14615   */\n      tag_262\n        /* \"#utility.yul\":14612:14614   */\n      0x18\n        /* \"#utility.yul\":14607:14610   */\n      dup4\n        /* \"#utility.yul\":14548:14615   */\n      tag_82\n      jump\t// in\n    tag_262:\n        /* \"#utility.yul\":14541:14615   */\n      swap2\n      pop\n        /* \"#utility.yul\":14624:14717   */\n      tag_263\n        /* \"#utility.yul\":14713:14716   */\n      dup3\n        /* \"#utility.yul\":14624:14717   */\n      tag_107\n      jump\t// in\n    tag_263:\n        /* \"#utility.yul\":14742:14744   */\n      0x20\n        /* \"#utility.yul\":14737:14740   */\n      dup3\n        /* \"#utility.yul\":14733:14745   */\n      add\n        /* \"#utility.yul\":14726:14745   */\n      swap1\n      pop\n        /* \"#utility.yul\":14385:14751   */\n      swap2\n      swap1\n      pop\n      jump\t// out\n        /* \"#utility.yul\":14757:15176   */\n    tag_58:\n        /* \"#utility.yul\":14923:14927   */\n      0x00\n        /* \"#utility.yul\":14961:14963   */\n      0x20\n        /* \"#utility.yul\":14950:14959   */\n      dup3\n        /* \"#utility.yul\":14946:14964   */\n      add\n        /* \"#utility.yul\":14938:14964   */\n      swap1\n      pop\n        /* \"#utility.yul\":15010:15019   */\n      dup2\n        /* \"#utility.yul\":15004:15008   */\n      dup2\n        /* \"#utility.yul\":15000:15020   */\n      sub\n        /* \"#utility.yul\":14996:14997   */\n      0x00\n        /* \"#utility.yul\":14985:14994   */\n      dup4\n        /* \"#utility.yul\":14981:14998   */\n      add\n        /* \"#utility.yul\":14974:15021   */\n      mstore\n        /* \"#utility.yul\":15038:15169   */\n      tag_265\n        /* \"#utility.yul\":15164:15168   */\n      dup2\n        /* \"#utility.yul\":15038:15169   */\n      tag_108\n      jump\t// in\n    tag_265:\n        /* \"#utility.yul\":15030:15169   */\n      swap1\n      pop\n        /* \"#utility.yul\":14757:15176   */\n      swap2\n      swap1\n      pop\n      jump\t// out\n        /* \"#utility.yul\":15182:15323   */\n    tag_109:\n        /* \"#utility.yul\":15231:15235   */\n      0x00\n        /* \"#utility.yul\":15254:15257   */\n      dup2\n        /* \"#utility.yul\":15246:15257   */\n      swap1\n      pop\n        /* \"#utility.yul\":15277:15280   */\n      dup2\n        /* \"#utility.yul\":15274:15275   */\n      0x00\n        /* \"#utility.yul\":15267:15281   */\n      mstore\n        /* \"#utility.yul\":15311:15315   */\n      0x20\n        /* \"#utility.yul\":15308:15309   */\n      0x00\n        /* \"#utility.yul\":15298:15316   */\n      keccak256\n        /* \"#utility.yul\":15290:15316   */\n      swap1\n      pop\n        /* \"#utility.yul\":15182:15323   */\n      swap2\n      swap1\n      pop\n      jump\t// out\n        /* \"#utility.yul\":15329:15422   */\n    tag_110:\n        /* \"#utility.yul\":15366:15372   */\n      0x00\n        /* \"#utility.yul\":15413:15415   */\n      0x20\n        /* \"#utility.yul\":15408:15410   */\n      0x1f\n        /* \"#utility.yul\":15401:15406   */\n      dup4\n        /* \"#utility.yul\":15397:15411   */\n      add\n        /* \"#utility.yul\":15393:15416   */\n      div\n        /* \"#utility.yul\":15383:15416   */\n      swap1\n      pop\n        /* \"#utility.yul\":15329:15422   */\n      swap2\n      swap1\n      pop\n      jump\t// out\n        /* \"#utility.yul\":15428:15535   */\n    tag_111:\n        /* \"#utility.yul\":15472:15480   */\n      0x00\n        /* \"#utility.yul\":15522:15527   */\n      dup3\n        /* \"#utility.yul\":15516:15520   */\n      dup3\n        /* \"#utility.yul\":15512:15528   */\n      shl\n        /* \"#utility.yul\":15491:15528   */\n      swap1\n      pop\n        /* \"#utility.yul\":15428:15535   */\n      swap3\n      swap2\n      pop\n      pop\n      jump\t// out\n        /* \"#utility.yul\":15541:15934   */\n    tag_112:\n        /* \"#utility.yul\":15610:15616   */\n      0x00\n        /* \"#utility.yul\":15660:15661   */\n      0x08\n        /* \"#utility.yul\":15648:15658   */\n      dup4\n        /* \"#utility.yul\":15644:15662   */\n      mul\n        /* \"#utility.yul\":15683:15780   */\n      tag_270\n        /* \"#utility.yul\":15713:15779   */\n      0xffffffffffffffffffffffffffffffffffffffffffffffffffffffffffffffff\n        /* \"#utility.yul\":15702:15711   */\n      dup3\n        /* \"#utility.yul\":15683:15780   */\n      tag_111\n      jump\t// in\n    tag_270:\n        /* \"#utility.yul\":15801:15840   */\n      tag_271\n        /* \"#utility.yul\":15831:15839   */\n      dup7\n        /* \"#utility.yul\":15820:15829   */\n      dup4\n        /* \"#utility.yul\":15801:15840   */\n      tag_111\n      jump\t// in\n    tag_271:\n        /* \"#utility.yul\":15789:15840   */\n      swap6\n      pop\n        /* \"#utility.yul\":15873:15877   */\n      dup1\n        /* \"#utility.yul\":15869:15878   */\n      not\n        /* \"#utility.yul\":15862:15867   */\n      dup5\n        /* \"#utility.yul\":15858:15879   */\n      and\n        /* \"#utility.yul\":15849:15879   */\n      swap4\n      pop\n        /* \"#utility.yul\":15922:15926   */\n      dup1\n        /* \"#utility.yul\":15912:15920   */\n      dup7\n        /* \"#utility.yul\":15908:15927   */\n      and\n        /* \"#utility.yul\":15901:15906   */\n      dup5\n        /* \"#utility.yul\":15898:15928   */\n      or\n        /* \"#utility.yul\":15888:15928   */\n      swap3\n      pop\n        /* \"#utility.yul\":15617:15934   */\n      pop\n      pop\n        /* \"#utility.yul\":15541:15934   */\n      swap4\n      swap3\n      pop\n      pop\n      pop\n      jump\t// out\n        /* \"#utility.yul\":15940:16082   */\n    tag_113:\n        /* \"#utility.yul\":15990:15999   */\n      0x00\n        /* \"#utility.yul\":16023:16076   */\n      tag_273\n        /* \"#utility.yul\":16041:16075   */\n      tag_274\n        /* \"#utility.yul\":16050:16074   */\n      tag_275\n        /* \"#utility.yul\":16068:16073   */\n      dup5\n        /* \"#utility.yul\":16050:16074   */\n      tag_102\n      jump\t// in\n    tag_275:\n        /* \"#utility.yul\":16041:16075   */\n      tag_87\n      jump\t// in\n    tag_274:\n        /* \"#utility.yul\":16023:16076   */\n      tag_102\n      jump\t// in\n    tag_273:\n        /* \"#utility.yul\":16010:16076   */\n      swap1\n      pop\n        /* \"#utility.yul\":15940:16082   */\n      swap2\n      swap1\n      pop\n      jump\t// out\n        /* \"#utility.yul\":16088:16163   */\n    tag_114:\n        /* \"#utility.yul\":16131:16134   */\n      0x00\n        /* \"#utility.yul\":16152:16157   */\n      dup2\n        /* \"#utility.yul\":16145:16157   */\n      swap1\n      pop\n        /* \"#utility.yul\":16088:16163   */\n      swap2\n      swap1\n      pop\n      jump\t// out\n        /* \"#utility.yul\":16169:16438   */\n    tag_115:\n        /* \"#utility.yul\":16279:16318   */\n      tag_278\n        /* \"#utility.yul\":16310:16317   */\n      dup4\n        /* \"#utility.yul\":16279:16318   */\n      tag_113\n      jump\t// in\n    tag_278:\n        /* \"#utility.yul\":16340:16431   */\n      tag_279\n        /* \"#utility.yul\":16389:16430   */\n      tag_280\n        /* \"#utility.yul\":16413:16429   */\n      dup3\n        /* \"#utility.yul\":16389:16430   */\n      tag_114\n      jump\t// in\n    tag_280:\n        /* \"#utility.yul\":16381:16387   */\n      dup5\n        /* \"#utility.yul\":16374:16378   */\n      dup5\n        /* \"#utility.yul\":16368:16379   */\n      sload\n        /* \"#utility.yul\":16340:16431   */\n      tag_112\n      jump\t// in\n    tag_279:\n        /* \"#utility.yul\":16334:16338   */\n      dup3\n        /* \"#utility.yul\":16327:16432   */\n      sstore\n        /* \"#utility.yul\":16245:16438   */\n      pop\n        /* \"#utility.yul\":16169:16438   */\n      pop\n      pop\n      pop\n      jump\t// out\n        /* \"#utility.yul\":16444:16517   */\n    tag_116:\n        /* \"#utility.yul\":16489:16492   */\n      0x00\n        /* \"#utility.yul\":16444:16517   */\n      swap1\n      jump\t// out\n        /* \"#utility.yul\":16523:16712   */\n    tag_117:\n        /* \"#utility.yul\":16600:16632   */\n      tag_283\n      tag_116\n      jump\t// in\n    tag_283:\n        /* \"#utility.yul\":16641:16706   */\n      tag_284\n        /* \"#utility.yul\":16699:16705   */\n      dup2\n        /* \"#utility.yul\":16691:16697   */\n      dup5\n        /* \"#utility.yul\":16685:16689   */\n      dup5\n        /* \"#utility.yul\":16641:16706   */\n      tag_115\n      jump\t// in\n    tag_284:\n        /* \"#utility.yul\":16576:16712   */\n      pop\n        /* \"#utility.yul\":16523:16712   */\n      pop\n      pop\n      jump\t// out\n        /* \"#utility.yul\":16718:16904   */\n    tag_118:\n        /* \"#utility.yul\":16778:16898   */\n    tag_286:\n        /* \"#utility.yul\":16795:16798   */\n      dup2\n        /* \"#utility.yul\":16788:16793   */\n      dup2\n        /* \"#utility.yul\":16785:16799   */\n      lt\n        /* \"#utility.yul\":16778:16898   */\n      iszero\n      tag_288\n      jumpi\n        /* \"#utility.yul\":16849:16888   */\n      tag_289\n        /* \"#utility.yul\":16886:16887   */\n      0x00\n        /* \"#utility.yul\":16879:16884   */\n      dup3\n        /* \"#utility.yul\":16849:16888   */\n      tag_117\n      jump\t// in\n    tag_289:\n        /* \"#utility.yul\":16822:16823   */\n      0x01\n        /* \"#utility.yul\":16815:16820   */\n      dup2\n        /* \"#utility.yul\":16811:16824   */\n      add\n        /* \"#utility.yul\":16802:16824   */\n      swap1\n      pop\n        /* \"#utility.yul\":16778:16898   */\n      jump(tag_286)\n    tag_288:\n        /* \"#utility.yul\":16718:16904   */\n      pop\n      pop\n      jump\t// out\n        /* \"#utility.yul\":16910:17453   */\n    tag_119:\n        /* \"#utility.yul\":17011:17013   */\n      0x1f\n        /* \"#utility.yul\":17006:17009   */\n      dup3\n        /* \"#utility.yul\":17003:17014   */\n      gt\n        /* \"#utility.yul\":17000:17446   */\n      iszero\n      tag_291\n      jumpi\n        /* \"#utility.yul\":17045:17083   */\n      tag_292\n        /* \"#utility.yul\":17077:17082   */\n      dup2\n        /* \"#utility.yul\":17045:17083   */\n      tag_109\n      jump\t// in\n    tag_292:\n        /* \"#utility.yul\":17129:17158   */\n      tag_293\n        /* \"#utility.yul\":17147:17157   */\n      dup5\n        /* \"#utility.yul\":17129:17158   */\n      tag_110\n      jump\t// in\n    tag_293:\n        /* \"#utility.yul\":17119:17127   */\n      dup2\n        /* \"#utility.yul\":17115:17159   */\n      add\n        /* \"#utility.yul\":17312:17314   */\n      0x20\n        /* \"#utility.yul\":17300:17310   */\n      dup6\n        /* \"#utility.yul\":17297:17315   */\n      lt\n        /* \"#utility.yul\":17294:17343   */\n      iszero\n      tag_294\n      jumpi\n        /* \"#utility.yul\":17333:17341   */\n      dup2\n        /* \"#utility.yul\":17318:17341   */\n      swap1\n      pop\n        /* \"#utility.yul\":17294:17343   */\n    tag_294:\n        /* \"#utility.yul\":17356:17436   */\n      tag_295\n        /* \"#utility.yul\":17412:17434   */\n      tag_296\n        /* \"#utility.yul\":17430:17433   */\n      dup6\n        /* \"#utility.yul\":17412:17434   */\n      tag_110\n      jump\t// in\n    tag_296:\n        /* \"#utility.yul\":17402:17410   */\n      dup4\n        /* \"#utility.yul\":17398:17435   */\n      add\n        /* \"#utility.yul\":17385:17396   */\n      dup3\n        /* \"#utility.yul\":17356:17436   */\n      tag_118\n      jump\t// in\n    tag_295:\n        /* \"#utility.yul\":17015:17446   */\n      pop\n      pop\n        /* \"#utility.yul\":17000:17446   */\n    tag_291:\n        /* \"#utility.yul\":16910:17453   */\n      pop\n      pop\n      pop\n      jump\t// out\n        /* \"#utility.yul\":17459:17576   */\n    tag_120:\n        /* \"#utility.yul\":17513:17521   */\n      0x00\n        /* \"#utility.yul\":17563:17568   */\n      dup3\n        /* \"#utility.yul\":17557:17561   */\n      dup3\n        /* \"#utility.yul\":17553:17569   */\n      shr\n        /* \"#utility.yul\":17532:17569   */\n      swap1\n      pop\n        /* \"#utility.yul\":17459:17576   */\n      swap3\n      swap2\n      pop\n      pop\n      jump\t// out\n        /* \"#utility.yul\":17582:17751   */\n    tag_121:\n        /* \"#utility.yul\":17626:17632   */\n      0x00\n        /* \"#utility.yul\":17659:17710   */\n      tag_299\n        /* \"#utility.yul\":17707:17708   */\n      0x00\n        /* \"#utility.yul\":17703:17709   */\n      not\n        /* \"#utility.yul\":17695:17700   */\n      dup5\n        /* \"#utility.yul\":17692:17693   */\n      0x08\n        /* \"#utility.yul\":17688:17701   */\n      mul\n        /* \"#utility.yul\":17659:17710   */\n      tag_120\n      jump\t// in\n    tag_299:\n        /* \"#utility.yul\":17655:17711   */\n      not\n        /* \"#utility.yul\":17740:17744   */\n      dup1\n        /* \"#utility.yul\":17734:17738   */\n      dup4\n        /* \"#utility.yul\":17730:17745   */\n      and\n        /* \"#utility.yul\":17720:17745   */\n      swap2\n      pop\n        /* \"#utility.yul\":17633:17751   */\n      pop\n        /* \"#utility.yul\":17582:17751   */\n      swap3\n      swap2\n      pop\n      pop\n      jump\t// out\n        /* \"#utility.yul\":17756:18051   */\n    tag_122:\n        /* \"#utility.yul\":17832:17836   */\n      0x00\n        /* \"#utility.yul\":17978:18007   */\n      tag_301\n        /* \"#utility.yul\":18003:18006   */\n      dup4\n        /* \"#utility.yul\":17997:18001   */\n      dup4\n        /* \"#utility.yul\":17978:18007   */\n      tag_121\n      jump\t// in\n    tag_301:\n        /* \"#utility.yul\":17970:18007   */\n      swap2\n      pop\n        /* \"#utility.yul\":18040:18043   */\n      dup3\n        /* \"#utility.yul\":18037:18038   */\n      0x02\n        /* \"#utility.yul\":18033:18044   */\n      mul\n        /* \"#utility.yul\":18027:18031   */\n      dup3\n        /* \"#utility.yul\":18024:18045   */\n      or\n        /* \"#utility.yul\":18016:18045   */\n      swap1\n      pop\n        /* \"#utility.yul\":17756:18051   */\n      swap3\n      swap2\n      pop\n      pop\n      jump\t// out\n        /* \"#utility.yul\":18056:19451   */\n    tag_60:\n        /* \"#utility.yul\":18173:18210   */\n      tag_303\n        /* \"#utility.yul\":18206:18209   */\n      dup3\n        /* \"#utility.yul\":18173:18210   */\n      tag_81\n      jump\t// in\n    tag_303:\n        /* \"#utility.yul\":18275:18293   */\n      0xffffffffffffffff\n        /* \"#utility.yul\":18267:18273   */\n      dup2\n        /* \"#utility.yul\":18264:18294   */\n      gt\n        /* \"#utility.yul\":18261:18317   */\n      iszero\n      tag_304\n      jumpi\n        /* \"#utility.yul\":18297:18315   */\n      tag_305\n      tag_73\n      jump\t// in\n    tag_305:\n        /* \"#utility.yul\":18261:18317   */\n    tag_304:\n        /* \"#utility.yul\":18341:18379   */\n      tag_306\n        /* \"#utility.yul\":18373:18377   */\n      dup3\n        /* \"#utility.yul\":18367:18378   */\n      sload\n        /* \"#utility.yul\":18341:18379   */\n      tag_47\n      jump\t// in\n    tag_306:\n        /* \"#utility.yul\":18426:18493   */\n      tag_307\n        /* \"#utility.yul\":18486:18492   */\n      dup3\n        /* \"#utility.yul\":18478:18484   */\n      dup3\n        /* \"#utility.yul\":18472:18476   */\n      dup6\n        /* \"#utility.yul\":18426:18493   */\n      tag_119\n      jump\t// in\n    tag_307:\n        /* \"#utility.yul\":18520:18521   */\n      0x00\n        /* \"#utility.yul\":18544:18548   */\n      0x20\n        /* \"#utility.yul\":18531:18548   */\n      swap1\n      pop\n        /* \"#utility.yul\":18576:18578   */\n      0x1f\n        /* \"#utility.yul\":18568:18574   */\n      dup4\n        /* \"#utility.yul\":18565:18579   */\n      gt\n        /* \"#utility.yul\":18593:18594   */\n      0x01\n        /* \"#utility.yul\":18588:19206   */\n      dup2\n      eq\n      tag_309\n      jumpi\n        /* \"#utility.yul\":19250:19251   */\n      0x00\n        /* \"#utility.yul\":19267:19273   */\n      dup5\n        /* \"#utility.yul\":19264:19341   */\n      iszero\n      tag_310\n      jumpi\n        /* \"#utility.yul\":19316:19325   */\n      dup3\n        /* \"#utility.yul\":19311:19314   */\n      dup8\n        /* \"#utility.yul\":19307:19326   */\n      add\n        /* \"#utility.yul\":19301:19327   */\n      mload\n        /* \"#utility.yul\":19292:19327   */\n      swap1\n      pop\n        /* \"#utility.yul\":19264:19341   */\n    tag_310:\n        /* \"#utility.yul\":19367:19434   */\n      tag_311\n        /* \"#utility.yul\":19427:19433   */\n      dup6\n        /* \"#utility.yul\":19420:19425   */\n      dup3\n        /* \"#utility.yul\":19367:19434   */\n      tag_122\n      jump\t// in\n    tag_311:\n        /* \"#utility.yul\":19361:19365   */\n      dup7\n        /* \"#utility.yul\":19354:19435   */\n      sstore\n        /* \"#utility.yul\":19223:19445   */\n      pop\n        /* \"#utility.yul\":18558:19445   */\n      jump(tag_308)\n        /* \"#utility.yul\":18588:19206   */\n    tag_309:\n        /* \"#utility.yul\":18640:18644   */\n      0x1f\n        /* \"#utility.yul\":18636:18645   */\n      not\n        /* \"#utility.yul\":18628:18634   */\n      dup5\n        /* \"#utility.yul\":18624:18646   */\n      and\n        /* \"#utility.yul\":18674:18711   */\n      tag_312\n        /* \"#utility.yul\":18706:18710   */\n      dup7\n        /* \"#utility.yul\":18674:18711   */\n      tag_109\n      jump\t// in\n    tag_312:\n        /* \"#utility.yul\":18733:18734   */\n      0x00\n        /* \"#utility.yul\":18747:18955   */\n    tag_313:\n        /* \"#utility.yul\":18761:18768   */\n      dup3\n        /* \"#utility.yul\":18758:18759   */\n      dup2\n        /* \"#utility.yul\":18755:18769   */\n      lt\n        /* \"#utility.yul\":18747:18955   */\n      iszero\n      tag_315\n      jumpi\n        /* \"#utility.yul\":18840:18849   */\n      dup5\n        /* \"#utility.yul\":18835:18838   */\n      dup10\n        /* \"#utility.yul\":18831:18850   */\n      add\n        /* \"#utility.yul\":18825:18851   */\n      mload\n        /* \"#utility.yul\":18817:18823   */\n      dup3\n        /* \"#utility.yul\":18810:18852   */\n      sstore\n        /* \"#utility.yul\":18891:18892   */\n      0x01\n        /* \"#utility.yul\":18883:18889   */\n      dup3\n        /* \"#utility.yul\":18879:18893   */\n      add\n        /* \"#utility.yul\":18869:18893   */\n      swap2\n      pop\n        /* \"#utility.yul\":18938:18940   */\n      0x20\n        /* \"#utility.yul\":18927:18936   */\n      dup6\n        /* \"#utility.yul\":18923:18941   */\n      add\n        /* \"#utility.yul\":18910:18941   */\n      swap5\n      pop\n        /* \"#utility.yul\":18784:18788   */\n      0x20\n        /* \"#utility.yul\":18781:18782   */\n      dup2\n        /* \"#utility.yul\":18777:18789   */\n      add\n        /* \"#utility.yul\":18772:18789   */\n      swap1\n      pop\n        /* \"#utility.yul\":18747:18955   */\n      jump(tag_313)\n    tag_315:\n        /* \"#utility.yul\":18983:18989   */\n      dup7\n        /* \"#utility.yul\":18974:18981   */\n      dup4\n        /* \"#utility.yul\":18971:18990   */\n      lt\n        /* \"#utility.yul\":18968:19147   */\n      iszero\n      tag_316\n      jumpi\n        /* \"#utility.yul\":19041:19050   */\n      dup5\n        /* \"#utility.yul\":19036:19039   */\n      dup10\n        /* \"#utility.yul\":19032:19051   */\n      add\n        /* \"#utility.yul\":19026:19052   */\n      mload\n        /* \"#utility.yul\":19084:19132   */\n      tag_317\n        /* \"#utility.yul\":19126:19130   */\n      0x1f\n        /* \"#utility.yul\":19118:19124   */\n      dup10\n        /* \"#utility.yul\":19114:19131   */\n      and\n        /* \"#utility.yul\":19103:19112   */\n      dup3\n        /* \"#utility.yul\":19084:19132   */\n      tag_121\n      jump\t// in\n    tag_317:\n        /* \"#utility.yul\":19076:19082   */\n      dup4\n        /* \"#utility.yul\":19069:19133   */\n      sstore\n        /* \"#utility.yul\":18991:19147   */\n      pop\n        /* \"#utility.yul\":18968:19147   */\n    tag_316:\n        /* \"#utility.yul\":19193:19194   */\n      0x01\n        /* \"#utility.yul\":19189:19190   */\n      0x02\n        /* \"#utility.yul\":19181:19187   */\n      dup9\n        /* \"#utility.yul\":19177:19191   */\n      mul\n        /* \"#utility.yul\":19173:19195   */\n      add\n        /* \"#utility.yul\":19167:19171   */\n      dup9\n        /* \"#utility.yul\":19160:19196   */\n      sstore\n        /* \"#utility.yul\":18595:19206   */\n      pop\n      pop\n      pop\n        /* \"#utility.yul\":18558:19445   */\n    tag_308:\n      pop\n        /* \"#utility.yul\":18148:19451   */\n      pop\n      pop\n      pop\n        /* \"#utility.yul\":18056:19451   */\n      pop\n      pop\n      jump\t// out\n        /* \"#utility.yul\":19457:19770   */\n    tag_62:\n        /* \"#utility.yul\":19570:19574   */\n      0x00\n        /* \"#utility.yul\":19608:19610   */\n      0x20\n        /* \"#utility.yul\":19597:19606   */\n      dup3\n        /* \"#utility.yul\":19593:19611   */\n      add\n        /* \"#utility.yul\":19585:19611   */\n      swap1\n      pop\n        /* \"#utility.yul\":19657:19666   */\n      dup2\n        /* \"#utility.yul\":19651:19655   */\n      dup2\n        /* \"#utility.yul\":19647:19667   */\n      sub\n        /* \"#utility.yul\":19643:19644   */\n      0x00\n        /* \"#utility.yul\":19632:19641   */\n      dup4\n        /* \"#utility.yul\":19628:19645   */\n      add\n        /* \"#utility.yul\":19621:19668   */\n      mstore\n        /* \"#utility.yul\":19685:19763   */\n      tag_319\n        /* \"#utility.yul\":19758:19762   */\n      dup2\n        /* \"#utility.yul\":19749:19755   */\n      dup5\n        /* \"#utility.yul\":19685:19763   */\n      tag_84\n      jump\t// in\n    tag_319:\n        /* \"#utility.yul\":19677:19763   */\n      swap1\n      pop\n        /* \"#utility.yul\":19457:19770   */\n      swap3\n      swap2\n      pop\n      pop\n      jump\t// out\n\n    auxdata: 0xa264697066735822122082bc747160deca62fd7f932751921ba7680217bd81cce37a525e4e350026034164736f6c634300081a0033\n}\n",
				"bytecode": {
					"linkReferences": {},
					"object": "608060405234801561001057600080fd5b506040516113763803806113768339818101604052810190610032919061014b565b600073ffffffffffffffffffffffffffffffffffffffff168173ffffffffffffffffffffffffffffffffffffffff16036100a1576040517f08c379a0000000000000000000000000000000000000000000000000000000008152600401610098906101fb565b60405180910390fd5b80600160006101000a81548173ffffffffffffffffffffffffffffffffffffffff021916908373ffffffffffffffffffffffffffffffffffffffff1602179055505061021b565b600080fd5b600073ffffffffffffffffffffffffffffffffffffffff82169050919050565b6000610118826100ed565b9050919050565b6101288161010d565b811461013357600080fd5b50565b6000815190506101458161011f565b92915050565b600060208284031215610161576101606100e8565b5b600061016f84828501610136565b91505092915050565b600082825260208201905092915050565b7f4164726573736520647520636f6e747261742050617469656e7420696e76616c60008201527f6964652e00000000000000000000000000000000000000000000000000000000602082015250565b60006101e5602483610178565b91506101f082610189565b604082019050919050565b60006020820190508181036000830152610214816101d8565b9050919050565b61114c8061022a6000396000f3fe608060405234801561001057600080fd5b506004361061004c5760003560e01c8063a6ca829314610051578063a9583c221461006d578063f2ca0b411461009f578063f6e8e18f146100bb575b600080fd5b61006b6004803603810190610066919061084e565b6100d9565b005b610087600480360381019061008291906108aa565b61034f565b60405161009693929190610980565b60405180910390f35b6100b960048036038101906100b4919061084e565b61042e565b005b6100c3610670565b6040516100d09190610a1d565b60405180910390f35b6000803373ffffffffffffffffffffffffffffffffffffffff1673ffffffffffffffffffffffffffffffffffffffff16815260200190815260200160002060020160009054906101000a900460ff16610167576040517f08c379a000000000000000000000000000000000000000000000000000000000815260040161015e90610aaa565b60405180910390fd5b600073ffffffffffffffffffffffffffffffffffffffff168273ffffffffffffffffffffffffffffffffffffffff16036101d6576040517f08c379a00000000000000000000000000000000000000000000000000000000081526004016101cd90610b16565b60405180910390fd5b600081511161021a576040517f08c379a000000000000000000000000000000000000000000000000000000000815260040161021190610ba8565b60405180910390fd5b600160009054906101000a900473ffffffffffffffffffffffffffffffffffffffff1673ffffffffffffffffffffffffffffffffffffffff166357834a1d8383336040518463ffffffff1660e01b815260040161027993929190610bc8565b602060405180830381865afa158015610296573d6000803e3d6000fd5b505050506040513d601f19601f820116820180604052508101906102ba9190610c32565b6102f9576040517f08c379a00000000000000000000000000000000000000000000000000000000081526004016102f090610cd1565b60405180910390fd5b8173ffffffffffffffffffffffffffffffffffffffff167ffebb0c340d90ba7ece9dabf4d4b0ff5db95f5d6101ebd8c22ee275ab4d1f7b4582334260405161034393929190610d0a565b60405180910390a25050565b60006020528060005260406000206000915090508060000160009054906101000a900473ffffffffffffffffffffffffffffffffffffffff169080600101805461039890610d77565b80601f01602080910402602001604051908101604052809291908181526020018280546103c490610d77565b80156104115780601f106103e657610100808354040283529160200191610411565b820191906000526020600020905b8154815290600101906020018083116103f457829003601f168201915b5050505050908060020160009054906101000a900460ff16905083565b600073ffffffffffffffffffffffffffffffffffffffff168273ffffffffffffffffffffffffffffffffffffffff160361049d576040517f08c379a000000000000000000000000000000000000000000000000000000000815260040161049490610df4565b60405180910390fd5b6000808373ffffffffffffffffffffffffffffffffffffffff1673ffffffffffffffffffffffffffffffffffffffff16815260200190815260200160002060020160009054906101000a900460ff161561052c576040517f08c379a000000000000000000000000000000000000000000000000000000000815260040161052390610e60565b60405180910390fd5b60405180606001604052808373ffffffffffffffffffffffffffffffffffffffff168152602001828152602001600115158152506000808473ffffffffffffffffffffffffffffffffffffffff1673ffffffffffffffffffffffffffffffffffffffff16815260200190815260200160002060008201518160000160006101000a81548173ffffffffffffffffffffffffffffffffffffffff021916908373ffffffffffffffffffffffffffffffffffffffff16021790555060208201518160010190816105fa9190611022565b5060408201518160020160006101000a81548160ff0219169083151502179055509050508173ffffffffffffffffffffffffffffffffffffffff167f20481b8112b5bf4734f45a473c373db9df6a79ce946cdc0e7dbc22b4f7d7f9868260405161066491906110f4565b60405180910390a25050565b600160009054906101000a900473ffffffffffffffffffffffffffffffffffffffff1681565b6000604051905090565b600080fd5b600080fd5b600073ffffffffffffffffffffffffffffffffffffffff82169050919050565b60006106d5826106aa565b9050919050565b6106e5816106ca565b81146106f057600080fd5b50565b600081359050610702816106dc565b92915050565b600080fd5b600080fd5b6000601f19601f8301169050919050565b7f4e487b7100000000000000000000000000000000000000000000000000000000600052604160045260246000fd5b61075b82610712565b810181811067ffffffffffffffff8211171561077a57610779610723565b5b80604052505050565b600061078d610696565b90506107998282610752565b919050565b600067ffffffffffffffff8211156107b9576107b8610723565b5b6107c282610712565b9050602081019050919050565b82818337600083830152505050565b60006107f16107ec8461079e565b610783565b90508281526020810184848401111561080d5761080c61070d565b5b6108188482856107cf565b509392505050565b600082601f83011261083557610834610708565b5b81356108458482602086016107de565b91505092915050565b60008060408385031215610865576108646106a0565b5b6000610873858286016106f3565b925050602083013567ffffffffffffffff811115610894576108936106a5565b5b6108a085828601610820565b9150509250929050565b6000602082840312156108c0576108bf6106a0565b5b60006108ce848285016106f3565b91505092915050565b6108e0816106ca565b82525050565b600081519050919050565b600082825260208201905092915050565b60005b83811015610920578082015181840152602081019050610905565b60008484015250505050565b6000610937826108e6565b61094181856108f1565b9350610951818560208601610902565b61095a81610712565b840191505092915050565b60008115159050919050565b61097a81610965565b82525050565b600060608201905061099560008301866108d7565b81810360208301526109a7818561092c565b90506109b66040830184610971565b949350505050565b6000819050919050565b60006109e36109de6109d9846106aa565b6109be565b6106aa565b9050919050565b60006109f5826109c8565b9050919050565b6000610a07826109ea565b9050919050565b610a17816109fc565b82525050565b6000602082019050610a326000830184610a0e565b92915050565b7f566f757320646576657a206574726520756e20646f637465757220656e72656760008201527f69737472652e0000000000000000000000000000000000000000000000000000602082015250565b6000610a946026836108f1565b9150610a9f82610a38565b604082019050919050565b60006020820190508181036000830152610ac381610a87565b9050919050565b7f416472657373652064752070617469656e7420696e76616c6964652e00000000600082015250565b6000610b00601c836108f1565b9150610b0b82610aca565b602082019050919050565b60006020820190508181036000830152610b2f81610af3565b9050919050565b7f4861736820647520646f7373696572206d65646963616c20696e76616c69646560008201527f2e00000000000000000000000000000000000000000000000000000000000000602082015250565b6000610b926021836108f1565b9150610b9d82610b36565b604082019050919050565b60006020820190508181036000830152610bc181610b85565b9050919050565b6000606082019050610bdd60008301866108d7565b8181036020830152610bef818561092c565b9050610bfe60408301846108d7565b949350505050565b610c0f81610965565b8114610c1a57600080fd5b50565b600081519050610c2c81610c06565b92915050565b600060208284031215610c4857610c476106a0565b5b6000610c5684828501610c1d565b91505092915050565b7f4163636573206e6f6e206175746f7269736520706f757220636520706174696560008201527f6e742e0000000000000000000000000000000000000000000000000000000000602082015250565b6000610cbb6023836108f1565b9150610cc682610c5f565b604082019050919050565b60006020820190508181036000830152610cea81610cae565b9050919050565b6000819050919050565b610d0481610cf1565b82525050565b60006060820190508181036000830152610d24818661092c565b9050610d3360208301856108d7565b610d406040830184610cfb565b949350505050565b7f4e487b7100000000000000000000000000000000000000000000000000000000600052602260045260246000fd5b60006002820490506001821680610d8f57607f821691505b602082108103610da257610da1610d48565b5b50919050565b7f4164726573736520647520646f637465757220696e76616c6964652e00000000600082015250565b6000610dde601c836108f1565b9150610de982610da8565b602082019050919050565b60006020820190508181036000830152610e0d81610dd1565b9050919050565b7f446f63746575722064656a6120656e72656769737472652e0000000000000000600082015250565b6000610e4a6018836108f1565b9150610e5582610e14565b602082019050919050565b60006020820190508181036000830152610e7981610e3d565b9050919050565b60008190508160005260206000209050919050565b60006020601f8301049050919050565b600082821b905092915050565b600060088302610ee27fffffffffffffffffffffffffffffffffffffffffffffffffffffffffffffffff82610ea5565b610eec8683610ea5565b95508019841693508086168417925050509392505050565b6000610f1f610f1a610f1584610cf1565b6109be565b610cf1565b9050919050565b6000819050919050565b610f3983610f04565b610f4d610f4582610f26565b848454610eb2565b825550505050565b600090565b610f62610f55565b610f6d818484610f30565b505050565b5b81811015610f9157610f86600082610f5a565b600181019050610f73565b5050565b601f821115610fd657610fa781610e80565b610fb084610e95565b81016020851015610fbf578190505b610fd3610fcb85610e95565b830182610f72565b50505b505050565b600082821c905092915050565b6000610ff960001984600802610fdb565b1980831691505092915050565b60006110128383610fe8565b9150826002028217905092915050565b61102b826108e6565b67ffffffffffffffff81111561104457611043610723565b5b61104e8254610d77565b611059828285610f95565b600060209050601f83116001811461108c576000841561107a578287015190505b6110848582611006565b8655506110ec565b601f19841661109a86610e80565b60005b828110156110c25784890151825560018201915060208501945060208101905061109d565b868310156110df57848901516110db601f891682610fe8565b8355505b6001600288020188555050505b505050505050565b6000602082019050818103600083015261110e818461092c565b90509291505056fea264697066735822122082bc747160deca62fd7f932751921ba7680217bd81cce37a525e4e350026034164736f6c634300081a0033",
					"opcodes": "PUSH1 0x80 PUSH1 0x40 MSTORE CALLVALUE DUP1 ISZERO PUSH2 0x10 JUMPI PUSH1 0x0 DUP1 REVERT JUMPDEST POP PUSH1 0x40 MLOAD PUSH2 0x1376 CODESIZE SUB DUP1 PUSH2 0x1376 DUP4 CODECOPY DUP2 DUP2 ADD PUSH1 0x40 MSTORE DUP2 ADD SWAP1 PUSH2 0x32 SWAP2 SWAP1 PUSH2 0x14B JUMP JUMPDEST PUSH1 0x0 PUSH20 0xFFFFFFFFFFFFFFFFFFFFFFFFFFFFFFFFFFFFFFFF AND DUP2 PUSH20 0xFFFFFFFFFFFFFFFFFFFFFFFFFFFFFFFFFFFFFFFF AND SUB PUSH2 0xA1 JUMPI PUSH1 0x40 MLOAD PUSH32 0x8C379A000000000000000000000000000000000000000000000000000000000 DUP2 MSTORE PUSH1 0x4 ADD PUSH2 0x98 SWAP1 PUSH2 0x1FB JUMP JUMPDEST PUSH1 0x40 MLOAD DUP1 SWAP2 SUB SWAP1 REVERT JUMPDEST DUP1 PUSH1 0x1 PUSH1 0x0 PUSH2 0x100 EXP DUP2 SLOAD DUP2 PUSH20 0xFFFFFFFFFFFFFFFFFFFFFFFFFFFFFFFFFFFFFFFF MUL NOT AND SWAP1 DUP4 PUSH20 0xFFFFFFFFFFFFFFFFFFFFFFFFFFFFFFFFFFFFFFFF AND MUL OR SWAP1 SSTORE POP POP PUSH2 0x21B JUMP JUMPDEST PUSH1 0x0 DUP1 REVERT JUMPDEST PUSH1 0x0 PUSH20 0xFFFFFFFFFFFFFFFFFFFFFFFFFFFFFFFFFFFFFFFF DUP3 AND SWAP1 POP SWAP2 SWAP1 POP JUMP JUMPDEST PUSH1 0x0 PUSH2 0x118 DUP3 PUSH2 0xED JUMP JUMPDEST SWAP1 POP SWAP2 SWAP1 POP JUMP JUMPDEST PUSH2 0x128 DUP2 PUSH2 0x10D JUMP JUMPDEST DUP2 EQ PUSH2 0x133 JUMPI PUSH1 0x0 DUP1 REVERT JUMPDEST POP JUMP JUMPDEST PUSH1 0x0 DUP2 MLOAD SWAP1 POP PUSH2 0x145 DUP2 PUSH2 0x11F JUMP JUMPDEST SWAP3 SWAP2 POP POP JUMP JUMPDEST PUSH1 0x0 PUSH1 0x20 DUP3 DUP5 SUB SLT ISZERO PUSH2 0x161 JUMPI PUSH2 0x160 PUSH2 0xE8 JUMP JUMPDEST JUMPDEST PUSH1 0x0 PUSH2 0x16F DUP5 DUP3 DUP6 ADD PUSH2 0x136 JUMP JUMPDEST SWAP2 POP POP SWAP3 SWAP2 POP POP JUMP JUMPDEST PUSH1 0x0 DUP3 DUP3 MSTORE PUSH1 0x20 DUP3 ADD SWAP1 POP SWAP3 SWAP2 POP POP JUMP JUMPDEST PUSH32 0x4164726573736520647520636F6E747261742050617469656E7420696E76616C PUSH1 0x0 DUP3 ADD MSTORE PUSH32 0x6964652E00000000000000000000000000000000000000000000000000000000 PUSH1 0x20 DUP3 ADD MSTORE POP JUMP JUMPDEST PUSH1 0x0 PUSH2 0x1E5 PUSH1 0x24 DUP4 PUSH2 0x178 JUMP JUMPDEST SWAP2 POP PUSH2 0x1F0 DUP3 PUSH2 0x189 JUMP JUMPDEST PUSH1 0x40 DUP3 ADD SWAP1 POP SWAP2 SWAP1 POP JUMP JUMPDEST PUSH1 0x0 PUSH1 0x20 DUP3 ADD SWAP1 POP DUP2 DUP2 SUB PUSH1 0x0 DUP4 ADD MSTORE PUSH2 0x214 DUP2 PUSH2 0x1D8 JUMP JUMPDEST SWAP1 POP SWAP2 SWAP1 POP JUMP JUMPDEST PUSH2 0x114C DUP1 PUSH2 0x22A PUSH1 0x0 CODECOPY PUSH1 0x0 RETURN INVALID PUSH1 0x80 PUSH1 0x40 MSTORE CALLVALUE DUP1 ISZERO PUSH2 0x10 JUMPI PUSH1 0x0 DUP1 REVERT JUMPDEST POP PUSH1 0x4 CALLDATASIZE LT PUSH2 0x4C JUMPI PUSH1 0x0 CALLDATALOAD PUSH1 0xE0 SHR DUP1 PUSH4 0xA6CA8293 EQ PUSH2 0x51 JUMPI DUP1 PUSH4 0xA9583C22 EQ PUSH2 0x6D JUMPI DUP1 PUSH4 0xF2CA0B41 EQ PUSH2 0x9F JUMPI DUP1 PUSH4 0xF6E8E18F EQ PUSH2 0xBB JUMPI JUMPDEST PUSH1 0x0 DUP1 REVERT JUMPDEST PUSH2 0x6B PUSH1 0x4 DUP1 CALLDATASIZE SUB DUP2 ADD SWAP1 PUSH2 0x66 SWAP2 SWAP1 PUSH2 0x84E JUMP JUMPDEST PUSH2 0xD9 JUMP JUMPDEST STOP JUMPDEST PUSH2 0x87 PUSH1 0x4 DUP1 CALLDATASIZE SUB DUP2 ADD SWAP1 PUSH2 0x82 SWAP2 SWAP1 PUSH2 0x8AA JUMP JUMPDEST PUSH2 0x34F JUMP JUMPDEST PUSH1 0x40 MLOAD PUSH2 0x96 SWAP4 SWAP3 SWAP2 SWAP1 PUSH2 0x980 JUMP JUMPDEST PUSH1 0x40 MLOAD DUP1 SWAP2 SUB SWAP1 RETURN JUMPDEST PUSH2 0xB9 PUSH1 0x4 DUP1 CALLDATASIZE SUB DUP2 ADD SWAP1 PUSH2 0xB4 SWAP2 SWAP1 PUSH2 0x84E JUMP JUMPDEST PUSH2 0x42E JUMP JUMPDEST STOP JUMPDEST PUSH2 0xC3 PUSH2 0x670 JUMP JUMPDEST PUSH1 0x40 MLOAD PUSH2 0xD0 SWAP2 SWAP1 PUSH2 0xA1D JUMP JUMPDEST PUSH1 0x40 MLOAD DUP1 SWAP2 SUB SWAP1 RETURN JUMPDEST PUSH1 0x0 DUP1 CALLER PUSH20 0xFFFFFFFFFFFFFFFFFFFFFFFFFFFFFFFFFFFFFFFF AND PUSH20 0xFFFFFFFFFFFFFFFFFFFFFFFFFFFFFFFFFFFFFFFF AND DUP2 MSTORE PUSH1 0x20 ADD SWAP1 DUP2 MSTORE PUSH1 0x20 ADD PUSH1 0x0 KECCAK256 PUSH1 0x2 ADD PUSH1 0x0 SWAP1 SLOAD SWAP1 PUSH2 0x100 EXP SWAP1 DIV PUSH1 0xFF AND PUSH2 0x167 JUMPI PUSH1 0x40 MLOAD PUSH32 0x8C379A000000000000000000000000000000000000000000000000000000000 DUP2 MSTORE PUSH1 0x4 ADD PUSH2 0x15E SWAP1 PUSH2 0xAAA JUMP JUMPDEST PUSH1 0x40 MLOAD DUP1 SWAP2 SUB SWAP1 REVERT JUMPDEST PUSH1 0x0 PUSH20 0xFFFFFFFFFFFFFFFFFFFFFFFFFFFFFFFFFFFFFFFF AND DUP3 PUSH20 0xFFFFFFFFFFFFFFFFFFFFFFFFFFFFFFFFFFFFFFFF AND SUB PUSH2 0x1D6 JUMPI PUSH1 0x40 MLOAD PUSH32 0x8C379A000000000000000000000000000000000000000000000000000000000 DUP2 MSTORE PUSH1 0x4 ADD PUSH2 0x1CD SWAP1 PUSH2 0xB16 JUMP JUMPDEST PUSH1 0x40 MLOAD DUP1 SWAP2 SUB SWAP1 REVERT JUMPDEST PUSH1 0x0 DUP2 MLOAD GT PUSH2 0x21A JUMPI PUSH1 0x40 MLOAD PUSH32 0x8C379A000000000000000000000000000000000000000000000000000000000 DUP2 MSTORE PUSH1 0x4 ADD PUSH2 0x211 SWAP1 PUSH2 0xBA8 JUMP JUMPDEST PUSH1 0x40 MLOAD DUP1 SWAP2 SUB SWAP1 REVERT JUMPDEST PUSH1 0x1 PUSH1 0x0 SWAP1 SLOAD SWAP1 PUSH2 0x100 EXP SWAP1 DIV PUSH20 0xFFFFFFFFFFFFFFFFFFFFFFFFFFFFFFFFFFFFFFFF AND PUSH20 0xFFFFFFFFFFFFFFFFFFFFFFFFFFFFFFFFFFFFFFFF AND PUSH4 0x57834A1D DUP4 DUP4 CALLER PUSH1 0x40 MLOAD DUP5 PUSH4 0xFFFFFFFF AND PUSH1 0xE0 SHL DUP2 MSTORE PUSH1 0x4 ADD PUSH2 0x279 SWAP4 SWAP3 SWAP2 SWAP1 PUSH2 0xBC8 JUMP JUMPDEST PUSH1 0x20 PUSH1 0x40 MLOAD DUP1 DUP4 SUB DUP2 DUP7 GAS STATICCALL ISZERO DUP1 ISZERO PUSH2 0x296 JUMPI RETURNDATASIZE PUSH1 0x0 DUP1 RETURNDATACOPY RETURNDATASIZE PUSH1 0x0 REVERT JUMPDEST POP POP POP POP PUSH1 0x40 MLOAD RETURNDATASIZE PUSH1 0x1F NOT PUSH1 0x1F DUP3 ADD AND DUP3 ADD DUP1 PUSH1 0x40 MSTORE POP DUP2 ADD SWAP1 PUSH2 0x2BA SWAP2 SWAP1 PUSH2 0xC32 JUMP JUMPDEST PUSH2 0x2F9 JUMPI PUSH1 0x40 MLOAD PUSH32 0x8C379A000000000000000000000000000000000000000000000000000000000 DUP2 MSTORE PUSH1 0x4 ADD PUSH2 0x2F0 SWAP1 PUSH2 0xCD1 JUMP JUMPDEST PUSH1 0x40 MLOAD DUP1 SWAP2 SUB SWAP1 REVERT JUMPDEST DUP2 PUSH20 0xFFFFFFFFFFFFFFFFFFFFFFFFFFFFFFFFFFFFFFFF AND PUSH32 0xFEBB0C340D90BA7ECE9DABF4D4B0FF5DB95F5D6101EBD8C22EE275AB4D1F7B45 DUP3 CALLER TIMESTAMP PUSH1 0x40 MLOAD PUSH2 0x343 SWAP4 SWAP3 SWAP2 SWAP1 PUSH2 0xD0A JUMP JUMPDEST PUSH1 0x40 MLOAD DUP1 SWAP2 SUB SWAP1 LOG2 POP POP JUMP JUMPDEST PUSH1 0x0 PUSH1 0x20 MSTORE DUP1 PUSH1 0x0 MSTORE PUSH1 0x40 PUSH1 0x0 KECCAK256 PUSH1 0x0 SWAP2 POP SWAP1 POP DUP1 PUSH1 0x0 ADD PUSH1 0x0 SWAP1 SLOAD SWAP1 PUSH2 0x100 EXP SWAP1 DIV PUSH20 0xFFFFFFFFFFFFFFFFFFFFFFFFFFFFFFFFFFFFFFFF AND SWAP1 DUP1 PUSH1 0x1 ADD DUP1 SLOAD PUSH2 0x398 SWAP1 PUSH2 0xD77 JUMP JUMPDEST DUP1 PUSH1 0x1F ADD PUSH1 0x20 DUP1 SWAP2 DIV MUL PUSH1 0x20 ADD PUSH1 0x40 MLOAD SWAP1 DUP2 ADD PUSH1 0x40 MSTORE DUP1 SWAP3 SWAP2 SWAP1 DUP2 DUP2 MSTORE PUSH1 0x20 ADD DUP3 DUP1 SLOAD PUSH2 0x3C4 SWAP1 PUSH2 0xD77 JUMP JUMPDEST DUP1 ISZERO PUSH2 0x411 JUMPI DUP1 PUSH1 0x1F LT PUSH2 0x3E6 JUMPI PUSH2 0x100 DUP1 DUP4 SLOAD DIV MUL DUP4 MSTORE SWAP2 PUSH1 0x20 ADD SWAP2 PUSH2 0x411 JUMP JUMPDEST DUP3 ADD SWAP2 SWAP1 PUSH1 0x0 MSTORE PUSH1 0x20 PUSH1 0x0 KECCAK256 SWAP1 JUMPDEST DUP2 SLOAD DUP2 MSTORE SWAP1 PUSH1 0x1 ADD SWAP1 PUSH1 0x20 ADD DUP1 DUP4 GT PUSH2 0x3F4 JUMPI DUP3 SWAP1 SUB PUSH1 0x1F AND DUP3 ADD SWAP2 JUMPDEST POP POP POP POP POP SWAP1 DUP1 PUSH1 0x2 ADD PUSH1 0x0 SWAP1 SLOAD SWAP1 PUSH2 0x100 EXP SWAP1 DIV PUSH1 0xFF AND SWAP1 POP DUP4 JUMP JUMPDEST PUSH1 0x0 PUSH20 0xFFFFFFFFFFFFFFFFFFFFFFFFFFFFFFFFFFFFFFFF AND DUP3 PUSH20 0xFFFFFFFFFFFFFFFFFFFFFFFFFFFFFFFFFFFFFFFF AND SUB PUSH2 0x49D JUMPI PUSH1 0x40 MLOAD PUSH32 0x8C379A000000000000000000000000000000000000000000000000000000000 DUP2 MSTORE PUSH1 0x4 ADD PUSH2 0x494 SWAP1 PUSH2 0xDF4 JUMP JUMPDEST PUSH1 0x40 MLOAD DUP1 SWAP2 SUB SWAP1 REVERT JUMPDEST PUSH1 0x0 DUP1 DUP4 PUSH20 0xFFFFFFFFFFFFFFFFFFFFFFFFFFFFFFFFFFFFFFFF AND PUSH20 0xFFFFFFFFFFFFFFFFFFFFFFFFFFFFFFFFFFFFFFFF AND DUP2 MSTORE PUSH1 0x20 ADD SWAP1 DUP2 MSTORE PUSH1 0x20 ADD PUSH1 0x0 KECCAK256 PUSH1 0x2 ADD PUSH1 0x0 SWAP1 SLOAD SWAP1 PUSH2 0x100 EXP SWAP1 DIV PUSH1 0xFF AND ISZERO PUSH2 0x52C JUMPI PUSH1 0x40 MLOAD PUSH32 0x8C379A000000000000000000000000000000000000000000000000000000000 DUP2 MSTORE PUSH1 0x4 ADD PUSH2 0x523 SWAP1 PUSH2 0xE60 JUMP JUMPDEST PUSH1 0x40 MLOAD DUP1 SWAP2 SUB SWAP1 REVERT JUMPDEST PUSH1 0x40 MLOAD DUP1 PUSH1 0x60 ADD PUSH1 0x40 MSTORE DUP1 DUP4 PUSH20 0xFFFFFFFFFFFFFFFFFFFFFFFFFFFFFFFFFFFFFFFF AND DUP2 MSTORE PUSH1 0x20 ADD DUP3 DUP2 MSTORE PUSH1 0x20 ADD PUSH1 0x1 ISZERO ISZERO DUP2 MSTORE POP PUSH1 0x0 DUP1 DUP5 PUSH20 0xFFFFFFFFFFFFFFFFFFFFFFFFFFFFFFFFFFFFFFFF AND PUSH20 0xFFFFFFFFFFFFFFFFFFFFFFFFFFFFFFFFFFFFFFFF AND DUP2 MSTORE PUSH1 0x20 ADD SWAP1 DUP2 MSTORE PUSH1 0x20 ADD PUSH1 0x0 KECCAK256 PUSH1 0x0 DUP3 ADD MLOAD DUP2 PUSH1 0x0 ADD PUSH1 0x0 PUSH2 0x100 EXP DUP2 SLOAD DUP2 PUSH20 0xFFFFFFFFFFFFFFFFFFFFFFFFFFFFFFFFFFFFFFFF MUL NOT AND SWAP1 DUP4 PUSH20 0xFFFFFFFFFFFFFFFFFFFFFFFFFFFFFFFFFFFFFFFF AND MUL OR SWAP1 SSTORE POP PUSH1 0x20 DUP3 ADD MLOAD DUP2 PUSH1 0x1 ADD SWAP1 DUP2 PUSH2 0x5FA SWAP2 SWAP1 PUSH2 0x1022 JUMP JUMPDEST POP PUSH1 0x40 DUP3 ADD MLOAD DUP2 PUSH1 0x2 ADD PUSH1 0x0 PUSH2 0x100 EXP DUP2 SLOAD DUP2 PUSH1 0xFF MUL NOT AND SWAP1 DUP4 ISZERO ISZERO MUL OR SWAP1 SSTORE POP SWAP1 POP POP DUP2 PUSH20 0xFFFFFFFFFFFFFFFFFFFFFFFFFFFFFFFFFFFFFFFF AND PUSH32 0x20481B8112B5BF4734F45A473C373DB9DF6A79CE946CDC0E7DBC22B4F7D7F986 DUP3 PUSH1 0x40 MLOAD PUSH2 0x664 SWAP2 SWAP1 PUSH2 0x10F4 JUMP JUMPDEST PUSH1 0x40 MLOAD DUP1 SWAP2 SUB SWAP1 LOG2 POP POP JUMP JUMPDEST PUSH1 0x1 PUSH1 0x0 SWAP1 SLOAD SWAP1 PUSH2 0x100 EXP SWAP1 DIV PUSH20 0xFFFFFFFFFFFFFFFFFFFFFFFFFFFFFFFFFFFFFFFF AND DUP2 JUMP JUMPDEST PUSH1 0x0 PUSH1 0x40 MLOAD SWAP1 POP SWAP1 JUMP JUMPDEST PUSH1 0x0 DUP1 REVERT JUMPDEST PUSH1 0x0 DUP1 REVERT JUMPDEST PUSH1 0x0 PUSH20 0xFFFFFFFFFFFFFFFFFFFFFFFFFFFFFFFFFFFFFFFF DUP3 AND SWAP1 POP SWAP2 SWAP1 POP JUMP JUMPDEST PUSH1 0x0 PUSH2 0x6D5 DUP3 PUSH2 0x6AA JUMP JUMPDEST SWAP1 POP SWAP2 SWAP1 POP JUMP JUMPDEST PUSH2 0x6E5 DUP2 PUSH2 0x6CA JUMP JUMPDEST DUP2 EQ PUSH2 0x6F0 JUMPI PUSH1 0x0 DUP1 REVERT JUMPDEST POP JUMP JUMPDEST PUSH1 0x0 DUP2 CALLDATALOAD SWAP1 POP PUSH2 0x702 DUP2 PUSH2 0x6DC JUMP JUMPDEST SWAP3 SWAP2 POP POP JUMP JUMPDEST PUSH1 0x0 DUP1 REVERT JUMPDEST PUSH1 0x0 DUP1 REVERT JUMPDEST PUSH1 0x0 PUSH1 0x1F NOT PUSH1 0x1F DUP4 ADD AND SWAP1 POP SWAP2 SWAP1 POP JUMP JUMPDEST PUSH32 0x4E487B7100000000000000000000000000000000000000000000000000000000 PUSH1 0x0 MSTORE PUSH1 0x41 PUSH1 0x4 MSTORE PUSH1 0x24 PUSH1 0x0 REVERT JUMPDEST PUSH2 0x75B DUP3 PUSH2 0x712 JUMP JUMPDEST DUP2 ADD DUP2 DUP2 LT PUSH8 0xFFFFFFFFFFFFFFFF DUP3 GT OR ISZERO PUSH2 0x77A JUMPI PUSH2 0x779 PUSH2 0x723 JUMP JUMPDEST JUMPDEST DUP1 PUSH1 0x40 MSTORE POP POP POP JUMP JUMPDEST PUSH1 0x0 PUSH2 0x78D PUSH2 0x696 JUMP JUMPDEST SWAP1 POP PUSH2 0x799 DUP3 DUP3 PUSH2 0x752 JUMP JUMPDEST SWAP2 SWAP1 POP JUMP JUMPDEST PUSH1 0x0 PUSH8 0xFFFFFFFFFFFFFFFF DUP3 GT ISZERO PUSH2 0x7B9 JUMPI PUSH2 0x7B8 PUSH2 0x723 JUMP JUMPDEST JUMPDEST PUSH2 0x7C2 DUP3 PUSH2 0x712 JUMP JUMPDEST SWAP1 POP PUSH1 0x20 DUP2 ADD SWAP1 POP SWAP2 SWAP1 POP JUMP JUMPDEST DUP3 DUP2 DUP4 CALLDATACOPY PUSH1 0x0 DUP4 DUP4 ADD MSTORE POP POP POP JUMP JUMPDEST PUSH1 0x0 PUSH2 0x7F1 PUSH2 0x7EC DUP5 PUSH2 0x79E JUMP JUMPDEST PUSH2 0x783 JUMP JUMPDEST SWAP1 POP DUP3 DUP2 MSTORE PUSH1 0x20 DUP2 ADD DUP5 DUP5 DUP5 ADD GT ISZERO PUSH2 0x80D JUMPI PUSH2 0x80C PUSH2 0x70D JUMP JUMPDEST JUMPDEST PUSH2 0x818 DUP5 DUP3 DUP6 PUSH2 0x7CF JUMP JUMPDEST POP SWAP4 SWAP3 POP POP POP JUMP JUMPDEST PUSH1 0x0 DUP3 PUSH1 0x1F DUP4 ADD SLT PUSH2 0x835 JUMPI PUSH2 0x834 PUSH2 0x708 JUMP JUMPDEST JUMPDEST DUP2 CALLDATALOAD PUSH2 0x845 DUP5 DUP3 PUSH1 0x20 DUP7 ADD PUSH2 0x7DE JUMP JUMPDEST SWAP2 POP POP SWAP3 SWAP2 POP POP JUMP JUMPDEST PUSH1 0x0 DUP1 PUSH1 0x40 DUP4 DUP6 SUB SLT ISZERO PUSH2 0x865 JUMPI PUSH2 0x864 PUSH2 0x6A0 JUMP JUMPDEST JUMPDEST PUSH1 0x0 PUSH2 0x873 DUP6 DUP3 DUP7 ADD PUSH2 0x6F3 JUMP JUMPDEST SWAP3 POP POP PUSH1 0x20 DUP4 ADD CALLDATALOAD PUSH8 0xFFFFFFFFFFFFFFFF DUP2 GT ISZERO PUSH2 0x894 JUMPI PUSH2 0x893 PUSH2 0x6A5 JUMP JUMPDEST JUMPDEST PUSH2 0x8A0 DUP6 DUP3 DUP7 ADD PUSH2 0x820 JUMP JUMPDEST SWAP2 POP POP SWAP3 POP SWAP3 SWAP1 POP JUMP JUMPDEST PUSH1 0x0 PUSH1 0x20 DUP3 DUP5 SUB SLT ISZERO PUSH2 0x8C0 JUMPI PUSH2 0x8BF PUSH2 0x6A0 JUMP JUMPDEST JUMPDEST PUSH1 0x0 PUSH2 0x8CE DUP5 DUP3 DUP6 ADD PUSH2 0x6F3 JUMP JUMPDEST SWAP2 POP POP SWAP3 SWAP2 POP POP JUMP JUMPDEST PUSH2 0x8E0 DUP2 PUSH2 0x6CA JUMP JUMPDEST DUP3 MSTORE POP POP JUMP JUMPDEST PUSH1 0x0 DUP2 MLOAD SWAP1 POP SWAP2 SWAP1 POP JUMP JUMPDEST PUSH1 0x0 DUP3 DUP3 MSTORE PUSH1 0x20 DUP3 ADD SWAP1 POP SWAP3 SWAP2 POP POP JUMP JUMPDEST PUSH1 0x0 JUMPDEST DUP4 DUP2 LT ISZERO PUSH2 0x920 JUMPI DUP1 DUP3 ADD MLOAD DUP2 DUP5 ADD MSTORE PUSH1 0x20 DUP2 ADD SWAP1 POP PUSH2 0x905 JUMP JUMPDEST PUSH1 0x0 DUP5 DUP5 ADD MSTORE POP POP POP POP JUMP JUMPDEST PUSH1 0x0 PUSH2 0x937 DUP3 PUSH2 0x8E6 JUMP JUMPDEST PUSH2 0x941 DUP2 DUP6 PUSH2 0x8F1 JUMP JUMPDEST SWAP4 POP PUSH2 0x951 DUP2 DUP6 PUSH1 0x20 DUP7 ADD PUSH2 0x902 JUMP JUMPDEST PUSH2 0x95A DUP2 PUSH2 0x712 JUMP JUMPDEST DUP5 ADD SWAP2 POP POP SWAP3 SWAP2 POP POP JUMP JUMPDEST PUSH1 0x0 DUP2 ISZERO ISZERO SWAP1 POP SWAP2 SWAP1 POP JUMP JUMPDEST PUSH2 0x97A DUP2 PUSH2 0x965 JUMP JUMPDEST DUP3 MSTORE POP POP JUMP JUMPDEST PUSH1 0x0 PUSH1 0x60 DUP3 ADD SWAP1 POP PUSH2 0x995 PUSH1 0x0 DUP4 ADD DUP7 PUSH2 0x8D7 JUMP JUMPDEST DUP2 DUP2 SUB PUSH1 0x20 DUP4 ADD MSTORE PUSH2 0x9A7 DUP2 DUP6 PUSH2 0x92C JUMP JUMPDEST SWAP1 POP PUSH2 0x9B6 PUSH1 0x40 DUP4 ADD DUP5 PUSH2 0x971 JUMP JUMPDEST SWAP5 SWAP4 POP POP POP POP JUMP JUMPDEST PUSH1 0x0 DUP2 SWAP1 POP SWAP2 SWAP1 POP JUMP JUMPDEST PUSH1 0x0 PUSH2 0x9E3 PUSH2 0x9DE PUSH2 0x9D9 DUP5 PUSH2 0x6AA JUMP JUMPDEST PUSH2 0x9BE JUMP JUMPDEST PUSH2 0x6AA JUMP JUMPDEST SWAP1 POP SWAP2 SWAP1 POP JUMP JUMPDEST PUSH1 0x0 PUSH2 0x9F5 DUP3 PUSH2 0x9C8 JUMP JUMPDEST SWAP1 POP SWAP2 SWAP1 POP JUMP JUMPDEST PUSH1 0x0 PUSH2 0xA07 DUP3 PUSH2 0x9EA JUMP JUMPDEST SWAP1 POP SWAP2 SWAP1 POP JUMP JUMPDEST PUSH2 0xA17 DUP2 PUSH2 0x9FC JUMP JUMPDEST DUP3 MSTORE POP POP JUMP JUMPDEST PUSH1 0x0 PUSH1 0x20 DUP3 ADD SWAP1 POP PUSH2 0xA32 PUSH1 0x0 DUP4 ADD DUP5 PUSH2 0xA0E JUMP JUMPDEST SWAP3 SWAP2 POP POP JUMP JUMPDEST PUSH32 0x566F757320646576657A206574726520756E20646F637465757220656E726567 PUSH1 0x0 DUP3 ADD MSTORE PUSH32 0x69737472652E0000000000000000000000000000000000000000000000000000 PUSH1 0x20 DUP3 ADD MSTORE POP JUMP JUMPDEST PUSH1 0x0 PUSH2 0xA94 PUSH1 0x26 DUP4 PUSH2 0x8F1 JUMP JUMPDEST SWAP2 POP PUSH2 0xA9F DUP3 PUSH2 0xA38 JUMP JUMPDEST PUSH1 0x40 DUP3 ADD SWAP1 POP SWAP2 SWAP1 POP JUMP JUMPDEST PUSH1 0x0 PUSH1 0x20 DUP3 ADD SWAP1 POP DUP2 DUP2 SUB PUSH1 0x0 DUP4 ADD MSTORE PUSH2 0xAC3 DUP2 PUSH2 0xA87 JUMP JUMPDEST SWAP1 POP SWAP2 SWAP1 POP JUMP JUMPDEST PUSH32 0x416472657373652064752070617469656E7420696E76616C6964652E00000000 PUSH1 0x0 DUP3 ADD MSTORE POP JUMP JUMPDEST PUSH1 0x0 PUSH2 0xB00 PUSH1 0x1C DUP4 PUSH2 0x8F1 JUMP JUMPDEST SWAP2 POP PUSH2 0xB0B DUP3 PUSH2 0xACA JUMP JUMPDEST PUSH1 0x20 DUP3 ADD SWAP1 POP SWAP2 SWAP1 POP JUMP JUMPDEST PUSH1 0x0 PUSH1 0x20 DUP3 ADD SWAP1 POP DUP2 DUP2 SUB PUSH1 0x0 DUP4 ADD MSTORE PUSH2 0xB2F DUP2 PUSH2 0xAF3 JUMP JUMPDEST SWAP1 POP SWAP2 SWAP1 POP JUMP JUMPDEST PUSH32 0x4861736820647520646F7373696572206D65646963616C20696E76616C696465 PUSH1 0x0 DUP3 ADD MSTORE PUSH32 0x2E00000000000000000000000000000000000000000000000000000000000000 PUSH1 0x20 DUP3 ADD MSTORE POP JUMP JUMPDEST PUSH1 0x0 PUSH2 0xB92 PUSH1 0x21 DUP4 PUSH2 0x8F1 JUMP JUMPDEST SWAP2 POP PUSH2 0xB9D DUP3 PUSH2 0xB36 JUMP JUMPDEST PUSH1 0x40 DUP3 ADD SWAP1 POP SWAP2 SWAP1 POP JUMP JUMPDEST PUSH1 0x0 PUSH1 0x20 DUP3 ADD SWAP1 POP DUP2 DUP2 SUB PUSH1 0x0 DUP4 ADD MSTORE PUSH2 0xBC1 DUP2 PUSH2 0xB85 JUMP JUMPDEST SWAP1 POP SWAP2 SWAP1 POP JUMP JUMPDEST PUSH1 0x0 PUSH1 0x60 DUP3 ADD SWAP1 POP PUSH2 0xBDD PUSH1 0x0 DUP4 ADD DUP7 PUSH2 0x8D7 JUMP JUMPDEST DUP2 DUP2 SUB PUSH1 0x20 DUP4 ADD MSTORE PUSH2 0xBEF DUP2 DUP6 PUSH2 0x92C JUMP JUMPDEST SWAP1 POP PUSH2 0xBFE PUSH1 0x40 DUP4 ADD DUP5 PUSH2 0x8D7 JUMP JUMPDEST SWAP5 SWAP4 POP POP POP POP JUMP JUMPDEST PUSH2 0xC0F DUP2 PUSH2 0x965 JUMP JUMPDEST DUP2 EQ PUSH2 0xC1A JUMPI PUSH1 0x0 DUP1 REVERT JUMPDEST POP JUMP JUMPDEST PUSH1 0x0 DUP2 MLOAD SWAP1 POP PUSH2 0xC2C DUP2 PUSH2 0xC06 JUMP JUMPDEST SWAP3 SWAP2 POP POP JUMP JUMPDEST PUSH1 0x0 PUSH1 0x20 DUP3 DUP5 SUB SLT ISZERO PUSH2 0xC48 JUMPI PUSH2 0xC47 PUSH2 0x6A0 JUMP JUMPDEST JUMPDEST PUSH1 0x0 PUSH2 0xC56 DUP5 DUP3 DUP6 ADD PUSH2 0xC1D JUMP JUMPDEST SWAP2 POP POP SWAP3 SWAP2 POP POP JUMP JUMPDEST PUSH32 0x4163636573206E6F6E206175746F7269736520706F7572206365207061746965 PUSH1 0x0 DUP3 ADD MSTORE PUSH32 0x6E742E0000000000000000000000000000000000000000000000000000000000 PUSH1 0x20 DUP3 ADD MSTORE POP JUMP JUMPDEST PUSH1 0x0 PUSH2 0xCBB PUSH1 0x23 DUP4 PUSH2 0x8F1 JUMP JUMPDEST SWAP2 POP PUSH2 0xCC6 DUP3 PUSH2 0xC5F JUMP JUMPDEST PUSH1 0x40 DUP3 ADD SWAP1 POP SWAP2 SWAP1 POP JUMP JUMPDEST PUSH1 0x0 PUSH1 0x20 DUP3 ADD SWAP1 POP DUP2 DUP2 SUB PUSH1 0x0 DUP4 ADD MSTORE PUSH2 0xCEA DUP2 PUSH2 0xCAE JUMP JUMPDEST SWAP1 POP SWAP2 SWAP1 POP JUMP JUMPDEST PUSH1 0x0 DUP2 SWAP1 POP SWAP2 SWAP1 POP JUMP JUMPDEST PUSH2 0xD04 DUP2 PUSH2 0xCF1 JUMP JUMPDEST DUP3 MSTORE POP POP JUMP JUMPDEST PUSH1 0x0 PUSH1 0x60 DUP3 ADD SWAP1 POP DUP2 DUP2 SUB PUSH1 0x0 DUP4 ADD MSTORE PUSH2 0xD24 DUP2 DUP7 PUSH2 0x92C JUMP JUMPDEST SWAP1 POP PUSH2 0xD33 PUSH1 0x20 DUP4 ADD DUP6 PUSH2 0x8D7 JUMP JUMPDEST PUSH2 0xD40 PUSH1 0x40 DUP4 ADD DUP5 PUSH2 0xCFB JUMP JUMPDEST SWAP5 SWAP4 POP POP POP POP JUMP JUMPDEST PUSH32 0x4E487B7100000000000000000000000000000000000000000000000000000000 PUSH1 0x0 MSTORE PUSH1 0x22 PUSH1 0x4 MSTORE PUSH1 0x24 PUSH1 0x0 REVERT JUMPDEST PUSH1 0x0 PUSH1 0x2 DUP3 DIV SWAP1 POP PUSH1 0x1 DUP3 AND DUP1 PUSH2 0xD8F JUMPI PUSH1 0x7F DUP3 AND SWAP2 POP JUMPDEST PUSH1 0x20 DUP3 LT DUP2 SUB PUSH2 0xDA2 JUMPI PUSH2 0xDA1 PUSH2 0xD48 JUMP JUMPDEST JUMPDEST POP SWAP2 SWAP1 POP JUMP JUMPDEST PUSH32 0x4164726573736520647520646F637465757220696E76616C6964652E00000000 PUSH1 0x0 DUP3 ADD MSTORE POP JUMP JUMPDEST PUSH1 0x0 PUSH2 0xDDE PUSH1 0x1C DUP4 PUSH2 0x8F1 JUMP JUMPDEST SWAP2 POP PUSH2 0xDE9 DUP3 PUSH2 0xDA8 JUMP JUMPDEST PUSH1 0x20 DUP3 ADD SWAP1 POP SWAP2 SWAP1 POP JUMP JUMPDEST PUSH1 0x0 PUSH1 0x20 DUP3 ADD SWAP1 POP DUP2 DUP2 SUB PUSH1 0x0 DUP4 ADD MSTORE PUSH2 0xE0D DUP2 PUSH2 0xDD1 JUMP JUMPDEST SWAP1 POP SWAP2 SWAP1 POP JUMP JUMPDEST PUSH32 0x446F63746575722064656A6120656E72656769737472652E0000000000000000 PUSH1 0x0 DUP3 ADD MSTORE POP JUMP JUMPDEST PUSH1 0x0 PUSH2 0xE4A PUSH1 0x18 DUP4 PUSH2 0x8F1 JUMP JUMPDEST SWAP2 POP PUSH2 0xE55 DUP3 PUSH2 0xE14 JUMP JUMPDEST PUSH1 0x20 DUP3 ADD SWAP1 POP SWAP2 SWAP1 POP JUMP JUMPDEST PUSH1 0x0 PUSH1 0x20 DUP3 ADD SWAP1 POP DUP2 DUP2 SUB PUSH1 0x0 DUP4 ADD MSTORE PUSH2 0xE79 DUP2 PUSH2 0xE3D JUMP JUMPDEST SWAP1 POP SWAP2 SWAP1 POP JUMP JUMPDEST PUSH1 0x0 DUP2 SWAP1 POP DUP2 PUSH1 0x0 MSTORE PUSH1 0x20 PUSH1 0x0 KECCAK256 SWAP1 POP SWAP2 SWAP1 POP JUMP JUMPDEST PUSH1 0x0 PUSH1 0x20 PUSH1 0x1F DUP4 ADD DIV SWAP1 POP SWAP2 SWAP1 POP JUMP JUMPDEST PUSH1 0x0 DUP3 DUP3 SHL SWAP1 POP SWAP3 SWAP2 POP POP JUMP JUMPDEST PUSH1 0x0 PUSH1 0x8 DUP4 MUL PUSH2 0xEE2 PUSH32 0xFFFFFFFFFFFFFFFFFFFFFFFFFFFFFFFFFFFFFFFFFFFFFFFFFFFFFFFFFFFFFFFF DUP3 PUSH2 0xEA5 JUMP JUMPDEST PUSH2 0xEEC DUP7 DUP4 PUSH2 0xEA5 JUMP JUMPDEST SWAP6 POP DUP1 NOT DUP5 AND SWAP4 POP DUP1 DUP7 AND DUP5 OR SWAP3 POP POP POP SWAP4 SWAP3 POP POP POP JUMP JUMPDEST PUSH1 0x0 PUSH2 0xF1F PUSH2 0xF1A PUSH2 0xF15 DUP5 PUSH2 0xCF1 JUMP JUMPDEST PUSH2 0x9BE JUMP JUMPDEST PUSH2 0xCF1 JUMP JUMPDEST SWAP1 POP SWAP2 SWAP1 POP JUMP JUMPDEST PUSH1 0x0 DUP2 SWAP1 POP SWAP2 SWAP1 POP JUMP JUMPDEST PUSH2 0xF39 DUP4 PUSH2 0xF04 JUMP JUMPDEST PUSH2 0xF4D PUSH2 0xF45 DUP3 PUSH2 0xF26 JUMP JUMPDEST DUP5 DUP5 SLOAD PUSH2 0xEB2 JUMP JUMPDEST DUP3 SSTORE POP POP POP POP JUMP JUMPDEST PUSH1 0x0 SWAP1 JUMP JUMPDEST PUSH2 0xF62 PUSH2 0xF55 JUMP JUMPDEST PUSH2 0xF6D DUP2 DUP5 DUP5 PUSH2 0xF30 JUMP JUMPDEST POP POP POP JUMP JUMPDEST JUMPDEST DUP2 DUP2 LT ISZERO PUSH2 0xF91 JUMPI PUSH2 0xF86 PUSH1 0x0 DUP3 PUSH2 0xF5A JUMP JUMPDEST PUSH1 0x1 DUP2 ADD SWAP1 POP PUSH2 0xF73 JUMP JUMPDEST POP POP JUMP JUMPDEST PUSH1 0x1F DUP3 GT ISZERO PUSH2 0xFD6 JUMPI PUSH2 0xFA7 DUP2 PUSH2 0xE80 JUMP JUMPDEST PUSH2 0xFB0 DUP5 PUSH2 0xE95 JUMP JUMPDEST DUP2 ADD PUSH1 0x20 DUP6 LT ISZERO PUSH2 0xFBF JUMPI DUP2 SWAP1 POP JUMPDEST PUSH2 0xFD3 PUSH2 0xFCB DUP6 PUSH2 0xE95 JUMP JUMPDEST DUP4 ADD DUP3 PUSH2 0xF72 JUMP JUMPDEST POP POP JUMPDEST POP POP POP JUMP JUMPDEST PUSH1 0x0 DUP3 DUP3 SHR SWAP1 POP SWAP3 SWAP2 POP POP JUMP JUMPDEST PUSH1 0x0 PUSH2 0xFF9 PUSH1 0x0 NOT DUP5 PUSH1 0x8 MUL PUSH2 0xFDB JUMP JUMPDEST NOT DUP1 DUP4 AND SWAP2 POP POP SWAP3 SWAP2 POP POP JUMP JUMPDEST PUSH1 0x0 PUSH2 0x1012 DUP4 DUP4 PUSH2 0xFE8 JUMP JUMPDEST SWAP2 POP DUP3 PUSH1 0x2 MUL DUP3 OR SWAP1 POP SWAP3 SWAP2 POP POP JUMP JUMPDEST PUSH2 0x102B DUP3 PUSH2 0x8E6 JUMP JUMPDEST PUSH8 0xFFFFFFFFFFFFFFFF DUP2 GT ISZERO PUSH2 0x1044 JUMPI PUSH2 0x1043 PUSH2 0x723 JUMP JUMPDEST JUMPDEST PUSH2 0x104E DUP3 SLOAD PUSH2 0xD77 JUMP JUMPDEST PUSH2 0x1059 DUP3 DUP3 DUP6 PUSH2 0xF95 JUMP JUMPDEST PUSH1 0x0 PUSH1 0x20 SWAP1 POP PUSH1 0x1F DUP4 GT PUSH1 0x1 DUP2 EQ PUSH2 0x108C JUMPI PUSH1 0x0 DUP5 ISZERO PUSH2 0x107A JUMPI DUP3 DUP8 ADD MLOAD SWAP1 POP JUMPDEST PUSH2 0x1084 DUP6 DUP3 PUSH2 0x1006 JUMP JUMPDEST DUP7 SSTORE POP PUSH2 0x10EC JUMP JUMPDEST PUSH1 0x1F NOT DUP5 AND PUSH2 0x109A DUP7 PUSH2 0xE80 JUMP JUMPDEST PUSH1 0x0 JUMPDEST DUP3 DUP2 LT ISZERO PUSH2 0x10C2 JUMPI DUP5 DUP10 ADD MLOAD DUP3 SSTORE PUSH1 0x1 DUP3 ADD SWAP2 POP PUSH1 0x20 DUP6 ADD SWAP5 POP PUSH1 0x20 DUP2 ADD SWAP1 POP PUSH2 0x109D JUMP JUMPDEST DUP7 DUP4 LT ISZERO PUSH2 0x10DF JUMPI DUP5 DUP10 ADD MLOAD PUSH2 0x10DB PUSH1 0x1F DUP10 AND DUP3 PUSH2 0xFE8 JUMP JUMPDEST DUP4 SSTORE POP JUMPDEST PUSH1 0x1 PUSH1 0x2 DUP9 MUL ADD DUP9 SSTORE POP POP POP JUMPDEST POP POP POP POP POP POP JUMP JUMPDEST PUSH1 0x0 PUSH1 0x20 DUP3 ADD SWAP1 POP DUP2 DUP2 SUB PUSH1 0x0 DUP4 ADD MSTORE PUSH2 0x110E DUP2 DUP5 PUSH2 0x92C JUMP JUMPDEST SWAP1 POP SWAP3 SWAP2 POP POP JUMP INVALID LOG2 PUSH5 0x6970667358 0x22 SLT KECCAK256 DUP3 0xBC PUSH21 0x7160DECA62FD7F932751921BA7680217BD81CCE37A MSTORE MCOPY 0x4E CALLDATALOAD STOP 0x26 SUB COINBASE PUSH5 0x736F6C6343 STOP ADDMOD BYTE STOP CALLER "
				},
				"gasEstimates": {
					"creation": {
						"codeDepositCost": "885600",
						"executionCost": "infinite",
						"totalCost": "infinite"
					},
					"external": {
						"addRecordForPatient(address,string)": "infinite",
						"doctors(address)": "infinite",
						"patientContract()": "infinite",
						"registerDoctor(address,string)": "infinite"
					}
				},
				"methodIdentifiers": {
					"addRecordForPatient(address,string)": "a6ca8293",
					"doctors(address)": "a9583c22",
					"patientContract()": "f6e8e18f",
					"registerDoctor(address,string)": "f2ca0b41"
				}
			},
			"storageLayout": {
				"storage": [
					{
						"astId": 14,
						"contract": "Contracts/ContractDoctor.sol:Doctor",
						"label": "doctors",
						"offset": 0,
						"slot": "0",
						"type": "t_mapping(t_address,t_struct(DoctorData)9_storage)"
					},
					{
						"astId": 17,
						"contract": "Contracts/ContractDoctor.sol:Doctor",
						"label": "patientContract",
						"offset": 0,
						"slot": "1",
						"type": "t_contract(Patient)316"
					}
				],
				"types": {
					"t_address": {
						"encoding": "inplace",
						"label": "address",
						"numberOfBytes": "20"
					},
					"t_bool": {
						"encoding": "inplace",
						"label": "bool",
						"numberOfBytes": "1"
					},
					"t_contract(Patient)316": {
						"encoding": "inplace",
						"label": "contract Patient",
						"numberOfBytes": "20"
					},
					"t_mapping(t_address,t_struct(DoctorData)9_storage)": {
						"encoding": "mapping",
						"key": "t_address",
						"label": "mapping(address => struct Doctor.DoctorData)",
						"numberOfBytes": "32",
						"value": "t_struct(DoctorData)9_storage"
					},
					"t_string_storage": {
						"encoding": "bytes",
						"label": "string",
						"numberOfBytes": "32"
					},
					"t_struct(DoctorData)9_storage": {
						"encoding": "inplace",
						"label": "struct Doctor.DoctorData",
						"members": [
							{
								"astId": 4,
								"contract": "Contracts/ContractDoctor.sol:Doctor",
								"label": "doctorAddress",
								"offset": 0,
								"slot": "0",
								"type": "t_address"
							},
							{
								"astId": 6,
								"contract": "Contracts/ContractDoctor.sol:Doctor",
								"label": "name",
								"offset": 0,
								"slot": "1",
								"type": "t_string_storage"
							},
							{
								"astId": 8,
								"contract": "Contracts/ContractDoctor.sol:Doctor",
								"label": "isRegistered",
								"offset": 0,
								"slot": "2",
								"type": "t_bool"
							}
						],
						"numberOfBytes": "96"
					}
				}
			},
			"userdoc": {
				"kind": "user",
				"methods": {},
				"version": 1
			}
		}
	}
}