{
	"Contracts/ContractPatient.sol": {
		"Patient": {
			"abi": [
				{
					"anonymous": false,
					"inputs": [
						{
							"indexed": true,
							"internalType": "address",
							"name": "patientAddress",
							"type": "address"
						},
						{
							"indexed": true,
							"internalType": "address",
							"name": "doctorAddress",
							"type": "address"
						},
						{
							"indexed": false,
							"internalType": "string",
							"name": "recordHash",
							"type": "string"
						}
					],
					"name": "AccessGranted",
					"type": "event"
				},
				{
					"anonymous": false,
					"inputs": [
						{
							"indexed": true,
							"internalType": "address",
							"name": "patientAddress",
							"type": "address"
						},
						{
							"indexed": true,
							"internalType": "address",
							"name": "doctorAddress",
							"type": "address"
						},
						{
							"indexed": false,
							"internalType": "string",
							"name": "recordHash",
							"type": "string"
						}
					],
					"name": "AccessRevoked",
					"type": "event"
				},
				{
					"inputs": [
						{
							"internalType": "address",
							"name": "_patientAddress",
							"type": "address"
						},
						{
							"internalType": "string",
							"name": "_recordHash",
							"type": "string"
						},
						{
							"internalType": "address",
							"name": "_doctorAddress",
							"type": "address"
						}
					],
					"name": "authorizeToMedicalFolder",
					"outputs": [],
					"stateMutability": "nonpayable",
					"type": "function"
				},
				{
					"inputs": [
						{
							"internalType": "address",
							"name": "_patientAddress",
							"type": "address"
						},
						{
							"internalType": "string",
							"name": "_recordHash",
							"type": "string"
						},
						{
							"internalType": "address",
							"name": "_doctorAddress",
							"type": "address"
						}
					],
					"name": "isDoctorAuthorized",
					"outputs": [
						{
							"internalType": "bool",
							"name": "",
							"type": "bool"
						}
					],
					"stateMutability": "view",
					"type": "function"
				},
				{
					"inputs": [
						{
							"internalType": "address",
							"name": "_patientAddress",
							"type": "address"
						},
						{
							"internalType": "string",
							"name": "_recordHash",
							"type": "string"
						},
						{
							"internalType": "address",
							"name": "_doctorAddress",
							"type": "address"
						}
					],
					"name": "revokeFromMedicalFolder",
					"outputs": [],
					"stateMutability": "nonpayable",
					"type": "function"
				}
			],
			"devdoc": {
				"kind": "dev",
				"methods": {},
				"version": 1
			},
			"evm": {
				"assembly": "    /* \"Contracts/ContractPatient.sol\":57:2197  contract Patient {... */\n  mstore(0x40, 0x80)\n  callvalue\n  dup1\n  iszero\n  tag_1\n  jumpi\n  0x00\n  dup1\n  revert\ntag_1:\n  pop\n  dataSize(sub_0)\n  dup1\n  dataOffset(sub_0)\n  0x00\n  codecopy\n  0x00\n  return\nstop\n\nsub_0: assembly {\n        /* \"Contracts/ContractPatient.sol\":57:2197  contract Patient {... */\n      mstore(0x40, 0x80)\n      callvalue\n      dup1\n      iszero\n      tag_1\n      jumpi\n      0x00\n      dup1\n      revert\n    tag_1:\n      pop\n      jumpi(tag_2, lt(calldatasize, 0x04))\n      shr(0xe0, calldataload(0x00))\n      dup1\n      0x4513b2a7\n      eq\n      tag_3\n      jumpi\n      dup1\n      0x57834a1d\n      eq\n      tag_4\n      jumpi\n      dup1\n      0x93e4ee8e\n      eq\n      tag_5\n      jumpi\n    tag_2:\n      0x00\n      dup1\n      revert\n        /* \"Contracts/ContractPatient.sol\":1326:1851  function revokeFromMedicalFolder(... */\n    tag_3:\n      tag_6\n      0x04\n      dup1\n      calldatasize\n      sub\n      dup2\n      add\n      swap1\n      tag_7\n      swap2\n      swap1\n      tag_8\n      jump\t// in\n    tag_7:\n      tag_9\n      jump\t// in\n    tag_6:\n      stop\n        /* \"Contracts/ContractPatient.sol\":1939:2195  function isDoctorAuthorized(... */\n    tag_4:\n      tag_10\n      0x04\n      dup1\n      calldatasize\n      sub\n      dup2\n      add\n      swap1\n      tag_11\n      swap2\n      swap1\n      tag_8\n      jump\t// in\n    tag_11:\n      tag_12\n      jump\t// in\n    tag_10:\n      mload(0x40)\n      tag_13\n      swap2\n      swap1\n      tag_14\n      jump\t// in\n    tag_13:\n      mload(0x40)\n      dup1\n      swap2\n      sub\n      swap1\n      return\n        /* \"Contracts/ContractPatient.sol\":815:1244  function authorizeToMedicalFolder(... */\n    tag_5:\n      tag_15\n      0x04\n      dup1\n      calldatasize\n      sub\n      dup2\n      add\n      swap1\n      tag_16\n      swap2\n      swap1\n      tag_8\n      jump\t// in\n    tag_16:\n      tag_17\n      jump\t// in\n    tag_15:\n      stop\n        /* \"Contracts/ContractPatient.sol\":1326:1851  function revokeFromMedicalFolder(... */\n    tag_9:\n        /* \"Contracts/ContractPatient.sol\":1484:1499  _patientAddress */\n      dup3\n        /* \"Contracts/ContractPatient.sol\":1501:1511  msg.sender */\n      caller\n        /* \"Contracts/ContractPatient.sol\":670:677  _caller */\n      dup1\n        /* \"Contracts/ContractPatient.sol\":651:677  _patientAddress == _caller */\n      0xffffffffffffffffffffffffffffffffffffffff\n      and\n        /* \"Contracts/ContractPatient.sol\":651:666  _patientAddress */\n      dup3\n        /* \"Contracts/ContractPatient.sol\":651:677  _patientAddress == _caller */\n      0xffffffffffffffffffffffffffffffffffffffff\n      and\n      eq\n        /* \"Contracts/ContractPatient.sol\":643:726  require(_patientAddress == _caller, \"Seul le patient peut effectuer cette action.\") */\n      tag_19\n      jumpi\n      mload(0x40)\n      0x08c379a000000000000000000000000000000000000000000000000000000000\n      dup2\n      mstore\n      0x04\n      add\n      tag_20\n      swap1\n      tag_21\n      jump\t// in\n    tag_20:\n      mload(0x40)\n      dup1\n      swap2\n      sub\n      swap1\n      revert\n    tag_19:\n        /* \"Contracts/ContractPatient.sol\":1544:1551  records */\n      0x00\n        /* \"Contracts/ContractPatient.sol\":1544:1568  records[_patientAddress] */\n      dup1\n        /* \"Contracts/ContractPatient.sol\":1552:1567  _patientAddress */\n      dup7\n        /* \"Contracts/ContractPatient.sol\":1544:1568  records[_patientAddress] */\n      0xffffffffffffffffffffffffffffffffffffffff\n      and\n      0xffffffffffffffffffffffffffffffffffffffff\n      and\n      dup2\n      mstore\n      0x20\n      add\n      swap1\n      dup2\n      mstore\n      0x20\n      add\n      0x00\n      keccak256\n        /* \"Contracts/ContractPatient.sol\":1569:1580  _recordHash */\n      dup5\n        /* \"Contracts/ContractPatient.sol\":1544:1581  records[_patientAddress][_recordHash] */\n      mload(0x40)\n      tag_23\n      swap2\n      swap1\n      tag_24\n      jump\t// in\n    tag_23:\n      swap1\n      dup2\n      mstore\n      0x20\n      add\n      mload(0x40)\n      dup1\n      swap2\n      sub\n      swap1\n      keccak256\n        /* \"Contracts/ContractPatient.sol\":1544:1599  records[_patientAddress][_recordHash].authorizedDoctors */\n      0x01\n      add\n        /* \"Contracts/ContractPatient.sol\":1544:1615  records[_patientAddress][_recordHash].authorizedDoctors[_doctorAddress] */\n      0x00\n        /* \"Contracts/ContractPatient.sol\":1600:1614  _doctorAddress */\n      dup5\n        /* \"Contracts/ContractPatient.sol\":1544:1615  records[_patientAddress][_recordHash].authorizedDoctors[_doctorAddress] */\n      0xffffffffffffffffffffffffffffffffffffffff\n      and\n      0xffffffffffffffffffffffffffffffffffffffff\n      and\n      dup2\n      mstore\n      0x20\n      add\n      swap1\n      dup2\n      mstore\n      0x20\n      add\n      0x00\n      keccak256\n      0x00\n      swap1\n      sload\n      swap1\n      0x0100\n      exp\n      swap1\n      div\n      0xff\n      and\n        /* \"Contracts/ContractPatient.sol\":1523:1681  require(... */\n      tag_25\n      jumpi\n      mload(0x40)\n      0x08c379a000000000000000000000000000000000000000000000000000000000\n      dup2\n      mstore\n      0x04\n      add\n      tag_26\n      swap1\n      tag_27\n      jump\t// in\n    tag_26:\n      mload(0x40)\n      dup1\n      swap2\n      sub\n      swap1\n      revert\n    tag_25:\n        /* \"Contracts/ContractPatient.sol\":1765:1770  false */\n      0x00\n        /* \"Contracts/ContractPatient.sol\":1691:1698  records */\n      dup1\n        /* \"Contracts/ContractPatient.sol\":1691:1715  records[_patientAddress] */\n      0x00\n        /* \"Contracts/ContractPatient.sol\":1699:1714  _patientAddress */\n      dup8\n        /* \"Contracts/ContractPatient.sol\":1691:1715  records[_patientAddress] */\n      0xffffffffffffffffffffffffffffffffffffffff\n      and\n      0xffffffffffffffffffffffffffffffffffffffff\n      and\n      dup2\n      mstore\n      0x20\n      add\n      swap1\n      dup2\n      mstore\n      0x20\n      add\n      0x00\n      keccak256\n        /* \"Contracts/ContractPatient.sol\":1716:1727  _recordHash */\n      dup6\n        /* \"Contracts/ContractPatient.sol\":1691:1728  records[_patientAddress][_recordHash] */\n      mload(0x40)\n      tag_28\n      swap2\n      swap1\n      tag_24\n      jump\t// in\n    tag_28:\n      swap1\n      dup2\n      mstore\n      0x20\n      add\n      mload(0x40)\n      dup1\n      swap2\n      sub\n      swap1\n      keccak256\n        /* \"Contracts/ContractPatient.sol\":1691:1746  records[_patientAddress][_recordHash].authorizedDoctors */\n      0x01\n      add\n        /* \"Contracts/ContractPatient.sol\":1691:1762  records[_patientAddress][_recordHash].authorizedDoctors[_doctorAddress] */\n      0x00\n        /* \"Contracts/ContractPatient.sol\":1747:1761  _doctorAddress */\n      dup6\n        /* \"Contracts/ContractPatient.sol\":1691:1762  records[_patientAddress][_recordHash].authorizedDoctors[_doctorAddress] */\n      0xffffffffffffffffffffffffffffffffffffffff\n      and\n      0xffffffffffffffffffffffffffffffffffffffff\n      and\n      dup2\n      mstore\n      0x20\n      add\n      swap1\n      dup2\n      mstore\n      0x20\n      add\n      0x00\n      keccak256\n      0x00\n        /* \"Contracts/ContractPatient.sol\":1691:1770  records[_patientAddress][_recordHash].authorizedDoctors[_doctorAddress] = false */\n      0x0100\n      exp\n      dup2\n      sload\n      dup2\n      0xff\n      mul\n      not\n      and\n      swap1\n      dup4\n      iszero\n      iszero\n      mul\n      or\n      swap1\n      sstore\n      pop\n        /* \"Contracts/ContractPatient.sol\":1816:1830  _doctorAddress */\n      dup3\n        /* \"Contracts/ContractPatient.sol\":1785:1844  AccessRevoked(_patientAddress, _doctorAddress, _recordHash) */\n      0xffffffffffffffffffffffffffffffffffffffff\n      and\n        /* \"Contracts/ContractPatient.sol\":1799:1814  _patientAddress */\n      dup6\n        /* \"Contracts/ContractPatient.sol\":1785:1844  AccessRevoked(_patientAddress, _doctorAddress, _recordHash) */\n      0xffffffffffffffffffffffffffffffffffffffff\n      and\n      0x0a2382b7b0f44ee62df753c00034038c109332bf9b8f52418af74aa2859780fb\n        /* \"Contracts/ContractPatient.sol\":1832:1843  _recordHash */\n      dup7\n        /* \"Contracts/ContractPatient.sol\":1785:1844  AccessRevoked(_patientAddress, _doctorAddress, _recordHash) */\n      mload(0x40)\n      tag_29\n      swap2\n      swap1\n      tag_30\n      jump\t// in\n    tag_29:\n      mload(0x40)\n      dup1\n      swap2\n      sub\n      swap1\n      log3\n        /* \"Contracts/ContractPatient.sol\":1326:1851  function revokeFromMedicalFolder(... */\n      pop\n      pop\n      pop\n      pop\n      pop\n      jump\t// out\n        /* \"Contracts/ContractPatient.sol\":1939:2195  function isDoctorAuthorized(... */\n    tag_12:\n        /* \"Contracts/ContractPatient.sol\":2094:2098  bool */\n      0x00\n        /* \"Contracts/ContractPatient.sol\":2117:2124  records */\n      dup1\n        /* \"Contracts/ContractPatient.sol\":2117:2141  records[_patientAddress] */\n      0x00\n        /* \"Contracts/ContractPatient.sol\":2125:2140  _patientAddress */\n      dup6\n        /* \"Contracts/ContractPatient.sol\":2117:2141  records[_patientAddress] */\n      0xffffffffffffffffffffffffffffffffffffffff\n      and\n      0xffffffffffffffffffffffffffffffffffffffff\n      and\n      dup2\n      mstore\n      0x20\n      add\n      swap1\n      dup2\n      mstore\n      0x20\n      add\n      0x00\n      keccak256\n        /* \"Contracts/ContractPatient.sol\":2142:2153  _recordHash */\n      dup4\n        /* \"Contracts/ContractPatient.sol\":2117:2154  records[_patientAddress][_recordHash] */\n      mload(0x40)\n      tag_32\n      swap2\n      swap1\n      tag_24\n      jump\t// in\n    tag_32:\n      swap1\n      dup2\n      mstore\n      0x20\n      add\n      mload(0x40)\n      dup1\n      swap2\n      sub\n      swap1\n      keccak256\n        /* \"Contracts/ContractPatient.sol\":2117:2172  records[_patientAddress][_recordHash].authorizedDoctors */\n      0x01\n      add\n        /* \"Contracts/ContractPatient.sol\":2117:2188  records[_patientAddress][_recordHash].authorizedDoctors[_doctorAddress] */\n      0x00\n        /* \"Contracts/ContractPatient.sol\":2173:2187  _doctorAddress */\n      dup4\n        /* \"Contracts/ContractPatient.sol\":2117:2188  records[_patientAddress][_recordHash].authorizedDoctors[_doctorAddress] */\n      0xffffffffffffffffffffffffffffffffffffffff\n      and\n      0xffffffffffffffffffffffffffffffffffffffff\n      and\n      dup2\n      mstore\n      0x20\n      add\n      swap1\n      dup2\n      mstore\n      0x20\n      add\n      0x00\n      keccak256\n      0x00\n      swap1\n      sload\n      swap1\n      0x0100\n      exp\n      swap1\n      div\n      0xff\n      and\n        /* \"Contracts/ContractPatient.sol\":2110:2188  return records[_patientAddress][_recordHash].authorizedDoctors[_doctorAddress] */\n      swap1\n      pop\n        /* \"Contracts/ContractPatient.sol\":1939:2195  function isDoctorAuthorized(... */\n      swap4\n      swap3\n      pop\n      pop\n      pop\n      jump\t// out\n        /* \"Contracts/ContractPatient.sol\":815:1244  function authorizeToMedicalFolder(... */\n    tag_17:\n        /* \"Contracts/ContractPatient.sol\":974:989  _patientAddress */\n      dup3\n        /* \"Contracts/ContractPatient.sol\":991:1001  msg.sender */\n      caller\n        /* \"Contracts/ContractPatient.sol\":670:677  _caller */\n      dup1\n        /* \"Contracts/ContractPatient.sol\":651:677  _patientAddress == _caller */\n      0xffffffffffffffffffffffffffffffffffffffff\n      and\n        /* \"Contracts/ContractPatient.sol\":651:666  _patientAddress */\n      dup3\n        /* \"Contracts/ContractPatient.sol\":651:677  _patientAddress == _caller */\n      0xffffffffffffffffffffffffffffffffffffffff\n      and\n      eq\n        /* \"Contracts/ContractPatient.sol\":643:726  require(_patientAddress == _caller, \"Seul le patient peut effectuer cette action.\") */\n      tag_34\n      jumpi\n      mload(0x40)\n      0x08c379a000000000000000000000000000000000000000000000000000000000\n      dup2\n      mstore\n      0x04\n      add\n      tag_35\n      swap1\n      tag_21\n      jump\t// in\n    tag_35:\n      mload(0x40)\n      dup1\n      swap2\n      sub\n      swap1\n      revert\n    tag_34:\n        /* \"Contracts/ContractPatient.sol\":1064:1075  _recordHash */\n      dup4\n        /* \"Contracts/ContractPatient.sol\":1013:1020  records */\n      0x00\n        /* \"Contracts/ContractPatient.sol\":1013:1037  records[_patientAddress] */\n      dup1\n        /* \"Contracts/ContractPatient.sol\":1021:1036  _patientAddress */\n      dup8\n        /* \"Contracts/ContractPatient.sol\":1013:1037  records[_patientAddress] */\n      0xffffffffffffffffffffffffffffffffffffffff\n      and\n      0xffffffffffffffffffffffffffffffffffffffff\n      and\n      dup2\n      mstore\n      0x20\n      add\n      swap1\n      dup2\n      mstore\n      0x20\n      add\n      0x00\n      keccak256\n        /* \"Contracts/ContractPatient.sol\":1038:1049  _recordHash */\n      dup6\n        /* \"Contracts/ContractPatient.sol\":1013:1050  records[_patientAddress][_recordHash] */\n      mload(0x40)\n      tag_37\n      swap2\n      swap1\n      tag_24\n      jump\t// in\n    tag_37:\n      swap1\n      dup2\n      mstore\n      0x20\n      add\n      mload(0x40)\n      dup1\n      swap2\n      sub\n      swap1\n      keccak256\n        /* \"Contracts/ContractPatient.sol\":1013:1061  records[_patientAddress][_recordHash].recordHash */\n      0x00\n      add\n        /* \"Contracts/ContractPatient.sol\":1013:1075  records[_patientAddress][_recordHash].recordHash = _recordHash */\n      swap1\n      dup2\n      tag_38\n      swap2\n      swap1\n      tag_39\n      jump\t// in\n    tag_38:\n      pop\n        /* \"Contracts/ContractPatient.sol\":1159:1163  true */\n      0x01\n        /* \"Contracts/ContractPatient.sol\":1085:1092  records */\n      0x00\n        /* \"Contracts/ContractPatient.sol\":1085:1109  records[_patientAddress] */\n      dup1\n        /* \"Contracts/ContractPatient.sol\":1093:1108  _patientAddress */\n      dup8\n        /* \"Contracts/ContractPatient.sol\":1085:1109  records[_patientAddress] */\n      0xffffffffffffffffffffffffffffffffffffffff\n      and\n      0xffffffffffffffffffffffffffffffffffffffff\n      and\n      dup2\n      mstore\n      0x20\n      add\n      swap1\n      dup2\n      mstore\n      0x20\n      add\n      0x00\n      keccak256\n        /* \"Contracts/ContractPatient.sol\":1110:1121  _recordHash */\n      dup6\n        /* \"Contracts/ContractPatient.sol\":1085:1122  records[_patientAddress][_recordHash] */\n      mload(0x40)\n      tag_40\n      swap2\n      swap1\n      tag_24\n      jump\t// in\n    tag_40:\n      swap1\n      dup2\n      mstore\n      0x20\n      add\n      mload(0x40)\n      dup1\n      swap2\n      sub\n      swap1\n      keccak256\n        /* \"Contracts/ContractPatient.sol\":1085:1140  records[_patientAddress][_recordHash].authorizedDoctors */\n      0x01\n      add\n        /* \"Contracts/ContractPatient.sol\":1085:1156  records[_patientAddress][_recordHash].authorizedDoctors[_doctorAddress] */\n      0x00\n        /* \"Contracts/ContractPatient.sol\":1141:1155  _doctorAddress */\n      dup6\n        /* \"Contracts/ContractPatient.sol\":1085:1156  records[_patientAddress][_recordHash].authorizedDoctors[_doctorAddress] */\n      0xffffffffffffffffffffffffffffffffffffffff\n      and\n      0xffffffffffffffffffffffffffffffffffffffff\n      and\n      dup2\n      mstore\n      0x20\n      add\n      swap1\n      dup2\n      mstore\n      0x20\n      add\n      0x00\n      keccak256\n      0x00\n        /* \"Contracts/ContractPatient.sol\":1085:1163  records[_patientAddress][_recordHash].authorizedDoctors[_doctorAddress] = true */\n      0x0100\n      exp\n      dup2\n      sload\n      dup2\n      0xff\n      mul\n      not\n      and\n      swap1\n      dup4\n      iszero\n      iszero\n      mul\n      or\n      swap1\n      sstore\n      pop\n        /* \"Contracts/ContractPatient.sol\":1209:1223  _doctorAddress */\n      dup3\n        /* \"Contracts/ContractPatient.sol\":1178:1237  AccessGranted(_patientAddress, _doctorAddress, _recordHash) */\n      0xffffffffffffffffffffffffffffffffffffffff\n      and\n        /* \"Contracts/ContractPatient.sol\":1192:1207  _patientAddress */\n      dup6\n        /* \"Contracts/ContractPatient.sol\":1178:1237  AccessGranted(_patientAddress, _doctorAddress, _recordHash) */\n      0xffffffffffffffffffffffffffffffffffffffff\n      and\n      0xc7e5c007251689b9bc3cb624f55714afc5988f3e3b4e20cc6a606d7bad6faeca\n        /* \"Contracts/ContractPatient.sol\":1225:1236  _recordHash */\n      dup7\n        /* \"Contracts/ContractPatient.sol\":1178:1237  AccessGranted(_patientAddress, _doctorAddress, _recordHash) */\n      mload(0x40)\n      tag_41\n      swap2\n      swap1\n      tag_30\n      jump\t// in\n    tag_41:\n      mload(0x40)\n      dup1\n      swap2\n      sub\n      swap1\n      log3\n        /* \"Contracts/ContractPatient.sol\":815:1244  function authorizeToMedicalFolder(... */\n      pop\n      pop\n      pop\n      pop\n      pop\n      jump\t// out\n        /* \"#utility.yul\":7:82   */\n    tag_42:\n        /* \"#utility.yul\":40:46   */\n      0x00\n        /* \"#utility.yul\":73:75   */\n      0x40\n        /* \"#utility.yul\":67:76   */\n      mload\n        /* \"#utility.yul\":57:76   */\n      swap1\n      pop\n        /* \"#utility.yul\":7:82   */\n      swap1\n      jump\t// out\n        /* \"#utility.yul\":88:205   */\n    tag_43:\n        /* \"#utility.yul\":197:198   */\n      0x00\n        /* \"#utility.yul\":194:195   */\n      dup1\n        /* \"#utility.yul\":187:199   */\n      revert\n        /* \"#utility.yul\":211:328   */\n    tag_44:\n        /* \"#utility.yul\":320:321   */\n      0x00\n        /* \"#utility.yul\":317:318   */\n      dup1\n        /* \"#utility.yul\":310:322   */\n      revert\n        /* \"#utility.yul\":334:460   */\n    tag_45:\n        /* \"#utility.yul\":371:378   */\n      0x00\n        /* \"#utility.yul\":411:453   */\n      0xffffffffffffffffffffffffffffffffffffffff\n        /* \"#utility.yul\":404:409   */\n      dup3\n        /* \"#utility.yul\":400:454   */\n      and\n        /* \"#utility.yul\":389:454   */\n      swap1\n      pop\n        /* \"#utility.yul\":334:460   */\n      swap2\n      swap1\n      pop\n      jump\t// out\n        /* \"#utility.yul\":466:562   */\n    tag_46:\n        /* \"#utility.yul\":503:510   */\n      0x00\n        /* \"#utility.yul\":532:556   */\n      tag_95\n        /* \"#utility.yul\":550:555   */\n      dup3\n        /* \"#utility.yul\":532:556   */\n      tag_45\n      jump\t// in\n    tag_95:\n        /* \"#utility.yul\":521:556   */\n      swap1\n      pop\n        /* \"#utility.yul\":466:562   */\n      swap2\n      swap1\n      pop\n      jump\t// out\n        /* \"#utility.yul\":568:690   */\n    tag_47:\n        /* \"#utility.yul\":641:665   */\n      tag_97\n        /* \"#utility.yul\":659:664   */\n      dup2\n        /* \"#utility.yul\":641:665   */\n      tag_46\n      jump\t// in\n    tag_97:\n        /* \"#utility.yul\":634:639   */\n      dup2\n        /* \"#utility.yul\":631:666   */\n      eq\n        /* \"#utility.yul\":621:684   */\n      tag_98\n      jumpi\n        /* \"#utility.yul\":680:681   */\n      0x00\n        /* \"#utility.yul\":677:678   */\n      dup1\n        /* \"#utility.yul\":670:682   */\n      revert\n        /* \"#utility.yul\":621:684   */\n    tag_98:\n        /* \"#utility.yul\":568:690   */\n      pop\n      jump\t// out\n        /* \"#utility.yul\":696:835   */\n    tag_48:\n        /* \"#utility.yul\":742:747   */\n      0x00\n        /* \"#utility.yul\":780:786   */\n      dup2\n        /* \"#utility.yul\":767:787   */\n      calldataload\n        /* \"#utility.yul\":758:787   */\n      swap1\n      pop\n        /* \"#utility.yul\":796:829   */\n      tag_100\n        /* \"#utility.yul\":823:828   */\n      dup2\n        /* \"#utility.yul\":796:829   */\n      tag_47\n      jump\t// in\n    tag_100:\n        /* \"#utility.yul\":696:835   */\n      swap3\n      swap2\n      pop\n      pop\n      jump\t// out\n        /* \"#utility.yul\":841:958   */\n    tag_49:\n        /* \"#utility.yul\":950:951   */\n      0x00\n        /* \"#utility.yul\":947:948   */\n      dup1\n        /* \"#utility.yul\":940:952   */\n      revert\n        /* \"#utility.yul\":964:1081   */\n    tag_50:\n        /* \"#utility.yul\":1073:1074   */\n      0x00\n        /* \"#utility.yul\":1070:1071   */\n      dup1\n        /* \"#utility.yul\":1063:1075   */\n      revert\n        /* \"#utility.yul\":1087:1189   */\n    tag_51:\n        /* \"#utility.yul\":1128:1134   */\n      0x00\n        /* \"#utility.yul\":1179:1181   */\n      0x1f\n        /* \"#utility.yul\":1175:1182   */\n      not\n        /* \"#utility.yul\":1170:1172   */\n      0x1f\n        /* \"#utility.yul\":1163:1168   */\n      dup4\n        /* \"#utility.yul\":1159:1173   */\n      add\n        /* \"#utility.yul\":1155:1183   */\n      and\n        /* \"#utility.yul\":1145:1183   */\n      swap1\n      pop\n        /* \"#utility.yul\":1087:1189   */\n      swap2\n      swap1\n      pop\n      jump\t// out\n        /* \"#utility.yul\":1195:1375   */\n    tag_52:\n        /* \"#utility.yul\":1243:1320   */\n      0x4e487b7100000000000000000000000000000000000000000000000000000000\n        /* \"#utility.yul\":1240:1241   */\n      0x00\n        /* \"#utility.yul\":1233:1321   */\n      mstore\n        /* \"#utility.yul\":1340:1344   */\n      0x41\n        /* \"#utility.yul\":1337:1338   */\n      0x04\n        /* \"#utility.yul\":1330:1345   */\n      mstore\n        /* \"#utility.yul\":1364:1368   */\n      0x24\n        /* \"#utility.yul\":1361:1362   */\n      0x00\n        /* \"#utility.yul\":1354:1369   */\n      revert\n        /* \"#utility.yul\":1381:1662   */\n    tag_53:\n        /* \"#utility.yul\":1464:1491   */\n      tag_106\n        /* \"#utility.yul\":1486:1490   */\n      dup3\n        /* \"#utility.yul\":1464:1491   */\n      tag_51\n      jump\t// in\n    tag_106:\n        /* \"#utility.yul\":1456:1462   */\n      dup2\n        /* \"#utility.yul\":1452:1492   */\n      add\n        /* \"#utility.yul\":1594:1600   */\n      dup2\n        /* \"#utility.yul\":1582:1592   */\n      dup2\n        /* \"#utility.yul\":1579:1601   */\n      lt\n        /* \"#utility.yul\":1558:1576   */\n      0xffffffffffffffff\n        /* \"#utility.yul\":1546:1556   */\n      dup3\n        /* \"#utility.yul\":1543:1577   */\n      gt\n        /* \"#utility.yul\":1540:1602   */\n      or\n        /* \"#utility.yul\":1537:1625   */\n      iszero\n      tag_107\n      jumpi\n        /* \"#utility.yul\":1605:1623   */\n      tag_108\n      tag_52\n      jump\t// in\n    tag_108:\n        /* \"#utility.yul\":1537:1625   */\n    tag_107:\n        /* \"#utility.yul\":1645:1655   */\n      dup1\n        /* \"#utility.yul\":1641:1643   */\n      0x40\n        /* \"#utility.yul\":1634:1656   */\n      mstore\n        /* \"#utility.yul\":1424:1662   */\n      pop\n        /* \"#utility.yul\":1381:1662   */\n      pop\n      pop\n      jump\t// out\n        /* \"#utility.yul\":1668:1797   */\n    tag_54:\n        /* \"#utility.yul\":1702:1708   */\n      0x00\n        /* \"#utility.yul\":1729:1749   */\n      tag_110\n      tag_42\n      jump\t// in\n    tag_110:\n        /* \"#utility.yul\":1719:1749   */\n      swap1\n      pop\n        /* \"#utility.yul\":1758:1791   */\n      tag_111\n        /* \"#utility.yul\":1786:1790   */\n      dup3\n        /* \"#utility.yul\":1778:1784   */\n      dup3\n        /* \"#utility.yul\":1758:1791   */\n      tag_53\n      jump\t// in\n    tag_111:\n        /* \"#utility.yul\":1668:1797   */\n      swap2\n      swap1\n      pop\n      jump\t// out\n        /* \"#utility.yul\":1803:2111   */\n    tag_55:\n        /* \"#utility.yul\":1865:1869   */\n      0x00\n        /* \"#utility.yul\":1955:1973   */\n      0xffffffffffffffff\n        /* \"#utility.yul\":1947:1953   */\n      dup3\n        /* \"#utility.yul\":1944:1974   */\n      gt\n        /* \"#utility.yul\":1941:1997   */\n      iszero\n      tag_113\n      jumpi\n        /* \"#utility.yul\":1977:1995   */\n      tag_114\n      tag_52\n      jump\t// in\n    tag_114:\n        /* \"#utility.yul\":1941:1997   */\n    tag_113:\n        /* \"#utility.yul\":2015:2044   */\n      tag_115\n        /* \"#utility.yul\":2037:2043   */\n      dup3\n        /* \"#utility.yul\":2015:2044   */\n      tag_51\n      jump\t// in\n    tag_115:\n        /* \"#utility.yul\":2007:2044   */\n      swap1\n      pop\n        /* \"#utility.yul\":2099:2103   */\n      0x20\n        /* \"#utility.yul\":2093:2097   */\n      dup2\n        /* \"#utility.yul\":2089:2104   */\n      add\n        /* \"#utility.yul\":2081:2104   */\n      swap1\n      pop\n        /* \"#utility.yul\":1803:2111   */\n      swap2\n      swap1\n      pop\n      jump\t// out\n        /* \"#utility.yul\":2117:2265   */\n    tag_56:\n        /* \"#utility.yul\":2215:2221   */\n      dup3\n        /* \"#utility.yul\":2210:2213   */\n      dup2\n        /* \"#utility.yul\":2205:2208   */\n      dup4\n        /* \"#utility.yul\":2192:2222   */\n      calldatacopy\n        /* \"#utility.yul\":2256:2257   */\n      0x00\n        /* \"#utility.yul\":2247:2253   */\n      dup4\n        /* \"#utility.yul\":2242:2245   */\n      dup4\n        /* \"#utility.yul\":2238:2254   */\n      add\n        /* \"#utility.yul\":2231:2258   */\n      mstore\n        /* \"#utility.yul\":2117:2265   */\n      pop\n      pop\n      pop\n      jump\t// out\n        /* \"#utility.yul\":2271:2696   */\n    tag_57:\n        /* \"#utility.yul\":2349:2354   */\n      0x00\n        /* \"#utility.yul\":2374:2440   */\n      tag_118\n        /* \"#utility.yul\":2390:2439   */\n      tag_119\n        /* \"#utility.yul\":2432:2438   */\n      dup5\n        /* \"#utility.yul\":2390:2439   */\n      tag_55\n      jump\t// in\n    tag_119:\n        /* \"#utility.yul\":2374:2440   */\n      tag_54\n      jump\t// in\n    tag_118:\n        /* \"#utility.yul\":2365:2440   */\n      swap1\n      pop\n        /* \"#utility.yul\":2463:2469   */\n      dup3\n        /* \"#utility.yul\":2456:2461   */\n      dup2\n        /* \"#utility.yul\":2449:2470   */\n      mstore\n        /* \"#utility.yul\":2501:2505   */\n      0x20\n        /* \"#utility.yul\":2494:2499   */\n      dup2\n        /* \"#utility.yul\":2490:2506   */\n      add\n        /* \"#utility.yul\":2539:2542   */\n      dup5\n        /* \"#utility.yul\":2530:2536   */\n      dup5\n        /* \"#utility.yul\":2525:2528   */\n      dup5\n        /* \"#utility.yul\":2521:2537   */\n      add\n        /* \"#utility.yul\":2518:2543   */\n      gt\n        /* \"#utility.yul\":2515:2627   */\n      iszero\n      tag_120\n      jumpi\n        /* \"#utility.yul\":2546:2625   */\n      tag_121\n      tag_50\n      jump\t// in\n    tag_121:\n        /* \"#utility.yul\":2515:2627   */\n    tag_120:\n        /* \"#utility.yul\":2636:2690   */\n      tag_122\n        /* \"#utility.yul\":2683:2689   */\n      dup5\n        /* \"#utility.yul\":2678:2681   */\n      dup3\n        /* \"#utility.yul\":2673:2676   */\n      dup6\n        /* \"#utility.yul\":2636:2690   */\n      tag_56\n      jump\t// in\n    tag_122:\n        /* \"#utility.yul\":2355:2696   */\n      pop\n        /* \"#utility.yul\":2271:2696   */\n      swap4\n      swap3\n      pop\n      pop\n      pop\n      jump\t// out\n        /* \"#utility.yul\":2716:3056   */\n    tag_58:\n        /* \"#utility.yul\":2772:2777   */\n      0x00\n        /* \"#utility.yul\":2821:2824   */\n      dup3\n        /* \"#utility.yul\":2814:2818   */\n      0x1f\n        /* \"#utility.yul\":2806:2812   */\n      dup4\n        /* \"#utility.yul\":2802:2819   */\n      add\n        /* \"#utility.yul\":2798:2825   */\n      slt\n        /* \"#utility.yul\":2788:2910   */\n      tag_124\n      jumpi\n        /* \"#utility.yul\":2829:2908   */\n      tag_125\n      tag_49\n      jump\t// in\n    tag_125:\n        /* \"#utility.yul\":2788:2910   */\n    tag_124:\n        /* \"#utility.yul\":2946:2952   */\n      dup2\n        /* \"#utility.yul\":2933:2953   */\n      calldataload\n        /* \"#utility.yul\":2971:3050   */\n      tag_126\n        /* \"#utility.yul\":3046:3049   */\n      dup5\n        /* \"#utility.yul\":3038:3044   */\n      dup3\n        /* \"#utility.yul\":3031:3035   */\n      0x20\n        /* \"#utility.yul\":3023:3029   */\n      dup7\n        /* \"#utility.yul\":3019:3036   */\n      add\n        /* \"#utility.yul\":2971:3050   */\n      tag_57\n      jump\t// in\n    tag_126:\n        /* \"#utility.yul\":2962:3050   */\n      swap2\n      pop\n        /* \"#utility.yul\":2778:3056   */\n      pop\n        /* \"#utility.yul\":2716:3056   */\n      swap3\n      swap2\n      pop\n      pop\n      jump\t// out\n        /* \"#utility.yul\":3062:3861   */\n    tag_8:\n        /* \"#utility.yul\":3149:3155   */\n      0x00\n        /* \"#utility.yul\":3157:3163   */\n      dup1\n        /* \"#utility.yul\":3165:3171   */\n      0x00\n        /* \"#utility.yul\":3214:3216   */\n      0x60\n        /* \"#utility.yul\":3202:3211   */\n      dup5\n        /* \"#utility.yul\":3193:3200   */\n      dup7\n        /* \"#utility.yul\":3189:3212   */\n      sub\n        /* \"#utility.yul\":3185:3217   */\n      slt\n        /* \"#utility.yul\":3182:3301   */\n      iszero\n      tag_128\n      jumpi\n        /* \"#utility.yul\":3220:3299   */\n      tag_129\n      tag_43\n      jump\t// in\n    tag_129:\n        /* \"#utility.yul\":3182:3301   */\n    tag_128:\n        /* \"#utility.yul\":3340:3341   */\n      0x00\n        /* \"#utility.yul\":3365:3418   */\n      tag_130\n        /* \"#utility.yul\":3410:3417   */\n      dup7\n        /* \"#utility.yul\":3401:3407   */\n      dup3\n        /* \"#utility.yul\":3390:3399   */\n      dup8\n        /* \"#utility.yul\":3386:3408   */\n      add\n        /* \"#utility.yul\":3365:3418   */\n      tag_48\n      jump\t// in\n    tag_130:\n        /* \"#utility.yul\":3355:3418   */\n      swap4\n      pop\n        /* \"#utility.yul\":3311:3428   */\n      pop\n        /* \"#utility.yul\":3495:3497   */\n      0x20\n        /* \"#utility.yul\":3484:3493   */\n      dup5\n        /* \"#utility.yul\":3480:3498   */\n      add\n        /* \"#utility.yul\":3467:3499   */\n      calldataload\n        /* \"#utility.yul\":3526:3544   */\n      0xffffffffffffffff\n        /* \"#utility.yul\":3518:3524   */\n      dup2\n        /* \"#utility.yul\":3515:3545   */\n      gt\n        /* \"#utility.yul\":3512:3629   */\n      iszero\n      tag_131\n      jumpi\n        /* \"#utility.yul\":3548:3627   */\n      tag_132\n      tag_44\n      jump\t// in\n    tag_132:\n        /* \"#utility.yul\":3512:3629   */\n    tag_131:\n        /* \"#utility.yul\":3653:3716   */\n      tag_133\n        /* \"#utility.yul\":3708:3715   */\n      dup7\n        /* \"#utility.yul\":3699:3705   */\n      dup3\n        /* \"#utility.yul\":3688:3697   */\n      dup8\n        /* \"#utility.yul\":3684:3706   */\n      add\n        /* \"#utility.yul\":3653:3716   */\n      tag_58\n      jump\t// in\n    tag_133:\n        /* \"#utility.yul\":3643:3716   */\n      swap3\n      pop\n        /* \"#utility.yul\":3438:3726   */\n      pop\n        /* \"#utility.yul\":3765:3767   */\n      0x40\n        /* \"#utility.yul\":3791:3844   */\n      tag_134\n        /* \"#utility.yul\":3836:3843   */\n      dup7\n        /* \"#utility.yul\":3827:3833   */\n      dup3\n        /* \"#utility.yul\":3816:3825   */\n      dup8\n        /* \"#utility.yul\":3812:3834   */\n      add\n        /* \"#utility.yul\":3791:3844   */\n      tag_48\n      jump\t// in\n    tag_134:\n        /* \"#utility.yul\":3781:3844   */\n      swap2\n      pop\n        /* \"#utility.yul\":3736:3854   */\n      pop\n        /* \"#utility.yul\":3062:3861   */\n      swap3\n      pop\n      swap3\n      pop\n      swap3\n      jump\t// out\n        /* \"#utility.yul\":3867:3957   */\n    tag_59:\n        /* \"#utility.yul\":3901:3908   */\n      0x00\n        /* \"#utility.yul\":3944:3949   */\n      dup2\n        /* \"#utility.yul\":3937:3950   */\n      iszero\n        /* \"#utility.yul\":3930:3951   */\n      iszero\n        /* \"#utility.yul\":3919:3951   */\n      swap1\n      pop\n        /* \"#utility.yul\":3867:3957   */\n      swap2\n      swap1\n      pop\n      jump\t// out\n        /* \"#utility.yul\":3963:4072   */\n    tag_60:\n        /* \"#utility.yul\":4044:4065   */\n      tag_137\n        /* \"#utility.yul\":4059:4064   */\n      dup2\n        /* \"#utility.yul\":4044:4065   */\n      tag_59\n      jump\t// in\n    tag_137:\n        /* \"#utility.yul\":4039:4042   */\n      dup3\n        /* \"#utility.yul\":4032:4066   */\n      mstore\n        /* \"#utility.yul\":3963:4072   */\n      pop\n      pop\n      jump\t// out\n        /* \"#utility.yul\":4078:4288   */\n    tag_14:\n        /* \"#utility.yul\":4165:4169   */\n      0x00\n        /* \"#utility.yul\":4203:4205   */\n      0x20\n        /* \"#utility.yul\":4192:4201   */\n      dup3\n        /* \"#utility.yul\":4188:4206   */\n      add\n        /* \"#utility.yul\":4180:4206   */\n      swap1\n      pop\n        /* \"#utility.yul\":4216:4281   */\n      tag_139\n        /* \"#utility.yul\":4278:4279   */\n      0x00\n        /* \"#utility.yul\":4267:4276   */\n      dup4\n        /* \"#utility.yul\":4263:4280   */\n      add\n        /* \"#utility.yul\":4254:4260   */\n      dup5\n        /* \"#utility.yul\":4216:4281   */\n      tag_60\n      jump\t// in\n    tag_139:\n        /* \"#utility.yul\":4078:4288   */\n      swap3\n      swap2\n      pop\n      pop\n      jump\t// out\n        /* \"#utility.yul\":4294:4463   */\n    tag_61:\n        /* \"#utility.yul\":4378:4389   */\n      0x00\n        /* \"#utility.yul\":4412:4418   */\n      dup3\n        /* \"#utility.yul\":4407:4410   */\n      dup3\n        /* \"#utility.yul\":4400:4419   */\n      mstore\n        /* \"#utility.yul\":4452:4456   */\n      0x20\n        /* \"#utility.yul\":4447:4450   */\n      dup3\n        /* \"#utility.yul\":4443:4457   */\n      add\n        /* \"#utility.yul\":4428:4457   */\n      swap1\n      pop\n        /* \"#utility.yul\":4294:4463   */\n      swap3\n      swap2\n      pop\n      pop\n      jump\t// out\n        /* \"#utility.yul\":4469:4700   */\n    tag_62:\n        /* \"#utility.yul\":4609:4643   */\n      0x5365756c206c652070617469656e742070657574206566666563747565722063\n        /* \"#utility.yul\":4605:4606   */\n      0x00\n        /* \"#utility.yul\":4597:4603   */\n      dup3\n        /* \"#utility.yul\":4593:4607   */\n      add\n        /* \"#utility.yul\":4586:4644   */\n      mstore\n        /* \"#utility.yul\":4678:4692   */\n      0x6574746520616374696f6e2e0000000000000000000000000000000000000000\n        /* \"#utility.yul\":4673:4675   */\n      0x20\n        /* \"#utility.yul\":4665:4671   */\n      dup3\n        /* \"#utility.yul\":4661:4676   */\n      add\n        /* \"#utility.yul\":4654:4693   */\n      mstore\n        /* \"#utility.yul\":4469:4700   */\n      pop\n      jump\t// out\n        /* \"#utility.yul\":4706:5072   */\n    tag_63:\n        /* \"#utility.yul\":4848:4851   */\n      0x00\n        /* \"#utility.yul\":4869:4936   */\n      tag_143\n        /* \"#utility.yul\":4933:4935   */\n      0x2c\n        /* \"#utility.yul\":4928:4931   */\n      dup4\n        /* \"#utility.yul\":4869:4936   */\n      tag_61\n      jump\t// in\n    tag_143:\n        /* \"#utility.yul\":4862:4936   */\n      swap2\n      pop\n        /* \"#utility.yul\":4945:5038   */\n      tag_144\n        /* \"#utility.yul\":5034:5037   */\n      dup3\n        /* \"#utility.yul\":4945:5038   */\n      tag_62\n      jump\t// in\n    tag_144:\n        /* \"#utility.yul\":5063:5065   */\n      0x40\n        /* \"#utility.yul\":5058:5061   */\n      dup3\n        /* \"#utility.yul\":5054:5066   */\n      add\n        /* \"#utility.yul\":5047:5066   */\n      swap1\n      pop\n        /* \"#utility.yul\":4706:5072   */\n      swap2\n      swap1\n      pop\n      jump\t// out\n        /* \"#utility.yul\":5078:5497   */\n    tag_21:\n        /* \"#utility.yul\":5244:5248   */\n      0x00\n        /* \"#utility.yul\":5282:5284   */\n      0x20\n        /* \"#utility.yul\":5271:5280   */\n      dup3\n        /* \"#utility.yul\":5267:5285   */\n      add\n        /* \"#utility.yul\":5259:5285   */\n      swap1\n      pop\n        /* \"#utility.yul\":5331:5340   */\n      dup2\n        /* \"#utility.yul\":5325:5329   */\n      dup2\n        /* \"#utility.yul\":5321:5341   */\n      sub\n        /* \"#utility.yul\":5317:5318   */\n      0x00\n        /* \"#utility.yul\":5306:5315   */\n      dup4\n        /* \"#utility.yul\":5302:5319   */\n      add\n        /* \"#utility.yul\":5295:5342   */\n      mstore\n        /* \"#utility.yul\":5359:5490   */\n      tag_146\n        /* \"#utility.yul\":5485:5489   */\n      dup2\n        /* \"#utility.yul\":5359:5490   */\n      tag_63\n      jump\t// in\n    tag_146:\n        /* \"#utility.yul\":5351:5490   */\n      swap1\n      pop\n        /* \"#utility.yul\":5078:5497   */\n      swap2\n      swap1\n      pop\n      jump\t// out\n        /* \"#utility.yul\":5503:5602   */\n    tag_64:\n        /* \"#utility.yul\":5555:5561   */\n      0x00\n        /* \"#utility.yul\":5589:5594   */\n      dup2\n        /* \"#utility.yul\":5583:5595   */\n      mload\n        /* \"#utility.yul\":5573:5595   */\n      swap1\n      pop\n        /* \"#utility.yul\":5503:5602   */\n      swap2\n      swap1\n      pop\n      jump\t// out\n        /* \"#utility.yul\":5608:5756   */\n    tag_65:\n        /* \"#utility.yul\":5710:5721   */\n      0x00\n        /* \"#utility.yul\":5747:5750   */\n      dup2\n        /* \"#utility.yul\":5732:5750   */\n      swap1\n      pop\n        /* \"#utility.yul\":5608:5756   */\n      swap3\n      swap2\n      pop\n      pop\n      jump\t// out\n        /* \"#utility.yul\":5762:6010   */\n    tag_66:\n        /* \"#utility.yul\":5844:5845   */\n      0x00\n        /* \"#utility.yul\":5854:5967   */\n    tag_150:\n        /* \"#utility.yul\":5868:5874   */\n      dup4\n        /* \"#utility.yul\":5865:5866   */\n      dup2\n        /* \"#utility.yul\":5862:5875   */\n      lt\n        /* \"#utility.yul\":5854:5967   */\n      iszero\n      tag_152\n      jumpi\n        /* \"#utility.yul\":5953:5954   */\n      dup1\n        /* \"#utility.yul\":5948:5951   */\n      dup3\n        /* \"#utility.yul\":5944:5955   */\n      add\n        /* \"#utility.yul\":5938:5956   */\n      mload\n        /* \"#utility.yul\":5934:5935   */\n      dup2\n        /* \"#utility.yul\":5929:5932   */\n      dup5\n        /* \"#utility.yul\":5925:5936   */\n      add\n        /* \"#utility.yul\":5918:5957   */\n      mstore\n        /* \"#utility.yul\":5890:5892   */\n      0x20\n        /* \"#utility.yul\":5887:5888   */\n      dup2\n        /* \"#utility.yul\":5883:5893   */\n      add\n        /* \"#utility.yul\":5878:5893   */\n      swap1\n      pop\n        /* \"#utility.yul\":5854:5967   */\n      jump(tag_150)\n    tag_152:\n        /* \"#utility.yul\":6001:6002   */\n      0x00\n        /* \"#utility.yul\":5992:5998   */\n      dup5\n        /* \"#utility.yul\":5987:5990   */\n      dup5\n        /* \"#utility.yul\":5983:5999   */\n      add\n        /* \"#utility.yul\":5976:6003   */\n      mstore\n        /* \"#utility.yul\":5824:6010   */\n      pop\n        /* \"#utility.yul\":5762:6010   */\n      pop\n      pop\n      pop\n      jump\t// out\n        /* \"#utility.yul\":6016:6406   */\n    tag_67:\n        /* \"#utility.yul\":6122:6125   */\n      0x00\n        /* \"#utility.yul\":6150:6189   */\n      tag_154\n        /* \"#utility.yul\":6183:6188   */\n      dup3\n        /* \"#utility.yul\":6150:6189   */\n      tag_64\n      jump\t// in\n    tag_154:\n        /* \"#utility.yul\":6205:6294   */\n      tag_155\n        /* \"#utility.yul\":6287:6293   */\n      dup2\n        /* \"#utility.yul\":6282:6285   */\n      dup6\n        /* \"#utility.yul\":6205:6294   */\n      tag_65\n      jump\t// in\n    tag_155:\n        /* \"#utility.yul\":6198:6294   */\n      swap4\n      pop\n        /* \"#utility.yul\":6303:6368   */\n      tag_156\n        /* \"#utility.yul\":6361:6367   */\n      dup2\n        /* \"#utility.yul\":6356:6359   */\n      dup6\n        /* \"#utility.yul\":6349:6353   */\n      0x20\n        /* \"#utility.yul\":6342:6347   */\n      dup7\n        /* \"#utility.yul\":6338:6354   */\n      add\n        /* \"#utility.yul\":6303:6368   */\n      tag_66\n      jump\t// in\n    tag_156:\n        /* \"#utility.yul\":6393:6399   */\n      dup1\n        /* \"#utility.yul\":6388:6391   */\n      dup5\n        /* \"#utility.yul\":6384:6400   */\n      add\n        /* \"#utility.yul\":6377:6400   */\n      swap2\n      pop\n        /* \"#utility.yul\":6126:6406   */\n      pop\n        /* \"#utility.yul\":6016:6406   */\n      swap3\n      swap2\n      pop\n      pop\n      jump\t// out\n        /* \"#utility.yul\":6412:6687   */\n    tag_24:\n        /* \"#utility.yul\":6544:6547   */\n      0x00\n        /* \"#utility.yul\":6566:6661   */\n      tag_158\n        /* \"#utility.yul\":6657:6660   */\n      dup3\n        /* \"#utility.yul\":6648:6654   */\n      dup5\n        /* \"#utility.yul\":6566:6661   */\n      tag_67\n      jump\t// in\n    tag_158:\n        /* \"#utility.yul\":6559:6661   */\n      swap2\n      pop\n        /* \"#utility.yul\":6678:6681   */\n      dup2\n        /* \"#utility.yul\":6671:6681   */\n      swap1\n      pop\n        /* \"#utility.yul\":6412:6687   */\n      swap3\n      swap2\n      pop\n      pop\n      jump\t// out\n        /* \"#utility.yul\":6693:6920   */\n    tag_68:\n        /* \"#utility.yul\":6833:6867   */\n      0x4c6520646f6374657572206e2761207061732064276163636573206120636520\n        /* \"#utility.yul\":6829:6830   */\n      0x00\n        /* \"#utility.yul\":6821:6827   */\n      dup3\n        /* \"#utility.yul\":6817:6831   */\n      add\n        /* \"#utility.yul\":6810:6868   */\n      mstore\n        /* \"#utility.yul\":6902:6912   */\n      0x646f73736965722e000000000000000000000000000000000000000000000000\n        /* \"#utility.yul\":6897:6899   */\n      0x20\n        /* \"#utility.yul\":6889:6895   */\n      dup3\n        /* \"#utility.yul\":6885:6900   */\n      add\n        /* \"#utility.yul\":6878:6913   */\n      mstore\n        /* \"#utility.yul\":6693:6920   */\n      pop\n      jump\t// out\n        /* \"#utility.yul\":6926:7292   */\n    tag_69:\n        /* \"#utility.yul\":7068:7071   */\n      0x00\n        /* \"#utility.yul\":7089:7156   */\n      tag_161\n        /* \"#utility.yul\":7153:7155   */\n      0x28\n        /* \"#utility.yul\":7148:7151   */\n      dup4\n        /* \"#utility.yul\":7089:7156   */\n      tag_61\n      jump\t// in\n    tag_161:\n        /* \"#utility.yul\":7082:7156   */\n      swap2\n      pop\n        /* \"#utility.yul\":7165:7258   */\n      tag_162\n        /* \"#utility.yul\":7254:7257   */\n      dup3\n        /* \"#utility.yul\":7165:7258   */\n      tag_68\n      jump\t// in\n    tag_162:\n        /* \"#utility.yul\":7283:7285   */\n      0x40\n        /* \"#utility.yul\":7278:7281   */\n      dup3\n        /* \"#utility.yul\":7274:7286   */\n      add\n        /* \"#utility.yul\":7267:7286   */\n      swap1\n      pop\n        /* \"#utility.yul\":6926:7292   */\n      swap2\n      swap1\n      pop\n      jump\t// out\n        /* \"#utility.yul\":7298:7717   */\n    tag_27:\n        /* \"#utility.yul\":7464:7468   */\n      0x00\n        /* \"#utility.yul\":7502:7504   */\n      0x20\n        /* \"#utility.yul\":7491:7500   */\n      dup3\n        /* \"#utility.yul\":7487:7505   */\n      add\n        /* \"#utility.yul\":7479:7505   */\n      swap1\n      pop\n        /* \"#utility.yul\":7551:7560   */\n      dup2\n        /* \"#utility.yul\":7545:7549   */\n      dup2\n        /* \"#utility.yul\":7541:7561   */\n      sub\n        /* \"#utility.yul\":7537:7538   */\n      0x00\n        /* \"#utility.yul\":7526:7535   */\n      dup4\n        /* \"#utility.yul\":7522:7539   */\n      add\n        /* \"#utility.yul\":7515:7562   */\n      mstore\n        /* \"#utility.yul\":7579:7710   */\n      tag_164\n        /* \"#utility.yul\":7705:7709   */\n      dup2\n        /* \"#utility.yul\":7579:7710   */\n      tag_69\n      jump\t// in\n    tag_164:\n        /* \"#utility.yul\":7571:7710   */\n      swap1\n      pop\n        /* \"#utility.yul\":7298:7717   */\n      swap2\n      swap1\n      pop\n      jump\t// out\n        /* \"#utility.yul\":7723:8100   */\n    tag_70:\n        /* \"#utility.yul\":7811:7814   */\n      0x00\n        /* \"#utility.yul\":7839:7878   */\n      tag_166\n        /* \"#utility.yul\":7872:7877   */\n      dup3\n        /* \"#utility.yul\":7839:7878   */\n      tag_64\n      jump\t// in\n    tag_166:\n        /* \"#utility.yul\":7894:7965   */\n      tag_167\n        /* \"#utility.yul\":7958:7964   */\n      dup2\n        /* \"#utility.yul\":7953:7956   */\n      dup6\n        /* \"#utility.yul\":7894:7965   */\n      tag_61\n      jump\t// in\n    tag_167:\n        /* \"#utility.yul\":7887:7965   */\n      swap4\n      pop\n        /* \"#utility.yul\":7974:8039   */\n      tag_168\n        /* \"#utility.yul\":8032:8038   */\n      dup2\n        /* \"#utility.yul\":8027:8030   */\n      dup6\n        /* \"#utility.yul\":8020:8024   */\n      0x20\n        /* \"#utility.yul\":8013:8018   */\n      dup7\n        /* \"#utility.yul\":8009:8025   */\n      add\n        /* \"#utility.yul\":7974:8039   */\n      tag_66\n      jump\t// in\n    tag_168:\n        /* \"#utility.yul\":8064:8093   */\n      tag_169\n        /* \"#utility.yul\":8086:8092   */\n      dup2\n        /* \"#utility.yul\":8064:8093   */\n      tag_51\n      jump\t// in\n    tag_169:\n        /* \"#utility.yul\":8059:8062   */\n      dup5\n        /* \"#utility.yul\":8055:8094   */\n      add\n        /* \"#utility.yul\":8048:8094   */\n      swap2\n      pop\n        /* \"#utility.yul\":7815:8100   */\n      pop\n        /* \"#utility.yul\":7723:8100   */\n      swap3\n      swap2\n      pop\n      pop\n      jump\t// out\n        /* \"#utility.yul\":8106:8419   */\n    tag_30:\n        /* \"#utility.yul\":8219:8223   */\n      0x00\n        /* \"#utility.yul\":8257:8259   */\n      0x20\n        /* \"#utility.yul\":8246:8255   */\n      dup3\n        /* \"#utility.yul\":8242:8260   */\n      add\n        /* \"#utility.yul\":8234:8260   */\n      swap1\n      pop\n        /* \"#utility.yul\":8306:8315   */\n      dup2\n        /* \"#utility.yul\":8300:8304   */\n      dup2\n        /* \"#utility.yul\":8296:8316   */\n      sub\n        /* \"#utility.yul\":8292:8293   */\n      0x00\n        /* \"#utility.yul\":8281:8290   */\n      dup4\n        /* \"#utility.yul\":8277:8294   */\n      add\n        /* \"#utility.yul\":8270:8317   */\n      mstore\n        /* \"#utility.yul\":8334:8412   */\n      tag_171\n        /* \"#utility.yul\":8407:8411   */\n      dup2\n        /* \"#utility.yul\":8398:8404   */\n      dup5\n        /* \"#utility.yul\":8334:8412   */\n      tag_70\n      jump\t// in\n    tag_171:\n        /* \"#utility.yul\":8326:8412   */\n      swap1\n      pop\n        /* \"#utility.yul\":8106:8419   */\n      swap3\n      swap2\n      pop\n      pop\n      jump\t// out\n        /* \"#utility.yul\":8425:8605   */\n    tag_71:\n        /* \"#utility.yul\":8473:8550   */\n      0x4e487b7100000000000000000000000000000000000000000000000000000000\n        /* \"#utility.yul\":8470:8471   */\n      0x00\n        /* \"#utility.yul\":8463:8551   */\n      mstore\n        /* \"#utility.yul\":8570:8574   */\n      0x22\n        /* \"#utility.yul\":8567:8568   */\n      0x04\n        /* \"#utility.yul\":8560:8575   */\n      mstore\n        /* \"#utility.yul\":8594:8598   */\n      0x24\n        /* \"#utility.yul\":8591:8592   */\n      0x00\n        /* \"#utility.yul\":8584:8599   */\n      revert\n        /* \"#utility.yul\":8611:8931   */\n    tag_72:\n        /* \"#utility.yul\":8655:8661   */\n      0x00\n        /* \"#utility.yul\":8692:8693   */\n      0x02\n        /* \"#utility.yul\":8686:8690   */\n      dup3\n        /* \"#utility.yul\":8682:8694   */\n      div\n        /* \"#utility.yul\":8672:8694   */\n      swap1\n      pop\n        /* \"#utility.yul\":8739:8740   */\n      0x01\n        /* \"#utility.yul\":8733:8737   */\n      dup3\n        /* \"#utility.yul\":8729:8741   */\n      and\n        /* \"#utility.yul\":8760:8778   */\n      dup1\n        /* \"#utility.yul\":8750:8831   */\n      tag_174\n      jumpi\n        /* \"#utility.yul\":8816:8820   */\n      0x7f\n        /* \"#utility.yul\":8808:8814   */\n      dup3\n        /* \"#utility.yul\":8804:8821   */\n      and\n        /* \"#utility.yul\":8794:8821   */\n      swap2\n      pop\n        /* \"#utility.yul\":8750:8831   */\n    tag_174:\n        /* \"#utility.yul\":8878:8880   */\n      0x20\n        /* \"#utility.yul\":8870:8876   */\n      dup3\n        /* \"#utility.yul\":8867:8881   */\n      lt\n        /* \"#utility.yul\":8847:8865   */\n      dup2\n        /* \"#utility.yul\":8844:8882   */\n      sub\n        /* \"#utility.yul\":8841:8925   */\n      tag_175\n      jumpi\n        /* \"#utility.yul\":8897:8915   */\n      tag_176\n      tag_71\n      jump\t// in\n    tag_176:\n        /* \"#utility.yul\":8841:8925   */\n    tag_175:\n        /* \"#utility.yul\":8662:8931   */\n      pop\n        /* \"#utility.yul\":8611:8931   */\n      swap2\n      swap1\n      pop\n      jump\t// out\n        /* \"#utility.yul\":8937:9078   */\n    tag_73:\n        /* \"#utility.yul\":8986:8990   */\n      0x00\n        /* \"#utility.yul\":9009:9012   */\n      dup2\n        /* \"#utility.yul\":9001:9012   */\n      swap1\n      pop\n        /* \"#utility.yul\":9032:9035   */\n      dup2\n        /* \"#utility.yul\":9029:9030   */\n      0x00\n        /* \"#utility.yul\":9022:9036   */\n      mstore\n        /* \"#utility.yul\":9066:9070   */\n      0x20\n        /* \"#utility.yul\":9063:9064   */\n      0x00\n        /* \"#utility.yul\":9053:9071   */\n      keccak256\n        /* \"#utility.yul\":9045:9071   */\n      swap1\n      pop\n        /* \"#utility.yul\":8937:9078   */\n      swap2\n      swap1\n      pop\n      jump\t// out\n        /* \"#utility.yul\":9084:9177   */\n    tag_74:\n        /* \"#utility.yul\":9121:9127   */\n      0x00\n        /* \"#utility.yul\":9168:9170   */\n      0x20\n        /* \"#utility.yul\":9163:9165   */\n      0x1f\n        /* \"#utility.yul\":9156:9161   */\n      dup4\n        /* \"#utility.yul\":9152:9166   */\n      add\n        /* \"#utility.yul\":9148:9171   */\n      div\n        /* \"#utility.yul\":9138:9171   */\n      swap1\n      pop\n        /* \"#utility.yul\":9084:9177   */\n      swap2\n      swap1\n      pop\n      jump\t// out\n        /* \"#utility.yul\":9183:9290   */\n    tag_75:\n        /* \"#utility.yul\":9227:9235   */\n      0x00\n        /* \"#utility.yul\":9277:9282   */\n      dup3\n        /* \"#utility.yul\":9271:9275   */\n      dup3\n        /* \"#utility.yul\":9267:9283   */\n      shl\n        /* \"#utility.yul\":9246:9283   */\n      swap1\n      pop\n        /* \"#utility.yul\":9183:9290   */\n      swap3\n      swap2\n      pop\n      pop\n      jump\t// out\n        /* \"#utility.yul\":9296:9689   */\n    tag_76:\n        /* \"#utility.yul\":9365:9371   */\n      0x00\n        /* \"#utility.yul\":9415:9416   */\n      0x08\n        /* \"#utility.yul\":9403:9413   */\n      dup4\n        /* \"#utility.yul\":9399:9417   */\n      mul\n        /* \"#utility.yul\":9438:9535   */\n      tag_181\n        /* \"#utility.yul\":9468:9534   */\n      0xffffffffffffffffffffffffffffffffffffffffffffffffffffffffffffffff\n        /* \"#utility.yul\":9457:9466   */\n      dup3\n        /* \"#utility.yul\":9438:9535   */\n      tag_75\n      jump\t// in\n    tag_181:\n        /* \"#utility.yul\":9556:9595   */\n      tag_182\n        /* \"#utility.yul\":9586:9594   */\n      dup7\n        /* \"#utility.yul\":9575:9584   */\n      dup4\n        /* \"#utility.yul\":9556:9595   */\n      tag_75\n      jump\t// in\n    tag_182:\n        /* \"#utility.yul\":9544:9595   */\n      swap6\n      pop\n        /* \"#utility.yul\":9628:9632   */\n      dup1\n        /* \"#utility.yul\":9624:9633   */\n      not\n        /* \"#utility.yul\":9617:9622   */\n      dup5\n        /* \"#utility.yul\":9613:9634   */\n      and\n        /* \"#utility.yul\":9604:9634   */\n      swap4\n      pop\n        /* \"#utility.yul\":9677:9681   */\n      dup1\n        /* \"#utility.yul\":9667:9675   */\n      dup7\n        /* \"#utility.yul\":9663:9682   */\n      and\n        /* \"#utility.yul\":9656:9661   */\n      dup5\n        /* \"#utility.yul\":9653:9683   */\n      or\n        /* \"#utility.yul\":9643:9683   */\n      swap3\n      pop\n        /* \"#utility.yul\":9372:9689   */\n      pop\n      pop\n        /* \"#utility.yul\":9296:9689   */\n      swap4\n      swap3\n      pop\n      pop\n      pop\n      jump\t// out\n        /* \"#utility.yul\":9695:9772   */\n    tag_77:\n        /* \"#utility.yul\":9732:9739   */\n      0x00\n        /* \"#utility.yul\":9761:9766   */\n      dup2\n        /* \"#utility.yul\":9750:9766   */\n      swap1\n      pop\n        /* \"#utility.yul\":9695:9772   */\n      swap2\n      swap1\n      pop\n      jump\t// out\n        /* \"#utility.yul\":9778:9838   */\n    tag_78:\n        /* \"#utility.yul\":9806:9809   */\n      0x00\n        /* \"#utility.yul\":9827:9832   */\n      dup2\n        /* \"#utility.yul\":9820:9832   */\n      swap1\n      pop\n        /* \"#utility.yul\":9778:9838   */\n      swap2\n      swap1\n      pop\n      jump\t// out\n        /* \"#utility.yul\":9844:9986   */\n    tag_79:\n        /* \"#utility.yul\":9894:9903   */\n      0x00\n        /* \"#utility.yul\":9927:9980   */\n      tag_186\n        /* \"#utility.yul\":9945:9979   */\n      tag_187\n        /* \"#utility.yul\":9954:9978   */\n      tag_188\n        /* \"#utility.yul\":9972:9977   */\n      dup5\n        /* \"#utility.yul\":9954:9978   */\n      tag_77\n      jump\t// in\n    tag_188:\n        /* \"#utility.yul\":9945:9979   */\n      tag_78\n      jump\t// in\n    tag_187:\n        /* \"#utility.yul\":9927:9980   */\n      tag_77\n      jump\t// in\n    tag_186:\n        /* \"#utility.yul\":9914:9980   */\n      swap1\n      pop\n        /* \"#utility.yul\":9844:9986   */\n      swap2\n      swap1\n      pop\n      jump\t// out\n        /* \"#utility.yul\":9992:10067   */\n    tag_80:\n        /* \"#utility.yul\":10035:10038   */\n      0x00\n        /* \"#utility.yul\":10056:10061   */\n      dup2\n        /* \"#utility.yul\":10049:10061   */\n      swap1\n      pop\n        /* \"#utility.yul\":9992:10067   */\n      swap2\n      swap1\n      pop\n      jump\t// out\n        /* \"#utility.yul\":10073:10342   */\n    tag_81:\n        /* \"#utility.yul\":10183:10222   */\n      tag_191\n        /* \"#utility.yul\":10214:10221   */\n      dup4\n        /* \"#utility.yul\":10183:10222   */\n      tag_79\n      jump\t// in\n    tag_191:\n        /* \"#utility.yul\":10244:10335   */\n      tag_192\n        /* \"#utility.yul\":10293:10334   */\n      tag_193\n        /* \"#utility.yul\":10317:10333   */\n      dup3\n        /* \"#utility.yul\":10293:10334   */\n      tag_80\n      jump\t// in\n    tag_193:\n        /* \"#utility.yul\":10285:10291   */\n      dup5\n        /* \"#utility.yul\":10278:10282   */\n      dup5\n        /* \"#utility.yul\":10272:10283   */\n      sload\n        /* \"#utility.yul\":10244:10335   */\n      tag_76\n      jump\t// in\n    tag_192:\n        /* \"#utility.yul\":10238:10242   */\n      dup3\n        /* \"#utility.yul\":10231:10336   */\n      sstore\n        /* \"#utility.yul\":10149:10342   */\n      pop\n        /* \"#utility.yul\":10073:10342   */\n      pop\n      pop\n      pop\n      jump\t// out\n        /* \"#utility.yul\":10348:10421   */\n    tag_82:\n        /* \"#utility.yul\":10393:10396   */\n      0x00\n        /* \"#utility.yul\":10348:10421   */\n      swap1\n      jump\t// out\n        /* \"#utility.yul\":10427:10616   */\n    tag_83:\n        /* \"#utility.yul\":10504:10536   */\n      tag_196\n      tag_82\n      jump\t// in\n    tag_196:\n        /* \"#utility.yul\":10545:10610   */\n      tag_197\n        /* \"#utility.yul\":10603:10609   */\n      dup2\n        /* \"#utility.yul\":10595:10601   */\n      dup5\n        /* \"#utility.yul\":10589:10593   */\n      dup5\n        /* \"#utility.yul\":10545:10610   */\n      tag_81\n      jump\t// in\n    tag_197:\n        /* \"#utility.yul\":10480:10616   */\n      pop\n        /* \"#utility.yul\":10427:10616   */\n      pop\n      pop\n      jump\t// out\n        /* \"#utility.yul\":10622:10808   */\n    tag_84:\n        /* \"#utility.yul\":10682:10802   */\n    tag_199:\n        /* \"#utility.yul\":10699:10702   */\n      dup2\n        /* \"#utility.yul\":10692:10697   */\n      dup2\n        /* \"#utility.yul\":10689:10703   */\n      lt\n        /* \"#utility.yul\":10682:10802   */\n      iszero\n      tag_201\n      jumpi\n        /* \"#utility.yul\":10753:10792   */\n      tag_202\n        /* \"#utility.yul\":10790:10791   */\n      0x00\n        /* \"#utility.yul\":10783:10788   */\n      dup3\n        /* \"#utility.yul\":10753:10792   */\n      tag_83\n      jump\t// in\n    tag_202:\n        /* \"#utility.yul\":10726:10727   */\n      0x01\n        /* \"#utility.yul\":10719:10724   */\n      dup2\n        /* \"#utility.yul\":10715:10728   */\n      add\n        /* \"#utility.yul\":10706:10728   */\n      swap1\n      pop\n        /* \"#utility.yul\":10682:10802   */\n      jump(tag_199)\n    tag_201:\n        /* \"#utility.yul\":10622:10808   */\n      pop\n      pop\n      jump\t// out\n        /* \"#utility.yul\":10814:11357   */\n    tag_85:\n        /* \"#utility.yul\":10915:10917   */\n      0x1f\n        /* \"#utility.yul\":10910:10913   */\n      dup3\n        /* \"#utility.yul\":10907:10918   */\n      gt\n        /* \"#utility.yul\":10904:11350   */\n      iszero\n      tag_204\n      jumpi\n        /* \"#utility.yul\":10949:10987   */\n      tag_205\n        /* \"#utility.yul\":10981:10986   */\n      dup2\n        /* \"#utility.yul\":10949:10987   */\n      tag_73\n      jump\t// in\n    tag_205:\n        /* \"#utility.yul\":11033:11062   */\n      tag_206\n        /* \"#utility.yul\":11051:11061   */\n      dup5\n        /* \"#utility.yul\":11033:11062   */\n      tag_74\n      jump\t// in\n    tag_206:\n        /* \"#utility.yul\":11023:11031   */\n      dup2\n        /* \"#utility.yul\":11019:11063   */\n      add\n        /* \"#utility.yul\":11216:11218   */\n      0x20\n        /* \"#utility.yul\":11204:11214   */\n      dup6\n        /* \"#utility.yul\":11201:11219   */\n      lt\n        /* \"#utility.yul\":11198:11247   */\n      iszero\n      tag_207\n      jumpi\n        /* \"#utility.yul\":11237:11245   */\n      dup2\n        /* \"#utility.yul\":11222:11245   */\n      swap1\n      pop\n        /* \"#utility.yul\":11198:11247   */\n    tag_207:\n        /* \"#utility.yul\":11260:11340   */\n      tag_208\n        /* \"#utility.yul\":11316:11338   */\n      tag_209\n        /* \"#utility.yul\":11334:11337   */\n      dup6\n        /* \"#utility.yul\":11316:11338   */\n      tag_74\n      jump\t// in\n    tag_209:\n        /* \"#utility.yul\":11306:11314   */\n      dup4\n        /* \"#utility.yul\":11302:11339   */\n      add\n        /* \"#utility.yul\":11289:11300   */\n      dup3\n        /* \"#utility.yul\":11260:11340   */\n      tag_84\n      jump\t// in\n    tag_208:\n        /* \"#utility.yul\":10919:11350   */\n      pop\n      pop\n        /* \"#utility.yul\":10904:11350   */\n    tag_204:\n        /* \"#utility.yul\":10814:11357   */\n      pop\n      pop\n      pop\n      jump\t// out\n        /* \"#utility.yul\":11363:11480   */\n    tag_86:\n        /* \"#utility.yul\":11417:11425   */\n      0x00\n        /* \"#utility.yul\":11467:11472   */\n      dup3\n        /* \"#utility.yul\":11461:11465   */\n      dup3\n        /* \"#utility.yul\":11457:11473   */\n      shr\n        /* \"#utility.yul\":11436:11473   */\n      swap1\n      pop\n        /* \"#utility.yul\":11363:11480   */\n      swap3\n      swap2\n      pop\n      pop\n      jump\t// out\n        /* \"#utility.yul\":11486:11655   */\n    tag_87:\n        /* \"#utility.yul\":11530:11536   */\n      0x00\n        /* \"#utility.yul\":11563:11614   */\n      tag_212\n        /* \"#utility.yul\":11611:11612   */\n      0x00\n        /* \"#utility.yul\":11607:11613   */\n      not\n        /* \"#utility.yul\":11599:11604   */\n      dup5\n        /* \"#utility.yul\":11596:11597   */\n      0x08\n        /* \"#utility.yul\":11592:11605   */\n      mul\n        /* \"#utility.yul\":11563:11614   */\n      tag_86\n      jump\t// in\n    tag_212:\n        /* \"#utility.yul\":11559:11615   */\n      not\n        /* \"#utility.yul\":11644:11648   */\n      dup1\n        /* \"#utility.yul\":11638:11642   */\n      dup4\n        /* \"#utility.yul\":11634:11649   */\n      and\n        /* \"#utility.yul\":11624:11649   */\n      swap2\n      pop\n        /* \"#utility.yul\":11537:11655   */\n      pop\n        /* \"#utility.yul\":11486:11655   */\n      swap3\n      swap2\n      pop\n      pop\n      jump\t// out\n        /* \"#utility.yul\":11660:11955   */\n    tag_88:\n        /* \"#utility.yul\":11736:11740   */\n      0x00\n        /* \"#utility.yul\":11882:11911   */\n      tag_214\n        /* \"#utility.yul\":11907:11910   */\n      dup4\n        /* \"#utility.yul\":11901:11905   */\n      dup4\n        /* \"#utility.yul\":11882:11911   */\n      tag_87\n      jump\t// in\n    tag_214:\n        /* \"#utility.yul\":11874:11911   */\n      swap2\n      pop\n        /* \"#utility.yul\":11944:11947   */\n      dup3\n        /* \"#utility.yul\":11941:11942   */\n      0x02\n        /* \"#utility.yul\":11937:11948   */\n      mul\n        /* \"#utility.yul\":11931:11935   */\n      dup3\n        /* \"#utility.yul\":11928:11949   */\n      or\n        /* \"#utility.yul\":11920:11949   */\n      swap1\n      pop\n        /* \"#utility.yul\":11660:11955   */\n      swap3\n      swap2\n      pop\n      pop\n      jump\t// out\n        /* \"#utility.yul\":11960:13355   */\n    tag_39:\n        /* \"#utility.yul\":12077:12114   */\n      tag_216\n        /* \"#utility.yul\":12110:12113   */\n      dup3\n        /* \"#utility.yul\":12077:12114   */\n      tag_64\n      jump\t// in\n    tag_216:\n        /* \"#utility.yul\":12179:12197   */\n      0xffffffffffffffff\n        /* \"#utility.yul\":12171:12177   */\n      dup2\n        /* \"#utility.yul\":12168:12198   */\n      gt\n        /* \"#utility.yul\":12165:12221   */\n      iszero\n      tag_217\n      jumpi\n        /* \"#utility.yul\":12201:12219   */\n      tag_218\n      tag_52\n      jump\t// in\n    tag_218:\n        /* \"#utility.yul\":12165:12221   */\n    tag_217:\n        /* \"#utility.yul\":12245:12283   */\n      tag_219\n        /* \"#utility.yul\":12277:12281   */\n      dup3\n        /* \"#utility.yul\":12271:12282   */\n      sload\n        /* \"#utility.yul\":12245:12283   */\n      tag_72\n      jump\t// in\n    tag_219:\n        /* \"#utility.yul\":12330:12397   */\n      tag_220\n        /* \"#utility.yul\":12390:12396   */\n      dup3\n        /* \"#utility.yul\":12382:12388   */\n      dup3\n        /* \"#utility.yul\":12376:12380   */\n      dup6\n        /* \"#utility.yul\":12330:12397   */\n      tag_85\n      jump\t// in\n    tag_220:\n        /* \"#utility.yul\":12424:12425   */\n      0x00\n        /* \"#utility.yul\":12448:12452   */\n      0x20\n        /* \"#utility.yul\":12435:12452   */\n      swap1\n      pop\n        /* \"#utility.yul\":12480:12482   */\n      0x1f\n        /* \"#utility.yul\":12472:12478   */\n      dup4\n        /* \"#utility.yul\":12469:12483   */\n      gt\n        /* \"#utility.yul\":12497:12498   */\n      0x01\n        /* \"#utility.yul\":12492:13110   */\n      dup2\n      eq\n      tag_222\n      jumpi\n        /* \"#utility.yul\":13154:13155   */\n      0x00\n        /* \"#utility.yul\":13171:13177   */\n      dup5\n        /* \"#utility.yul\":13168:13245   */\n      iszero\n      tag_223\n      jumpi\n        /* \"#utility.yul\":13220:13229   */\n      dup3\n        /* \"#utility.yul\":13215:13218   */\n      dup8\n        /* \"#utility.yul\":13211:13230   */\n      add\n        /* \"#utility.yul\":13205:13231   */\n      mload\n        /* \"#utility.yul\":13196:13231   */\n      swap1\n      pop\n        /* \"#utility.yul\":13168:13245   */\n    tag_223:\n        /* \"#utility.yul\":13271:13338   */\n      tag_224\n        /* \"#utility.yul\":13331:13337   */\n      dup6\n        /* \"#utility.yul\":13324:13329   */\n      dup3\n        /* \"#utility.yul\":13271:13338   */\n      tag_88\n      jump\t// in\n    tag_224:\n        /* \"#utility.yul\":13265:13269   */\n      dup7\n        /* \"#utility.yul\":13258:13339   */\n      sstore\n        /* \"#utility.yul\":13127:13349   */\n      pop\n        /* \"#utility.yul\":12462:13349   */\n      jump(tag_221)\n        /* \"#utility.yul\":12492:13110   */\n    tag_222:\n        /* \"#utility.yul\":12544:12548   */\n      0x1f\n        /* \"#utility.yul\":12540:12549   */\n      not\n        /* \"#utility.yul\":12532:12538   */\n      dup5\n        /* \"#utility.yul\":12528:12550   */\n      and\n        /* \"#utility.yul\":12578:12615   */\n      tag_225\n        /* \"#utility.yul\":12610:12614   */\n      dup7\n        /* \"#utility.yul\":12578:12615   */\n      tag_73\n      jump\t// in\n    tag_225:\n        /* \"#utility.yul\":12637:12638   */\n      0x00\n        /* \"#utility.yul\":12651:12859   */\n    tag_226:\n        /* \"#utility.yul\":12665:12672   */\n      dup3\n        /* \"#utility.yul\":12662:12663   */\n      dup2\n        /* \"#utility.yul\":12659:12673   */\n      lt\n        /* \"#utility.yul\":12651:12859   */\n      iszero\n      tag_228\n      jumpi\n        /* \"#utility.yul\":12744:12753   */\n      dup5\n        /* \"#utility.yul\":12739:12742   */\n      dup10\n        /* \"#utility.yul\":12735:12754   */\n      add\n        /* \"#utility.yul\":12729:12755   */\n      mload\n        /* \"#utility.yul\":12721:12727   */\n      dup3\n        /* \"#utility.yul\":12714:12756   */\n      sstore\n        /* \"#utility.yul\":12795:12796   */\n      0x01\n        /* \"#utility.yul\":12787:12793   */\n      dup3\n        /* \"#utility.yul\":12783:12797   */\n      add\n        /* \"#utility.yul\":12773:12797   */\n      swap2\n      pop\n        /* \"#utility.yul\":12842:12844   */\n      0x20\n        /* \"#utility.yul\":12831:12840   */\n      dup6\n        /* \"#utility.yul\":12827:12845   */\n      add\n        /* \"#utility.yul\":12814:12845   */\n      swap5\n      pop\n        /* \"#utility.yul\":12688:12692   */\n      0x20\n        /* \"#utility.yul\":12685:12686   */\n      dup2\n        /* \"#utility.yul\":12681:12693   */\n      add\n        /* \"#utility.yul\":12676:12693   */\n      swap1\n      pop\n        /* \"#utility.yul\":12651:12859   */\n      jump(tag_226)\n    tag_228:\n        /* \"#utility.yul\":12887:12893   */\n      dup7\n        /* \"#utility.yul\":12878:12885   */\n      dup4\n        /* \"#utility.yul\":12875:12894   */\n      lt\n        /* \"#utility.yul\":12872:13051   */\n      iszero\n      tag_229\n      jumpi\n        /* \"#utility.yul\":12945:12954   */\n      dup5\n        /* \"#utility.yul\":12940:12943   */\n      dup10\n        /* \"#utility.yul\":12936:12955   */\n      add\n        /* \"#utility.yul\":12930:12956   */\n      mload\n        /* \"#utility.yul\":12988:13036   */\n      tag_230\n        /* \"#utility.yul\":13030:13034   */\n      0x1f\n        /* \"#utility.yul\":13022:13028   */\n      dup10\n        /* \"#utility.yul\":13018:13035   */\n      and\n        /* \"#utility.yul\":13007:13016   */\n      dup3\n        /* \"#utility.yul\":12988:13036   */\n      tag_87\n      jump\t// in\n    tag_230:\n        /* \"#utility.yul\":12980:12986   */\n      dup4\n        /* \"#utility.yul\":12973:13037   */\n      sstore\n        /* \"#utility.yul\":12895:13051   */\n      pop\n        /* \"#utility.yul\":12872:13051   */\n    tag_229:\n        /* \"#utility.yul\":13097:13098   */\n      0x01\n        /* \"#utility.yul\":13093:13094   */\n      0x02\n        /* \"#utility.yul\":13085:13091   */\n      dup9\n        /* \"#utility.yul\":13081:13095   */\n      mul\n        /* \"#utility.yul\":13077:13099   */\n      add\n        /* \"#utility.yul\":13071:13075   */\n      dup9\n        /* \"#utility.yul\":13064:13100   */\n      sstore\n        /* \"#utility.yul\":12499:13110   */\n      pop\n      pop\n      pop\n        /* \"#utility.yul\":12462:13349   */\n    tag_221:\n      pop\n        /* \"#utility.yul\":12052:13355   */\n      pop\n      pop\n      pop\n        /* \"#utility.yul\":11960:13355   */\n      pop\n      pop\n      jump\t// out\n\n    auxdata: 0xa26469706673582212208f361cb6c08fe3a74b9a57cd19b3bc1d8b45ae474c6606fd33e7b850d32ac8c664736f6c634300081a0033\n}\n",
				"bytecode": {
					"linkReferences": {},
					"object": "6080604052348015600f57600080fd5b50610d648061001f6000396000f3fe608060405234801561001057600080fd5b50600436106100415760003560e01c80634513b2a71461004657806357834a1d1461006257806393e4ee8e14610092575b600080fd5b610060600480360381019061005b9190610789565b6100ae565b005b61007c60048036038101906100779190610789565b610324565b6040516100899190610813565b60405180910390f35b6100ac60048036038101906100a79190610789565b6103d7565b005b82338073ffffffffffffffffffffffffffffffffffffffff168273ffffffffffffffffffffffffffffffffffffffff161461011e576040517f08c379a0000000000000000000000000000000000000000000000000000000008152600401610115906108b1565b60405180910390fd5b6000808673ffffffffffffffffffffffffffffffffffffffff1673ffffffffffffffffffffffffffffffffffffffff1681526020019081526020016000208460405161016a9190610942565b908152602001604051809103902060010160008473ffffffffffffffffffffffffffffffffffffffff1673ffffffffffffffffffffffffffffffffffffffff16815260200190815260200160002060009054906101000a900460ff16610205576040517f08c379a00000000000000000000000000000000000000000000000000000000081526004016101fc906109cb565b60405180910390fd5b60008060008773ffffffffffffffffffffffffffffffffffffffff1673ffffffffffffffffffffffffffffffffffffffff168152602001908152602001600020856040516102539190610942565b908152602001604051809103902060010160008573ffffffffffffffffffffffffffffffffffffffff1673ffffffffffffffffffffffffffffffffffffffff16815260200190815260200160002060006101000a81548160ff0219169083151502179055508273ffffffffffffffffffffffffffffffffffffffff168573ffffffffffffffffffffffffffffffffffffffff167f0a2382b7b0f44ee62df753c00034038c109332bf9b8f52418af74aa2859780fb866040516103159190610a24565b60405180910390a35050505050565b60008060008573ffffffffffffffffffffffffffffffffffffffff1673ffffffffffffffffffffffffffffffffffffffff168152602001908152602001600020836040516103729190610942565b908152602001604051809103902060010160008373ffffffffffffffffffffffffffffffffffffffff1673ffffffffffffffffffffffffffffffffffffffff16815260200190815260200160002060009054906101000a900460ff1690509392505050565b82338073ffffffffffffffffffffffffffffffffffffffff168273ffffffffffffffffffffffffffffffffffffffff1614610447576040517f08c379a000000000000000000000000000000000000000000000000000000000815260040161043e906108b1565b60405180910390fd5b836000808773ffffffffffffffffffffffffffffffffffffffff1673ffffffffffffffffffffffffffffffffffffffff168152602001908152602001600020856040516104949190610942565b908152602001604051809103902060000190816104b19190610c5c565b5060016000808773ffffffffffffffffffffffffffffffffffffffff1673ffffffffffffffffffffffffffffffffffffffff168152602001908152602001600020856040516105009190610942565b908152602001604051809103902060010160008573ffffffffffffffffffffffffffffffffffffffff1673ffffffffffffffffffffffffffffffffffffffff16815260200190815260200160002060006101000a81548160ff0219169083151502179055508273ffffffffffffffffffffffffffffffffffffffff168573ffffffffffffffffffffffffffffffffffffffff167fc7e5c007251689b9bc3cb624f55714afc5988f3e3b4e20cc6a606d7bad6faeca866040516105c29190610a24565b60405180910390a35050505050565b6000604051905090565b600080fd5b600080fd5b600073ffffffffffffffffffffffffffffffffffffffff82169050919050565b6000610610826105e5565b9050919050565b61062081610605565b811461062b57600080fd5b50565b60008135905061063d81610617565b92915050565b600080fd5b600080fd5b6000601f19601f8301169050919050565b7f4e487b7100000000000000000000000000000000000000000000000000000000600052604160045260246000fd5b6106968261064d565b810181811067ffffffffffffffff821117156106b5576106b461065e565b5b80604052505050565b60006106c86105d1565b90506106d4828261068d565b919050565b600067ffffffffffffffff8211156106f4576106f361065e565b5b6106fd8261064d565b9050602081019050919050565b82818337600083830152505050565b600061072c610727846106d9565b6106be565b90508281526020810184848401111561074857610747610648565b5b61075384828561070a565b509392505050565b600082601f8301126107705761076f610643565b5b8135610780848260208601610719565b91505092915050565b6000806000606084860312156107a2576107a16105db565b5b60006107b08682870161062e565b935050602084013567ffffffffffffffff8111156107d1576107d06105e0565b5b6107dd8682870161075b565b92505060406107ee8682870161062e565b9150509250925092565b60008115159050919050565b61080d816107f8565b82525050565b60006020820190506108286000830184610804565b92915050565b600082825260208201905092915050565b7f5365756c206c652070617469656e74207065757420656666656374756572206360008201527f6574746520616374696f6e2e0000000000000000000000000000000000000000602082015250565b600061089b602c8361082e565b91506108a68261083f565b604082019050919050565b600060208201905081810360008301526108ca8161088e565b9050919050565b600081519050919050565b600081905092915050565b60005b838110156109055780820151818401526020810190506108ea565b60008484015250505050565b600061091c826108d1565b61092681856108dc565b93506109368185602086016108e7565b80840191505092915050565b600061094e8284610911565b915081905092915050565b7f4c6520646f6374657572206e276120706173206427616363657320612063652060008201527f646f73736965722e000000000000000000000000000000000000000000000000602082015250565b60006109b560288361082e565b91506109c082610959565b604082019050919050565b600060208201905081810360008301526109e4816109a8565b9050919050565b60006109f6826108d1565b610a00818561082e565b9350610a108185602086016108e7565b610a198161064d565b840191505092915050565b60006020820190508181036000830152610a3e81846109eb565b905092915050565b7f4e487b7100000000000000000000000000000000000000000000000000000000600052602260045260246000fd5b60006002820490506001821680610a8d57607f821691505b602082108103610aa057610a9f610a46565b5b50919050565b60008190508160005260206000209050919050565b60006020601f8301049050919050565b600082821b905092915050565b600060088302610b087fffffffffffffffffffffffffffffffffffffffffffffffffffffffffffffffff82610acb565b610b128683610acb565b95508019841693508086168417925050509392505050565b6000819050919050565b6000819050919050565b6000610b59610b54610b4f84610b2a565b610b34565b610b2a565b9050919050565b6000819050919050565b610b7383610b3e565b610b87610b7f82610b60565b848454610ad8565b825550505050565b600090565b610b9c610b8f565b610ba7818484610b6a565b505050565b5b81811015610bcb57610bc0600082610b94565b600181019050610bad565b5050565b601f821115610c1057610be181610aa6565b610bea84610abb565b81016020851015610bf9578190505b610c0d610c0585610abb565b830182610bac565b50505b505050565b600082821c905092915050565b6000610c3360001984600802610c15565b1980831691505092915050565b6000610c4c8383610c22565b9150826002028217905092915050565b610c65826108d1565b67ffffffffffffffff811115610c7e57610c7d61065e565b5b610c888254610a75565b610c93828285610bcf565b600060209050601f831160018114610cc65760008415610cb4578287015190505b610cbe8582610c40565b865550610d26565b601f198416610cd486610aa6565b60005b82811015610cfc57848901518255600182019150602085019450602081019050610cd7565b86831015610d195784890151610d15601f891682610c22565b8355505b6001600288020188555050505b50505050505056fea26469706673582212208f361cb6c08fe3a74b9a57cd19b3bc1d8b45ae474c6606fd33e7b850d32ac8c664736f6c634300081a0033",
					"opcodes": "PUSH1 0x80 PUSH1 0x40 MSTORE CALLVALUE DUP1 ISZERO PUSH1 0xF JUMPI PUSH1 0x0 DUP1 REVERT JUMPDEST POP PUSH2 0xD64 DUP1 PUSH2 0x1F PUSH1 0x0 CODECOPY PUSH1 0x0 RETURN INVALID PUSH1 0x80 PUSH1 0x40 MSTORE CALLVALUE DUP1 ISZERO PUSH2 0x10 JUMPI PUSH1 0x0 DUP1 REVERT JUMPDEST POP PUSH1 0x4 CALLDATASIZE LT PUSH2 0x41 JUMPI PUSH1 0x0 CALLDATALOAD PUSH1 0xE0 SHR DUP1 PUSH4 0x4513B2A7 EQ PUSH2 0x46 JUMPI DUP1 PUSH4 0x57834A1D EQ PUSH2 0x62 JUMPI DUP1 PUSH4 0x93E4EE8E EQ PUSH2 0x92 JUMPI JUMPDEST PUSH1 0x0 DUP1 REVERT JUMPDEST PUSH2 0x60 PUSH1 0x4 DUP1 CALLDATASIZE SUB DUP2 ADD SWAP1 PUSH2 0x5B SWAP2 SWAP1 PUSH2 0x789 JUMP JUMPDEST PUSH2 0xAE JUMP JUMPDEST STOP JUMPDEST PUSH2 0x7C PUSH1 0x4 DUP1 CALLDATASIZE SUB DUP2 ADD SWAP1 PUSH2 0x77 SWAP2 SWAP1 PUSH2 0x789 JUMP JUMPDEST PUSH2 0x324 JUMP JUMPDEST PUSH1 0x40 MLOAD PUSH2 0x89 SWAP2 SWAP1 PUSH2 0x813 JUMP JUMPDEST PUSH1 0x40 MLOAD DUP1 SWAP2 SUB SWAP1 RETURN JUMPDEST PUSH2 0xAC PUSH1 0x4 DUP1 CALLDATASIZE SUB DUP2 ADD SWAP1 PUSH2 0xA7 SWAP2 SWAP1 PUSH2 0x789 JUMP JUMPDEST PUSH2 0x3D7 JUMP JUMPDEST STOP JUMPDEST DUP3 CALLER DUP1 PUSH20 0xFFFFFFFFFFFFFFFFFFFFFFFFFFFFFFFFFFFFFFFF AND DUP3 PUSH20 0xFFFFFFFFFFFFFFFFFFFFFFFFFFFFFFFFFFFFFFFF AND EQ PUSH2 0x11E JUMPI PUSH1 0x40 MLOAD PUSH32 0x8C379A000000000000000000000000000000000000000000000000000000000 DUP2 MSTORE PUSH1 0x4 ADD PUSH2 0x115 SWAP1 PUSH2 0x8B1 JUMP JUMPDEST PUSH1 0x40 MLOAD DUP1 SWAP2 SUB SWAP1 REVERT JUMPDEST PUSH1 0x0 DUP1 DUP7 PUSH20 0xFFFFFFFFFFFFFFFFFFFFFFFFFFFFFFFFFFFFFFFF AND PUSH20 0xFFFFFFFFFFFFFFFFFFFFFFFFFFFFFFFFFFFFFFFF AND DUP2 MSTORE PUSH1 0x20 ADD SWAP1 DUP2 MSTORE PUSH1 0x20 ADD PUSH1 0x0 KECCAK256 DUP5 PUSH1 0x40 MLOAD PUSH2 0x16A SWAP2 SWAP1 PUSH2 0x942 JUMP JUMPDEST SWAP1 DUP2 MSTORE PUSH1 0x20 ADD PUSH1 0x40 MLOAD DUP1 SWAP2 SUB SWAP1 KECCAK256 PUSH1 0x1 ADD PUSH1 0x0 DUP5 PUSH20 0xFFFFFFFFFFFFFFFFFFFFFFFFFFFFFFFFFFFFFFFF AND PUSH20 0xFFFFFFFFFFFFFFFFFFFFFFFFFFFFFFFFFFFFFFFF AND DUP2 MSTORE PUSH1 0x20 ADD SWAP1 DUP2 MSTORE PUSH1 0x20 ADD PUSH1 0x0 KECCAK256 PUSH1 0x0 SWAP1 SLOAD SWAP1 PUSH2 0x100 EXP SWAP1 DIV PUSH1 0xFF AND PUSH2 0x205 JUMPI PUSH1 0x40 MLOAD PUSH32 0x8C379A000000000000000000000000000000000000000000000000000000000 DUP2 MSTORE PUSH1 0x4 ADD PUSH2 0x1FC SWAP1 PUSH2 0x9CB JUMP JUMPDEST PUSH1 0x40 MLOAD DUP1 SWAP2 SUB SWAP1 REVERT JUMPDEST PUSH1 0x0 DUP1 PUSH1 0x0 DUP8 PUSH20 0xFFFFFFFFFFFFFFFFFFFFFFFFFFFFFFFFFFFFFFFF AND PUSH20 0xFFFFFFFFFFFFFFFFFFFFFFFFFFFFFFFFFFFFFFFF AND DUP2 MSTORE PUSH1 0x20 ADD SWAP1 DUP2 MSTORE PUSH1 0x20 ADD PUSH1 0x0 KECCAK256 DUP6 PUSH1 0x40 MLOAD PUSH2 0x253 SWAP2 SWAP1 PUSH2 0x942 JUMP JUMPDEST SWAP1 DUP2 MSTORE PUSH1 0x20 ADD PUSH1 0x40 MLOAD DUP1 SWAP2 SUB SWAP1 KECCAK256 PUSH1 0x1 ADD PUSH1 0x0 DUP6 PUSH20 0xFFFFFFFFFFFFFFFFFFFFFFFFFFFFFFFFFFFFFFFF AND PUSH20 0xFFFFFFFFFFFFFFFFFFFFFFFFFFFFFFFFFFFFFFFF AND DUP2 MSTORE PUSH1 0x20 ADD SWAP1 DUP2 MSTORE PUSH1 0x20 ADD PUSH1 0x0 KECCAK256 PUSH1 0x0 PUSH2 0x100 EXP DUP2 SLOAD DUP2 PUSH1 0xFF MUL NOT AND SWAP1 DUP4 ISZERO ISZERO MUL OR SWAP1 SSTORE POP DUP3 PUSH20 0xFFFFFFFFFFFFFFFFFFFFFFFFFFFFFFFFFFFFFFFF AND DUP6 PUSH20 0xFFFFFFFFFFFFFFFFFFFFFFFFFFFFFFFFFFFFFFFF AND PUSH32 0xA2382B7B0F44EE62DF753C00034038C109332BF9B8F52418AF74AA2859780FB DUP7 PUSH1 0x40 MLOAD PUSH2 0x315 SWAP2 SWAP1 PUSH2 0xA24 JUMP JUMPDEST PUSH1 0x40 MLOAD DUP1 SWAP2 SUB SWAP1 LOG3 POP POP POP POP POP JUMP JUMPDEST PUSH1 0x0 DUP1 PUSH1 0x0 DUP6 PUSH20 0xFFFFFFFFFFFFFFFFFFFFFFFFFFFFFFFFFFFFFFFF AND PUSH20 0xFFFFFFFFFFFFFFFFFFFFFFFFFFFFFFFFFFFFFFFF AND DUP2 MSTORE PUSH1 0x20 ADD SWAP1 DUP2 MSTORE PUSH1 0x20 ADD PUSH1 0x0 KECCAK256 DUP4 PUSH1 0x40 MLOAD PUSH2 0x372 SWAP2 SWAP1 PUSH2 0x942 JUMP JUMPDEST SWAP1 DUP2 MSTORE PUSH1 0x20 ADD PUSH1 0x40 MLOAD DUP1 SWAP2 SUB SWAP1 KECCAK256 PUSH1 0x1 ADD PUSH1 0x0 DUP4 PUSH20 0xFFFFFFFFFFFFFFFFFFFFFFFFFFFFFFFFFFFFFFFF AND PUSH20 0xFFFFFFFFFFFFFFFFFFFFFFFFFFFFFFFFFFFFFFFF AND DUP2 MSTORE PUSH1 0x20 ADD SWAP1 DUP2 MSTORE PUSH1 0x20 ADD PUSH1 0x0 KECCAK256 PUSH1 0x0 SWAP1 SLOAD SWAP1 PUSH2 0x100 EXP SWAP1 DIV PUSH1 0xFF AND SWAP1 POP SWAP4 SWAP3 POP POP POP JUMP JUMPDEST DUP3 CALLER DUP1 PUSH20 0xFFFFFFFFFFFFFFFFFFFFFFFFFFFFFFFFFFFFFFFF AND DUP3 PUSH20 0xFFFFFFFFFFFFFFFFFFFFFFFFFFFFFFFFFFFFFFFF AND EQ PUSH2 0x447 JUMPI PUSH1 0x40 MLOAD PUSH32 0x8C379A000000000000000000000000000000000000000000000000000000000 DUP2 MSTORE PUSH1 0x4 ADD PUSH2 0x43E SWAP1 PUSH2 0x8B1 JUMP JUMPDEST PUSH1 0x40 MLOAD DUP1 SWAP2 SUB SWAP1 REVERT JUMPDEST DUP4 PUSH1 0x0 DUP1 DUP8 PUSH20 0xFFFFFFFFFFFFFFFFFFFFFFFFFFFFFFFFFFFFFFFF AND PUSH20 0xFFFFFFFFFFFFFFFFFFFFFFFFFFFFFFFFFFFFFFFF AND DUP2 MSTORE PUSH1 0x20 ADD SWAP1 DUP2 MSTORE PUSH1 0x20 ADD PUSH1 0x0 KECCAK256 DUP6 PUSH1 0x40 MLOAD PUSH2 0x494 SWAP2 SWAP1 PUSH2 0x942 JUMP JUMPDEST SWAP1 DUP2 MSTORE PUSH1 0x20 ADD PUSH1 0x40 MLOAD DUP1 SWAP2 SUB SWAP1 KECCAK256 PUSH1 0x0 ADD SWAP1 DUP2 PUSH2 0x4B1 SWAP2 SWAP1 PUSH2 0xC5C JUMP JUMPDEST POP PUSH1 0x1 PUSH1 0x0 DUP1 DUP8 PUSH20 0xFFFFFFFFFFFFFFFFFFFFFFFFFFFFFFFFFFFFFFFF AND PUSH20 0xFFFFFFFFFFFFFFFFFFFFFFFFFFFFFFFFFFFFFFFF AND DUP2 MSTORE PUSH1 0x20 ADD SWAP1 DUP2 MSTORE PUSH1 0x20 ADD PUSH1 0x0 KECCAK256 DUP6 PUSH1 0x40 MLOAD PUSH2 0x500 SWAP2 SWAP1 PUSH2 0x942 JUMP JUMPDEST SWAP1 DUP2 MSTORE PUSH1 0x20 ADD PUSH1 0x40 MLOAD DUP1 SWAP2 SUB SWAP1 KECCAK256 PUSH1 0x1 ADD PUSH1 0x0 DUP6 PUSH20 0xFFFFFFFFFFFFFFFFFFFFFFFFFFFFFFFFFFFFFFFF AND PUSH20 0xFFFFFFFFFFFFFFFFFFFFFFFFFFFFFFFFFFFFFFFF AND DUP2 MSTORE PUSH1 0x20 ADD SWAP1 DUP2 MSTORE PUSH1 0x20 ADD PUSH1 0x0 KECCAK256 PUSH1 0x0 PUSH2 0x100 EXP DUP2 SLOAD DUP2 PUSH1 0xFF MUL NOT AND SWAP1 DUP4 ISZERO ISZERO MUL OR SWAP1 SSTORE POP DUP3 PUSH20 0xFFFFFFFFFFFFFFFFFFFFFFFFFFFFFFFFFFFFFFFF AND DUP6 PUSH20 0xFFFFFFFFFFFFFFFFFFFFFFFFFFFFFFFFFFFFFFFF AND PUSH32 0xC7E5C007251689B9BC3CB624F55714AFC5988F3E3B4E20CC6A606D7BAD6FAECA DUP7 PUSH1 0x40 MLOAD PUSH2 0x5C2 SWAP2 SWAP1 PUSH2 0xA24 JUMP JUMPDEST PUSH1 0x40 MLOAD DUP1 SWAP2 SUB SWAP1 LOG3 POP POP POP POP POP JUMP JUMPDEST PUSH1 0x0 PUSH1 0x40 MLOAD SWAP1 POP SWAP1 JUMP JUMPDEST PUSH1 0x0 DUP1 REVERT JUMPDEST PUSH1 0x0 DUP1 REVERT JUMPDEST PUSH1 0x0 PUSH20 0xFFFFFFFFFFFFFFFFFFFFFFFFFFFFFFFFFFFFFFFF DUP3 AND SWAP1 POP SWAP2 SWAP1 POP JUMP JUMPDEST PUSH1 0x0 PUSH2 0x610 DUP3 PUSH2 0x5E5 JUMP JUMPDEST SWAP1 POP SWAP2 SWAP1 POP JUMP JUMPDEST PUSH2 0x620 DUP2 PUSH2 0x605 JUMP JUMPDEST DUP2 EQ PUSH2 0x62B JUMPI PUSH1 0x0 DUP1 REVERT JUMPDEST POP JUMP JUMPDEST PUSH1 0x0 DUP2 CALLDATALOAD SWAP1 POP PUSH2 0x63D DUP2 PUSH2 0x617 JUMP JUMPDEST SWAP3 SWAP2 POP POP JUMP JUMPDEST PUSH1 0x0 DUP1 REVERT JUMPDEST PUSH1 0x0 DUP1 REVERT JUMPDEST PUSH1 0x0 PUSH1 0x1F NOT PUSH1 0x1F DUP4 ADD AND SWAP1 POP SWAP2 SWAP1 POP JUMP JUMPDEST PUSH32 0x4E487B7100000000000000000000000000000000000000000000000000000000 PUSH1 0x0 MSTORE PUSH1 0x41 PUSH1 0x4 MSTORE PUSH1 0x24 PUSH1 0x0 REVERT JUMPDEST PUSH2 0x696 DUP3 PUSH2 0x64D JUMP JUMPDEST DUP2 ADD DUP2 DUP2 LT PUSH8 0xFFFFFFFFFFFFFFFF DUP3 GT OR ISZERO PUSH2 0x6B5 JUMPI PUSH2 0x6B4 PUSH2 0x65E JUMP JUMPDEST JUMPDEST DUP1 PUSH1 0x40 MSTORE POP POP POP JUMP JUMPDEST PUSH1 0x0 PUSH2 0x6C8 PUSH2 0x5D1 JUMP JUMPDEST SWAP1 POP PUSH2 0x6D4 DUP3 DUP3 PUSH2 0x68D JUMP JUMPDEST SWAP2 SWAP1 POP JUMP JUMPDEST PUSH1 0x0 PUSH8 0xFFFFFFFFFFFFFFFF DUP3 GT ISZERO PUSH2 0x6F4 JUMPI PUSH2 0x6F3 PUSH2 0x65E JUMP JUMPDEST JUMPDEST PUSH2 0x6FD DUP3 PUSH2 0x64D JUMP JUMPDEST SWAP1 POP PUSH1 0x20 DUP2 ADD SWAP1 POP SWAP2 SWAP1 POP JUMP JUMPDEST DUP3 DUP2 DUP4 CALLDATACOPY PUSH1 0x0 DUP4 DUP4 ADD MSTORE POP POP POP JUMP JUMPDEST PUSH1 0x0 PUSH2 0x72C PUSH2 0x727 DUP5 PUSH2 0x6D9 JUMP JUMPDEST PUSH2 0x6BE JUMP JUMPDEST SWAP1 POP DUP3 DUP2 MSTORE PUSH1 0x20 DUP2 ADD DUP5 DUP5 DUP5 ADD GT ISZERO PUSH2 0x748 JUMPI PUSH2 0x747 PUSH2 0x648 JUMP JUMPDEST JUMPDEST PUSH2 0x753 DUP5 DUP3 DUP6 PUSH2 0x70A JUMP JUMPDEST POP SWAP4 SWAP3 POP POP POP JUMP JUMPDEST PUSH1 0x0 DUP3 PUSH1 0x1F DUP4 ADD SLT PUSH2 0x770 JUMPI PUSH2 0x76F PUSH2 0x643 JUMP JUMPDEST JUMPDEST DUP2 CALLDATALOAD PUSH2 0x780 DUP5 DUP3 PUSH1 0x20 DUP7 ADD PUSH2 0x719 JUMP JUMPDEST SWAP2 POP POP SWAP3 SWAP2 POP POP JUMP JUMPDEST PUSH1 0x0 DUP1 PUSH1 0x0 PUSH1 0x60 DUP5 DUP7 SUB SLT ISZERO PUSH2 0x7A2 JUMPI PUSH2 0x7A1 PUSH2 0x5DB JUMP JUMPDEST JUMPDEST PUSH1 0x0 PUSH2 0x7B0 DUP7 DUP3 DUP8 ADD PUSH2 0x62E JUMP JUMPDEST SWAP4 POP POP PUSH1 0x20 DUP5 ADD CALLDATALOAD PUSH8 0xFFFFFFFFFFFFFFFF DUP2 GT ISZERO PUSH2 0x7D1 JUMPI PUSH2 0x7D0 PUSH2 0x5E0 JUMP JUMPDEST JUMPDEST PUSH2 0x7DD DUP7 DUP3 DUP8 ADD PUSH2 0x75B JUMP JUMPDEST SWAP3 POP POP PUSH1 0x40 PUSH2 0x7EE DUP7 DUP3 DUP8 ADD PUSH2 0x62E JUMP JUMPDEST SWAP2 POP POP SWAP3 POP SWAP3 POP SWAP3 JUMP JUMPDEST PUSH1 0x0 DUP2 ISZERO ISZERO SWAP1 POP SWAP2 SWAP1 POP JUMP JUMPDEST PUSH2 0x80D DUP2 PUSH2 0x7F8 JUMP JUMPDEST DUP3 MSTORE POP POP JUMP JUMPDEST PUSH1 0x0 PUSH1 0x20 DUP3 ADD SWAP1 POP PUSH2 0x828 PUSH1 0x0 DUP4 ADD DUP5 PUSH2 0x804 JUMP JUMPDEST SWAP3 SWAP2 POP POP JUMP JUMPDEST PUSH1 0x0 DUP3 DUP3 MSTORE PUSH1 0x20 DUP3 ADD SWAP1 POP SWAP3 SWAP2 POP POP JUMP JUMPDEST PUSH32 0x5365756C206C652070617469656E742070657574206566666563747565722063 PUSH1 0x0 DUP3 ADD MSTORE PUSH32 0x6574746520616374696F6E2E0000000000000000000000000000000000000000 PUSH1 0x20 DUP3 ADD MSTORE POP JUMP JUMPDEST PUSH1 0x0 PUSH2 0x89B PUSH1 0x2C DUP4 PUSH2 0x82E JUMP JUMPDEST SWAP2 POP PUSH2 0x8A6 DUP3 PUSH2 0x83F JUMP JUMPDEST PUSH1 0x40 DUP3 ADD SWAP1 POP SWAP2 SWAP1 POP JUMP JUMPDEST PUSH1 0x0 PUSH1 0x20 DUP3 ADD SWAP1 POP DUP2 DUP2 SUB PUSH1 0x0 DUP4 ADD MSTORE PUSH2 0x8CA DUP2 PUSH2 0x88E JUMP JUMPDEST SWAP1 POP SWAP2 SWAP1 POP JUMP JUMPDEST PUSH1 0x0 DUP2 MLOAD SWAP1 POP SWAP2 SWAP1 POP JUMP JUMPDEST PUSH1 0x0 DUP2 SWAP1 POP SWAP3 SWAP2 POP POP JUMP JUMPDEST PUSH1 0x0 JUMPDEST DUP4 DUP2 LT ISZERO PUSH2 0x905 JUMPI DUP1 DUP3 ADD MLOAD DUP2 DUP5 ADD MSTORE PUSH1 0x20 DUP2 ADD SWAP1 POP PUSH2 0x8EA JUMP JUMPDEST PUSH1 0x0 DUP5 DUP5 ADD MSTORE POP POP POP POP JUMP JUMPDEST PUSH1 0x0 PUSH2 0x91C DUP3 PUSH2 0x8D1 JUMP JUMPDEST PUSH2 0x926 DUP2 DUP6 PUSH2 0x8DC JUMP JUMPDEST SWAP4 POP PUSH2 0x936 DUP2 DUP6 PUSH1 0x20 DUP7 ADD PUSH2 0x8E7 JUMP JUMPDEST DUP1 DUP5 ADD SWAP2 POP POP SWAP3 SWAP2 POP POP JUMP JUMPDEST PUSH1 0x0 PUSH2 0x94E DUP3 DUP5 PUSH2 0x911 JUMP JUMPDEST SWAP2 POP DUP2 SWAP1 POP SWAP3 SWAP2 POP POP JUMP JUMPDEST PUSH32 0x4C6520646F6374657572206E2761207061732064276163636573206120636520 PUSH1 0x0 DUP3 ADD MSTORE PUSH32 0x646F73736965722E000000000000000000000000000000000000000000000000 PUSH1 0x20 DUP3 ADD MSTORE POP JUMP JUMPDEST PUSH1 0x0 PUSH2 0x9B5 PUSH1 0x28 DUP4 PUSH2 0x82E JUMP JUMPDEST SWAP2 POP PUSH2 0x9C0 DUP3 PUSH2 0x959 JUMP JUMPDEST PUSH1 0x40 DUP3 ADD SWAP1 POP SWAP2 SWAP1 POP JUMP JUMPDEST PUSH1 0x0 PUSH1 0x20 DUP3 ADD SWAP1 POP DUP2 DUP2 SUB PUSH1 0x0 DUP4 ADD MSTORE PUSH2 0x9E4 DUP2 PUSH2 0x9A8 JUMP JUMPDEST SWAP1 POP SWAP2 SWAP1 POP JUMP JUMPDEST PUSH1 0x0 PUSH2 0x9F6 DUP3 PUSH2 0x8D1 JUMP JUMPDEST PUSH2 0xA00 DUP2 DUP6 PUSH2 0x82E JUMP JUMPDEST SWAP4 POP PUSH2 0xA10 DUP2 DUP6 PUSH1 0x20 DUP7 ADD PUSH2 0x8E7 JUMP JUMPDEST PUSH2 0xA19 DUP2 PUSH2 0x64D JUMP JUMPDEST DUP5 ADD SWAP2 POP POP SWAP3 SWAP2 POP POP JUMP JUMPDEST PUSH1 0x0 PUSH1 0x20 DUP3 ADD SWAP1 POP DUP2 DUP2 SUB PUSH1 0x0 DUP4 ADD MSTORE PUSH2 0xA3E DUP2 DUP5 PUSH2 0x9EB JUMP JUMPDEST SWAP1 POP SWAP3 SWAP2 POP POP JUMP JUMPDEST PUSH32 0x4E487B7100000000000000000000000000000000000000000000000000000000 PUSH1 0x0 MSTORE PUSH1 0x22 PUSH1 0x4 MSTORE PUSH1 0x24 PUSH1 0x0 REVERT JUMPDEST PUSH1 0x0 PUSH1 0x2 DUP3 DIV SWAP1 POP PUSH1 0x1 DUP3 AND DUP1 PUSH2 0xA8D JUMPI PUSH1 0x7F DUP3 AND SWAP2 POP JUMPDEST PUSH1 0x20 DUP3 LT DUP2 SUB PUSH2 0xAA0 JUMPI PUSH2 0xA9F PUSH2 0xA46 JUMP JUMPDEST JUMPDEST POP SWAP2 SWAP1 POP JUMP JUMPDEST PUSH1 0x0 DUP2 SWAP1 POP DUP2 PUSH1 0x0 MSTORE PUSH1 0x20 PUSH1 0x0 KECCAK256 SWAP1 POP SWAP2 SWAP1 POP JUMP JUMPDEST PUSH1 0x0 PUSH1 0x20 PUSH1 0x1F DUP4 ADD DIV SWAP1 POP SWAP2 SWAP1 POP JUMP JUMPDEST PUSH1 0x0 DUP3 DUP3 SHL SWAP1 POP SWAP3 SWAP2 POP POP JUMP JUMPDEST PUSH1 0x0 PUSH1 0x8 DUP4 MUL PUSH2 0xB08 PUSH32 0xFFFFFFFFFFFFFFFFFFFFFFFFFFFFFFFFFFFFFFFFFFFFFFFFFFFFFFFFFFFFFFFF DUP3 PUSH2 0xACB JUMP JUMPDEST PUSH2 0xB12 DUP7 DUP4 PUSH2 0xACB JUMP JUMPDEST SWAP6 POP DUP1 NOT DUP5 AND SWAP4 POP DUP1 DUP7 AND DUP5 OR SWAP3 POP POP POP SWAP4 SWAP3 POP POP POP JUMP JUMPDEST PUSH1 0x0 DUP2 SWAP1 POP SWAP2 SWAP1 POP JUMP JUMPDEST PUSH1 0x0 DUP2 SWAP1 POP SWAP2 SWAP1 POP JUMP JUMPDEST PUSH1 0x0 PUSH2 0xB59 PUSH2 0xB54 PUSH2 0xB4F DUP5 PUSH2 0xB2A JUMP JUMPDEST PUSH2 0xB34 JUMP JUMPDEST PUSH2 0xB2A JUMP JUMPDEST SWAP1 POP SWAP2 SWAP1 POP JUMP JUMPDEST PUSH1 0x0 DUP2 SWAP1 POP SWAP2 SWAP1 POP JUMP JUMPDEST PUSH2 0xB73 DUP4 PUSH2 0xB3E JUMP JUMPDEST PUSH2 0xB87 PUSH2 0xB7F DUP3 PUSH2 0xB60 JUMP JUMPDEST DUP5 DUP5 SLOAD PUSH2 0xAD8 JUMP JUMPDEST DUP3 SSTORE POP POP POP POP JUMP JUMPDEST PUSH1 0x0 SWAP1 JUMP JUMPDEST PUSH2 0xB9C PUSH2 0xB8F JUMP JUMPDEST PUSH2 0xBA7 DUP2 DUP5 DUP5 PUSH2 0xB6A JUMP JUMPDEST POP POP POP JUMP JUMPDEST JUMPDEST DUP2 DUP2 LT ISZERO PUSH2 0xBCB JUMPI PUSH2 0xBC0 PUSH1 0x0 DUP3 PUSH2 0xB94 JUMP JUMPDEST PUSH1 0x1 DUP2 ADD SWAP1 POP PUSH2 0xBAD JUMP JUMPDEST POP POP JUMP JUMPDEST PUSH1 0x1F DUP3 GT ISZERO PUSH2 0xC10 JUMPI PUSH2 0xBE1 DUP2 PUSH2 0xAA6 JUMP JUMPDEST PUSH2 0xBEA DUP5 PUSH2 0xABB JUMP JUMPDEST DUP2 ADD PUSH1 0x20 DUP6 LT ISZERO PUSH2 0xBF9 JUMPI DUP2 SWAP1 POP JUMPDEST PUSH2 0xC0D PUSH2 0xC05 DUP6 PUSH2 0xABB JUMP JUMPDEST DUP4 ADD DUP3 PUSH2 0xBAC JUMP JUMPDEST POP POP JUMPDEST POP POP POP JUMP JUMPDEST PUSH1 0x0 DUP3 DUP3 SHR SWAP1 POP SWAP3 SWAP2 POP POP JUMP JUMPDEST PUSH1 0x0 PUSH2 0xC33 PUSH1 0x0 NOT DUP5 PUSH1 0x8 MUL PUSH2 0xC15 JUMP JUMPDEST NOT DUP1 DUP4 AND SWAP2 POP POP SWAP3 SWAP2 POP POP JUMP JUMPDEST PUSH1 0x0 PUSH2 0xC4C DUP4 DUP4 PUSH2 0xC22 JUMP JUMPDEST SWAP2 POP DUP3 PUSH1 0x2 MUL DUP3 OR SWAP1 POP SWAP3 SWAP2 POP POP JUMP JUMPDEST PUSH2 0xC65 DUP3 PUSH2 0x8D1 JUMP JUMPDEST PUSH8 0xFFFFFFFFFFFFFFFF DUP2 GT ISZERO PUSH2 0xC7E JUMPI PUSH2 0xC7D PUSH2 0x65E JUMP JUMPDEST JUMPDEST PUSH2 0xC88 DUP3 SLOAD PUSH2 0xA75 JUMP JUMPDEST PUSH2 0xC93 DUP3 DUP3 DUP6 PUSH2 0xBCF JUMP JUMPDEST PUSH1 0x0 PUSH1 0x20 SWAP1 POP PUSH1 0x1F DUP4 GT PUSH1 0x1 DUP2 EQ PUSH2 0xCC6 JUMPI PUSH1 0x0 DUP5 ISZERO PUSH2 0xCB4 JUMPI DUP3 DUP8 ADD MLOAD SWAP1 POP JUMPDEST PUSH2 0xCBE DUP6 DUP3 PUSH2 0xC40 JUMP JUMPDEST DUP7 SSTORE POP PUSH2 0xD26 JUMP JUMPDEST PUSH1 0x1F NOT DUP5 AND PUSH2 0xCD4 DUP7 PUSH2 0xAA6 JUMP JUMPDEST PUSH1 0x0 JUMPDEST DUP3 DUP2 LT ISZERO PUSH2 0xCFC JUMPI DUP5 DUP10 ADD MLOAD DUP3 SSTORE PUSH1 0x1 DUP3 ADD SWAP2 POP PUSH1 0x20 DUP6 ADD SWAP5 POP PUSH1 0x20 DUP2 ADD SWAP1 POP PUSH2 0xCD7 JUMP JUMPDEST DUP7 DUP4 LT ISZERO PUSH2 0xD19 JUMPI DUP5 DUP10 ADD MLOAD PUSH2 0xD15 PUSH1 0x1F DUP10 AND DUP3 PUSH2 0xC22 JUMP JUMPDEST DUP4 SSTORE POP JUMPDEST PUSH1 0x1 PUSH1 0x2 DUP9 MUL ADD DUP9 SSTORE POP POP POP JUMPDEST POP POP POP POP POP POP JUMP INVALID LOG2 PUSH5 0x6970667358 0x22 SLT KECCAK256 DUP16 CALLDATASIZE SHR 0xB6 0xC0 DUP16 0xE3 0xA7 0x4B SWAP11 JUMPI 0xCD NOT 0xB3 0xBC SAR DUP12 GASLIMIT 0xAE SELFBALANCE 0x4C PUSH7 0x6FD33E7B850D3 0x2A 0xC8 0xC6 PUSH5 0x736F6C6343 STOP ADDMOD BYTE STOP CALLER "
				},
				"gasEstimates": {
					"creation": {
						"codeDepositCost": "685600",
						"executionCost": "721",
						"totalCost": "686321"
					},
					"external": {
						"authorizeToMedicalFolder(address,string,address)": "infinite",
						"isDoctorAuthorized(address,string,address)": "infinite",
						"revokeFromMedicalFolder(address,string,address)": "infinite"
					}
				},
				"methodIdentifiers": {
					"authorizeToMedicalFolder(address,string,address)": "93e4ee8e",
					"isDoctorAuthorized(address,string,address)": "57834a1d",
					"revokeFromMedicalFolder(address,string,address)": "4513b2a7"
				}
			},
			"storageLayout": {
				"storage": [
					{
						"astId": 178,
						"contract": "Contracts/ContractPatient.sol:Patient",
						"label": "records",
						"offset": 0,
						"slot": "0",
						"type": "t_mapping(t_address,t_mapping(t_string_memory_ptr,t_struct(MedicalRecord)171_storage))"
					}
				],
				"types": {
					"t_address": {
						"encoding": "inplace",
						"label": "address",
						"numberOfBytes": "20"
					},
					"t_bool": {
						"encoding": "inplace",
						"label": "bool",
						"numberOfBytes": "1"
					},
					"t_mapping(t_address,t_bool)": {
						"encoding": "mapping",
						"key": "t_address",
						"label": "mapping(address => bool)",
						"numberOfBytes": "32",
						"value": "t_bool"
					},
					"t_mapping(t_address,t_mapping(t_string_memory_ptr,t_struct(MedicalRecord)171_storage))": {
						"encoding": "mapping",
						"key": "t_address",
						"label": "mapping(address => mapping(string => struct Patient.MedicalRecord))",
						"numberOfBytes": "32",
						"value": "t_mapping(t_string_memory_ptr,t_struct(MedicalRecord)171_storage)"
					},
					"t_mapping(t_string_memory_ptr,t_struct(MedicalRecord)171_storage)": {
						"encoding": "mapping",
						"key": "t_string_memory_ptr",
						"label": "mapping(string => struct Patient.MedicalRecord)",
						"numberOfBytes": "32",
						"value": "t_struct(MedicalRecord)171_storage"
					},
					"t_string_memory_ptr": {
						"encoding": "bytes",
						"label": "string",
						"numberOfBytes": "32"
					},
					"t_string_storage": {
						"encoding": "bytes",
						"label": "string",
						"numberOfBytes": "32"
					},
					"t_struct(MedicalRecord)171_storage": {
						"encoding": "inplace",
						"label": "struct Patient.MedicalRecord",
						"members": [
							{
								"astId": 166,
								"contract": "Contracts/ContractPatient.sol:Patient",
								"label": "recordHash",
								"offset": 0,
								"slot": "0",
								"type": "t_string_storage"
							},
							{
								"astId": 170,
								"contract": "Contracts/ContractPatient.sol:Patient",
								"label": "authorizedDoctors",
								"offset": 0,
								"slot": "1",
								"type": "t_mapping(t_address,t_bool)"
							}
						],
						"numberOfBytes": "64"
					}
				}
			},
			"userdoc": {
				"kind": "user",
				"methods": {},
				"version": 1
			}
		}
	}
}