{
	"contracts/ContractPatient.sol": {
		"Patient": {
			"abi": [
				{
					"anonymous": false,
					"inputs": [
						{
							"indexed": true,
							"internalType": "address",
							"name": "patientAddress",
							"type": "address"
						},
						{
							"indexed": true,
							"internalType": "address",
							"name": "doctorAddress",
							"type": "address"
						},
						{
							"indexed": false,
							"internalType": "string",
							"name": "recordHash",
							"type": "string"
						}
					],
					"name": "AccessGranted",
					"type": "event"
				},
				{
					"anonymous": false,
					"inputs": [
						{
							"indexed": true,
							"internalType": "address",
							"name": "patientAddress",
							"type": "address"
						},
						{
							"indexed": true,
							"internalType": "address",
							"name": "doctorAddress",
							"type": "address"
						},
						{
							"indexed": false,
							"internalType": "string",
							"name": "recordHash",
							"type": "string"
						}
					],
					"name": "AccessRevoked",
					"type": "event"
				},
				{
					"inputs": [
						{
							"internalType": "address",
							"name": "_patientAddress",
							"type": "address"
						},
						{
							"internalType": "string",
							"name": "_recordHash",
							"type": "string"
						},
						{
							"internalType": "address",
							"name": "_doctorAddress",
							"type": "address"
						}
					],
					"name": "authorizeToMedicalFolder",
					"outputs": [],
					"stateMutability": "nonpayable",
					"type": "function"
				},
				{
					"inputs": [
						{
							"internalType": "address",
							"name": "_patientAddress",
							"type": "address"
						},
						{
							"internalType": "string",
							"name": "_recordHash",
							"type": "string"
						},
						{
							"internalType": "address",
							"name": "_doctorAddress",
							"type": "address"
						}
					],
					"name": "isDoctorAuthorized",
					"outputs": [
						{
							"internalType": "bool",
							"name": "",
							"type": "bool"
						}
					],
					"stateMutability": "view",
					"type": "function"
				},
				{
					"inputs": [
						{
							"internalType": "address",
							"name": "_patientAddress",
							"type": "address"
						},
						{
							"internalType": "string",
							"name": "_recordHash",
							"type": "string"
						},
						{
							"internalType": "address",
							"name": "_doctorAddress",
							"type": "address"
						}
					],
					"name": "revokeFromMedicalFolder",
					"outputs": [],
					"stateMutability": "nonpayable",
					"type": "function"
				}
			],
			"devdoc": {
				"kind": "dev",
				"methods": {},
				"version": 1
			},
			"evm": {
				"assembly": "    /* \"contracts/ContractPatient.sol\":60:2237  contract Patient {... */\n  mstore(0x40, 0x80)\n  callvalue\n  dup1\n  iszero\n  tag_1\n  jumpi\n  0x00\n  dup1\n  revert\ntag_1:\n  pop\n  dataSize(sub_0)\n  dup1\n  dataOffset(sub_0)\n  0x00\n  codecopy\n  0x00\n  return\nstop\n\nsub_0: assembly {\n        /* \"contracts/ContractPatient.sol\":60:2237  contract Patient {... */\n      mstore(0x40, 0x80)\n      callvalue\n      dup1\n      iszero\n      tag_1\n      jumpi\n      0x00\n      dup1\n      revert\n    tag_1:\n      pop\n      jumpi(tag_2, lt(calldatasize, 0x04))\n      shr(0xe0, calldataload(0x00))\n      dup1\n      0x4513b2a7\n      eq\n      tag_3\n      jumpi\n      dup1\n      0x57834a1d\n      eq\n      tag_4\n      jumpi\n      dup1\n      0x93e4ee8e\n      eq\n      tag_5\n      jumpi\n    tag_2:\n      0x00\n      dup1\n      revert\n        /* \"contracts/ContractPatient.sol\":1345:1881  function revokeFromMedicalFolder(... */\n    tag_3:\n      tag_6\n      0x04\n      dup1\n      calldatasize\n      sub\n      dup2\n      add\n      swap1\n      tag_7\n      swap2\n      swap1\n      tag_8\n      jump\t// in\n    tag_7:\n      tag_9\n      jump\t// in\n    tag_6:\n      stop\n        /* \"contracts/ContractPatient.sol\":1972:2234  function isDoctorAuthorized(... */\n    tag_4:\n      tag_10\n      0x04\n      dup1\n      calldatasize\n      sub\n      dup2\n      add\n      swap1\n      tag_11\n      swap2\n      swap1\n      tag_8\n      jump\t// in\n    tag_11:\n      tag_12\n      jump\t// in\n    tag_10:\n      mload(0x40)\n      tag_13\n      swap2\n      swap1\n      tag_14\n      jump\t// in\n    tag_13:\n      mload(0x40)\n      dup1\n      swap2\n      sub\n      swap1\n      return\n        /* \"contracts/ContractPatient.sol\":823:1260  function authorizeToMedicalFolder(... */\n    tag_5:\n      tag_15\n      0x04\n      dup1\n      calldatasize\n      sub\n      dup2\n      add\n      swap1\n      tag_16\n      swap2\n      swap1\n      tag_8\n      jump\t// in\n    tag_16:\n      tag_17\n      jump\t// in\n    tag_15:\n      stop\n        /* \"contracts/ContractPatient.sol\":1345:1881  function revokeFromMedicalFolder(... */\n    tag_9:\n        /* \"contracts/ContractPatient.sol\":1507:1522  _patientAddress */\n      dup3\n        /* \"contracts/ContractPatient.sol\":1524:1534  msg.sender */\n      caller\n        /* \"contracts/ContractPatient.sol\":685:692  _caller */\n      dup1\n        /* \"contracts/ContractPatient.sol\":666:692  _patientAddress == _caller */\n      0xffffffffffffffffffffffffffffffffffffffff\n      and\n        /* \"contracts/ContractPatient.sol\":666:681  _patientAddress */\n      dup3\n        /* \"contracts/ContractPatient.sol\":666:692  _patientAddress == _caller */\n      0xffffffffffffffffffffffffffffffffffffffff\n      and\n      eq\n        /* \"contracts/ContractPatient.sol\":658:738  require(_patientAddress == _caller, \"Only the patient can perform this action.\") */\n      tag_19\n      jumpi\n      mload(0x40)\n      0x08c379a000000000000000000000000000000000000000000000000000000000\n      dup2\n      mstore\n      0x04\n      add\n      tag_20\n      swap1\n      tag_21\n      jump\t// in\n    tag_20:\n      mload(0x40)\n      dup1\n      swap2\n      sub\n      swap1\n      revert\n    tag_19:\n        /* \"contracts/ContractPatient.sol\":1569:1576  records */\n      0x00\n        /* \"contracts/ContractPatient.sol\":1569:1593  records[_patientAddress] */\n      dup1\n        /* \"contracts/ContractPatient.sol\":1577:1592  _patientAddress */\n      dup7\n        /* \"contracts/ContractPatient.sol\":1569:1593  records[_patientAddress] */\n      0xffffffffffffffffffffffffffffffffffffffff\n      and\n      0xffffffffffffffffffffffffffffffffffffffff\n      and\n      dup2\n      mstore\n      0x20\n      add\n      swap1\n      dup2\n      mstore\n      0x20\n      add\n      0x00\n      keccak256\n        /* \"contracts/ContractPatient.sol\":1594:1605  _recordHash */\n      dup5\n        /* \"contracts/ContractPatient.sol\":1569:1606  records[_patientAddress][_recordHash] */\n      mload(0x40)\n      tag_23\n      swap2\n      swap1\n      tag_24\n      jump\t// in\n    tag_23:\n      swap1\n      dup2\n      mstore\n      0x20\n      add\n      mload(0x40)\n      dup1\n      swap2\n      sub\n      swap1\n      keccak256\n        /* \"contracts/ContractPatient.sol\":1569:1624  records[_patientAddress][_recordHash].authorizedDoctors */\n      0x01\n      add\n        /* \"contracts/ContractPatient.sol\":1569:1640  records[_patientAddress][_recordHash].authorizedDoctors[_doctorAddress] */\n      0x00\n        /* \"contracts/ContractPatient.sol\":1625:1639  _doctorAddress */\n      dup5\n        /* \"contracts/ContractPatient.sol\":1569:1640  records[_patientAddress][_recordHash].authorizedDoctors[_doctorAddress] */\n      0xffffffffffffffffffffffffffffffffffffffff\n      and\n      0xffffffffffffffffffffffffffffffffffffffff\n      and\n      dup2\n      mstore\n      0x20\n      add\n      swap1\n      dup2\n      mstore\n      0x20\n      add\n      0x00\n      keccak256\n      0x00\n      swap1\n      sload\n      swap1\n      0x0100\n      exp\n      swap1\n      div\n      0xff\n      and\n        /* \"contracts/ContractPatient.sol\":1547:1708  require(... */\n      tag_25\n      jumpi\n      mload(0x40)\n      0x08c379a000000000000000000000000000000000000000000000000000000000\n      dup2\n      mstore\n      0x04\n      add\n      tag_26\n      swap1\n      tag_27\n      jump\t// in\n    tag_26:\n      mload(0x40)\n      dup1\n      swap2\n      sub\n      swap1\n      revert\n    tag_25:\n        /* \"contracts/ContractPatient.sol\":1793:1798  false */\n      0x00\n        /* \"contracts/ContractPatient.sol\":1719:1726  records */\n      dup1\n        /* \"contracts/ContractPatient.sol\":1719:1743  records[_patientAddress] */\n      0x00\n        /* \"contracts/ContractPatient.sol\":1727:1742  _patientAddress */\n      dup8\n        /* \"contracts/ContractPatient.sol\":1719:1743  records[_patientAddress] */\n      0xffffffffffffffffffffffffffffffffffffffff\n      and\n      0xffffffffffffffffffffffffffffffffffffffff\n      and\n      dup2\n      mstore\n      0x20\n      add\n      swap1\n      dup2\n      mstore\n      0x20\n      add\n      0x00\n      keccak256\n        /* \"contracts/ContractPatient.sol\":1744:1755  _recordHash */\n      dup6\n        /* \"contracts/ContractPatient.sol\":1719:1756  records[_patientAddress][_recordHash] */\n      mload(0x40)\n      tag_28\n      swap2\n      swap1\n      tag_24\n      jump\t// in\n    tag_28:\n      swap1\n      dup2\n      mstore\n      0x20\n      add\n      mload(0x40)\n      dup1\n      swap2\n      sub\n      swap1\n      keccak256\n        /* \"contracts/ContractPatient.sol\":1719:1774  records[_patientAddress][_recordHash].authorizedDoctors */\n      0x01\n      add\n        /* \"contracts/ContractPatient.sol\":1719:1790  records[_patientAddress][_recordHash].authorizedDoctors[_doctorAddress] */\n      0x00\n        /* \"contracts/ContractPatient.sol\":1775:1789  _doctorAddress */\n      dup6\n        /* \"contracts/ContractPatient.sol\":1719:1790  records[_patientAddress][_recordHash].authorizedDoctors[_doctorAddress] */\n      0xffffffffffffffffffffffffffffffffffffffff\n      and\n      0xffffffffffffffffffffffffffffffffffffffff\n      and\n      dup2\n      mstore\n      0x20\n      add\n      swap1\n      dup2\n      mstore\n      0x20\n      add\n      0x00\n      keccak256\n      0x00\n        /* \"contracts/ContractPatient.sol\":1719:1798  records[_patientAddress][_recordHash].authorizedDoctors[_doctorAddress] = false */\n      0x0100\n      exp\n      dup2\n      sload\n      dup2\n      0xff\n      mul\n      not\n      and\n      swap1\n      dup4\n      iszero\n      iszero\n      mul\n      or\n      swap1\n      sstore\n      pop\n        /* \"contracts/ContractPatient.sol\":1845:1859  _doctorAddress */\n      dup3\n        /* \"contracts/ContractPatient.sol\":1814:1873  AccessRevoked(_patientAddress, _doctorAddress, _recordHash) */\n      0xffffffffffffffffffffffffffffffffffffffff\n      and\n        /* \"contracts/ContractPatient.sol\":1828:1843  _patientAddress */\n      dup6\n        /* \"contracts/ContractPatient.sol\":1814:1873  AccessRevoked(_patientAddress, _doctorAddress, _recordHash) */\n      0xffffffffffffffffffffffffffffffffffffffff\n      and\n      0x0a2382b7b0f44ee62df753c00034038c109332bf9b8f52418af74aa2859780fb\n        /* \"contracts/ContractPatient.sol\":1861:1872  _recordHash */\n      dup7\n        /* \"contracts/ContractPatient.sol\":1814:1873  AccessRevoked(_patientAddress, _doctorAddress, _recordHash) */\n      mload(0x40)\n      tag_29\n      swap2\n      swap1\n      tag_30\n      jump\t// in\n    tag_29:\n      mload(0x40)\n      dup1\n      swap2\n      sub\n      swap1\n      log3\n        /* \"contracts/ContractPatient.sol\":1345:1881  function revokeFromMedicalFolder(... */\n      pop\n      pop\n      pop\n      pop\n      pop\n      jump\t// out\n        /* \"contracts/ContractPatient.sol\":1972:2234  function isDoctorAuthorized(... */\n    tag_12:\n        /* \"contracts/ContractPatient.sol\":2131:2135  bool */\n      0x00\n        /* \"contracts/ContractPatient.sol\":2155:2162  records */\n      dup1\n        /* \"contracts/ContractPatient.sol\":2155:2179  records[_patientAddress] */\n      0x00\n        /* \"contracts/ContractPatient.sol\":2163:2178  _patientAddress */\n      dup6\n        /* \"contracts/ContractPatient.sol\":2155:2179  records[_patientAddress] */\n      0xffffffffffffffffffffffffffffffffffffffff\n      and\n      0xffffffffffffffffffffffffffffffffffffffff\n      and\n      dup2\n      mstore\n      0x20\n      add\n      swap1\n      dup2\n      mstore\n      0x20\n      add\n      0x00\n      keccak256\n        /* \"contracts/ContractPatient.sol\":2180:2191  _recordHash */\n      dup4\n        /* \"contracts/ContractPatient.sol\":2155:2192  records[_patientAddress][_recordHash] */\n      mload(0x40)\n      tag_32\n      swap2\n      swap1\n      tag_24\n      jump\t// in\n    tag_32:\n      swap1\n      dup2\n      mstore\n      0x20\n      add\n      mload(0x40)\n      dup1\n      swap2\n      sub\n      swap1\n      keccak256\n        /* \"contracts/ContractPatient.sol\":2155:2210  records[_patientAddress][_recordHash].authorizedDoctors */\n      0x01\n      add\n        /* \"contracts/ContractPatient.sol\":2155:2226  records[_patientAddress][_recordHash].authorizedDoctors[_doctorAddress] */\n      0x00\n        /* \"contracts/ContractPatient.sol\":2211:2225  _doctorAddress */\n      dup4\n        /* \"contracts/ContractPatient.sol\":2155:2226  records[_patientAddress][_recordHash].authorizedDoctors[_doctorAddress] */\n      0xffffffffffffffffffffffffffffffffffffffff\n      and\n      0xffffffffffffffffffffffffffffffffffffffff\n      and\n      dup2\n      mstore\n      0x20\n      add\n      swap1\n      dup2\n      mstore\n      0x20\n      add\n      0x00\n      keccak256\n      0x00\n      swap1\n      sload\n      swap1\n      0x0100\n      exp\n      swap1\n      div\n      0xff\n      and\n        /* \"contracts/ContractPatient.sol\":2148:2226  return records[_patientAddress][_recordHash].authorizedDoctors[_doctorAddress] */\n      swap1\n      pop\n        /* \"contracts/ContractPatient.sol\":1972:2234  function isDoctorAuthorized(... */\n      swap4\n      swap3\n      pop\n      pop\n      pop\n      jump\t// out\n        /* \"contracts/ContractPatient.sol\":823:1260  function authorizeToMedicalFolder(... */\n    tag_17:\n        /* \"contracts/ContractPatient.sol\":986:1001  _patientAddress */\n      dup3\n        /* \"contracts/ContractPatient.sol\":1003:1013  msg.sender */\n      caller\n        /* \"contracts/ContractPatient.sol\":685:692  _caller */\n      dup1\n        /* \"contracts/ContractPatient.sol\":666:692  _patientAddress == _caller */\n      0xffffffffffffffffffffffffffffffffffffffff\n      and\n        /* \"contracts/ContractPatient.sol\":666:681  _patientAddress */\n      dup3\n        /* \"contracts/ContractPatient.sol\":666:692  _patientAddress == _caller */\n      0xffffffffffffffffffffffffffffffffffffffff\n      and\n      eq\n        /* \"contracts/ContractPatient.sol\":658:738  require(_patientAddress == _caller, \"Only the patient can perform this action.\") */\n      tag_34\n      jumpi\n      mload(0x40)\n      0x08c379a000000000000000000000000000000000000000000000000000000000\n      dup2\n      mstore\n      0x04\n      add\n      tag_35\n      swap1\n      tag_21\n      jump\t// in\n    tag_35:\n      mload(0x40)\n      dup1\n      swap2\n      sub\n      swap1\n      revert\n    tag_34:\n        /* \"contracts/ContractPatient.sol\":1077:1088  _recordHash */\n      dup4\n        /* \"contracts/ContractPatient.sol\":1026:1033  records */\n      0x00\n        /* \"contracts/ContractPatient.sol\":1026:1050  records[_patientAddress] */\n      dup1\n        /* \"contracts/ContractPatient.sol\":1034:1049  _patientAddress */\n      dup8\n        /* \"contracts/ContractPatient.sol\":1026:1050  records[_patientAddress] */\n      0xffffffffffffffffffffffffffffffffffffffff\n      and\n      0xffffffffffffffffffffffffffffffffffffffff\n      and\n      dup2\n      mstore\n      0x20\n      add\n      swap1\n      dup2\n      mstore\n      0x20\n      add\n      0x00\n      keccak256\n        /* \"contracts/ContractPatient.sol\":1051:1062  _recordHash */\n      dup6\n        /* \"contracts/ContractPatient.sol\":1026:1063  records[_patientAddress][_recordHash] */\n      mload(0x40)\n      tag_37\n      swap2\n      swap1\n      tag_24\n      jump\t// in\n    tag_37:\n      swap1\n      dup2\n      mstore\n      0x20\n      add\n      mload(0x40)\n      dup1\n      swap2\n      sub\n      swap1\n      keccak256\n        /* \"contracts/ContractPatient.sol\":1026:1074  records[_patientAddress][_recordHash].recordHash */\n      0x00\n      add\n        /* \"contracts/ContractPatient.sol\":1026:1088  records[_patientAddress][_recordHash].recordHash = _recordHash */\n      swap1\n      dup2\n      tag_38\n      swap2\n      swap1\n      tag_39\n      jump\t// in\n    tag_38:\n      pop\n        /* \"contracts/ContractPatient.sol\":1173:1177  true */\n      0x01\n        /* \"contracts/ContractPatient.sol\":1099:1106  records */\n      0x00\n        /* \"contracts/ContractPatient.sol\":1099:1123  records[_patientAddress] */\n      dup1\n        /* \"contracts/ContractPatient.sol\":1107:1122  _patientAddress */\n      dup8\n        /* \"contracts/ContractPatient.sol\":1099:1123  records[_patientAddress] */\n      0xffffffffffffffffffffffffffffffffffffffff\n      and\n      0xffffffffffffffffffffffffffffffffffffffff\n      and\n      dup2\n      mstore\n      0x20\n      add\n      swap1\n      dup2\n      mstore\n      0x20\n      add\n      0x00\n      keccak256\n        /* \"contracts/ContractPatient.sol\":1124:1135  _recordHash */\n      dup6\n        /* \"contracts/ContractPatient.sol\":1099:1136  records[_patientAddress][_recordHash] */\n      mload(0x40)\n      tag_40\n      swap2\n      swap1\n      tag_24\n      jump\t// in\n    tag_40:\n      swap1\n      dup2\n      mstore\n      0x20\n      add\n      mload(0x40)\n      dup1\n      swap2\n      sub\n      swap1\n      keccak256\n        /* \"contracts/ContractPatient.sol\":1099:1154  records[_patientAddress][_recordHash].authorizedDoctors */\n      0x01\n      add\n        /* \"contracts/ContractPatient.sol\":1099:1170  records[_patientAddress][_recordHash].authorizedDoctors[_doctorAddress] */\n      0x00\n        /* \"contracts/ContractPatient.sol\":1155:1169  _doctorAddress */\n      dup6\n        /* \"contracts/ContractPatient.sol\":1099:1170  records[_patientAddress][_recordHash].authorizedDoctors[_doctorAddress] */\n      0xffffffffffffffffffffffffffffffffffffffff\n      and\n      0xffffffffffffffffffffffffffffffffffffffff\n      and\n      dup2\n      mstore\n      0x20\n      add\n      swap1\n      dup2\n      mstore\n      0x20\n      add\n      0x00\n      keccak256\n      0x00\n        /* \"contracts/ContractPatient.sol\":1099:1177  records[_patientAddress][_recordHash].authorizedDoctors[_doctorAddress] = true */\n      0x0100\n      exp\n      dup2\n      sload\n      dup2\n      0xff\n      mul\n      not\n      and\n      swap1\n      dup4\n      iszero\n      iszero\n      mul\n      or\n      swap1\n      sstore\n      pop\n        /* \"contracts/ContractPatient.sol\":1224:1238  _doctorAddress */\n      dup3\n        /* \"contracts/ContractPatient.sol\":1193:1252  AccessGranted(_patientAddress, _doctorAddress, _recordHash) */\n      0xffffffffffffffffffffffffffffffffffffffff\n      and\n        /* \"contracts/ContractPatient.sol\":1207:1222  _patientAddress */\n      dup6\n        /* \"contracts/ContractPatient.sol\":1193:1252  AccessGranted(_patientAddress, _doctorAddress, _recordHash) */\n      0xffffffffffffffffffffffffffffffffffffffff\n      and\n      0xc7e5c007251689b9bc3cb624f55714afc5988f3e3b4e20cc6a606d7bad6faeca\n        /* \"contracts/ContractPatient.sol\":1240:1251  _recordHash */\n      dup7\n        /* \"contracts/ContractPatient.sol\":1193:1252  AccessGranted(_patientAddress, _doctorAddress, _recordHash) */\n      mload(0x40)\n      tag_41\n      swap2\n      swap1\n      tag_30\n      jump\t// in\n    tag_41:\n      mload(0x40)\n      dup1\n      swap2\n      sub\n      swap1\n      log3\n        /* \"contracts/ContractPatient.sol\":823:1260  function authorizeToMedicalFolder(... */\n      pop\n      pop\n      pop\n      pop\n      pop\n      jump\t// out\n        /* \"#utility.yul\":7:82   */\n    tag_42:\n        /* \"#utility.yul\":40:46   */\n      0x00\n        /* \"#utility.yul\":73:75   */\n      0x40\n        /* \"#utility.yul\":67:76   */\n      mload\n        /* \"#utility.yul\":57:76   */\n      swap1\n      pop\n        /* \"#utility.yul\":7:82   */\n      swap1\n      jump\t// out\n        /* \"#utility.yul\":88:205   */\n    tag_43:\n        /* \"#utility.yul\":197:198   */\n      0x00\n        /* \"#utility.yul\":194:195   */\n      dup1\n        /* \"#utility.yul\":187:199   */\n      revert\n        /* \"#utility.yul\":211:328   */\n    tag_44:\n        /* \"#utility.yul\":320:321   */\n      0x00\n        /* \"#utility.yul\":317:318   */\n      dup1\n        /* \"#utility.yul\":310:322   */\n      revert\n        /* \"#utility.yul\":334:460   */\n    tag_45:\n        /* \"#utility.yul\":371:378   */\n      0x00\n        /* \"#utility.yul\":411:453   */\n      0xffffffffffffffffffffffffffffffffffffffff\n        /* \"#utility.yul\":404:409   */\n      dup3\n        /* \"#utility.yul\":400:454   */\n      and\n        /* \"#utility.yul\":389:454   */\n      swap1\n      pop\n        /* \"#utility.yul\":334:460   */\n      swap2\n      swap1\n      pop\n      jump\t// out\n        /* \"#utility.yul\":466:562   */\n    tag_46:\n        /* \"#utility.yul\":503:510   */\n      0x00\n        /* \"#utility.yul\":532:556   */\n      tag_95\n        /* \"#utility.yul\":550:555   */\n      dup3\n        /* \"#utility.yul\":532:556   */\n      tag_45\n      jump\t// in\n    tag_95:\n        /* \"#utility.yul\":521:556   */\n      swap1\n      pop\n        /* \"#utility.yul\":466:562   */\n      swap2\n      swap1\n      pop\n      jump\t// out\n        /* \"#utility.yul\":568:690   */\n    tag_47:\n        /* \"#utility.yul\":641:665   */\n      tag_97\n        /* \"#utility.yul\":659:664   */\n      dup2\n        /* \"#utility.yul\":641:665   */\n      tag_46\n      jump\t// in\n    tag_97:\n        /* \"#utility.yul\":634:639   */\n      dup2\n        /* \"#utility.yul\":631:666   */\n      eq\n        /* \"#utility.yul\":621:684   */\n      tag_98\n      jumpi\n        /* \"#utility.yul\":680:681   */\n      0x00\n        /* \"#utility.yul\":677:678   */\n      dup1\n        /* \"#utility.yul\":670:682   */\n      revert\n        /* \"#utility.yul\":621:684   */\n    tag_98:\n        /* \"#utility.yul\":568:690   */\n      pop\n      jump\t// out\n        /* \"#utility.yul\":696:835   */\n    tag_48:\n        /* \"#utility.yul\":742:747   */\n      0x00\n        /* \"#utility.yul\":780:786   */\n      dup2\n        /* \"#utility.yul\":767:787   */\n      calldataload\n        /* \"#utility.yul\":758:787   */\n      swap1\n      pop\n        /* \"#utility.yul\":796:829   */\n      tag_100\n        /* \"#utility.yul\":823:828   */\n      dup2\n        /* \"#utility.yul\":796:829   */\n      tag_47\n      jump\t// in\n    tag_100:\n        /* \"#utility.yul\":696:835   */\n      swap3\n      swap2\n      pop\n      pop\n      jump\t// out\n        /* \"#utility.yul\":841:958   */\n    tag_49:\n        /* \"#utility.yul\":950:951   */\n      0x00\n        /* \"#utility.yul\":947:948   */\n      dup1\n        /* \"#utility.yul\":940:952   */\n      revert\n        /* \"#utility.yul\":964:1081   */\n    tag_50:\n        /* \"#utility.yul\":1073:1074   */\n      0x00\n        /* \"#utility.yul\":1070:1071   */\n      dup1\n        /* \"#utility.yul\":1063:1075   */\n      revert\n        /* \"#utility.yul\":1087:1189   */\n    tag_51:\n        /* \"#utility.yul\":1128:1134   */\n      0x00\n        /* \"#utility.yul\":1179:1181   */\n      0x1f\n        /* \"#utility.yul\":1175:1182   */\n      not\n        /* \"#utility.yul\":1170:1172   */\n      0x1f\n        /* \"#utility.yul\":1163:1168   */\n      dup4\n        /* \"#utility.yul\":1159:1173   */\n      add\n        /* \"#utility.yul\":1155:1183   */\n      and\n        /* \"#utility.yul\":1145:1183   */\n      swap1\n      pop\n        /* \"#utility.yul\":1087:1189   */\n      swap2\n      swap1\n      pop\n      jump\t// out\n        /* \"#utility.yul\":1195:1375   */\n    tag_52:\n        /* \"#utility.yul\":1243:1320   */\n      0x4e487b7100000000000000000000000000000000000000000000000000000000\n        /* \"#utility.yul\":1240:1241   */\n      0x00\n        /* \"#utility.yul\":1233:1321   */\n      mstore\n        /* \"#utility.yul\":1340:1344   */\n      0x41\n        /* \"#utility.yul\":1337:1338   */\n      0x04\n        /* \"#utility.yul\":1330:1345   */\n      mstore\n        /* \"#utility.yul\":1364:1368   */\n      0x24\n        /* \"#utility.yul\":1361:1362   */\n      0x00\n        /* \"#utility.yul\":1354:1369   */\n      revert\n        /* \"#utility.yul\":1381:1662   */\n    tag_53:\n        /* \"#utility.yul\":1464:1491   */\n      tag_106\n        /* \"#utility.yul\":1486:1490   */\n      dup3\n        /* \"#utility.yul\":1464:1491   */\n      tag_51\n      jump\t// in\n    tag_106:\n        /* \"#utility.yul\":1456:1462   */\n      dup2\n        /* \"#utility.yul\":1452:1492   */\n      add\n        /* \"#utility.yul\":1594:1600   */\n      dup2\n        /* \"#utility.yul\":1582:1592   */\n      dup2\n        /* \"#utility.yul\":1579:1601   */\n      lt\n        /* \"#utility.yul\":1558:1576   */\n      0xffffffffffffffff\n        /* \"#utility.yul\":1546:1556   */\n      dup3\n        /* \"#utility.yul\":1543:1577   */\n      gt\n        /* \"#utility.yul\":1540:1602   */\n      or\n        /* \"#utility.yul\":1537:1625   */\n      iszero\n      tag_107\n      jumpi\n        /* \"#utility.yul\":1605:1623   */\n      tag_108\n      tag_52\n      jump\t// in\n    tag_108:\n        /* \"#utility.yul\":1537:1625   */\n    tag_107:\n        /* \"#utility.yul\":1645:1655   */\n      dup1\n        /* \"#utility.yul\":1641:1643   */\n      0x40\n        /* \"#utility.yul\":1634:1656   */\n      mstore\n        /* \"#utility.yul\":1424:1662   */\n      pop\n        /* \"#utility.yul\":1381:1662   */\n      pop\n      pop\n      jump\t// out\n        /* \"#utility.yul\":1668:1797   */\n    tag_54:\n        /* \"#utility.yul\":1702:1708   */\n      0x00\n        /* \"#utility.yul\":1729:1749   */\n      tag_110\n      tag_42\n      jump\t// in\n    tag_110:\n        /* \"#utility.yul\":1719:1749   */\n      swap1\n      pop\n        /* \"#utility.yul\":1758:1791   */\n      tag_111\n        /* \"#utility.yul\":1786:1790   */\n      dup3\n        /* \"#utility.yul\":1778:1784   */\n      dup3\n        /* \"#utility.yul\":1758:1791   */\n      tag_53\n      jump\t// in\n    tag_111:\n        /* \"#utility.yul\":1668:1797   */\n      swap2\n      swap1\n      pop\n      jump\t// out\n        /* \"#utility.yul\":1803:2111   */\n    tag_55:\n        /* \"#utility.yul\":1865:1869   */\n      0x00\n        /* \"#utility.yul\":1955:1973   */\n      0xffffffffffffffff\n        /* \"#utility.yul\":1947:1953   */\n      dup3\n        /* \"#utility.yul\":1944:1974   */\n      gt\n        /* \"#utility.yul\":1941:1997   */\n      iszero\n      tag_113\n      jumpi\n        /* \"#utility.yul\":1977:1995   */\n      tag_114\n      tag_52\n      jump\t// in\n    tag_114:\n        /* \"#utility.yul\":1941:1997   */\n    tag_113:\n        /* \"#utility.yul\":2015:2044   */\n      tag_115\n        /* \"#utility.yul\":2037:2043   */\n      dup3\n        /* \"#utility.yul\":2015:2044   */\n      tag_51\n      jump\t// in\n    tag_115:\n        /* \"#utility.yul\":2007:2044   */\n      swap1\n      pop\n        /* \"#utility.yul\":2099:2103   */\n      0x20\n        /* \"#utility.yul\":2093:2097   */\n      dup2\n        /* \"#utility.yul\":2089:2104   */\n      add\n        /* \"#utility.yul\":2081:2104   */\n      swap1\n      pop\n        /* \"#utility.yul\":1803:2111   */\n      swap2\n      swap1\n      pop\n      jump\t// out\n        /* \"#utility.yul\":2117:2265   */\n    tag_56:\n        /* \"#utility.yul\":2215:2221   */\n      dup3\n        /* \"#utility.yul\":2210:2213   */\n      dup2\n        /* \"#utility.yul\":2205:2208   */\n      dup4\n        /* \"#utility.yul\":2192:2222   */\n      calldatacopy\n        /* \"#utility.yul\":2256:2257   */\n      0x00\n        /* \"#utility.yul\":2247:2253   */\n      dup4\n        /* \"#utility.yul\":2242:2245   */\n      dup4\n        /* \"#utility.yul\":2238:2254   */\n      add\n        /* \"#utility.yul\":2231:2258   */\n      mstore\n        /* \"#utility.yul\":2117:2265   */\n      pop\n      pop\n      pop\n      jump\t// out\n        /* \"#utility.yul\":2271:2696   */\n    tag_57:\n        /* \"#utility.yul\":2349:2354   */\n      0x00\n        /* \"#utility.yul\":2374:2440   */\n      tag_118\n        /* \"#utility.yul\":2390:2439   */\n      tag_119\n        /* \"#utility.yul\":2432:2438   */\n      dup5\n        /* \"#utility.yul\":2390:2439   */\n      tag_55\n      jump\t// in\n    tag_119:\n        /* \"#utility.yul\":2374:2440   */\n      tag_54\n      jump\t// in\n    tag_118:\n        /* \"#utility.yul\":2365:2440   */\n      swap1\n      pop\n        /* \"#utility.yul\":2463:2469   */\n      dup3\n        /* \"#utility.yul\":2456:2461   */\n      dup2\n        /* \"#utility.yul\":2449:2470   */\n      mstore\n        /* \"#utility.yul\":2501:2505   */\n      0x20\n        /* \"#utility.yul\":2494:2499   */\n      dup2\n        /* \"#utility.yul\":2490:2506   */\n      add\n        /* \"#utility.yul\":2539:2542   */\n      dup5\n        /* \"#utility.yul\":2530:2536   */\n      dup5\n        /* \"#utility.yul\":2525:2528   */\n      dup5\n        /* \"#utility.yul\":2521:2537   */\n      add\n        /* \"#utility.yul\":2518:2543   */\n      gt\n        /* \"#utility.yul\":2515:2627   */\n      iszero\n      tag_120\n      jumpi\n        /* \"#utility.yul\":2546:2625   */\n      tag_121\n      tag_50\n      jump\t// in\n    tag_121:\n        /* \"#utility.yul\":2515:2627   */\n    tag_120:\n        /* \"#utility.yul\":2636:2690   */\n      tag_122\n        /* \"#utility.yul\":2683:2689   */\n      dup5\n        /* \"#utility.yul\":2678:2681   */\n      dup3\n        /* \"#utility.yul\":2673:2676   */\n      dup6\n        /* \"#utility.yul\":2636:2690   */\n      tag_56\n      jump\t// in\n    tag_122:\n        /* \"#utility.yul\":2355:2696   */\n      pop\n        /* \"#utility.yul\":2271:2696   */\n      swap4\n      swap3\n      pop\n      pop\n      pop\n      jump\t// out\n        /* \"#utility.yul\":2716:3056   */\n    tag_58:\n        /* \"#utility.yul\":2772:2777   */\n      0x00\n        /* \"#utility.yul\":2821:2824   */\n      dup3\n        /* \"#utility.yul\":2814:2818   */\n      0x1f\n        /* \"#utility.yul\":2806:2812   */\n      dup4\n        /* \"#utility.yul\":2802:2819   */\n      add\n        /* \"#utility.yul\":2798:2825   */\n      slt\n        /* \"#utility.yul\":2788:2910   */\n      tag_124\n      jumpi\n        /* \"#utility.yul\":2829:2908   */\n      tag_125\n      tag_49\n      jump\t// in\n    tag_125:\n        /* \"#utility.yul\":2788:2910   */\n    tag_124:\n        /* \"#utility.yul\":2946:2952   */\n      dup2\n        /* \"#utility.yul\":2933:2953   */\n      calldataload\n        /* \"#utility.yul\":2971:3050   */\n      tag_126\n        /* \"#utility.yul\":3046:3049   */\n      dup5\n        /* \"#utility.yul\":3038:3044   */\n      dup3\n        /* \"#utility.yul\":3031:3035   */\n      0x20\n        /* \"#utility.yul\":3023:3029   */\n      dup7\n        /* \"#utility.yul\":3019:3036   */\n      add\n        /* \"#utility.yul\":2971:3050   */\n      tag_57\n      jump\t// in\n    tag_126:\n        /* \"#utility.yul\":2962:3050   */\n      swap2\n      pop\n        /* \"#utility.yul\":2778:3056   */\n      pop\n        /* \"#utility.yul\":2716:3056   */\n      swap3\n      swap2\n      pop\n      pop\n      jump\t// out\n        /* \"#utility.yul\":3062:3861   */\n    tag_8:\n        /* \"#utility.yul\":3149:3155   */\n      0x00\n        /* \"#utility.yul\":3157:3163   */\n      dup1\n        /* \"#utility.yul\":3165:3171   */\n      0x00\n        /* \"#utility.yul\":3214:3216   */\n      0x60\n        /* \"#utility.yul\":3202:3211   */\n      dup5\n        /* \"#utility.yul\":3193:3200   */\n      dup7\n        /* \"#utility.yul\":3189:3212   */\n      sub\n        /* \"#utility.yul\":3185:3217   */\n      slt\n        /* \"#utility.yul\":3182:3301   */\n      iszero\n      tag_128\n      jumpi\n        /* \"#utility.yul\":3220:3299   */\n      tag_129\n      tag_43\n      jump\t// in\n    tag_129:\n        /* \"#utility.yul\":3182:3301   */\n    tag_128:\n        /* \"#utility.yul\":3340:3341   */\n      0x00\n        /* \"#utility.yul\":3365:3418   */\n      tag_130\n        /* \"#utility.yul\":3410:3417   */\n      dup7\n        /* \"#utility.yul\":3401:3407   */\n      dup3\n        /* \"#utility.yul\":3390:3399   */\n      dup8\n        /* \"#utility.yul\":3386:3408   */\n      add\n        /* \"#utility.yul\":3365:3418   */\n      tag_48\n      jump\t// in\n    tag_130:\n        /* \"#utility.yul\":3355:3418   */\n      swap4\n      pop\n        /* \"#utility.yul\":3311:3428   */\n      pop\n        /* \"#utility.yul\":3495:3497   */\n      0x20\n        /* \"#utility.yul\":3484:3493   */\n      dup5\n        /* \"#utility.yul\":3480:3498   */\n      add\n        /* \"#utility.yul\":3467:3499   */\n      calldataload\n        /* \"#utility.yul\":3526:3544   */\n      0xffffffffffffffff\n        /* \"#utility.yul\":3518:3524   */\n      dup2\n        /* \"#utility.yul\":3515:3545   */\n      gt\n        /* \"#utility.yul\":3512:3629   */\n      iszero\n      tag_131\n      jumpi\n        /* \"#utility.yul\":3548:3627   */\n      tag_132\n      tag_44\n      jump\t// in\n    tag_132:\n        /* \"#utility.yul\":3512:3629   */\n    tag_131:\n        /* \"#utility.yul\":3653:3716   */\n      tag_133\n        /* \"#utility.yul\":3708:3715   */\n      dup7\n        /* \"#utility.yul\":3699:3705   */\n      dup3\n        /* \"#utility.yul\":3688:3697   */\n      dup8\n        /* \"#utility.yul\":3684:3706   */\n      add\n        /* \"#utility.yul\":3653:3716   */\n      tag_58\n      jump\t// in\n    tag_133:\n        /* \"#utility.yul\":3643:3716   */\n      swap3\n      pop\n        /* \"#utility.yul\":3438:3726   */\n      pop\n        /* \"#utility.yul\":3765:3767   */\n      0x40\n        /* \"#utility.yul\":3791:3844   */\n      tag_134\n        /* \"#utility.yul\":3836:3843   */\n      dup7\n        /* \"#utility.yul\":3827:3833   */\n      dup3\n        /* \"#utility.yul\":3816:3825   */\n      dup8\n        /* \"#utility.yul\":3812:3834   */\n      add\n        /* \"#utility.yul\":3791:3844   */\n      tag_48\n      jump\t// in\n    tag_134:\n        /* \"#utility.yul\":3781:3844   */\n      swap2\n      pop\n        /* \"#utility.yul\":3736:3854   */\n      pop\n        /* \"#utility.yul\":3062:3861   */\n      swap3\n      pop\n      swap3\n      pop\n      swap3\n      jump\t// out\n        /* \"#utility.yul\":3867:3957   */\n    tag_59:\n        /* \"#utility.yul\":3901:3908   */\n      0x00\n        /* \"#utility.yul\":3944:3949   */\n      dup2\n        /* \"#utility.yul\":3937:3950   */\n      iszero\n        /* \"#utility.yul\":3930:3951   */\n      iszero\n        /* \"#utility.yul\":3919:3951   */\n      swap1\n      pop\n        /* \"#utility.yul\":3867:3957   */\n      swap2\n      swap1\n      pop\n      jump\t// out\n        /* \"#utility.yul\":3963:4072   */\n    tag_60:\n        /* \"#utility.yul\":4044:4065   */\n      tag_137\n        /* \"#utility.yul\":4059:4064   */\n      dup2\n        /* \"#utility.yul\":4044:4065   */\n      tag_59\n      jump\t// in\n    tag_137:\n        /* \"#utility.yul\":4039:4042   */\n      dup3\n        /* \"#utility.yul\":4032:4066   */\n      mstore\n        /* \"#utility.yul\":3963:4072   */\n      pop\n      pop\n      jump\t// out\n        /* \"#utility.yul\":4078:4288   */\n    tag_14:\n        /* \"#utility.yul\":4165:4169   */\n      0x00\n        /* \"#utility.yul\":4203:4205   */\n      0x20\n        /* \"#utility.yul\":4192:4201   */\n      dup3\n        /* \"#utility.yul\":4188:4206   */\n      add\n        /* \"#utility.yul\":4180:4206   */\n      swap1\n      pop\n        /* \"#utility.yul\":4216:4281   */\n      tag_139\n        /* \"#utility.yul\":4278:4279   */\n      0x00\n        /* \"#utility.yul\":4267:4276   */\n      dup4\n        /* \"#utility.yul\":4263:4280   */\n      add\n        /* \"#utility.yul\":4254:4260   */\n      dup5\n        /* \"#utility.yul\":4216:4281   */\n      tag_60\n      jump\t// in\n    tag_139:\n        /* \"#utility.yul\":4078:4288   */\n      swap3\n      swap2\n      pop\n      pop\n      jump\t// out\n        /* \"#utility.yul\":4294:4463   */\n    tag_61:\n        /* \"#utility.yul\":4378:4389   */\n      0x00\n        /* \"#utility.yul\":4412:4418   */\n      dup3\n        /* \"#utility.yul\":4407:4410   */\n      dup3\n        /* \"#utility.yul\":4400:4419   */\n      mstore\n        /* \"#utility.yul\":4452:4456   */\n      0x20\n        /* \"#utility.yul\":4447:4450   */\n      dup3\n        /* \"#utility.yul\":4443:4457   */\n      add\n        /* \"#utility.yul\":4428:4457   */\n      swap1\n      pop\n        /* \"#utility.yul\":4294:4463   */\n      swap3\n      swap2\n      pop\n      pop\n      jump\t// out\n        /* \"#utility.yul\":4469:4697   */\n    tag_62:\n        /* \"#utility.yul\":4609:4643   */\n      0x4f6e6c79207468652070617469656e742063616e20706572666f726d20746869\n        /* \"#utility.yul\":4605:4606   */\n      0x00\n        /* \"#utility.yul\":4597:4603   */\n      dup3\n        /* \"#utility.yul\":4593:4607   */\n      add\n        /* \"#utility.yul\":4586:4644   */\n      mstore\n        /* \"#utility.yul\":4678:4689   */\n      0x7320616374696f6e2e0000000000000000000000000000000000000000000000\n        /* \"#utility.yul\":4673:4675   */\n      0x20\n        /* \"#utility.yul\":4665:4671   */\n      dup3\n        /* \"#utility.yul\":4661:4676   */\n      add\n        /* \"#utility.yul\":4654:4690   */\n      mstore\n        /* \"#utility.yul\":4469:4697   */\n      pop\n      jump\t// out\n        /* \"#utility.yul\":4703:5069   */\n    tag_63:\n        /* \"#utility.yul\":4845:4848   */\n      0x00\n        /* \"#utility.yul\":4866:4933   */\n      tag_143\n        /* \"#utility.yul\":4930:4932   */\n      0x29\n        /* \"#utility.yul\":4925:4928   */\n      dup4\n        /* \"#utility.yul\":4866:4933   */\n      tag_61\n      jump\t// in\n    tag_143:\n        /* \"#utility.yul\":4859:4933   */\n      swap2\n      pop\n        /* \"#utility.yul\":4942:5035   */\n      tag_144\n        /* \"#utility.yul\":5031:5034   */\n      dup3\n        /* \"#utility.yul\":4942:5035   */\n      tag_62\n      jump\t// in\n    tag_144:\n        /* \"#utility.yul\":5060:5062   */\n      0x40\n        /* \"#utility.yul\":5055:5058   */\n      dup3\n        /* \"#utility.yul\":5051:5063   */\n      add\n        /* \"#utility.yul\":5044:5063   */\n      swap1\n      pop\n        /* \"#utility.yul\":4703:5069   */\n      swap2\n      swap1\n      pop\n      jump\t// out\n        /* \"#utility.yul\":5075:5494   */\n    tag_21:\n        /* \"#utility.yul\":5241:5245   */\n      0x00\n        /* \"#utility.yul\":5279:5281   */\n      0x20\n        /* \"#utility.yul\":5268:5277   */\n      dup3\n        /* \"#utility.yul\":5264:5282   */\n      add\n        /* \"#utility.yul\":5256:5282   */\n      swap1\n      pop\n        /* \"#utility.yul\":5328:5337   */\n      dup2\n        /* \"#utility.yul\":5322:5326   */\n      dup2\n        /* \"#utility.yul\":5318:5338   */\n      sub\n        /* \"#utility.yul\":5314:5315   */\n      0x00\n        /* \"#utility.yul\":5303:5312   */\n      dup4\n        /* \"#utility.yul\":5299:5316   */\n      add\n        /* \"#utility.yul\":5292:5339   */\n      mstore\n        /* \"#utility.yul\":5356:5487   */\n      tag_146\n        /* \"#utility.yul\":5482:5486   */\n      dup2\n        /* \"#utility.yul\":5356:5487   */\n      tag_63\n      jump\t// in\n    tag_146:\n        /* \"#utility.yul\":5348:5487   */\n      swap1\n      pop\n        /* \"#utility.yul\":5075:5494   */\n      swap2\n      swap1\n      pop\n      jump\t// out\n        /* \"#utility.yul\":5500:5599   */\n    tag_64:\n        /* \"#utility.yul\":5552:5558   */\n      0x00\n        /* \"#utility.yul\":5586:5591   */\n      dup2\n        /* \"#utility.yul\":5580:5592   */\n      mload\n        /* \"#utility.yul\":5570:5592   */\n      swap1\n      pop\n        /* \"#utility.yul\":5500:5599   */\n      swap2\n      swap1\n      pop\n      jump\t// out\n        /* \"#utility.yul\":5605:5753   */\n    tag_65:\n        /* \"#utility.yul\":5707:5718   */\n      0x00\n        /* \"#utility.yul\":5744:5747   */\n      dup2\n        /* \"#utility.yul\":5729:5747   */\n      swap1\n      pop\n        /* \"#utility.yul\":5605:5753   */\n      swap3\n      swap2\n      pop\n      pop\n      jump\t// out\n        /* \"#utility.yul\":5759:6007   */\n    tag_66:\n        /* \"#utility.yul\":5841:5842   */\n      0x00\n        /* \"#utility.yul\":5851:5964   */\n    tag_150:\n        /* \"#utility.yul\":5865:5871   */\n      dup4\n        /* \"#utility.yul\":5862:5863   */\n      dup2\n        /* \"#utility.yul\":5859:5872   */\n      lt\n        /* \"#utility.yul\":5851:5964   */\n      iszero\n      tag_152\n      jumpi\n        /* \"#utility.yul\":5950:5951   */\n      dup1\n        /* \"#utility.yul\":5945:5948   */\n      dup3\n        /* \"#utility.yul\":5941:5952   */\n      add\n        /* \"#utility.yul\":5935:5953   */\n      mload\n        /* \"#utility.yul\":5931:5932   */\n      dup2\n        /* \"#utility.yul\":5926:5929   */\n      dup5\n        /* \"#utility.yul\":5922:5933   */\n      add\n        /* \"#utility.yul\":5915:5954   */\n      mstore\n        /* \"#utility.yul\":5887:5889   */\n      0x20\n        /* \"#utility.yul\":5884:5885   */\n      dup2\n        /* \"#utility.yul\":5880:5890   */\n      add\n        /* \"#utility.yul\":5875:5890   */\n      swap1\n      pop\n        /* \"#utility.yul\":5851:5964   */\n      jump(tag_150)\n    tag_152:\n        /* \"#utility.yul\":5998:5999   */\n      0x00\n        /* \"#utility.yul\":5989:5995   */\n      dup5\n        /* \"#utility.yul\":5984:5987   */\n      dup5\n        /* \"#utility.yul\":5980:5996   */\n      add\n        /* \"#utility.yul\":5973:6000   */\n      mstore\n        /* \"#utility.yul\":5821:6007   */\n      pop\n        /* \"#utility.yul\":5759:6007   */\n      pop\n      pop\n      pop\n      jump\t// out\n        /* \"#utility.yul\":6013:6403   */\n    tag_67:\n        /* \"#utility.yul\":6119:6122   */\n      0x00\n        /* \"#utility.yul\":6147:6186   */\n      tag_154\n        /* \"#utility.yul\":6180:6185   */\n      dup3\n        /* \"#utility.yul\":6147:6186   */\n      tag_64\n      jump\t// in\n    tag_154:\n        /* \"#utility.yul\":6202:6291   */\n      tag_155\n        /* \"#utility.yul\":6284:6290   */\n      dup2\n        /* \"#utility.yul\":6279:6282   */\n      dup6\n        /* \"#utility.yul\":6202:6291   */\n      tag_65\n      jump\t// in\n    tag_155:\n        /* \"#utility.yul\":6195:6291   */\n      swap4\n      pop\n        /* \"#utility.yul\":6300:6365   */\n      tag_156\n        /* \"#utility.yul\":6358:6364   */\n      dup2\n        /* \"#utility.yul\":6353:6356   */\n      dup6\n        /* \"#utility.yul\":6346:6350   */\n      0x20\n        /* \"#utility.yul\":6339:6344   */\n      dup7\n        /* \"#utility.yul\":6335:6351   */\n      add\n        /* \"#utility.yul\":6300:6365   */\n      tag_66\n      jump\t// in\n    tag_156:\n        /* \"#utility.yul\":6390:6396   */\n      dup1\n        /* \"#utility.yul\":6385:6388   */\n      dup5\n        /* \"#utility.yul\":6381:6397   */\n      add\n        /* \"#utility.yul\":6374:6397   */\n      swap2\n      pop\n        /* \"#utility.yul\":6123:6403   */\n      pop\n        /* \"#utility.yul\":6013:6403   */\n      swap3\n      swap2\n      pop\n      pop\n      jump\t// out\n        /* \"#utility.yul\":6409:6684   */\n    tag_24:\n        /* \"#utility.yul\":6541:6544   */\n      0x00\n        /* \"#utility.yul\":6563:6658   */\n      tag_158\n        /* \"#utility.yul\":6654:6657   */\n      dup3\n        /* \"#utility.yul\":6645:6651   */\n      dup5\n        /* \"#utility.yul\":6563:6658   */\n      tag_67\n      jump\t// in\n    tag_158:\n        /* \"#utility.yul\":6556:6658   */\n      swap2\n      pop\n        /* \"#utility.yul\":6675:6678   */\n      dup2\n        /* \"#utility.yul\":6668:6678   */\n      swap1\n      pop\n        /* \"#utility.yul\":6409:6684   */\n      swap3\n      swap2\n      pop\n      pop\n      jump\t// out\n        /* \"#utility.yul\":6690:6917   */\n    tag_68:\n        /* \"#utility.yul\":6830:6864   */\n      0x4c6520646f6374657572206e2761207061732064276163636573206120636520\n        /* \"#utility.yul\":6826:6827   */\n      0x00\n        /* \"#utility.yul\":6818:6824   */\n      dup3\n        /* \"#utility.yul\":6814:6828   */\n      add\n        /* \"#utility.yul\":6807:6865   */\n      mstore\n        /* \"#utility.yul\":6899:6909   */\n      0x646f73736965722e000000000000000000000000000000000000000000000000\n        /* \"#utility.yul\":6894:6896   */\n      0x20\n        /* \"#utility.yul\":6886:6892   */\n      dup3\n        /* \"#utility.yul\":6882:6897   */\n      add\n        /* \"#utility.yul\":6875:6910   */\n      mstore\n        /* \"#utility.yul\":6690:6917   */\n      pop\n      jump\t// out\n        /* \"#utility.yul\":6923:7289   */\n    tag_69:\n        /* \"#utility.yul\":7065:7068   */\n      0x00\n        /* \"#utility.yul\":7086:7153   */\n      tag_161\n        /* \"#utility.yul\":7150:7152   */\n      0x28\n        /* \"#utility.yul\":7145:7148   */\n      dup4\n        /* \"#utility.yul\":7086:7153   */\n      tag_61\n      jump\t// in\n    tag_161:\n        /* \"#utility.yul\":7079:7153   */\n      swap2\n      pop\n        /* \"#utility.yul\":7162:7255   */\n      tag_162\n        /* \"#utility.yul\":7251:7254   */\n      dup3\n        /* \"#utility.yul\":7162:7255   */\n      tag_68\n      jump\t// in\n    tag_162:\n        /* \"#utility.yul\":7280:7282   */\n      0x40\n        /* \"#utility.yul\":7275:7278   */\n      dup3\n        /* \"#utility.yul\":7271:7283   */\n      add\n        /* \"#utility.yul\":7264:7283   */\n      swap1\n      pop\n        /* \"#utility.yul\":6923:7289   */\n      swap2\n      swap1\n      pop\n      jump\t// out\n        /* \"#utility.yul\":7295:7714   */\n    tag_27:\n        /* \"#utility.yul\":7461:7465   */\n      0x00\n        /* \"#utility.yul\":7499:7501   */\n      0x20\n        /* \"#utility.yul\":7488:7497   */\n      dup3\n        /* \"#utility.yul\":7484:7502   */\n      add\n        /* \"#utility.yul\":7476:7502   */\n      swap1\n      pop\n        /* \"#utility.yul\":7548:7557   */\n      dup2\n        /* \"#utility.yul\":7542:7546   */\n      dup2\n        /* \"#utility.yul\":7538:7558   */\n      sub\n        /* \"#utility.yul\":7534:7535   */\n      0x00\n        /* \"#utility.yul\":7523:7532   */\n      dup4\n        /* \"#utility.yul\":7519:7536   */\n      add\n        /* \"#utility.yul\":7512:7559   */\n      mstore\n        /* \"#utility.yul\":7576:7707   */\n      tag_164\n        /* \"#utility.yul\":7702:7706   */\n      dup2\n        /* \"#utility.yul\":7576:7707   */\n      tag_69\n      jump\t// in\n    tag_164:\n        /* \"#utility.yul\":7568:7707   */\n      swap1\n      pop\n        /* \"#utility.yul\":7295:7714   */\n      swap2\n      swap1\n      pop\n      jump\t// out\n        /* \"#utility.yul\":7720:8097   */\n    tag_70:\n        /* \"#utility.yul\":7808:7811   */\n      0x00\n        /* \"#utility.yul\":7836:7875   */\n      tag_166\n        /* \"#utility.yul\":7869:7874   */\n      dup3\n        /* \"#utility.yul\":7836:7875   */\n      tag_64\n      jump\t// in\n    tag_166:\n        /* \"#utility.yul\":7891:7962   */\n      tag_167\n        /* \"#utility.yul\":7955:7961   */\n      dup2\n        /* \"#utility.yul\":7950:7953   */\n      dup6\n        /* \"#utility.yul\":7891:7962   */\n      tag_61\n      jump\t// in\n    tag_167:\n        /* \"#utility.yul\":7884:7962   */\n      swap4\n      pop\n        /* \"#utility.yul\":7971:8036   */\n      tag_168\n        /* \"#utility.yul\":8029:8035   */\n      dup2\n        /* \"#utility.yul\":8024:8027   */\n      dup6\n        /* \"#utility.yul\":8017:8021   */\n      0x20\n        /* \"#utility.yul\":8010:8015   */\n      dup7\n        /* \"#utility.yul\":8006:8022   */\n      add\n        /* \"#utility.yul\":7971:8036   */\n      tag_66\n      jump\t// in\n    tag_168:\n        /* \"#utility.yul\":8061:8090   */\n      tag_169\n        /* \"#utility.yul\":8083:8089   */\n      dup2\n        /* \"#utility.yul\":8061:8090   */\n      tag_51\n      jump\t// in\n    tag_169:\n        /* \"#utility.yul\":8056:8059   */\n      dup5\n        /* \"#utility.yul\":8052:8091   */\n      add\n        /* \"#utility.yul\":8045:8091   */\n      swap2\n      pop\n        /* \"#utility.yul\":7812:8097   */\n      pop\n        /* \"#utility.yul\":7720:8097   */\n      swap3\n      swap2\n      pop\n      pop\n      jump\t// out\n        /* \"#utility.yul\":8103:8416   */\n    tag_30:\n        /* \"#utility.yul\":8216:8220   */\n      0x00\n        /* \"#utility.yul\":8254:8256   */\n      0x20\n        /* \"#utility.yul\":8243:8252   */\n      dup3\n        /* \"#utility.yul\":8239:8257   */\n      add\n        /* \"#utility.yul\":8231:8257   */\n      swap1\n      pop\n        /* \"#utility.yul\":8303:8312   */\n      dup2\n        /* \"#utility.yul\":8297:8301   */\n      dup2\n        /* \"#utility.yul\":8293:8313   */\n      sub\n        /* \"#utility.yul\":8289:8290   */\n      0x00\n        /* \"#utility.yul\":8278:8287   */\n      dup4\n        /* \"#utility.yul\":8274:8291   */\n      add\n        /* \"#utility.yul\":8267:8314   */\n      mstore\n        /* \"#utility.yul\":8331:8409   */\n      tag_171\n        /* \"#utility.yul\":8404:8408   */\n      dup2\n        /* \"#utility.yul\":8395:8401   */\n      dup5\n        /* \"#utility.yul\":8331:8409   */\n      tag_70\n      jump\t// in\n    tag_171:\n        /* \"#utility.yul\":8323:8409   */\n      swap1\n      pop\n        /* \"#utility.yul\":8103:8416   */\n      swap3\n      swap2\n      pop\n      pop\n      jump\t// out\n        /* \"#utility.yul\":8422:8602   */\n    tag_71:\n        /* \"#utility.yul\":8470:8547   */\n      0x4e487b7100000000000000000000000000000000000000000000000000000000\n        /* \"#utility.yul\":8467:8468   */\n      0x00\n        /* \"#utility.yul\":8460:8548   */\n      mstore\n        /* \"#utility.yul\":8567:8571   */\n      0x22\n        /* \"#utility.yul\":8564:8565   */\n      0x04\n        /* \"#utility.yul\":8557:8572   */\n      mstore\n        /* \"#utility.yul\":8591:8595   */\n      0x24\n        /* \"#utility.yul\":8588:8589   */\n      0x00\n        /* \"#utility.yul\":8581:8596   */\n      revert\n        /* \"#utility.yul\":8608:8928   */\n    tag_72:\n        /* \"#utility.yul\":8652:8658   */\n      0x00\n        /* \"#utility.yul\":8689:8690   */\n      0x02\n        /* \"#utility.yul\":8683:8687   */\n      dup3\n        /* \"#utility.yul\":8679:8691   */\n      div\n        /* \"#utility.yul\":8669:8691   */\n      swap1\n      pop\n        /* \"#utility.yul\":8736:8737   */\n      0x01\n        /* \"#utility.yul\":8730:8734   */\n      dup3\n        /* \"#utility.yul\":8726:8738   */\n      and\n        /* \"#utility.yul\":8757:8775   */\n      dup1\n        /* \"#utility.yul\":8747:8828   */\n      tag_174\n      jumpi\n        /* \"#utility.yul\":8813:8817   */\n      0x7f\n        /* \"#utility.yul\":8805:8811   */\n      dup3\n        /* \"#utility.yul\":8801:8818   */\n      and\n        /* \"#utility.yul\":8791:8818   */\n      swap2\n      pop\n        /* \"#utility.yul\":8747:8828   */\n    tag_174:\n        /* \"#utility.yul\":8875:8877   */\n      0x20\n        /* \"#utility.yul\":8867:8873   */\n      dup3\n        /* \"#utility.yul\":8864:8878   */\n      lt\n        /* \"#utility.yul\":8844:8862   */\n      dup2\n        /* \"#utility.yul\":8841:8879   */\n      sub\n        /* \"#utility.yul\":8838:8922   */\n      tag_175\n      jumpi\n        /* \"#utility.yul\":8894:8912   */\n      tag_176\n      tag_71\n      jump\t// in\n    tag_176:\n        /* \"#utility.yul\":8838:8922   */\n    tag_175:\n        /* \"#utility.yul\":8659:8928   */\n      pop\n        /* \"#utility.yul\":8608:8928   */\n      swap2\n      swap1\n      pop\n      jump\t// out\n        /* \"#utility.yul\":8934:9075   */\n    tag_73:\n        /* \"#utility.yul\":8983:8987   */\n      0x00\n        /* \"#utility.yul\":9006:9009   */\n      dup2\n        /* \"#utility.yul\":8998:9009   */\n      swap1\n      pop\n        /* \"#utility.yul\":9029:9032   */\n      dup2\n        /* \"#utility.yul\":9026:9027   */\n      0x00\n        /* \"#utility.yul\":9019:9033   */\n      mstore\n        /* \"#utility.yul\":9063:9067   */\n      0x20\n        /* \"#utility.yul\":9060:9061   */\n      0x00\n        /* \"#utility.yul\":9050:9068   */\n      keccak256\n        /* \"#utility.yul\":9042:9068   */\n      swap1\n      pop\n        /* \"#utility.yul\":8934:9075   */\n      swap2\n      swap1\n      pop\n      jump\t// out\n        /* \"#utility.yul\":9081:9174   */\n    tag_74:\n        /* \"#utility.yul\":9118:9124   */\n      0x00\n        /* \"#utility.yul\":9165:9167   */\n      0x20\n        /* \"#utility.yul\":9160:9162   */\n      0x1f\n        /* \"#utility.yul\":9153:9158   */\n      dup4\n        /* \"#utility.yul\":9149:9163   */\n      add\n        /* \"#utility.yul\":9145:9168   */\n      div\n        /* \"#utility.yul\":9135:9168   */\n      swap1\n      pop\n        /* \"#utility.yul\":9081:9174   */\n      swap2\n      swap1\n      pop\n      jump\t// out\n        /* \"#utility.yul\":9180:9287   */\n    tag_75:\n        /* \"#utility.yul\":9224:9232   */\n      0x00\n        /* \"#utility.yul\":9274:9279   */\n      dup3\n        /* \"#utility.yul\":9268:9272   */\n      dup3\n        /* \"#utility.yul\":9264:9280   */\n      shl\n        /* \"#utility.yul\":9243:9280   */\n      swap1\n      pop\n        /* \"#utility.yul\":9180:9287   */\n      swap3\n      swap2\n      pop\n      pop\n      jump\t// out\n        /* \"#utility.yul\":9293:9686   */\n    tag_76:\n        /* \"#utility.yul\":9362:9368   */\n      0x00\n        /* \"#utility.yul\":9412:9413   */\n      0x08\n        /* \"#utility.yul\":9400:9410   */\n      dup4\n        /* \"#utility.yul\":9396:9414   */\n      mul\n        /* \"#utility.yul\":9435:9532   */\n      tag_181\n        /* \"#utility.yul\":9465:9531   */\n      0xffffffffffffffffffffffffffffffffffffffffffffffffffffffffffffffff\n        /* \"#utility.yul\":9454:9463   */\n      dup3\n        /* \"#utility.yul\":9435:9532   */\n      tag_75\n      jump\t// in\n    tag_181:\n        /* \"#utility.yul\":9553:9592   */\n      tag_182\n        /* \"#utility.yul\":9583:9591   */\n      dup7\n        /* \"#utility.yul\":9572:9581   */\n      dup4\n        /* \"#utility.yul\":9553:9592   */\n      tag_75\n      jump\t// in\n    tag_182:\n        /* \"#utility.yul\":9541:9592   */\n      swap6\n      pop\n        /* \"#utility.yul\":9625:9629   */\n      dup1\n        /* \"#utility.yul\":9621:9630   */\n      not\n        /* \"#utility.yul\":9614:9619   */\n      dup5\n        /* \"#utility.yul\":9610:9631   */\n      and\n        /* \"#utility.yul\":9601:9631   */\n      swap4\n      pop\n        /* \"#utility.yul\":9674:9678   */\n      dup1\n        /* \"#utility.yul\":9664:9672   */\n      dup7\n        /* \"#utility.yul\":9660:9679   */\n      and\n        /* \"#utility.yul\":9653:9658   */\n      dup5\n        /* \"#utility.yul\":9650:9680   */\n      or\n        /* \"#utility.yul\":9640:9680   */\n      swap3\n      pop\n        /* \"#utility.yul\":9369:9686   */\n      pop\n      pop\n        /* \"#utility.yul\":9293:9686   */\n      swap4\n      swap3\n      pop\n      pop\n      pop\n      jump\t// out\n        /* \"#utility.yul\":9692:9769   */\n    tag_77:\n        /* \"#utility.yul\":9729:9736   */\n      0x00\n        /* \"#utility.yul\":9758:9763   */\n      dup2\n        /* \"#utility.yul\":9747:9763   */\n      swap1\n      pop\n        /* \"#utility.yul\":9692:9769   */\n      swap2\n      swap1\n      pop\n      jump\t// out\n        /* \"#utility.yul\":9775:9835   */\n    tag_78:\n        /* \"#utility.yul\":9803:9806   */\n      0x00\n        /* \"#utility.yul\":9824:9829   */\n      dup2\n        /* \"#utility.yul\":9817:9829   */\n      swap1\n      pop\n        /* \"#utility.yul\":9775:9835   */\n      swap2\n      swap1\n      pop\n      jump\t// out\n        /* \"#utility.yul\":9841:9983   */\n    tag_79:\n        /* \"#utility.yul\":9891:9900   */\n      0x00\n        /* \"#utility.yul\":9924:9977   */\n      tag_186\n        /* \"#utility.yul\":9942:9976   */\n      tag_187\n        /* \"#utility.yul\":9951:9975   */\n      tag_188\n        /* \"#utility.yul\":9969:9974   */\n      dup5\n        /* \"#utility.yul\":9951:9975   */\n      tag_77\n      jump\t// in\n    tag_188:\n        /* \"#utility.yul\":9942:9976   */\n      tag_78\n      jump\t// in\n    tag_187:\n        /* \"#utility.yul\":9924:9977   */\n      tag_77\n      jump\t// in\n    tag_186:\n        /* \"#utility.yul\":9911:9977   */\n      swap1\n      pop\n        /* \"#utility.yul\":9841:9983   */\n      swap2\n      swap1\n      pop\n      jump\t// out\n        /* \"#utility.yul\":9989:10064   */\n    tag_80:\n        /* \"#utility.yul\":10032:10035   */\n      0x00\n        /* \"#utility.yul\":10053:10058   */\n      dup2\n        /* \"#utility.yul\":10046:10058   */\n      swap1\n      pop\n        /* \"#utility.yul\":9989:10064   */\n      swap2\n      swap1\n      pop\n      jump\t// out\n        /* \"#utility.yul\":10070:10339   */\n    tag_81:\n        /* \"#utility.yul\":10180:10219   */\n      tag_191\n        /* \"#utility.yul\":10211:10218   */\n      dup4\n        /* \"#utility.yul\":10180:10219   */\n      tag_79\n      jump\t// in\n    tag_191:\n        /* \"#utility.yul\":10241:10332   */\n      tag_192\n        /* \"#utility.yul\":10290:10331   */\n      tag_193\n        /* \"#utility.yul\":10314:10330   */\n      dup3\n        /* \"#utility.yul\":10290:10331   */\n      tag_80\n      jump\t// in\n    tag_193:\n        /* \"#utility.yul\":10282:10288   */\n      dup5\n        /* \"#utility.yul\":10275:10279   */\n      dup5\n        /* \"#utility.yul\":10269:10280   */\n      sload\n        /* \"#utility.yul\":10241:10332   */\n      tag_76\n      jump\t// in\n    tag_192:\n        /* \"#utility.yul\":10235:10239   */\n      dup3\n        /* \"#utility.yul\":10228:10333   */\n      sstore\n        /* \"#utility.yul\":10146:10339   */\n      pop\n        /* \"#utility.yul\":10070:10339   */\n      pop\n      pop\n      pop\n      jump\t// out\n        /* \"#utility.yul\":10345:10418   */\n    tag_82:\n        /* \"#utility.yul\":10390:10393   */\n      0x00\n        /* \"#utility.yul\":10345:10418   */\n      swap1\n      jump\t// out\n        /* \"#utility.yul\":10424:10613   */\n    tag_83:\n        /* \"#utility.yul\":10501:10533   */\n      tag_196\n      tag_82\n      jump\t// in\n    tag_196:\n        /* \"#utility.yul\":10542:10607   */\n      tag_197\n        /* \"#utility.yul\":10600:10606   */\n      dup2\n        /* \"#utility.yul\":10592:10598   */\n      dup5\n        /* \"#utility.yul\":10586:10590   */\n      dup5\n        /* \"#utility.yul\":10542:10607   */\n      tag_81\n      jump\t// in\n    tag_197:\n        /* \"#utility.yul\":10477:10613   */\n      pop\n        /* \"#utility.yul\":10424:10613   */\n      pop\n      pop\n      jump\t// out\n        /* \"#utility.yul\":10619:10805   */\n    tag_84:\n        /* \"#utility.yul\":10679:10799   */\n    tag_199:\n        /* \"#utility.yul\":10696:10699   */\n      dup2\n        /* \"#utility.yul\":10689:10694   */\n      dup2\n        /* \"#utility.yul\":10686:10700   */\n      lt\n        /* \"#utility.yul\":10679:10799   */\n      iszero\n      tag_201\n      jumpi\n        /* \"#utility.yul\":10750:10789   */\n      tag_202\n        /* \"#utility.yul\":10787:10788   */\n      0x00\n        /* \"#utility.yul\":10780:10785   */\n      dup3\n        /* \"#utility.yul\":10750:10789   */\n      tag_83\n      jump\t// in\n    tag_202:\n        /* \"#utility.yul\":10723:10724   */\n      0x01\n        /* \"#utility.yul\":10716:10721   */\n      dup2\n        /* \"#utility.yul\":10712:10725   */\n      add\n        /* \"#utility.yul\":10703:10725   */\n      swap1\n      pop\n        /* \"#utility.yul\":10679:10799   */\n      jump(tag_199)\n    tag_201:\n        /* \"#utility.yul\":10619:10805   */\n      pop\n      pop\n      jump\t// out\n        /* \"#utility.yul\":10811:11354   */\n    tag_85:\n        /* \"#utility.yul\":10912:10914   */\n      0x1f\n        /* \"#utility.yul\":10907:10910   */\n      dup3\n        /* \"#utility.yul\":10904:10915   */\n      gt\n        /* \"#utility.yul\":10901:11347   */\n      iszero\n      tag_204\n      jumpi\n        /* \"#utility.yul\":10946:10984   */\n      tag_205\n        /* \"#utility.yul\":10978:10983   */\n      dup2\n        /* \"#utility.yul\":10946:10984   */\n      tag_73\n      jump\t// in\n    tag_205:\n        /* \"#utility.yul\":11030:11059   */\n      tag_206\n        /* \"#utility.yul\":11048:11058   */\n      dup5\n        /* \"#utility.yul\":11030:11059   */\n      tag_74\n      jump\t// in\n    tag_206:\n        /* \"#utility.yul\":11020:11028   */\n      dup2\n        /* \"#utility.yul\":11016:11060   */\n      add\n        /* \"#utility.yul\":11213:11215   */\n      0x20\n        /* \"#utility.yul\":11201:11211   */\n      dup6\n        /* \"#utility.yul\":11198:11216   */\n      lt\n        /* \"#utility.yul\":11195:11244   */\n      iszero\n      tag_207\n      jumpi\n        /* \"#utility.yul\":11234:11242   */\n      dup2\n        /* \"#utility.yul\":11219:11242   */\n      swap1\n      pop\n        /* \"#utility.yul\":11195:11244   */\n    tag_207:\n        /* \"#utility.yul\":11257:11337   */\n      tag_208\n        /* \"#utility.yul\":11313:11335   */\n      tag_209\n        /* \"#utility.yul\":11331:11334   */\n      dup6\n        /* \"#utility.yul\":11313:11335   */\n      tag_74\n      jump\t// in\n    tag_209:\n        /* \"#utility.yul\":11303:11311   */\n      dup4\n        /* \"#utility.yul\":11299:11336   */\n      add\n        /* \"#utility.yul\":11286:11297   */\n      dup3\n        /* \"#utility.yul\":11257:11337   */\n      tag_84\n      jump\t// in\n    tag_208:\n        /* \"#utility.yul\":10916:11347   */\n      pop\n      pop\n        /* \"#utility.yul\":10901:11347   */\n    tag_204:\n        /* \"#utility.yul\":10811:11354   */\n      pop\n      pop\n      pop\n      jump\t// out\n        /* \"#utility.yul\":11360:11477   */\n    tag_86:\n        /* \"#utility.yul\":11414:11422   */\n      0x00\n        /* \"#utility.yul\":11464:11469   */\n      dup3\n        /* \"#utility.yul\":11458:11462   */\n      dup3\n        /* \"#utility.yul\":11454:11470   */\n      shr\n        /* \"#utility.yul\":11433:11470   */\n      swap1\n      pop\n        /* \"#utility.yul\":11360:11477   */\n      swap3\n      swap2\n      pop\n      pop\n      jump\t// out\n        /* \"#utility.yul\":11483:11652   */\n    tag_87:\n        /* \"#utility.yul\":11527:11533   */\n      0x00\n        /* \"#utility.yul\":11560:11611   */\n      tag_212\n        /* \"#utility.yul\":11608:11609   */\n      0x00\n        /* \"#utility.yul\":11604:11610   */\n      not\n        /* \"#utility.yul\":11596:11601   */\n      dup5\n        /* \"#utility.yul\":11593:11594   */\n      0x08\n        /* \"#utility.yul\":11589:11602   */\n      mul\n        /* \"#utility.yul\":11560:11611   */\n      tag_86\n      jump\t// in\n    tag_212:\n        /* \"#utility.yul\":11556:11612   */\n      not\n        /* \"#utility.yul\":11641:11645   */\n      dup1\n        /* \"#utility.yul\":11635:11639   */\n      dup4\n        /* \"#utility.yul\":11631:11646   */\n      and\n        /* \"#utility.yul\":11621:11646   */\n      swap2\n      pop\n        /* \"#utility.yul\":11534:11652   */\n      pop\n        /* \"#utility.yul\":11483:11652   */\n      swap3\n      swap2\n      pop\n      pop\n      jump\t// out\n        /* \"#utility.yul\":11657:11952   */\n    tag_88:\n        /* \"#utility.yul\":11733:11737   */\n      0x00\n        /* \"#utility.yul\":11879:11908   */\n      tag_214\n        /* \"#utility.yul\":11904:11907   */\n      dup4\n        /* \"#utility.yul\":11898:11902   */\n      dup4\n        /* \"#utility.yul\":11879:11908   */\n      tag_87\n      jump\t// in\n    tag_214:\n        /* \"#utility.yul\":11871:11908   */\n      swap2\n      pop\n        /* \"#utility.yul\":11941:11944   */\n      dup3\n        /* \"#utility.yul\":11938:11939   */\n      0x02\n        /* \"#utility.yul\":11934:11945   */\n      mul\n        /* \"#utility.yul\":11928:11932   */\n      dup3\n        /* \"#utility.yul\":11925:11946   */\n      or\n        /* \"#utility.yul\":11917:11946   */\n      swap1\n      pop\n        /* \"#utility.yul\":11657:11952   */\n      swap3\n      swap2\n      pop\n      pop\n      jump\t// out\n        /* \"#utility.yul\":11957:13352   */\n    tag_39:\n        /* \"#utility.yul\":12074:12111   */\n      tag_216\n        /* \"#utility.yul\":12107:12110   */\n      dup3\n        /* \"#utility.yul\":12074:12111   */\n      tag_64\n      jump\t// in\n    tag_216:\n        /* \"#utility.yul\":12176:12194   */\n      0xffffffffffffffff\n        /* \"#utility.yul\":12168:12174   */\n      dup2\n        /* \"#utility.yul\":12165:12195   */\n      gt\n        /* \"#utility.yul\":12162:12218   */\n      iszero\n      tag_217\n      jumpi\n        /* \"#utility.yul\":12198:12216   */\n      tag_218\n      tag_52\n      jump\t// in\n    tag_218:\n        /* \"#utility.yul\":12162:12218   */\n    tag_217:\n        /* \"#utility.yul\":12242:12280   */\n      tag_219\n        /* \"#utility.yul\":12274:12278   */\n      dup3\n        /* \"#utility.yul\":12268:12279   */\n      sload\n        /* \"#utility.yul\":12242:12280   */\n      tag_72\n      jump\t// in\n    tag_219:\n        /* \"#utility.yul\":12327:12394   */\n      tag_220\n        /* \"#utility.yul\":12387:12393   */\n      dup3\n        /* \"#utility.yul\":12379:12385   */\n      dup3\n        /* \"#utility.yul\":12373:12377   */\n      dup6\n        /* \"#utility.yul\":12327:12394   */\n      tag_85\n      jump\t// in\n    tag_220:\n        /* \"#utility.yul\":12421:12422   */\n      0x00\n        /* \"#utility.yul\":12445:12449   */\n      0x20\n        /* \"#utility.yul\":12432:12449   */\n      swap1\n      pop\n        /* \"#utility.yul\":12477:12479   */\n      0x1f\n        /* \"#utility.yul\":12469:12475   */\n      dup4\n        /* \"#utility.yul\":12466:12480   */\n      gt\n        /* \"#utility.yul\":12494:12495   */\n      0x01\n        /* \"#utility.yul\":12489:13107   */\n      dup2\n      eq\n      tag_222\n      jumpi\n        /* \"#utility.yul\":13151:13152   */\n      0x00\n        /* \"#utility.yul\":13168:13174   */\n      dup5\n        /* \"#utility.yul\":13165:13242   */\n      iszero\n      tag_223\n      jumpi\n        /* \"#utility.yul\":13217:13226   */\n      dup3\n        /* \"#utility.yul\":13212:13215   */\n      dup8\n        /* \"#utility.yul\":13208:13227   */\n      add\n        /* \"#utility.yul\":13202:13228   */\n      mload\n        /* \"#utility.yul\":13193:13228   */\n      swap1\n      pop\n        /* \"#utility.yul\":13165:13242   */\n    tag_223:\n        /* \"#utility.yul\":13268:13335   */\n      tag_224\n        /* \"#utility.yul\":13328:13334   */\n      dup6\n        /* \"#utility.yul\":13321:13326   */\n      dup3\n        /* \"#utility.yul\":13268:13335   */\n      tag_88\n      jump\t// in\n    tag_224:\n        /* \"#utility.yul\":13262:13266   */\n      dup7\n        /* \"#utility.yul\":13255:13336   */\n      sstore\n        /* \"#utility.yul\":13124:13346   */\n      pop\n        /* \"#utility.yul\":12459:13346   */\n      jump(tag_221)\n        /* \"#utility.yul\":12489:13107   */\n    tag_222:\n        /* \"#utility.yul\":12541:12545   */\n      0x1f\n        /* \"#utility.yul\":12537:12546   */\n      not\n        /* \"#utility.yul\":12529:12535   */\n      dup5\n        /* \"#utility.yul\":12525:12547   */\n      and\n        /* \"#utility.yul\":12575:12612   */\n      tag_225\n        /* \"#utility.yul\":12607:12611   */\n      dup7\n        /* \"#utility.yul\":12575:12612   */\n      tag_73\n      jump\t// in\n    tag_225:\n        /* \"#utility.yul\":12634:12635   */\n      0x00\n        /* \"#utility.yul\":12648:12856   */\n    tag_226:\n        /* \"#utility.yul\":12662:12669   */\n      dup3\n        /* \"#utility.yul\":12659:12660   */\n      dup2\n        /* \"#utility.yul\":12656:12670   */\n      lt\n        /* \"#utility.yul\":12648:12856   */\n      iszero\n      tag_228\n      jumpi\n        /* \"#utility.yul\":12741:12750   */\n      dup5\n        /* \"#utility.yul\":12736:12739   */\n      dup10\n        /* \"#utility.yul\":12732:12751   */\n      add\n        /* \"#utility.yul\":12726:12752   */\n      mload\n        /* \"#utility.yul\":12718:12724   */\n      dup3\n        /* \"#utility.yul\":12711:12753   */\n      sstore\n        /* \"#utility.yul\":12792:12793   */\n      0x01\n        /* \"#utility.yul\":12784:12790   */\n      dup3\n        /* \"#utility.yul\":12780:12794   */\n      add\n        /* \"#utility.yul\":12770:12794   */\n      swap2\n      pop\n        /* \"#utility.yul\":12839:12841   */\n      0x20\n        /* \"#utility.yul\":12828:12837   */\n      dup6\n        /* \"#utility.yul\":12824:12842   */\n      add\n        /* \"#utility.yul\":12811:12842   */\n      swap5\n      pop\n        /* \"#utility.yul\":12685:12689   */\n      0x20\n        /* \"#utility.yul\":12682:12683   */\n      dup2\n        /* \"#utility.yul\":12678:12690   */\n      add\n        /* \"#utility.yul\":12673:12690   */\n      swap1\n      pop\n        /* \"#utility.yul\":12648:12856   */\n      jump(tag_226)\n    tag_228:\n        /* \"#utility.yul\":12884:12890   */\n      dup7\n        /* \"#utility.yul\":12875:12882   */\n      dup4\n        /* \"#utility.yul\":12872:12891   */\n      lt\n        /* \"#utility.yul\":12869:13048   */\n      iszero\n      tag_229\n      jumpi\n        /* \"#utility.yul\":12942:12951   */\n      dup5\n        /* \"#utility.yul\":12937:12940   */\n      dup10\n        /* \"#utility.yul\":12933:12952   */\n      add\n        /* \"#utility.yul\":12927:12953   */\n      mload\n        /* \"#utility.yul\":12985:13033   */\n      tag_230\n        /* \"#utility.yul\":13027:13031   */\n      0x1f\n        /* \"#utility.yul\":13019:13025   */\n      dup10\n        /* \"#utility.yul\":13015:13032   */\n      and\n        /* \"#utility.yul\":13004:13013   */\n      dup3\n        /* \"#utility.yul\":12985:13033   */\n      tag_87\n      jump\t// in\n    tag_230:\n        /* \"#utility.yul\":12977:12983   */\n      dup4\n        /* \"#utility.yul\":12970:13034   */\n      sstore\n        /* \"#utility.yul\":12892:13048   */\n      pop\n        /* \"#utility.yul\":12869:13048   */\n    tag_229:\n        /* \"#utility.yul\":13094:13095   */\n      0x01\n        /* \"#utility.yul\":13090:13091   */\n      0x02\n        /* \"#utility.yul\":13082:13088   */\n      dup9\n        /* \"#utility.yul\":13078:13092   */\n      mul\n        /* \"#utility.yul\":13074:13096   */\n      add\n        /* \"#utility.yul\":13068:13072   */\n      dup9\n        /* \"#utility.yul\":13061:13097   */\n      sstore\n        /* \"#utility.yul\":12496:13107   */\n      pop\n      pop\n      pop\n        /* \"#utility.yul\":12459:13346   */\n    tag_221:\n      pop\n        /* \"#utility.yul\":12049:13352   */\n      pop\n      pop\n      pop\n        /* \"#utility.yul\":11957:13352   */\n      pop\n      pop\n      jump\t// out\n\n    auxdata: 0xa2646970667358221220655ff794df3c546d6eed63c164ab214889cf1705b541ec15f74c85250b12f13e64736f6c634300081a0033\n}\n",
				"bytecode": {
					"linkReferences": {},
					"object": "6080604052348015600f57600080fd5b50610d648061001f6000396000f3fe608060405234801561001057600080fd5b50600436106100415760003560e01c80634513b2a71461004657806357834a1d1461006257806393e4ee8e14610092575b600080fd5b610060600480360381019061005b9190610789565b6100ae565b005b61007c60048036038101906100779190610789565b610324565b6040516100899190610813565b60405180910390f35b6100ac60048036038101906100a79190610789565b6103d7565b005b82338073ffffffffffffffffffffffffffffffffffffffff168273ffffffffffffffffffffffffffffffffffffffff161461011e576040517f08c379a0000000000000000000000000000000000000000000000000000000008152600401610115906108b1565b60405180910390fd5b6000808673ffffffffffffffffffffffffffffffffffffffff1673ffffffffffffffffffffffffffffffffffffffff1681526020019081526020016000208460405161016a9190610942565b908152602001604051809103902060010160008473ffffffffffffffffffffffffffffffffffffffff1673ffffffffffffffffffffffffffffffffffffffff16815260200190815260200160002060009054906101000a900460ff16610205576040517f08c379a00000000000000000000000000000000000000000000000000000000081526004016101fc906109cb565b60405180910390fd5b60008060008773ffffffffffffffffffffffffffffffffffffffff1673ffffffffffffffffffffffffffffffffffffffff168152602001908152602001600020856040516102539190610942565b908152602001604051809103902060010160008573ffffffffffffffffffffffffffffffffffffffff1673ffffffffffffffffffffffffffffffffffffffff16815260200190815260200160002060006101000a81548160ff0219169083151502179055508273ffffffffffffffffffffffffffffffffffffffff168573ffffffffffffffffffffffffffffffffffffffff167f0a2382b7b0f44ee62df753c00034038c109332bf9b8f52418af74aa2859780fb866040516103159190610a24565b60405180910390a35050505050565b60008060008573ffffffffffffffffffffffffffffffffffffffff1673ffffffffffffffffffffffffffffffffffffffff168152602001908152602001600020836040516103729190610942565b908152602001604051809103902060010160008373ffffffffffffffffffffffffffffffffffffffff1673ffffffffffffffffffffffffffffffffffffffff16815260200190815260200160002060009054906101000a900460ff1690509392505050565b82338073ffffffffffffffffffffffffffffffffffffffff168273ffffffffffffffffffffffffffffffffffffffff1614610447576040517f08c379a000000000000000000000000000000000000000000000000000000000815260040161043e906108b1565b60405180910390fd5b836000808773ffffffffffffffffffffffffffffffffffffffff1673ffffffffffffffffffffffffffffffffffffffff168152602001908152602001600020856040516104949190610942565b908152602001604051809103902060000190816104b19190610c5c565b5060016000808773ffffffffffffffffffffffffffffffffffffffff1673ffffffffffffffffffffffffffffffffffffffff168152602001908152602001600020856040516105009190610942565b908152602001604051809103902060010160008573ffffffffffffffffffffffffffffffffffffffff1673ffffffffffffffffffffffffffffffffffffffff16815260200190815260200160002060006101000a81548160ff0219169083151502179055508273ffffffffffffffffffffffffffffffffffffffff168573ffffffffffffffffffffffffffffffffffffffff167fc7e5c007251689b9bc3cb624f55714afc5988f3e3b4e20cc6a606d7bad6faeca866040516105c29190610a24565b60405180910390a35050505050565b6000604051905090565b600080fd5b600080fd5b600073ffffffffffffffffffffffffffffffffffffffff82169050919050565b6000610610826105e5565b9050919050565b61062081610605565b811461062b57600080fd5b50565b60008135905061063d81610617565b92915050565b600080fd5b600080fd5b6000601f19601f8301169050919050565b7f4e487b7100000000000000000000000000000000000000000000000000000000600052604160045260246000fd5b6106968261064d565b810181811067ffffffffffffffff821117156106b5576106b461065e565b5b80604052505050565b60006106c86105d1565b90506106d4828261068d565b919050565b600067ffffffffffffffff8211156106f4576106f361065e565b5b6106fd8261064d565b9050602081019050919050565b82818337600083830152505050565b600061072c610727846106d9565b6106be565b90508281526020810184848401111561074857610747610648565b5b61075384828561070a565b509392505050565b600082601f8301126107705761076f610643565b5b8135610780848260208601610719565b91505092915050565b6000806000606084860312156107a2576107a16105db565b5b60006107b08682870161062e565b935050602084013567ffffffffffffffff8111156107d1576107d06105e0565b5b6107dd8682870161075b565b92505060406107ee8682870161062e565b9150509250925092565b60008115159050919050565b61080d816107f8565b82525050565b60006020820190506108286000830184610804565b92915050565b600082825260208201905092915050565b7f4f6e6c79207468652070617469656e742063616e20706572666f726d2074686960008201527f7320616374696f6e2e0000000000000000000000000000000000000000000000602082015250565b600061089b60298361082e565b91506108a68261083f565b604082019050919050565b600060208201905081810360008301526108ca8161088e565b9050919050565b600081519050919050565b600081905092915050565b60005b838110156109055780820151818401526020810190506108ea565b60008484015250505050565b600061091c826108d1565b61092681856108dc565b93506109368185602086016108e7565b80840191505092915050565b600061094e8284610911565b915081905092915050565b7f4c6520646f6374657572206e276120706173206427616363657320612063652060008201527f646f73736965722e000000000000000000000000000000000000000000000000602082015250565b60006109b560288361082e565b91506109c082610959565b604082019050919050565b600060208201905081810360008301526109e4816109a8565b9050919050565b60006109f6826108d1565b610a00818561082e565b9350610a108185602086016108e7565b610a198161064d565b840191505092915050565b60006020820190508181036000830152610a3e81846109eb565b905092915050565b7f4e487b7100000000000000000000000000000000000000000000000000000000600052602260045260246000fd5b60006002820490506001821680610a8d57607f821691505b602082108103610aa057610a9f610a46565b5b50919050565b60008190508160005260206000209050919050565b60006020601f8301049050919050565b600082821b905092915050565b600060088302610b087fffffffffffffffffffffffffffffffffffffffffffffffffffffffffffffffff82610acb565b610b128683610acb565b95508019841693508086168417925050509392505050565b6000819050919050565b6000819050919050565b6000610b59610b54610b4f84610b2a565b610b34565b610b2a565b9050919050565b6000819050919050565b610b7383610b3e565b610b87610b7f82610b60565b848454610ad8565b825550505050565b600090565b610b9c610b8f565b610ba7818484610b6a565b505050565b5b81811015610bcb57610bc0600082610b94565b600181019050610bad565b5050565b601f821115610c1057610be181610aa6565b610bea84610abb565b81016020851015610bf9578190505b610c0d610c0585610abb565b830182610bac565b50505b505050565b600082821c905092915050565b6000610c3360001984600802610c15565b1980831691505092915050565b6000610c4c8383610c22565b9150826002028217905092915050565b610c65826108d1565b67ffffffffffffffff811115610c7e57610c7d61065e565b5b610c888254610a75565b610c93828285610bcf565b600060209050601f831160018114610cc65760008415610cb4578287015190505b610cbe8582610c40565b865550610d26565b601f198416610cd486610aa6565b60005b82811015610cfc57848901518255600182019150602085019450602081019050610cd7565b86831015610d195784890151610d15601f891682610c22565b8355505b6001600288020188555050505b50505050505056fea2646970667358221220655ff794df3c546d6eed63c164ab214889cf1705b541ec15f74c85250b12f13e64736f6c634300081a0033",
					"opcodes": "PUSH1 0x80 PUSH1 0x40 MSTORE CALLVALUE DUP1 ISZERO PUSH1 0xF JUMPI PUSH1 0x0 DUP1 REVERT JUMPDEST POP PUSH2 0xD64 DUP1 PUSH2 0x1F PUSH1 0x0 CODECOPY PUSH1 0x0 RETURN INVALID PUSH1 0x80 PUSH1 0x40 MSTORE CALLVALUE DUP1 ISZERO PUSH2 0x10 JUMPI PUSH1 0x0 DUP1 REVERT JUMPDEST POP PUSH1 0x4 CALLDATASIZE LT PUSH2 0x41 JUMPI PUSH1 0x0 CALLDATALOAD PUSH1 0xE0 SHR DUP1 PUSH4 0x4513B2A7 EQ PUSH2 0x46 JUMPI DUP1 PUSH4 0x57834A1D EQ PUSH2 0x62 JUMPI DUP1 PUSH4 0x93E4EE8E EQ PUSH2 0x92 JUMPI JUMPDEST PUSH1 0x0 DUP1 REVERT JUMPDEST PUSH2 0x60 PUSH1 0x4 DUP1 CALLDATASIZE SUB DUP2 ADD SWAP1 PUSH2 0x5B SWAP2 SWAP1 PUSH2 0x789 JUMP JUMPDEST PUSH2 0xAE JUMP JUMPDEST STOP JUMPDEST PUSH2 0x7C PUSH1 0x4 DUP1 CALLDATASIZE SUB DUP2 ADD SWAP1 PUSH2 0x77 SWAP2 SWAP1 PUSH2 0x789 JUMP JUMPDEST PUSH2 0x324 JUMP JUMPDEST PUSH1 0x40 MLOAD PUSH2 0x89 SWAP2 SWAP1 PUSH2 0x813 JUMP JUMPDEST PUSH1 0x40 MLOAD DUP1 SWAP2 SUB SWAP1 RETURN JUMPDEST PUSH2 0xAC PUSH1 0x4 DUP1 CALLDATASIZE SUB DUP2 ADD SWAP1 PUSH2 0xA7 SWAP2 SWAP1 PUSH2 0x789 JUMP JUMPDEST PUSH2 0x3D7 JUMP JUMPDEST STOP JUMPDEST DUP3 CALLER DUP1 PUSH20 0xFFFFFFFFFFFFFFFFFFFFFFFFFFFFFFFFFFFFFFFF AND DUP3 PUSH20 0xFFFFFFFFFFFFFFFFFFFFFFFFFFFFFFFFFFFFFFFF AND EQ PUSH2 0x11E JUMPI PUSH1 0x40 MLOAD PUSH32 0x8C379A000000000000000000000000000000000000000000000000000000000 DUP2 MSTORE PUSH1 0x4 ADD PUSH2 0x115 SWAP1 PUSH2 0x8B1 JUMP JUMPDEST PUSH1 0x40 MLOAD DUP1 SWAP2 SUB SWAP1 REVERT JUMPDEST PUSH1 0x0 DUP1 DUP7 PUSH20 0xFFFFFFFFFFFFFFFFFFFFFFFFFFFFFFFFFFFFFFFF AND PUSH20 0xFFFFFFFFFFFFFFFFFFFFFFFFFFFFFFFFFFFFFFFF AND DUP2 MSTORE PUSH1 0x20 ADD SWAP1 DUP2 MSTORE PUSH1 0x20 ADD PUSH1 0x0 KECCAK256 DUP5 PUSH1 0x40 MLOAD PUSH2 0x16A SWAP2 SWAP1 PUSH2 0x942 JUMP JUMPDEST SWAP1 DUP2 MSTORE PUSH1 0x20 ADD PUSH1 0x40 MLOAD DUP1 SWAP2 SUB SWAP1 KECCAK256 PUSH1 0x1 ADD PUSH1 0x0 DUP5 PUSH20 0xFFFFFFFFFFFFFFFFFFFFFFFFFFFFFFFFFFFFFFFF AND PUSH20 0xFFFFFFFFFFFFFFFFFFFFFFFFFFFFFFFFFFFFFFFF AND DUP2 MSTORE PUSH1 0x20 ADD SWAP1 DUP2 MSTORE PUSH1 0x20 ADD PUSH1 0x0 KECCAK256 PUSH1 0x0 SWAP1 SLOAD SWAP1 PUSH2 0x100 EXP SWAP1 DIV PUSH1 0xFF AND PUSH2 0x205 JUMPI PUSH1 0x40 MLOAD PUSH32 0x8C379A000000000000000000000000000000000000000000000000000000000 DUP2 MSTORE PUSH1 0x4 ADD PUSH2 0x1FC SWAP1 PUSH2 0x9CB JUMP JUMPDEST PUSH1 0x40 MLOAD DUP1 SWAP2 SUB SWAP1 REVERT JUMPDEST PUSH1 0x0 DUP1 PUSH1 0x0 DUP8 PUSH20 0xFFFFFFFFFFFFFFFFFFFFFFFFFFFFFFFFFFFFFFFF AND PUSH20 0xFFFFFFFFFFFFFFFFFFFFFFFFFFFFFFFFFFFFFFFF AND DUP2 MSTORE PUSH1 0x20 ADD SWAP1 DUP2 MSTORE PUSH1 0x20 ADD PUSH1 0x0 KECCAK256 DUP6 PUSH1 0x40 MLOAD PUSH2 0x253 SWAP2 SWAP1 PUSH2 0x942 JUMP JUMPDEST SWAP1 DUP2 MSTORE PUSH1 0x20 ADD PUSH1 0x40 MLOAD DUP1 SWAP2 SUB SWAP1 KECCAK256 PUSH1 0x1 ADD PUSH1 0x0 DUP6 PUSH20 0xFFFFFFFFFFFFFFFFFFFFFFFFFFFFFFFFFFFFFFFF AND PUSH20 0xFFFFFFFFFFFFFFFFFFFFFFFFFFFFFFFFFFFFFFFF AND DUP2 MSTORE PUSH1 0x20 ADD SWAP1 DUP2 MSTORE PUSH1 0x20 ADD PUSH1 0x0 KECCAK256 PUSH1 0x0 PUSH2 0x100 EXP DUP2 SLOAD DUP2 PUSH1 0xFF MUL NOT AND SWAP1 DUP4 ISZERO ISZERO MUL OR SWAP1 SSTORE POP DUP3 PUSH20 0xFFFFFFFFFFFFFFFFFFFFFFFFFFFFFFFFFFFFFFFF AND DUP6 PUSH20 0xFFFFFFFFFFFFFFFFFFFFFFFFFFFFFFFFFFFFFFFF AND PUSH32 0xA2382B7B0F44EE62DF753C00034038C109332BF9B8F52418AF74AA2859780FB DUP7 PUSH1 0x40 MLOAD PUSH2 0x315 SWAP2 SWAP1 PUSH2 0xA24 JUMP JUMPDEST PUSH1 0x40 MLOAD DUP1 SWAP2 SUB SWAP1 LOG3 POP POP POP POP POP JUMP JUMPDEST PUSH1 0x0 DUP1 PUSH1 0x0 DUP6 PUSH20 0xFFFFFFFFFFFFFFFFFFFFFFFFFFFFFFFFFFFFFFFF AND PUSH20 0xFFFFFFFFFFFFFFFFFFFFFFFFFFFFFFFFFFFFFFFF AND DUP2 MSTORE PUSH1 0x20 ADD SWAP1 DUP2 MSTORE PUSH1 0x20 ADD PUSH1 0x0 KECCAK256 DUP4 PUSH1 0x40 MLOAD PUSH2 0x372 SWAP2 SWAP1 PUSH2 0x942 JUMP JUMPDEST SWAP1 DUP2 MSTORE PUSH1 0x20 ADD PUSH1 0x40 MLOAD DUP1 SWAP2 SUB SWAP1 KECCAK256 PUSH1 0x1 ADD PUSH1 0x0 DUP4 PUSH20 0xFFFFFFFFFFFFFFFFFFFFFFFFFFFFFFFFFFFFFFFF AND PUSH20 0xFFFFFFFFFFFFFFFFFFFFFFFFFFFFFFFFFFFFFFFF AND DUP2 MSTORE PUSH1 0x20 ADD SWAP1 DUP2 MSTORE PUSH1 0x20 ADD PUSH1 0x0 KECCAK256 PUSH1 0x0 SWAP1 SLOAD SWAP1 PUSH2 0x100 EXP SWAP1 DIV PUSH1 0xFF AND SWAP1 POP SWAP4 SWAP3 POP POP POP JUMP JUMPDEST DUP3 CALLER DUP1 PUSH20 0xFFFFFFFFFFFFFFFFFFFFFFFFFFFFFFFFFFFFFFFF AND DUP3 PUSH20 0xFFFFFFFFFFFFFFFFFFFFFFFFFFFFFFFFFFFFFFFF AND EQ PUSH2 0x447 JUMPI PUSH1 0x40 MLOAD PUSH32 0x8C379A000000000000000000000000000000000000000000000000000000000 DUP2 MSTORE PUSH1 0x4 ADD PUSH2 0x43E SWAP1 PUSH2 0x8B1 JUMP JUMPDEST PUSH1 0x40 MLOAD DUP1 SWAP2 SUB SWAP1 REVERT JUMPDEST DUP4 PUSH1 0x0 DUP1 DUP8 PUSH20 0xFFFFFFFFFFFFFFFFFFFFFFFFFFFFFFFFFFFFFFFF AND PUSH20 0xFFFFFFFFFFFFFFFFFFFFFFFFFFFFFFFFFFFFFFFF AND DUP2 MSTORE PUSH1 0x20 ADD SWAP1 DUP2 MSTORE PUSH1 0x20 ADD PUSH1 0x0 KECCAK256 DUP6 PUSH1 0x40 MLOAD PUSH2 0x494 SWAP2 SWAP1 PUSH2 0x942 JUMP JUMPDEST SWAP1 DUP2 MSTORE PUSH1 0x20 ADD PUSH1 0x40 MLOAD DUP1 SWAP2 SUB SWAP1 KECCAK256 PUSH1 0x0 ADD SWAP1 DUP2 PUSH2 0x4B1 SWAP2 SWAP1 PUSH2 0xC5C JUMP JUMPDEST POP PUSH1 0x1 PUSH1 0x0 DUP1 DUP8 PUSH20 0xFFFFFFFFFFFFFFFFFFFFFFFFFFFFFFFFFFFFFFFF AND PUSH20 0xFFFFFFFFFFFFFFFFFFFFFFFFFFFFFFFFFFFFFFFF AND DUP2 MSTORE PUSH1 0x20 ADD SWAP1 DUP2 MSTORE PUSH1 0x20 ADD PUSH1 0x0 KECCAK256 DUP6 PUSH1 0x40 MLOAD PUSH2 0x500 SWAP2 SWAP1 PUSH2 0x942 JUMP JUMPDEST SWAP1 DUP2 MSTORE PUSH1 0x20 ADD PUSH1 0x40 MLOAD DUP1 SWAP2 SUB SWAP1 KECCAK256 PUSH1 0x1 ADD PUSH1 0x0 DUP6 PUSH20 0xFFFFFFFFFFFFFFFFFFFFFFFFFFFFFFFFFFFFFFFF AND PUSH20 0xFFFFFFFFFFFFFFFFFFFFFFFFFFFFFFFFFFFFFFFF AND DUP2 MSTORE PUSH1 0x20 ADD SWAP1 DUP2 MSTORE PUSH1 0x20 ADD PUSH1 0x0 KECCAK256 PUSH1 0x0 PUSH2 0x100 EXP DUP2 SLOAD DUP2 PUSH1 0xFF MUL NOT AND SWAP1 DUP4 ISZERO ISZERO MUL OR SWAP1 SSTORE POP DUP3 PUSH20 0xFFFFFFFFFFFFFFFFFFFFFFFFFFFFFFFFFFFFFFFF AND DUP6 PUSH20 0xFFFFFFFFFFFFFFFFFFFFFFFFFFFFFFFFFFFFFFFF AND PUSH32 0xC7E5C007251689B9BC3CB624F55714AFC5988F3E3B4E20CC6A606D7BAD6FAECA DUP7 PUSH1 0x40 MLOAD PUSH2 0x5C2 SWAP2 SWAP1 PUSH2 0xA24 JUMP JUMPDEST PUSH1 0x40 MLOAD DUP1 SWAP2 SUB SWAP1 LOG3 POP POP POP POP POP JUMP JUMPDEST PUSH1 0x0 PUSH1 0x40 MLOAD SWAP1 POP SWAP1 JUMP JUMPDEST PUSH1 0x0 DUP1 REVERT JUMPDEST PUSH1 0x0 DUP1 REVERT JUMPDEST PUSH1 0x0 PUSH20 0xFFFFFFFFFFFFFFFFFFFFFFFFFFFFFFFFFFFFFFFF DUP3 AND SWAP1 POP SWAP2 SWAP1 POP JUMP JUMPDEST PUSH1 0x0 PUSH2 0x610 DUP3 PUSH2 0x5E5 JUMP JUMPDEST SWAP1 POP SWAP2 SWAP1 POP JUMP JUMPDEST PUSH2 0x620 DUP2 PUSH2 0x605 JUMP JUMPDEST DUP2 EQ PUSH2 0x62B JUMPI PUSH1 0x0 DUP1 REVERT JUMPDEST POP JUMP JUMPDEST PUSH1 0x0 DUP2 CALLDATALOAD SWAP1 POP PUSH2 0x63D DUP2 PUSH2 0x617 JUMP JUMPDEST SWAP3 SWAP2 POP POP JUMP JUMPDEST PUSH1 0x0 DUP1 REVERT JUMPDEST PUSH1 0x0 DUP1 REVERT JUMPDEST PUSH1 0x0 PUSH1 0x1F NOT PUSH1 0x1F DUP4 ADD AND SWAP1 POP SWAP2 SWAP1 POP JUMP JUMPDEST PUSH32 0x4E487B7100000000000000000000000000000000000000000000000000000000 PUSH1 0x0 MSTORE PUSH1 0x41 PUSH1 0x4 MSTORE PUSH1 0x24 PUSH1 0x0 REVERT JUMPDEST PUSH2 0x696 DUP3 PUSH2 0x64D JUMP JUMPDEST DUP2 ADD DUP2 DUP2 LT PUSH8 0xFFFFFFFFFFFFFFFF DUP3 GT OR ISZERO PUSH2 0x6B5 JUMPI PUSH2 0x6B4 PUSH2 0x65E JUMP JUMPDEST JUMPDEST DUP1 PUSH1 0x40 MSTORE POP POP POP JUMP JUMPDEST PUSH1 0x0 PUSH2 0x6C8 PUSH2 0x5D1 JUMP JUMPDEST SWAP1 POP PUSH2 0x6D4 DUP3 DUP3 PUSH2 0x68D JUMP JUMPDEST SWAP2 SWAP1 POP JUMP JUMPDEST PUSH1 0x0 PUSH8 0xFFFFFFFFFFFFFFFF DUP3 GT ISZERO PUSH2 0x6F4 JUMPI PUSH2 0x6F3 PUSH2 0x65E JUMP JUMPDEST JUMPDEST PUSH2 0x6FD DUP3 PUSH2 0x64D JUMP JUMPDEST SWAP1 POP PUSH1 0x20 DUP2 ADD SWAP1 POP SWAP2 SWAP1 POP JUMP JUMPDEST DUP3 DUP2 DUP4 CALLDATACOPY PUSH1 0x0 DUP4 DUP4 ADD MSTORE POP POP POP JUMP JUMPDEST PUSH1 0x0 PUSH2 0x72C PUSH2 0x727 DUP5 PUSH2 0x6D9 JUMP JUMPDEST PUSH2 0x6BE JUMP JUMPDEST SWAP1 POP DUP3 DUP2 MSTORE PUSH1 0x20 DUP2 ADD DUP5 DUP5 DUP5 ADD GT ISZERO PUSH2 0x748 JUMPI PUSH2 0x747 PUSH2 0x648 JUMP JUMPDEST JUMPDEST PUSH2 0x753 DUP5 DUP3 DUP6 PUSH2 0x70A JUMP JUMPDEST POP SWAP4 SWAP3 POP POP POP JUMP JUMPDEST PUSH1 0x0 DUP3 PUSH1 0x1F DUP4 ADD SLT PUSH2 0x770 JUMPI PUSH2 0x76F PUSH2 0x643 JUMP JUMPDEST JUMPDEST DUP2 CALLDATALOAD PUSH2 0x780 DUP5 DUP3 PUSH1 0x20 DUP7 ADD PUSH2 0x719 JUMP JUMPDEST SWAP2 POP POP SWAP3 SWAP2 POP POP JUMP JUMPDEST PUSH1 0x0 DUP1 PUSH1 0x0 PUSH1 0x60 DUP5 DUP7 SUB SLT ISZERO PUSH2 0x7A2 JUMPI PUSH2 0x7A1 PUSH2 0x5DB JUMP JUMPDEST JUMPDEST PUSH1 0x0 PUSH2 0x7B0 DUP7 DUP3 DUP8 ADD PUSH2 0x62E JUMP JUMPDEST SWAP4 POP POP PUSH1 0x20 DUP5 ADD CALLDATALOAD PUSH8 0xFFFFFFFFFFFFFFFF DUP2 GT ISZERO PUSH2 0x7D1 JUMPI PUSH2 0x7D0 PUSH2 0x5E0 JUMP JUMPDEST JUMPDEST PUSH2 0x7DD DUP7 DUP3 DUP8 ADD PUSH2 0x75B JUMP JUMPDEST SWAP3 POP POP PUSH1 0x40 PUSH2 0x7EE DUP7 DUP3 DUP8 ADD PUSH2 0x62E JUMP JUMPDEST SWAP2 POP POP SWAP3 POP SWAP3 POP SWAP3 JUMP JUMPDEST PUSH1 0x0 DUP2 ISZERO ISZERO SWAP1 POP SWAP2 SWAP1 POP JUMP JUMPDEST PUSH2 0x80D DUP2 PUSH2 0x7F8 JUMP JUMPDEST DUP3 MSTORE POP POP JUMP JUMPDEST PUSH1 0x0 PUSH1 0x20 DUP3 ADD SWAP1 POP PUSH2 0x828 PUSH1 0x0 DUP4 ADD DUP5 PUSH2 0x804 JUMP JUMPDEST SWAP3 SWAP2 POP POP JUMP JUMPDEST PUSH1 0x0 DUP3 DUP3 MSTORE PUSH1 0x20 DUP3 ADD SWAP1 POP SWAP3 SWAP2 POP POP JUMP JUMPDEST PUSH32 0x4F6E6C79207468652070617469656E742063616E20706572666F726D20746869 PUSH1 0x0 DUP3 ADD MSTORE PUSH32 0x7320616374696F6E2E0000000000000000000000000000000000000000000000 PUSH1 0x20 DUP3 ADD MSTORE POP JUMP JUMPDEST PUSH1 0x0 PUSH2 0x89B PUSH1 0x29 DUP4 PUSH2 0x82E JUMP JUMPDEST SWAP2 POP PUSH2 0x8A6 DUP3 PUSH2 0x83F JUMP JUMPDEST PUSH1 0x40 DUP3 ADD SWAP1 POP SWAP2 SWAP1 POP JUMP JUMPDEST PUSH1 0x0 PUSH1 0x20 DUP3 ADD SWAP1 POP DUP2 DUP2 SUB PUSH1 0x0 DUP4 ADD MSTORE PUSH2 0x8CA DUP2 PUSH2 0x88E JUMP JUMPDEST SWAP1 POP SWAP2 SWAP1 POP JUMP JUMPDEST PUSH1 0x0 DUP2 MLOAD SWAP1 POP SWAP2 SWAP1 POP JUMP JUMPDEST PUSH1 0x0 DUP2 SWAP1 POP SWAP3 SWAP2 POP POP JUMP JUMPDEST PUSH1 0x0 JUMPDEST DUP4 DUP2 LT ISZERO PUSH2 0x905 JUMPI DUP1 DUP3 ADD MLOAD DUP2 DUP5 ADD MSTORE PUSH1 0x20 DUP2 ADD SWAP1 POP PUSH2 0x8EA JUMP JUMPDEST PUSH1 0x0 DUP5 DUP5 ADD MSTORE POP POP POP POP JUMP JUMPDEST PUSH1 0x0 PUSH2 0x91C DUP3 PUSH2 0x8D1 JUMP JUMPDEST PUSH2 0x926 DUP2 DUP6 PUSH2 0x8DC JUMP JUMPDEST SWAP4 POP PUSH2 0x936 DUP2 DUP6 PUSH1 0x20 DUP7 ADD PUSH2 0x8E7 JUMP JUMPDEST DUP1 DUP5 ADD SWAP2 POP POP SWAP3 SWAP2 POP POP JUMP JUMPDEST PUSH1 0x0 PUSH2 0x94E DUP3 DUP5 PUSH2 0x911 JUMP JUMPDEST SWAP2 POP DUP2 SWAP1 POP SWAP3 SWAP2 POP POP JUMP JUMPDEST PUSH32 0x4C6520646F6374657572206E2761207061732064276163636573206120636520 PUSH1 0x0 DUP3 ADD MSTORE PUSH32 0x646F73736965722E000000000000000000000000000000000000000000000000 PUSH1 0x20 DUP3 ADD MSTORE POP JUMP JUMPDEST PUSH1 0x0 PUSH2 0x9B5 PUSH1 0x28 DUP4 PUSH2 0x82E JUMP JUMPDEST SWAP2 POP PUSH2 0x9C0 DUP3 PUSH2 0x959 JUMP JUMPDEST PUSH1 0x40 DUP3 ADD SWAP1 POP SWAP2 SWAP1 POP JUMP JUMPDEST PUSH1 0x0 PUSH1 0x20 DUP3 ADD SWAP1 POP DUP2 DUP2 SUB PUSH1 0x0 DUP4 ADD MSTORE PUSH2 0x9E4 DUP2 PUSH2 0x9A8 JUMP JUMPDEST SWAP1 POP SWAP2 SWAP1 POP JUMP JUMPDEST PUSH1 0x0 PUSH2 0x9F6 DUP3 PUSH2 0x8D1 JUMP JUMPDEST PUSH2 0xA00 DUP2 DUP6 PUSH2 0x82E JUMP JUMPDEST SWAP4 POP PUSH2 0xA10 DUP2 DUP6 PUSH1 0x20 DUP7 ADD PUSH2 0x8E7 JUMP JUMPDEST PUSH2 0xA19 DUP2 PUSH2 0x64D JUMP JUMPDEST DUP5 ADD SWAP2 POP POP SWAP3 SWAP2 POP POP JUMP JUMPDEST PUSH1 0x0 PUSH1 0x20 DUP3 ADD SWAP1 POP DUP2 DUP2 SUB PUSH1 0x0 DUP4 ADD MSTORE PUSH2 0xA3E DUP2 DUP5 PUSH2 0x9EB JUMP JUMPDEST SWAP1 POP SWAP3 SWAP2 POP POP JUMP JUMPDEST PUSH32 0x4E487B7100000000000000000000000000000000000000000000000000000000 PUSH1 0x0 MSTORE PUSH1 0x22 PUSH1 0x4 MSTORE PUSH1 0x24 PUSH1 0x0 REVERT JUMPDEST PUSH1 0x0 PUSH1 0x2 DUP3 DIV SWAP1 POP PUSH1 0x1 DUP3 AND DUP1 PUSH2 0xA8D JUMPI PUSH1 0x7F DUP3 AND SWAP2 POP JUMPDEST PUSH1 0x20 DUP3 LT DUP2 SUB PUSH2 0xAA0 JUMPI PUSH2 0xA9F PUSH2 0xA46 JUMP JUMPDEST JUMPDEST POP SWAP2 SWAP1 POP JUMP JUMPDEST PUSH1 0x0 DUP2 SWAP1 POP DUP2 PUSH1 0x0 MSTORE PUSH1 0x20 PUSH1 0x0 KECCAK256 SWAP1 POP SWAP2 SWAP1 POP JUMP JUMPDEST PUSH1 0x0 PUSH1 0x20 PUSH1 0x1F DUP4 ADD DIV SWAP1 POP SWAP2 SWAP1 POP JUMP JUMPDEST PUSH1 0x0 DUP3 DUP3 SHL SWAP1 POP SWAP3 SWAP2 POP POP JUMP JUMPDEST PUSH1 0x0 PUSH1 0x8 DUP4 MUL PUSH2 0xB08 PUSH32 0xFFFFFFFFFFFFFFFFFFFFFFFFFFFFFFFFFFFFFFFFFFFFFFFFFFFFFFFFFFFFFFFF DUP3 PUSH2 0xACB JUMP JUMPDEST PUSH2 0xB12 DUP7 DUP4 PUSH2 0xACB JUMP JUMPDEST SWAP6 POP DUP1 NOT DUP5 AND SWAP4 POP DUP1 DUP7 AND DUP5 OR SWAP3 POP POP POP SWAP4 SWAP3 POP POP POP JUMP JUMPDEST PUSH1 0x0 DUP2 SWAP1 POP SWAP2 SWAP1 POP JUMP JUMPDEST PUSH1 0x0 DUP2 SWAP1 POP SWAP2 SWAP1 POP JUMP JUMPDEST PUSH1 0x0 PUSH2 0xB59 PUSH2 0xB54 PUSH2 0xB4F DUP5 PUSH2 0xB2A JUMP JUMPDEST PUSH2 0xB34 JUMP JUMPDEST PUSH2 0xB2A JUMP JUMPDEST SWAP1 POP SWAP2 SWAP1 POP JUMP JUMPDEST PUSH1 0x0 DUP2 SWAP1 POP SWAP2 SWAP1 POP JUMP JUMPDEST PUSH2 0xB73 DUP4 PUSH2 0xB3E JUMP JUMPDEST PUSH2 0xB87 PUSH2 0xB7F DUP3 PUSH2 0xB60 JUMP JUMPDEST DUP5 DUP5 SLOAD PUSH2 0xAD8 JUMP JUMPDEST DUP3 SSTORE POP POP POP POP JUMP JUMPDEST PUSH1 0x0 SWAP1 JUMP JUMPDEST PUSH2 0xB9C PUSH2 0xB8F JUMP JUMPDEST PUSH2 0xBA7 DUP2 DUP5 DUP5 PUSH2 0xB6A JUMP JUMPDEST POP POP POP JUMP JUMPDEST JUMPDEST DUP2 DUP2 LT ISZERO PUSH2 0xBCB JUMPI PUSH2 0xBC0 PUSH1 0x0 DUP3 PUSH2 0xB94 JUMP JUMPDEST PUSH1 0x1 DUP2 ADD SWAP1 POP PUSH2 0xBAD JUMP JUMPDEST POP POP JUMP JUMPDEST PUSH1 0x1F DUP3 GT ISZERO PUSH2 0xC10 JUMPI PUSH2 0xBE1 DUP2 PUSH2 0xAA6 JUMP JUMPDEST PUSH2 0xBEA DUP5 PUSH2 0xABB JUMP JUMPDEST DUP2 ADD PUSH1 0x20 DUP6 LT ISZERO PUSH2 0xBF9 JUMPI DUP2 SWAP1 POP JUMPDEST PUSH2 0xC0D PUSH2 0xC05 DUP6 PUSH2 0xABB JUMP JUMPDEST DUP4 ADD DUP3 PUSH2 0xBAC JUMP JUMPDEST POP POP JUMPDEST POP POP POP JUMP JUMPDEST PUSH1 0x0 DUP3 DUP3 SHR SWAP1 POP SWAP3 SWAP2 POP POP JUMP JUMPDEST PUSH1 0x0 PUSH2 0xC33 PUSH1 0x0 NOT DUP5 PUSH1 0x8 MUL PUSH2 0xC15 JUMP JUMPDEST NOT DUP1 DUP4 AND SWAP2 POP POP SWAP3 SWAP2 POP POP JUMP JUMPDEST PUSH1 0x0 PUSH2 0xC4C DUP4 DUP4 PUSH2 0xC22 JUMP JUMPDEST SWAP2 POP DUP3 PUSH1 0x2 MUL DUP3 OR SWAP1 POP SWAP3 SWAP2 POP POP JUMP JUMPDEST PUSH2 0xC65 DUP3 PUSH2 0x8D1 JUMP JUMPDEST PUSH8 0xFFFFFFFFFFFFFFFF DUP2 GT ISZERO PUSH2 0xC7E JUMPI PUSH2 0xC7D PUSH2 0x65E JUMP JUMPDEST JUMPDEST PUSH2 0xC88 DUP3 SLOAD PUSH2 0xA75 JUMP JUMPDEST PUSH2 0xC93 DUP3 DUP3 DUP6 PUSH2 0xBCF JUMP JUMPDEST PUSH1 0x0 PUSH1 0x20 SWAP1 POP PUSH1 0x1F DUP4 GT PUSH1 0x1 DUP2 EQ PUSH2 0xCC6 JUMPI PUSH1 0x0 DUP5 ISZERO PUSH2 0xCB4 JUMPI DUP3 DUP8 ADD MLOAD SWAP1 POP JUMPDEST PUSH2 0xCBE DUP6 DUP3 PUSH2 0xC40 JUMP JUMPDEST DUP7 SSTORE POP PUSH2 0xD26 JUMP JUMPDEST PUSH1 0x1F NOT DUP5 AND PUSH2 0xCD4 DUP7 PUSH2 0xAA6 JUMP JUMPDEST PUSH1 0x0 JUMPDEST DUP3 DUP2 LT ISZERO PUSH2 0xCFC JUMPI DUP5 DUP10 ADD MLOAD DUP3 SSTORE PUSH1 0x1 DUP3 ADD SWAP2 POP PUSH1 0x20 DUP6 ADD SWAP5 POP PUSH1 0x20 DUP2 ADD SWAP1 POP PUSH2 0xCD7 JUMP JUMPDEST DUP7 DUP4 LT ISZERO PUSH2 0xD19 JUMPI DUP5 DUP10 ADD MLOAD PUSH2 0xD15 PUSH1 0x1F DUP10 AND DUP3 PUSH2 0xC22 JUMP JUMPDEST DUP4 SSTORE POP JUMPDEST PUSH1 0x1 PUSH1 0x2 DUP9 MUL ADD DUP9 SSTORE POP POP POP JUMPDEST POP POP POP POP POP POP JUMP INVALID LOG2 PUSH5 0x6970667358 0x22 SLT KECCAK256 PUSH6 0x5FF794DF3C54 PUSH14 0x6EED63C164AB214889CF1705B541 0xEC ISZERO 0xF7 0x4C DUP6 0x25 SIGNEXTEND SLT CALL RETURNDATACOPY PUSH5 0x736F6C6343 STOP ADDMOD BYTE STOP CALLER "
				},
				"gasEstimates": {
					"creation": {
						"codeDepositCost": "685600",
						"executionCost": "721",
						"totalCost": "686321"
					},
					"external": {
						"authorizeToMedicalFolder(address,string,address)": "infinite",
						"isDoctorAuthorized(address,string,address)": "infinite",
						"revokeFromMedicalFolder(address,string,address)": "infinite"
					}
				},
				"methodIdentifiers": {
					"authorizeToMedicalFolder(address,string,address)": "93e4ee8e",
					"isDoctorAuthorized(address,string,address)": "57834a1d",
					"revokeFromMedicalFolder(address,string,address)": "4513b2a7"
				}
			},
			"storageLayout": {
				"storage": [
					{
						"astId": 15,
						"contract": "contracts/ContractPatient.sol:Patient",
						"label": "records",
						"offset": 0,
						"slot": "0",
						"type": "t_mapping(t_address,t_mapping(t_string_memory_ptr,t_struct(MedicalRecord)8_storage))"
					}
				],
				"types": {
					"t_address": {
						"encoding": "inplace",
						"label": "address",
						"numberOfBytes": "20"
					},
					"t_bool": {
						"encoding": "inplace",
						"label": "bool",
						"numberOfBytes": "1"
					},
					"t_mapping(t_address,t_bool)": {
						"encoding": "mapping",
						"key": "t_address",
						"label": "mapping(address => bool)",
						"numberOfBytes": "32",
						"value": "t_bool"
					},
					"t_mapping(t_address,t_mapping(t_string_memory_ptr,t_struct(MedicalRecord)8_storage))": {
						"encoding": "mapping",
						"key": "t_address",
						"label": "mapping(address => mapping(string => struct Patient.MedicalRecord))",
						"numberOfBytes": "32",
						"value": "t_mapping(t_string_memory_ptr,t_struct(MedicalRecord)8_storage)"
					},
					"t_mapping(t_string_memory_ptr,t_struct(MedicalRecord)8_storage)": {
						"encoding": "mapping",
						"key": "t_string_memory_ptr",
						"label": "mapping(string => struct Patient.MedicalRecord)",
						"numberOfBytes": "32",
						"value": "t_struct(MedicalRecord)8_storage"
					},
					"t_string_memory_ptr": {
						"encoding": "bytes",
						"label": "string",
						"numberOfBytes": "32"
					},
					"t_string_storage": {
						"encoding": "bytes",
						"label": "string",
						"numberOfBytes": "32"
					},
					"t_struct(MedicalRecord)8_storage": {
						"encoding": "inplace",
						"label": "struct Patient.MedicalRecord",
						"members": [
							{
								"astId": 3,
								"contract": "contracts/ContractPatient.sol:Patient",
								"label": "recordHash",
								"offset": 0,
								"slot": "0",
								"type": "t_string_storage"
							},
							{
								"astId": 7,
								"contract": "contracts/ContractPatient.sol:Patient",
								"label": "authorizedDoctors",
								"offset": 0,
								"slot": "1",
								"type": "t_mapping(t_address,t_bool)"
							}
						],
						"numberOfBytes": "64"
					}
				}
			},
			"userdoc": {
				"kind": "user",
				"methods": {},
				"version": 1
			}
		}
	}
}